:100000000C94C50A0C94B7640C948C640C946164D1
:100010000C9436640C940B640C94E0630C94B563FC
:100020000C948A630C94F60A0C94F60A0C94F60A63
:100030000C94F60A0C94F60A0C94F60A0C94F60A40
:100040000C94F60A0C946C650C94F60A0C94F60A5F
:100050000C949A650C94F60A0C94F60A0C9440637E
:100060000C94F60A0C940A630C94E0620C94F60A61
:100070000C94F60A0C94F60A0C94F60A0C94F60A00
:100080000C943E650C94F60A0C94F60A0C94F60A4D
:100090000C94F60A0C94F60A0C94F60A0C94F60AE0
:1000A0000C94F60A0C94F60A0C9410650C94F60A5B
:1000B0000C94F60A0C94F60A0C94F60A0C94E2647A
:1000C0000C94F60A0C94F60A0C94F60A0C94F60AB0
:1000D0000C94F60A0C94F60A0C94F60A0C94F60AA0
:1000E0000C94F60A036EDB363D9A9999993DABAABA
:1000F000AA2A3E000000803F084AD73B3BCE016E53
:1001000084BCBFFDC12F3D6C74319ABD56833DDA6E
:100110003D00C77F11BED9E4BB4C3E916BAAAABE7D
:10012000000000803F072C7AA5BA6CC590DA3B939B
:1001300065FC8BBC53F810FD3C5692834DBD879DEA
:100140003AB63DCBC9BF5BBE73DA0FC93F05A84CB9
:10015000CDB2D44EB93836A9020C50B99186880870
:100160003CA6AAAA2ABE000000803F0664EC1B3C05
:1001700004BC163E3BE5B93CC93C37C29E5A3D66BD
:100180000498083EEA69AAAA3E000000803F0C9449
:10019000480F0C945C0F0C94C40E0C94A0100C949B
:1001A00082100C9472100C94450F0C94ED650C9415
:1001B000580F0C948C470C9437470C94B0470C9410
:1001C000EE0D0C9466480C941D1C0C94B80D0C9408
:1001D000D9450C947D450C943C480C94A5460C9450
:1001E00068100C94780F0C94520F0C94740F0C94AC
:1001F0006A0F0C947A100C946B460C94A31C0C940C
:10020000AF100C9474480C9449470C948F450C948F
:100210002E470C94570E0C9454100C9440470C9499
:1002200017110C94B1450C94410F0C9413470C9486
:100230004D460C941F0E0C941A480C94431C0C94BD
:10024000B9470C944F100C9495470C94AA450C9404
:1002500058480C94BA450C94CB470C9447100C9416
:100260001C470C9425470C9485460C94CD100C9497
:10027000C3100C946E0F0C94B9100C948C100C9449
:100280003D0F0C94390F0C94F1450C945D1C0C94AB
:1002900074450C949D1C0C94FD0D0C9477460C94A5
:1002A000660F0C9451450C94971C0C94911C0C9463
:1002B000110E0C9496100C94E1100C9498450C942B
:1002C000D06D0C9459460C94D7100C943C1C0C9493
:1002D00086450C94600F0C94330F0C9452470C9489
:1002E000A1450C94CD460C94E5450C94C2470C9462
:1002F0002B460C949E470C94A91C0C944E0F0C9406
:10030000AF1C0C94D2620C944A480C94A7470C94EE
:10031000771C0C94D9470C942E480C945E100C94C6
:10032000730F4E414E494E495459494E46CDCCCC9F
:100330003D0AD7233C17B7D13877CC2B329595E6B9
:10034000241FB14F0A000020410000C84200401C99
:100350004620BCBE4CCA1B0E5AAEC59D7400407AE6
:1003600010F35A00A0724E18090010A5D4E800003E
:10037000E87648170000E40B54020000CA9A3B00DC
:100380000000E1F505000080969800000040420F53
:10039000000000A08601000000102700000000E817
:1003A00003000000006400000000000A00000000DC
:1003B000000100000000002C76D888DC674F08237D
:1003C000DFC1DFAE59E1B1B796E5E3E453C63AE6E3
:1003D00051997696E8E6C28426EB898C9B62ED40C3
:1003E0007C6FFCEFBC9C9F40F2BAA56FA5F4900512
:1003F0005A2AF75C936B6CF9676DC11BFCE0E40D46
:1004000047FEF520E6B500D0ED902E030094357739
:10041000050080841E080000204E0A000000C80C61
:10042000333333330F986E12831141EF8D211489CA
:100430003BE65516CFFEE6DB18D1844B381BF77C24
:100440001D901DA4BBE424203284725E228100C969
:10045000F124ECA1E53D273C49646C652C4D506FBF
:10046000733A302C302C302C57506F733A302E307A
:1004700030302C302E3030302C302E3030303E00AA
:10048000446972656374696F6E2032202D20466165
:10049000696C00446972656374696F6E2032202D47
:1004A0002050617373003C49646C652C4D506F7330
:1004B0003A302C302C302C57506F733A302E30306D
:1004C000302C302E3030302C302E3030303E004446
:1004D0006972656374696F6E2031202D20466169F1
:1004E0006C00446972656374696F6E2031202D2041
:1004F00050617373003C49646C652C4D506F733AC6
:10050000302C302C302C57506F733A302E30303026
:100510002C302E3030302C302E3030303E00206DDC
:100520006F746F723A0054657374696E67200020AF
:100530006D6D0020696E002B004D657373616765FA
:100540003A20506C656173652061646A757374202C
:100550005A2D4178697320746F206120646570742E
:1005600068206F662000496E76616C69642067635D
:100570006F64652049443A00454550524F4D207202
:10058000656164206661696C2E205573696E672011
:1005900064656661756C742073657474696E6773E5
:1005A0002E00506C656173652073657420243132B0
:1005B0002C202431332C202431392C20616E6420EE
:1005C00024323020746F206C6F6164206F6C642063
:1005D000706F736974696F6E20646174612E004975
:1005E0006E76616C69642073746174656D656E7498
:1005F00000426164206E756D62657220666F726D77
:100600006174006572726F723A20006F6B00506CFB
:100610006561736520736574202431322C20243188
:10062000332C202431392C20616E64202432302078
:10063000746F206C6F616420706F736974696F6E82
:100640002E004F6C6420706F736974696F6E206444
:100650006174612064657465637465642E0054750B
:10066000726E696E67205370696E646C65204F66A8
:1006700066005475726E696E67205370696E646CA3
:1006800065204F6E005475726E696E6720537069F5
:100690006E646C65204F6666005475726E696E6795
:1006A000205370696E646C65204F6E005475726ED5
:1006B000696E67205370696E646C65204F666600D2
:1006C0005475726E696E67205370696E646C652034
:1006D0004F6E006D6D004D6561737572696E6720B8
:1006E0006F757420726967687420636861696E0051
:1006F0006D6D004D6561737572696E67206F7574FD
:10070000206C65667420636861696E004D61736C6E
:100710006F77205061757365640028456E64206FA3
:10072000662042756666657229005C74005C720022
:100730005C6E0042756666657220436F6E74656E0E
:1007400074733A200042756666657220456E643A9D
:10075000200042756666657220426567696E3A20C0
:1007600000427566666572204E756D626572206F17
:1007700066204C696E65733A200042756666657244
:1007800020557365643A2000427566666572206F75
:10079000766572666C6F77210072656164790047D7
:1007A00072626C2076312E303000204465746563AF
:1007B0007465640020544C453532303620000A50B0
:1007C00043422076312E000A0A736F6674207265E8
:1007D00073657420636F6D6D616E6465640A0A00F1
:1007E00054686520426F6172642076657273696F28
:1007F0006E206E756D6265722066726F6D20746812
:100800006973204D6F746F7220436F6E74726F6CDA
:1008100020626F61726420697320696E76616C6911
:10082000642E202D2D2D28212121292D2D2D2051E3
:1008300075697420616E64206D616B6520737572DB
:10084000652069742069732070726F7065726C79AD
:100850002073656174656420616E642074686174DE
:100860002074686520636F727265637420766572A8
:1008700073696F6E206F66206669726D776172654D
:10088000206973206C6F616465642E2E2E200054E5
:10089000686520736C6564206973206E6F74206BCB
:1008A000656570696E672075702077697468206966
:1008B000747320657870656374656420706F736904
:1008C00074696F6E20616E64206861732068616C6A
:1008D0007465642E20436C69636B207468652027FF
:1008E00053746F702720627574746F6E20746F205C
:1008F000636C6561722074686520616C61726D2E35
:10090000204D6F726520696E666F726D6174696FDC
:100910006E2061743A2068747470733A2F2F67697F
:10092000746875622E636F6D2F4D61736C6F7743C2
:100930004E432F4669726D776172652F77696B69D7
:100940002F4B656570696E672D5570202000414CF6
:1009500041524D3A20005D005B50453A002C575003
:100960006F733A302E3030302C302E3030302C3007
:100970002E3030303E002C002C0049646C652C4D2C
:10098000506F733A0050617573652C4D506F733A18
:100990000053746F702C4D506F733A003C002C0064
:1009A0002C002C002C007265616479004772626C27
:1009B0002076312E30300046414B455F534552562C
:1009C0004F206F66660046414B455F534552564F78
:1009D000206F6E0020446574656374656400205464
:1009E0004236363433200020544C453932303120E1
:1009F0000020544C4535323036200050434220769A
:100A0000312E0000002100240027002A002D003094
:100A100000330001010000040107010A0100002267
:100A200000250028002B002E0031003400020100B8
:100A300000050108010B0100000A0B02090C0D0E54
:100A4000080703040100000000000000000000008F
:100A50000000000000000000000000000000000096
:100A60000000001211100000000000000000000053
:100A700000000000000000000000000000546F6F44
:100A80006C206368616E676520746F20746F6F6C93
:100A9000200020746F6F2073686F7274202D20699E
:100AA000676E6F7265642E00436F6D6D616E6420BA
:100AB0000020756E737570706F7274656420616E5E
:100AC000642069676E6F7265642E00436F6D6D619F
:100AD0006E64204D00546F6F6C204368616E6765D3
:100AE0003A20506C6561736520696E73657274207D
:100AF000746F6F6C20004669726D77617265205665
:100B0000657273696F6E20002000526573746F7296
:100B1000696E672064656661756C7473004D6573FA
:100B2000736167653A20002028706F736974696F7C
:100B30006E206572726F7220616C61726D206C69DB
:100B40006D69742C206D6D29002028636861696EC1
:100B500020746F6C6572616E63652C2072696768C2
:100B60007420636861696E2C206D6D290D0A243430
:100B7000323D002028636861696E20746F6C657275
:100B8000616E63652C206C65667420636861696EB4
:100B90002C206D6D290D0A2434313D00202850573A
:100BA0004D206672657175656E63792076616C752E
:100BB0006520313D33392C303030487A2C20323D9D
:100BC000342C313030487A2C20333D343930487A57
:100BD000290D0A2434303D002028636861696E20A5
:100BE0006F766572207370726F636B6574290D0A7E
:100BF0002433393D002028636861696E2073616782
:100C000020636F7272656374696F6E2076616C75B4
:100C100065290D0A2433383D0020287A206178693F
:100C2000732056656C6F636974792070726F706F92
:100C30007274696F6E616C20776569676874290DDD
:100C40000A2433373D0020287A2061786973204BCD
:100C5000642056656C6F63697479290D0A243336F4
:100C60003D0020287A2061786973204B6920566501
:100C70006C6F63697479290D0A2433353D0020288F
:100C80007A2061786973204B702056656C6F6369B8
:100C90007479290D0A2433343D0020287A206178A4
:100CA000697320506F732070726F706F7274696F08
:100CB0006E616C20776569676874290D0A24333387
:100CC0003D0020287A2061786973204B6420506FA2
:100CD00073290D0A2433323D0020287A2061786977
:100CE00073204B6920506F73290D0A2433313D0066
:100CF00020287A2061786973204B7020506F732907
:100D00000D0A2433303D0020286D61696E20566540
:100D10006C6F636974792070726F706F7274696F31
:100D20006E616C20776569676874290D0A24323911
:100D30003D0020286D61696E204B642056656C6F04
:100D400063697479290D0A2432383D0020286D61C9
:100D5000696E204B692056656C6F63697479290D43
:100D60000A2432373D0020286D61696E204B7020C7
:100D700056656C6F63697479290D0A2432363D001B
:100D800020286D61696E20506F732070726F706FD4
:100D90007274696F6E616C20776569676874290D7C
:100DA0000A2432353D0020286D61696E204B642095
:100DB000506F73290D0A2432343D0020286D61697B
:100DC0006E204B6920506F73290D0A2432333D0089
:100DD00020286D61696E204B7020506F73290D0AB9
:100DE0002432323D0020287A2061786973207374A0
:100DF00065707320706572207265766F6C757469AA
:100E00006F6E290D0A2432313D0020287A20617846
:100E100069732064697374616E6365202F20726F3B
:100E2000746174696F6E290D0A2432303D002028E8
:100E30006D6178207A20617869732052504D290DB8
:100E40000A2431393D0020286175746F2073706960
:100E50006E646C6520656E61626C6520313D736502
:100E600072766F2C20323D72656C61795F682C2040
:100E7000333D72656C61795F6C290D0A2431383D10
:100E80000020284175746F205A20417869732C2006
:100E900031203D20596573290D0A2431373D00204A
:100EA000286D617820666565642C206D6D2F6D69F5
:100EB0006E290D0A2431363D00202864697374615F
:100EC0006E6365202F20726F746174696F6E2C20C1
:100ED0006D6D290D0A2431353D0020286D61696E44
:100EE00020737465707320706572207265766F6C04
:100EF0007574696F6E290D0A2431333D0020286313
:100F0000616C6962726174696F6E20636861696E99
:100F1000206C656E6774682C206D6D290D0A243174
:100F2000323D00202866756C6C206C656E677468B5
:100F3000206F6620636861696E2C206D6D290D0A33
:100F40002431313D002028617869732069646C6523
:100F5000206265666F7265206465746163682C2029
:100F60006D73290D0A2431303D002028726F7461A1
:100F700074696F6E207261646975732C206D6D29C0
:100F80000D0A24393D0020284B696E656D61746936
:100F90006373205479706520313D517561647269C5
:100FA0006C61746572616C2C20323D547269616EA3
:100FB00067756C6172290D0A24383D002028736C16
:100FC00065642063672C206D6D290D0A24373D0070
:100FD0002028736C6564206865696768742C206DCF
:100FE0006D290D0A24363D002028736C6564207736
:100FF000696474682C206D6D290D0A24353D00202C
:10100000286D6F746F72206865696768742C206D35
:101010006D290D0A24343D0020286D6F746F7220F5
:1010200064697374616E63652C206D6D290D0A24EB
:10103000333D0020286D616368696E6520686569CD
:101040006768742C206D6D290D0A24323D0020281C
:101050006D616368696E652077696474682C206DC2
:101060006D290D0A24313D0024303D0021202866E1
:1010700065656420686F6C6429007E20286379634D
:101080006C65207374617274290024783D76616CFC
:101090007565202873617665204D61736C6F7720CC
:1010A00073657474696E6729002424202876696545
:1010B00077204D61736C6F772073657474696E6708
:1010C00073290020697320696E76616C69642E2033
:1010D0004F6E6C79204733382E32207265636F670C
:1010E0006E697A65642E00473338006572726F72DC
:1010F0003A2070726F626520646964206E6F74209C
:10110000636F6E6E6563740A70726F6772616D20D3
:1011100073746F707065640A7A2061786973206EE9
:101120006F74207365740A007A2061786973207A7D
:1011300065726F656400206D6D20706572206D6949
:101140006E2E0066656564726174652000206D6DA9
:101150002E006D6178206465707468200070726F75
:1011600062696E6720666F72207A206178697320E9
:101170007A65726F004733382E322067636F64657B
:10118000206F6E6C792076616C6964207769746871
:10119000207A2D6178697320617474616368656475
:1011A00000206D732E00207365636F6E647300649E
:1011B00077656C6C2074696D65200020756E7375A1
:1011C00070706F7274656420616E642069676E6F01
:1011D0007265642E00436F6D6D616E642047002D53
:1011E0002D5049442056656C6F63697479205465AD
:1011F00073742053746F702D2D0A00736574706FB3
:10120000696E742C696E7075742C6F75747075745A
:10121000002D2D5049442056656C6F636974792008
:10122000546573742053746172742D2D002D2D50EC
:10123000494420506F736974696F6E2054657374EC
:101240002053746F702D2D0A00736574706F696E72
:10125000742C696E7075742C6F75747075742C7243
:10126000706D696E7075742C766F6C746167650053
:101270002D2D50494420506F736974696F6E20544E
:101280006573742053746172742D2D002D2D566F6B
:101290006C7461676520546573742053746F702D8E
:1012A0002D0A000A002C002D2D566F6C74616765A5
:1012B00020546573742053746172742D2D0046415F
:1012C0004B455F534552564F206F66660046414B73
:1012D000455F534552564F206F6E004E414E0020E1
:1012E0004C6F776572204C696D69743A20004E41ED
:1012F0004E005A2041786973205570706572204CF9
:10130000696D69743A20005A2041786973204C69EC
:101310006D69747320436C65617265640045727217
:101320006F722073657474696E67206C696D69747F
:1013300000202020004C6F776572206C696D697405
:101340002073657420746F3A20004572726F7220AA
:1013500073657474696E67206C696D697400202010
:1013600020005570706572206C696D69742073651A
:101370007420746F3A20005D005B4D656173757277
:10138000653A20004D6573736167653A205468655E
:10139000206D616368696E6520636861696E7320A2
:1013A00068617665206265656E206D616E75616C41
:1013B0006C792072652D63616C6962726174656419
:1013C0002E006D6D0052696768743A20006D6D00E3
:1013D0004C6566743A20006D6D0052696768743A16
:1013E00020006D6D004C6566743A2000536574747E
:1013F000696E6720436861696E204C656E6774682A
:101400007320546F3A2000546573747320636F6DBA
:10141000706C6574652E004D6F746F722043616C43
:101420006962726174696F6E204E6F74204E6565DB
:1014300064656400202E20506C65617365207365BF
:10144000742074686520636861696E7320746F200E
:1014500061206B6E6F776E206C656E6774682028F4
:10146000416374696F6E73202D3E20536574204371
:101470006861696E204C656E6774687329004D65FC
:1014800073736167653A20556E61626C6520746F95
:101490002066696E642076616C6964206D616368A2
:1014A000696E6520706F736974696F6E20666F7204
:1014B00020636861696E206C656E677468732000D4
:1014C0005B466F72776172642043616C63756C6117
:1014D00074696E6720506F736974696F6E5D000187
:1014E0000210202008081020401020408002010235
:1014F00001080402010102040810204080804020FD
:101500001008040201800402018040201008040237
:1015100001080402010102040810204080010204B5
:101520000810204080000020002300260029002C05
:10153000002F00320000010000030106010901052F
:10154000050505070508080808020202020A0A083C
:101550000804040404010101010101010103030362
:101560000303030303040707070C0C0C0C0C0C0CFF
:101570000C0202020206060606060606060B0B0B06
:101580000B0B0B0B0B00ED65D06D11241FBECFEFC5
:10159000D1E2DEBFCDBF00E00CBF13E0A0E0B2E0BF
:1015A000EAEAF4EF00E00BBF02C007900D92AC3303
:1015B000B107D9F72AE0ACE3B3E001C01D92A03037
:1015C000B207E1F71AE0C4ECDAE000E006C02197C8
:1015D0000109802FFE010E94C477C33CD10780E03F
:1015E0000807A9F70E94C3660C94437A0C94000084
:1015F000CF93DF938091760990917709C091780914
:10160000D091790930E020E0E0E8F0E0C817D90790
:1016100071F0DC01AA58B64F14964C914A3011F47F
:101620002F5F3F4F0196BF010E94B077EFCFC901F6
:10163000DF91CF9108952F923F924F925F926F92D8
:101640007F928F929F92AF92BF92CF92DF92EF9252
:10165000FF920F931F93CF93DF93CDB7DEB76897B9
:101660000FB6F894DEBF0FBECDBF988F8F8B1B01D6
:101670005E8B4D8BECEDF4E080819181A281B38192
:1016800089839A83AB83BC83D8018D919D910D9002
:10169000BC91A02D8D839E83AF83B887D6018D9199
:1016A0009D910D90BC91A02D89879A87AB87BC87AF
:1016B000D9018D919D910D90BC91A02D8D879E8714
:1016C000AF87B88BD7018D919D910D90BC91A02DC6
:1016D000898B9A8BAB8BBC8B84889588A688B788BE
:1016E00040885188628873882D853E854F8558894A
:1016F00069817A818B819C810E94E4729B01AC019B
:10170000C501B4010E941E74EF89F88D20813181DA
:10171000428153810E941F746B017C012D813E81A7
:101720004F81588569817A818B819C810E94E47206
:101730009B01AC01C301B2010E941E749B01AC016C
:10174000C701B6010E941D756B017C0129893A8988
:101750004B895C8969817A818B819C810E94E472CA
:101760009B01AC01C501B4010E941E74D1012D91F1
:101770003D914D915C910E941F744B015C01298544
:101780003A854B855C8569817A818B819C810E9439
:10179000E472A30192010E941F749B01AC0160914D
:1017A000A9037091AA038091AB039091AC030E94AE
:1017B0001E749B01AC01C501B4010E941D754B0153
:1017C0005C01A70196016D817E818F8198850E94C1
:1017D000E4722B013C01A501940169857A858B8512
:1017E0009C850E94E4729B01AC01C301B2010E947E
:1017F0001E742B013C012D853E854F8558896989D2
:101800007A898B899C890E941E749B01AC01C3015B
:10181000B2010E941F742B013C01A5019401C70174
:10182000B6010E941F749B01AC0169817A818B8192
:101830009C810E941D759B01AC01C301B2010E94F5
:10184000E4726B017C01ED89FE8920813181428146
:1018500053816091B9037091BA038091BB03909159
:10186000BC030E94E4729B01AC01C701B6010E9457
:101870001F7468960FB6F894DEBF0FBECDBFDF9120
:10188000CF911F910F91FF90EF90DF90CF90BF907D
:10189000AF909F908F907F906F905F904F903F9010
:1018A0002F9008958F929F92AF92BF92FF920F93C5
:1018B0001F93CF93DF93F09067092FE22F1508F461
:1018C0004CC02091690908E512E0021B110927FDAF
:1018D0001395000F111F000F111F20916809C8E810
:1018E000D0E0C21BD10927FDD395CC0FDD1FCC0F53
:1018F000DD1F4E010D2E000CAA08BB089801012E19
:10190000000C440B550B281939094A095B09DC0105
:101910000E94E57324EB30E040E050E00E94BB738E
:10192000820E931EA41EB51E8C169D062CF0E80197
:10193000801691060CF4E4012297CC0FDD1F2FB71F
:10194000F8948F2D90E0FC01EE0FFF1FE80FF91FB8
:10195000EA52F74FD283C1832FBFDF91CF911F91FE
:101960000F91FF90BF90AF909F908F900895FC01D2
:10197000248135816217730748F480819181009733
:1019800029F0860F971FFC018081089580E008955B
:101990002F923F924F925F926F927F928F929F927F
:1019A000AF92BF92CF92DF92EF92FF920F931F936D
:1019B000CF93DF9300D01F92CDB7DEB79C838B838C
:1019C0001B01EB81FC811081E12EF12CB70180E736
:1019D00099E00E94B70C209174093091750980320A
:1019E00041F4E216F30628F41F5FEB81FC811083BB
:1019F000E8CF812C412C512C80E8682E8FE3782E83
:101A0000C12CD12C7601912C1982EB81FC81F081C3
:101A1000FA830F2F10E0A0907409B0907509B801F7
:101A200080E799E00E94B70CE82F0A151B0580F5A6
:101A30008D3209F476C08E3209F476C080ED8E0FB7
:101A40008A3008F58394AAE0B0E0A70196010E94CD
:101A5000DA73CE2EEE0FDD08EE08FF08C60ED71E95
:101A6000E81EF91E80E3C81AD108E108F1089920A0
:101A700051F02DEC3CEC4CEC5DE3C301B2010E9453
:101A8000E4722B013C018A818F5FEB81FC818083B2
:101A9000EB81FC81008110E0B80180E799E00E94B1
:101AA000B70C80330CF443C08A330CF445C060E0BB
:101AB00070E0CB018820F1F0F981FF2341F0F09430
:101AC000E094D094C094C11CD11CE11CF11CC7014E
:101AD000B6010E948572992021F0A30192010E9413
:101AE000E472F101608371838283938360E070E02C
:101AF00080E89FE30F900F900F900F90DF91CF91B0
:101B00001F910F91FF90EF90DF90CF90BF90AF901B
:101B10009F908F907F906F905F904F903F902F900D
:101B20000895E1E0E983AFCF99249394ACCF8E324E
:101B300009F0BDCF9110BBCF8091740990917509C8
:101B40000817190708F461CFB2CFFC012481358151
:101B50006217730720F480819181009729F4109215
:101B60006D038DE693E00895860F971F08950895FD
:101B7000AF92BF92CF92DF92EF92FF920F931F939B
:101B8000CF93DF936C017B018B01040F151FEB01D9
:101B90005E01AE18BF08C017D10759F06991D60190
:101BA000ED91FC910190F081E02DC6011995892BF2
:101BB00079F7C501DF91CF911F910F91FF90EF90C1
:101BC000DF90CF90BF90AF900895FC014481558184
:101BD000608171818FE394E00C94B80DFC01538D0A
:101BE000448D252F30E0842F90E0821B930B5417F7
:101BF00010F0CF96089501970895FC01918D828D84
:101C0000981761F0A28DAE0FBF2FB11D5D968C911C
:101C1000928D9F5F9F73928F90E008958FEF9FEF5B
:101C20000895FC01918D828D981731F0828DE80F17
:101C3000F11D858D90E008958FEF9FEF0895FC01D1
:101C4000918D228D892F90E0805C9F4F821B91099E
:101C50008F73992708958FE394E00E941F0E21E06F
:101C6000892B09F420E0822F0895FC01A48DA80F90
:101C7000B92FB11DA35ABF4F2C91848D90E00196CE
:101C80008F739927848FA689B7892C93A089B189EE
:101C90008C91837080648C93938D848D981306C08F
:101CA0000288F389E02D80818F7D80830895EF92F3
:101CB000FF920F931F93CF93DF93EC0181E0888F06
:101CC0009B8D8C8D98131AC0E889F989808185FFD6
:101CD00015C09FB7F894EE89FF896083E889F98978
:101CE00080818370806480839FBF81E090E0DF917A
:101CF000CF911F910F91FF90EF900895F62E0B8DCD
:101D000010E00F5F1F4F0F731127E02E8C8D8E1187
:101D10000CC00FB607FCFACFE889F989808185FFEE
:101D2000F5CFCE010E94350EF1CFEB8DEC0FFD2FDC
:101D3000F11DE35AFF4FF0829FB7F8940B8FEA89A9
:101D4000FB8980818062CFCF0F931F93CF93DF9366
:101D50008C01D0E0C0E0F801EC0FFD1F6491662318
:101D600041F08FE394E00E94570E892B11F02196E9
:101D7000F2CFCE01DF91CF911F910F910895682F7F
:101D80008FE394E00C94570ECF93DF93EC01888D92
:101D90008823B9F0AA89BB89E889F9898C9185FDE6
:101DA00003C0808186FD0DC00FB607FCF7CF8C9174
:101DB00085FFF2CF808185FFEDCFCE010E94350EE9
:101DC000E9CFDF91CF91089580E090E0892B29F051
:101DD0000E942B0E81110E94000080E090E0892B70
:101DE00049F080E090E0892B29F00E9400008111E9
:101DF0000E94000080E090E0892B49F080E090E0B4
:101E0000892B29F00E94000081110E94000080E0CF
:101E100090E0892B49F080E090E0892B29F00E9426
:101E2000000081110C94000008958150823108F067
:101E30005AC0E82FF0E08827EF5DF04F8F4F0C94E9
:101E4000C477410F450F330F390F3D0F730F480F04
:101E50004E0F520F580F5C0F600F660F6A0F730F13
:101E60006E0F740F780F809180008F7780938000C1
:101E70000895809180008F7DF9CF80918000877FC9
:101E8000F5CF84B58F7784BD089584B58F7DFBCF62
:101E90008091B0008F778093B00008958091B0005A
:101EA0008F7DF9CF809190008F7780939000089577
:101EB000809190008F7DF9CF80919000877FF5CF42
:101EC0008091A0008F778093A00008958091A0005A
:101ED0008F7DF9CF8091A000877FF5CF8091200181
:101EE0008F77809320010895809120018F7DF9CF15
:101EF00080912001877FF5CFCF93DF93282F30E0AB
:101F0000F901E95CF54F8491F901E152FB4ED4915E
:101F1000F901E15CFA4EC491CC23A1F081110E9439
:101F2000150FEC2FF0E0EE0FFF1FEB5DFA4EA591C1
:101F3000B491EC91ED2381E090E009F480E0DF9131
:101F4000CF91089580E090E0FACF1F93CF93DF9375
:101F5000282F30E0F901E95CF54F8491F901E15255
:101F6000FB4ED491F901E15CFA4EC491CC23A9F067
:101F7000162F81110E94150FEC2FF0E0EE0FFF1FBE
:101F8000E35EF54FA591B4918FB7F894EC911111E0
:101F900008C0D095DE23DC938FBFDF91CF911F91D6
:101FA0000895DE2BF8CFCF93DF9390E0FC01E15250
:101FB000FB4E2491815C9A4EFC0184918823C9F0E8
:101FC00090E0880F991FFC01ED5FF54FA591B4914A
:101FD000FC01E35EF54FC591D49161110DC09FB72F
:101FE000F8948C91209582238C93888128232883D0
:101FF0009FBFDF91CF910895623051F49FB7F8945D
:102000003C91822F809583238C93E8812E2BEFCFF8
:102010008FB7F894EC912E2B2C938FBFEACF1F93A0
:10202000CF93DF93182FEB0161E00E94D30F20972D
:1020300039F460E0812FDF91CF911F910C94A50FAF
:10204000CF3FD10511F461E0F5CFE12FF0E0E95C7D
:10205000F54FE491E150E23108F0B3C0F0E0882799
:10206000EB5CFF4E8F4F0C94C47747104F10541009
:102070005E106810E11072107A1082108C109610A9
:10208000A010AF10B910E110C310CD10D71084B557
:10209000806884BDC7BDDF91CF911F91089584B53D
:1020A000806284BDC8BDF7CF809180008068809336
:1020B0008000D0938900C0938800EDCF809180008C
:1020C000806280938000D0938B00C0938A00E3CF1E
:1020D00080918000886080938000D0938D00C093B1
:1020E0008C00D9CF8091B00080688093B000C093FD
:1020F000B300D1CF8091B00080628093B000C093D4
:10210000B400C9CF80919000806880939000D093F4
:102110009900C0939800BFCF809190008062809317
:102120009000D0939B00C0939A00B5CF809190000F
:10213000886080939000D0939D00C0939C00ABCFAB
:102140008091A00080688093A0008091A0008F7B88
:102150008093A000D093A900C093A8009CCF809149
:10216000A00080628093A000D093AB00C093AA002F
:1021700092CF8091A00088608093A000D093AD00A2
:10218000C093AC0088CF80912001806880932001AB
:10219000D0932901C09328017ECF809120018062D5
:1021A00080932001D0932B01C0932A0174CF80919A
:1021B0002001886080932001D0932D01C0932C01D1
:1021C0006ACFC038D1050CF03ECF33CF3FB7F8947B
:1021D0008091690390916A03A0916B03B0916C03A5
:1021E00026B5A89B05C02F3F19F00196A11DB11D72
:1021F0003FBFBA2FA92F982F8827BC01CD01620FAE
:10220000711D811D911D42E0660F771F881F991F68
:102210004A95D1F708952FB7F894609165037091AE
:10222000660380916703909168032FBF0895089516
:10223000AF92BF92CF92DF92EF92FF920F931F93D4
:10224000CF93DF936B017A01EC01C05ADC4F2881F8
:102250003CE0389F8001399F100D1124A090660941
:10226000B12C27FF1FC0FB011182108288818F5F74
:10227000888388819801280F311D87FD3A95F601E2
:102280002A153B051CF488818C30C4F18081918132
:10229000049680349C4908F473C0F60180819181D2
:1022A000049670C088819801280F311D87FD3A95EA
:1022B0002A153B05DCF68881A801480F511D87FDD2
:1022C0005A95FA01EE0FFF1FE40FF51FEA52F74F80
:1022D000808186FFCBCF8881F801E80FF11D87FD53
:1022E000FA95CF01EE0FFF1FE80FF91FEA52F74FE3
:1022F000808160E08F730E94A50FB8CF80819181AB
:102300002881A801420F511D27FD5A959A01FA0113
:10231000EE0FFF1FE20FF31FEA52F74F21813281C8
:10232000820F931FF7019183808388819801280F82
:10233000311D87FD3A95F901EE0FFF1FE20FF31FE4
:10234000EA52F74F808186FF22C08881080F111D55
:1023500087FD1A95F801EE0FFF1FE00FF11FEA52FB
:10236000F74F808161E08F73DF91CF911F910F91C3
:10237000FF90EF90DF90CF90BF90AF900C94A50F9F
:1023800080E49CE9F701918380838FEF8883DF915C
:10239000CF911F910F91FF90EF90DF90CF90BF9062
:1023A000AF900895009709F440C097FF03C091953E
:1023B000819591098430910514F083E090E020919B
:1023C0003E0421113EC020913C04222389F1843037
:1023D000910514F083E090E08230910514F482E0DE
:1023E00090E02091B100287F2093B10020919100CE
:1023F000287F209391002091A100287F2093A100A5
:10240000282F833091051CF19091B1008F5F892BAB
:102410008093B10090919100922B909391008091C4
:10242000A100822B8093A100089581E090E0C7CFA6
:1024300020913D042223A9F2009731F084309105C8
:1024400084F283E090E0CDCF81E090E0CACF90911C
:10245000B100DDCFAF92BF92CF92DF92EF92FF92A9
:102460000F931F93CF93DF9362E086E10E94D30F17
:1024700062E087E10E94D30F62E088E10E94D30FFF
:1024800062E089E10E94D30F62E08AE10E94D30FEB
:1024900062E08BE10E94D30F8BE10E947C0FEC0184
:1024A0008AE10E947C0F5C0189E10E947C0F6C0133
:1024B00088E10E947C0F7C0187E10E947C0F8C01E7
:1024C00086E10E947C0F9E01220F331F2A0D3B1DC7
:1024D000220F331F2C0D3D1D220F331F2E0D3F1DCC
:1024E000220F331F200F311F220F331F820F931F24
:1024F00088309105C1F15CF48630910531F15CF5CD
:1025000084309105C1F088309105A4F512C0843360
:10251000910589F0C4F39C012D5331092330310515
:1025200090F78370992710923E0410923C04109209
:102530003D0401971FC08770992710923D0421E048
:1025400020933E0410923C04F4CF21E020933D04FC
:1025500010923E04F7CF10923D0410923E0421E009
:1025600020933C04E6CF21E020933D0410923E04EA
:1025700010923C04DF91CF911F910F91FF90EF904B
:10258000DF90CF90BF90AF9008958FE394E00C94CC
:10259000FD0D8FE394E00C941F0ECF93DF938FE338
:1025A00094E00E94570EEC018FE394E00E94C40E69
:1025B000CE01DF91CF91089590E080E008954F9291
:1025C0005F926F927F928F929F92AF92BF92CF92C3
:1025D000DF92EF92FF92CF93DF93CDB7DEB72E97C6
:1025E0000FB6F894DEBF0FBECDBF9E878D87DC018E
:1025F0009096ED91FC9180819181A281B381898334
:102600009A83AB83BC83AD85BE859496ED91FC9196
:10261000608171818281938129813A814B815C81C2
:102620000E941E744B015C01ED85FE8526A537A531
:1026300040A951A969817A818B819C810E941E7475
:102640006B017C01AD85BE8554962D913D914D91D8
:102650005C915797C501B4010E94E472ED85FE8537
:1026600022A533A544A555A50E941F742B013C014A
:10267000AD85BE859A964D925D926D927C929D97A6
:1026800011968C9111978823B1F016962D913D915A
:102690004D915C911997C701B6010E94E4729B01AC
:1026A000AC01C301B2010E941E74ED85FE8562A7D4
:1026B00073A784A795A7AD85BE859A968D919D91A8
:1026C0000D90BC91A02D8D839E83AF83B887ED853F
:1026D000FE8542AC53AC64AC75ACA3019201BC0165
:1026E000CD010E945F76AD85BE8518160CF075C0D1
:1026F0009A964D925D926D927C929D97AD85BE8526
:102700008C91882309F488C012962D913D914D91AA
:102710005C911597C501B4010E94E4724B015C0104
:10272000ED85FE85208D318D428D538DC701B6011B
:102730000E94E4729B01AC01AD85BE859A966D91B5
:102740007D918D919C919D970E941E74A50194018D
:102750000E941F746B017C019B01AC01C301B2019B
:102760000E947E7287FD10C0ED85FE8546A857A8A1
:1027700060AC71ACA3019201B601C7010E947E72E8
:1027800087FD02C026013701AD85BE859296ED9189
:10279000FC91408251826282738289819A81AB81ED
:1027A000BC81ED85FE8586A797A7A0ABB1AB81E084
:1027B0002E960FB6F894DEBF0FBECDBFDF91CF913E
:1027C000FF90EF90DF90CF90BF90AF909F908F9051
:1027D0007F906F905F904F900895D6968D919D91C8
:1027E0000D90BC91A02D89879A87AB87BC879C01EF
:1027F000AD016D817E818F8198850E947E7287FFF9
:102800007DCF89859A85AB85BC85ED85FE8582A7C0
:1028100093A7A4A7B5A772CF812C912C540180CF88
:102820008F929F92AF92BF92CF92DF92EF92FF92E0
:10283000CF93DF93EC01EAA1FBA1C080D180E280BD
:10284000F380CAA6DBA6ECA6FDA6E8A1F9A18081CB
:102850009181A281B3818EA79FA7A8ABB9AB8AACA7
:102860009BACACACBDACA5019401C701B6010E9404
:102870005F7618162CF48AA69BA6ACA6BDA60CC043
:102880008EA89FA8A8ACB9ACA5019401C701B60158
:102890000E947E7287FDEFCFDF91CF91FF90EF9086
:1028A000DF90CF90BF90AF909F908F9008958F92C0
:1028B0009F92AF92BF92CF92DF92EF92FF920F93CF
:1028C0001F93CF93DF93EC018A01FB01C080D1807D
:1028D000E280F380FA012081318142815381C70176
:1028E000B6010E945F7687FF5CC0CEAADFAAE8AE81
:1028F000F9AEF80160817181828193816AAF7BAF0B
:102900008CAF9DAF2EAD222309F44BC00AA11BA1B1
:10291000F80120813181428153810E947E7287FFBC
:102920001EC08AAD9BADACADBDADF8018083918377
:10293000A283B3838AA49BA4ACA4BDA4CAACDBAC21
:10294000ECACFDACA7019601C501B4010E945F7615
:102950001816DCF4CAA6DBA6ECA6FDA622C0F80178
:102960002081318142815381C701B6010E945F7687
:1029700018162CF48EA99FA9A8ADB9ADD6CFF80131
:1029800080819181A281B381D0CFCEA8DFA8E8ACAD
:10299000F9ACA7019601C501B4010E947E7287FDC2
:1029A000D9CFDF91CF911F910F91FF90EF90DF90E2
:1029B000CF90BF90AF909F908F9008952F923F92AD
:1029C0004F925F926F927F928F929F92AF92BF923F
:1029D000CF92DF92EF92FF920F931F93CF93DF93EB
:1029E000CDB7DEB72C970FB6F894DEBF0FBECDBFC4
:1029F0009C878B877A8369835A8749871901DB0112
:102A00008D919D910D90BC91A02D8D839E83AF8360
:102A1000B88720E030E0A901BC01CD010E947E72A0
:102A200087FDEFC0E985FA85C080D180E280F38020
:102A300020E030E0A901C701B6010E947E7287FD47
:102A4000E0C0D1018D909D90AD90BC9020E030E031
:102A5000A901C501B4010E947E7287FDD2C0F801B0
:102A6000408051806280738020E030E0A901C30182
:102A7000B2010E947E7287FDC4C020E030E040E8D1
:102A80005FE3C301B2010E945F7618160CF4B9C06F
:102A900011E020E030E0A901C301B2010E945F769D
:102AA00018160CF010E0AB85BC851C9320E030E0DC
:102AB00040E85FE3C301B2010E947E72881F88274D
:102AC000881FEB85FC85818389819A819387828722
:102AD000A985BA85B587A4873786268662A973A992
:102AE00084A995A90E94837220E030E04AE754E46B
:102AF0000E941D7569837A838B839C838D819E815F
:102B0000AF81B885EB85FC85808B918BA28BB38BD5
:102B100029813A814B815C81C701B6010E94E47230
:102B20006B017C01AB85BC855496CD92DD92ED9214
:102B3000FC92579729813A814B815C81C501B40190
:102B40000E941D754B015C01EB85FC85808E918E8A
:102B5000A28EB38E848D958D019769F52D813E816E
:102B60004F81588560E070E0CB010E941E74AB85F8
:102B7000BC8550966D937D938D939C935397A7013D
:102B8000960160E070E0CB010E941E74EB85FC852D
:102B9000648B758B868B978BA501940160E070E048
:102BA000CB010E941E74AB85BC8558966D937D93B6
:102BB0008D939C935B97EB85FC85C088D188E288D8
:102BC000F388A7019601C301B2010E94E472AB85AC
:102BD000BC8512966D937D938D939C931597A3015D
:102BE000920160E070E080E89FE30E941E74A701FC
:102BF00096010E94E472EB85FC856683778380876B
:102C000091872C960FB6F894DEBF0FBECDBFDF9133
:102C1000CF911F910F91FF90EF90DF90CF90BF90D9
:102C2000AF909F908F907F906F905F904F903F906C
:102C30002F9008956F927F928F929F92AF92BF9242
:102C4000CF92DF92EF92FF920F931F93CF93DF9378
:102C5000CDB7DEB73C01C8018501F30153A342A300
:102C600071A360A335A324A316AE16AA17AA10AEAB
:102C700011AE40E050E06FE773E442AF53AF64AF92
:102C800075AF44E650E060E070E042AB53AB64AB3C
:102C900075ABF40120813181F301358F248F9601CA
:102CA000A701BC01C3010E94DE140E940B11F301B5
:102CB00002A913A924A935A9601B710B820B930BE0
:102CC00066A377A380A791A7DF91CF911F910F9162
:102CD000FF90EF90DF90CF90BF90AF909F908F903C
:102CE0007F906F900895823109F468C030F482308B
:102CF000E1F0833069F180E008958431D9F108F47E
:102D00004BC08531C1F7709341036093400383EA60
:102D10009CE19093050280930402809169008C7F6E
:102D2000816080936900E89A11C070933D036093BD
:102D30003C038FEA9CE19093010280930002809112
:102D40006A008C7F816080936A00EC9A81E008952C
:102D500070933F0360933E0389EA9CE190930302E2
:102D60008093020280916A00837F846080936A006E
:102D7000ED9AECCF70934303609342038DE99CE19D
:102D8000909307028093060280916900837F84609C
:102D900080936900E99ADACF709345036093440306
:102DA00087E99CE190930902809308028091690071
:102DB0008F7C806180936900EA9AC8CF7093470343
:102DC0006093460381E99CE190930B0280930A0291
:102DD000809169008F73806480936900EB9AB6CF0D
:102DE000EF92FF920F931F93CF93DF93EC018E81AD
:102DF000811103C0442309F4EBC0809173039091C7
:102E000074038A9709F4E4C08B016F3F710519F0D0
:102E100014F00FEF10E001302FEF120714F401E06F
:102E20001FEF18AF0FAB17FF03C0119501951109E4
:102E30008A819B818430910539F031E0AC014B509F
:102E400051094330510508F430E0EC80FD8024E066
:102E5000E216F10429F041E0F7013B97339708F4BB
:102E600040E020913E04211160C0E881F981E43006
:102E7000F10531F021E0DF011B97139708F420E002
:102E800050913D04A0913C04A1118CC0511173C01C
:102E900077FD31C0222389F061E00E94A50F60E038
:102EA0008C810E94A50FB8018881DF91CF911F917D
:102EB0000F91FF90EF900C940F104423A1F061E06C
:102EC0000E94A50F6FEF70E0601B710B8C810E9458
:102ED0000F1061E08881DF91CF911F910F91FF90DA
:102EE000EF900C94A50FB8010E940F1060E08C8148
:102EF0000E94A50FEECF222339F061E08E2D0E94B3
:102F0000A50F60E08A81CDCF332341F06FEF70E0F1
:102F1000601B710B0E940F1061E0E9CFB8018E2D8C
:102F20000E940F1060E08A81E3CF77FD13C0672B0A
:102F300059F0442321F161E00E94A50F6FEF70E08A
:102F4000601B710B8C81B1CF60E00E94A50F60E027
:102F50008C81C1CF332341F06FEF70E0601B710BA8
:102F60000E940F1061E0F4CFB8018E2D0E940F1067
:102F700060E08A81B0CF77FD0AC0672B21F0B801ED
:102F80000E940F10E4CF61E00E94A50FEBCF60E03C
:102F90000E94A50FB801D6CF20912504213061F4FD
:102FA00060950AC05111E7CF20914B0330914C033B
:102FB000672FE217F30781F7661F6627661F0E94D7
:102FC000A50FB80188810E940F1060E08E2D83CF7D
:102FD000DF91CF911F910F91FF90EF9008952F9265
:102FE0003F924F925F926F927F928F929F92AF9299
:102FF000BF92CF92DF92EF92FF920F931F93CF93E6
:10300000DF93CDB7DEB7A0970FB6F894DEBF0FBE43
:10301000CDBF3C012B014A013A8F298FD8A2CF8E18
:1030200015011D8A1E8A1F8A188E80E090E0A0E894
:10303000BFE3898B9A8BAB8BBC8B930128533F4F9B
:103040003C8F2B8FCE014596D9018D939C93F30134
:10305000EA53FF4FFE8FED8F9183808332979183E8
:103060008083D701ED90FC90F8010081118162E02E
:10307000802F0E94D30F62E08E2D0E94D30FA801F3
:103080005527FA01E15CFA4EE491F0E0EE0FFF1FE4
:10309000EB5DFA4EA591B491F301B183A083415247
:1030A0005B4EFA014491F3014483C7019927FC0167
:1030B000E15CFA4EE491F0E0EE0FFF1FEB5DFA4E9B
:1030C00025913491F3013383228381529B4EFC017D
:1030D0008491F30185831782108611861286EBE3B3
:1030E000FFE13197F1F7EC914E2391E009F490E084
:1030F000D901EC91E82309F09260F3019683B301C2
:10310000802F0E947316D30153968C93B3018E2D9A
:103110000E947316F3019389890F838B1D861E8687
:103120001F86188A80E090E0A0E8BFE389879A872D
:10313000AB87BC87830102551F4FCE010D96D80186
:103140008D939C93E455FF4F9183808332979183B5
:1031500080837301B4E1EB0EF11CF2018081918157
:10316000D30154968C93549755969C935597F4019C
:103170009081218156969C93569757962C93A98DB2
:10318000BA8D2D913C91F301318F208F128E2091B9
:103190003E042223C1F060E00E94D30F61E0D3011E
:1031A00056968C910E94D30F61E0F301808D0E94AE
:1031B000D30F60E0D30156968C910E94A50F60E07A
:1031C000F301808D18C020913D04222309F46BC1C6
:1031D00061E0892F0E94D30F61E0D30158968C9152
:1031E0000E94D30F60E0F30186890E94A50F60E082
:1031F000D30158968C910E94A50F40E070E060E0EA
:10320000C7010E94F0162301BBE64B0E511C1A8227
:103210001982F801C080D180F301E455FF4FE080AE
:10322000F1803297008111819E012F5F3F4F49014C
:10323000CE0109965C019301235B3F4FA3014959DD
:103240005F4FB3016F5A7F4FC2010E941A16D2011D
:10325000DE968C91811103C0C2010E94101481E09E
:10326000F20186AF80E090E0AFE7B3E489839A8310
:10327000AB83BC8380E090E0AFE7B3EC8D839E83AB
:10328000AF83B887AE014F5F5F4FBE016B5F7F4F6B
:10329000C2010E945714D1016D917D918D919C9135
:1032A00028EE33E040E050E00E94ED731216130662
:1032B000ECF56901330FEE08FF08C701B6010E9463
:1032C00085724B015C01F20162A973A984A995A9D9
:1032D0000E9483729B01AC01C501B4010E941D755F
:1032E0004B015C01AC019B01D20154966D917D9123
:1032F0008D919C9157970E94E472F201648B758BBB
:10330000868B978BA5019401608D718D828D938D35
:103310000E941D75D20158966D937D938D939C9359
:103320005B97F201C2AAD3AAE4AAF5AA2301FAEC98
:103330004F0E511C81E090E09A838983AB8DBC8D48
:10334000CD90DC90ED8DFE8DE080F180F301EC53AB
:10335000FF4F008111819E012F5F3F4F4901CE0138
:1033600041965C01930128543F4FA30140545F4FA5
:10337000B30164547F4FC2010E941A16AF8DB8A1E9
:103380008C918301025F1E4FF8018083D201DE968B
:103390008C91811103C0C2010E94101481E0F201DE
:1033A00086AF80E090E0A0EAB1E489839A83AB83A2
:1033B000BC8380E090E0A0EAB1EC8D839E83AF8374
:1033C000B887AE014F5F5F4FBE016B5F7F4FC20199
:1033D0000E945714D1016D917D918D919C9128EEA1
:1033E00033E040E050E00E94ED7312161306ECF556
:1033F0006901330FEE08FF08C701B6010E9485720C
:103400004B015C01F20162A973A984A995A90E94EC
:1034100083729B01AC01C501B4010E941D754B0173
:103420005C01AC019B01D20154966D917D918D910F
:103430009C9157970E94E472F201648B758B868B86
:10344000978BA5019401608D718D828D938D0E9463
:103450001D75D20158966D937D938D939C935B97C8
:10346000F201C2AAD3AAE4AAF5AAF301EB59FF4FCD
:1034700011830083A0960FB6F894DEBF0FBECDBFB8
:10348000DF91CF911F910F91FF90EF90DF90CF9040
:10349000BF90AF909F908F907F906F905F904F9074
:1034A0003F902F90089590913C0461E0992379F02A
:1034B0000E94D30F61E0F30186890E94D30F61E07F
:1034C000D30158968C910E94D30F61E079CE0E946F
:1034D000D30F61E0D30156968C910E94D30F61E027
:1034E000F301808D0E94D30F61E0D30156968C9139
:1034F0000E94A50F60E0F301808D0E94A50F60E09F
:10350000D30154968C9177CE41E00C94F016CF9372
:10351000DF93EC018E818823F1F080913E048823B3
:1035200049F060E08A810E94A50F60E08C810E94D2
:10353000A50F11C080913D048111F3CF80913C040F
:1035400061E0882361F08C810E94A50F70E060E04B
:1035500088810E940F101E82DF91CF9108958A8189
:103560000E94A50F60E08C810E94A50F60E0888119
:10357000DECF2F923F924F925F926F927F928F9207
:103580009F92AF92BF92CF92DF92EF92FF920F93F2
:103590001F93CF93DF93EC011B010E940B11FE01DF
:1035A000EC54FF4F6083718382839383E65AFF4F0D
:1035B00080818E01075F1E4FC854DF4F8A3509F0A6
:1035C00059C0C0903304D0903404E0903504F0909A
:1035D0003604D1014D905D906D907C90D801ED91B5
:1035E000FC9180809180A280B380A7019601C701E1
:1035F000B6010E948A77811125C0A3019201C701FB
:10360000B6010E947E7287FF1DC0A5019401C7010B
:10361000B6010E941D75688379838A839B83DF913D
:10362000CF911F910F91FF90EF90DF90CF90BF90BF
:10363000AF909F908F907F906F905F904F903F9052
:103640002F900895C0903704D0903804E09039044A
:10365000F0903A04A7019601C701B6010E948A774B
:10366000811108C0A3019201C701B6010E945F76D3
:1036700018165CF2D801ED91FC91208131814281D4
:103680005381F1016081718182819381C2CF0F9357
:103690001F93CF93DF93EC010E940B11FE01EC54BA
:1036A000FF4F0081118122813381AB01BC01401B9E
:1036B000510B620B730B8091C2039091C303B0E076
:1036C000A0E084179507A607B70740F4CE014496FB
:1036D000DF91CF911F910F910C94871ADF91CF91B9
:1036E0001F910F9108956F927F928F929F92AF9248
:1036F000BF92CF92DF92EF92FF920F931F93CF93DF
:10370000DF93CDB7DEB73C01FC01EC53FF4F718373
:10371000608332965183408332963183208386536F
:103720009F4F0E94DE14F301E655FF4FF182E082C5
:103730003296D182C0823296B182A08284019501F4
:10374000A601B701C30185599F4F0E94DE14DF9186
:10375000CF911F910F91FF90EF90DF90CF90BF908E
:10376000AF909F908F907F906F900895CF92DF924F
:10377000EF92FF92CF93DF93EC01FB01C080D180E9
:10378000E280F380C701B6010E948572FE01E55F09
:10379000FE4F0190F081E02D2081318142815381E3
:1037A0000E941D75FE01E854FF4F60837183828380
:1037B0009383F894CF82D886E986FA867894DF914D
:1037C000CF91FF90EF90DF90CF900895CF92DF924E
:1037D000EF92FF92CF93DF93EC01E881F981908122
:1037E000EA81FB8180812D818223EE81E3702C812F
:1037F000922309F0E4608111E8608E2F90E09595A6
:103800008795959587958E83E150EE3008F034C00A
:10381000F0E08827E15FF34E8F4F0C94C4771D1CB6
:10382000431C5D1C431C3C1C771C1D1C1D1C771C71
:103830003C1C431C5D1C431C1D1C8F819885A98565
:10384000BA850196A11DB11D8F839887A987BA8774
:103850000E94E610CF84D888E988FA886C197D091F
:103860008E099F096B877C878D879E870E94E61053
:103870006F87788B898B9A8BDF91CF91FF90EF9038
:10388000DF90CF9008958F819885A985BA8501979B
:10389000A109B1098F839887A987BA87CF84D8886F
:1038A000E988FA880E94E610C61AD70AE80AF90AD7
:1038B000CB86DC86ED86FE86D9CF8F819885A9855B
:1038C000BA850296A11DB11D8F839887A987BA87F3
:1038D0000E94E610CF84D888E988FA886C197D099F
:1038E0008E099F099695879577956795BBCF8F81B0
:1038F0009885A985BA850297A109B1098F83988710
:10390000A987BA87CF84D888E988FA880E94E61008
:10391000C61AD70AE80AF90AF694E794D794C79426
:10392000C7CF80914603909147030C94E61B80918A
:103930004403909145030C94E61B809142039091BF
:1039400043030C94E61B80914003909141030C9437
:10395000E61B80913E0390913F030C94E61B8091FF
:103960003C0390913D030C94E61BCF93DF93EC0155
:103970008B89823060F4F894CE010E94E61B6F813F
:10398000788589859A857894DF91CF910895F89408
:10399000F6CF2F923F924F925F926F927F928F92CB
:1039A0009F92AF92BF92CF92DF92EF92FF920F93CE
:1039B0001F93CF93DF9300D000D01F921F92CDB7FB
:1039C000DEB798878F830E94B51C0E948572698339
:1039D0007A838B839C830E94E6100E9483722B0162
:1039E0003C012F80388425E5220E311CF101208115
:1039F00031814281538169817A818B819C810E94CE
:103A00001E746B017C0120E030E040E450E40E9431
:103A10005F762F813885275A3F4F3E832D831816B6
:103A200054F020E030E040E450ECB601C7010E94C1
:103A30007E7287FF9EC00F811885035A1F4FF801C1
:103A40002081318142815381B601C7010E941E74D9
:103A50004B015C0120E030E040E85FEB0E947E72A9
:103A600018160CF470C020E030E040E05FE3B601CF
:103A7000C7010E941F7446015701F801808291829C
:103A8000A282B382ED81FE8180809180A280B3808A
:103A90000F8118850F591F4FAF81B885A055BF4FB3
:103AA0002D913D914D915C910E94E4726B017C01DE
:103AB000A5019401C301B2010E941E740E94967573
:103AC0000E9483729B01AC01C701B6010E941D7563
:103AD000F80160837183828393832F8138852F5906
:103AE0003F4FF90160817181828193819058608399
:103AF000718382839383ED81FE8140825182628251
:103B0000738229813A814B815C81F1012083318369
:103B10004283538328960FB6F894DEBF0FBECDBF05
:103B2000DF91CF911F910F91FF90EF90DF90CF9099
:103B3000BF90AF909F908F907F906F905F904F90CD
:103B40003F902F90089520E030E040E85FE3C5010A
:103B5000B4010E945F7687FD09C020E030E040E0BC
:103B60005FE3B601C7010E941E7485CFB601C7018D
:103B700082CFEF81F8858389823008F071C0F89494
:103B80008F8198850E94E61BEF81F8856385748597
:103B90008585968578940E9485726B017C010E94D0
:103BA000E6104B015C01EF81F8858389823008F0D3
:103BB00059C0F8948F8198850E94E61BEF81F885A3
:103BC00087859089A189B2897894A5019401281BE1
:103BD000390B4A0B5B0BCA01B9010E9483724B017E
:103BE0005C0120E030E0A901C701B6010E945F76C8
:103BF0000F8118850F591F4F1816B4F1A7019601B0
:103C00005058C501B4010E945F7618167CF420E07C
:103C100030E0A901C701B6010E947E7275016401FE
:103C200087FF04C0F7FAF094F7F8F094F8011082D7
:103C300011821282138220E030E0A901C701B6018F
:103C40000E947E72882309F448CFA7019601EF8174
:103C5000F885E055FF4F608171818281938136CF75
:103C6000F89492CFF894AACFA5019401C701B601A8
:103C70000E947E7287FDCBCFE8CFCF92DF92EF928A
:103C8000FF92CF93DF93EC010E94B51CFE01E85434
:103C9000FF4FC080D180E280F3800E948572FE01D8
:103CA000E55FFE4F0190F081E02D2081318142815E
:103CB00053810E941D75A70196010E941E74C75F63
:103CC000DE4FE881F98120813181428153810E9458
:103CD000E472DF91CF91FF90EF90DF90CF90089545
:103CE000CF93DF93EC010E94B51C0E948572FE0108
:103CF000E55FFE4F0190F081E02D2081318142810E
:103D000053810E941D75C75FDE4FE881F9812081D4
:103D10003181428153810E94E472DF91CF910895F5
:103D2000CF93DF93EC010E940B11FE01EC54FF4F87
:103D30006083718382839383CE010E94701EFE0193
:103D4000E75FFE4F0190F081E02D208131814281BB
:103D500053810E941D75C854DF4F688379838A831D
:103D60009B83DF91CF910895FC0101900020E9F73A
:103D70003197AF01481B590BBC018FE394E00C94C1
:103D8000B80D8CE592E00C94B41ECF93DF930E94A3
:103D9000A40EEC010E94C11E8C0F9D1FDF91CF91DC
:103DA00008952F923F924F925F926F927F928F92DF
:103DB0009F92AF92BF92CF92DF92EF92FF920F93BA
:103DC0001F93CF93DF93CDB7DEB7AF970FB6F894BD
:103DD000DEBF0FBECDBF0E942A123C01009709F042
:103DE00098C082E190E09E838D8383E190E0988784
:103DF0008F8389E090E09A8B898B88E090E09C8BA0
:103E00008B8B86E090E09E8F8D8F82E090E09A878A
:103E1000898783E090E09C878B878BE090E09E8B86
:103E20008D8B8AE090E0988F8F8B87E090E098A34D
:103E30008F8F85E190E09E878D8784E190E0988B5D
:103E40008F878CE090E09A8F898F8DE090E09C8F37
:103E50008B8F85E090E09AA389A3312C212C8FEFE2
:103E60009FEF9DA78CA7AFEFBFEFBBA7AAA799A70E
:103E700088A791E09FA78EE0482E512CAFE0AEA717
:103E800080E190E09FA38EA3A1E1B0E0BDA3ACA32D
:103E900080913C0490912504913009F02EC281114B
:103EA00010C280E197E2A0E0B0E089839A83AB83FF
:103EB000BC838CE48BA3DE0111965D01CE01839659
:103EC0006C011C967D018E01015F1F4F9E01275ED4
:103ED0003F4FAE01455E5F4FBE016F5D7F4F87EC88
:103EE00097E00E94EF1780E197E2A0E0B0E08983BD
:103EF0009A83AB83BC8382E58BA3D50116967D01A3
:103F00000A5011099E012D5E3F4FAE014F5E5F4F7B
:103F10002DC28130910509F04CC084E190E09E8370
:103F20008D8385E190E098878F8386E090E09A8B7F
:103F3000898B84E090E09C8B8B8B85E090E09E8F5A
:103F40008D8F83E190E09A87898782E190E09C875A
:103F50008B8789E090E09E8B8D8B87E090E0988F37
:103F60008F8B88E090E098A38F8F82E090E09E870F
:103F70008D8783E090E0988B8F878AE090E09A8F1E
:103F8000898F8BE090E09C8F8B8F8CE090E09AA3E0
:103F900089A38FEF9FEF9DA78CA7AFEFBFEFBBA7C4
:103FA000AAA799A788A79CE39FA79DE3292E312C58
:103FB00062CF82309105C9F584E190E09E838D83C4
:103FC00085E190E098878F8384E090E09A8B898BDD
:103FD00086E090E09C8B8B8B85E090E09E8F8D8FB0
:103FE00083E190E09A87898782E190E09C878B87C4
:103FF00087E090E09E8B8D8B89E090E0988F8F8B8F
:1040000088E090E098A38F8F7E866D8683E090E0B5
:10401000988B8F878BE090E09A8F898F8CE090E06F
:104020009C8F8B8F8AE090E0B2CF0397029708F0C5
:1040300059C084E190E09E838D8385E190E098876C
:104040008F8386E090E09A8B898B84E090E09C8B54
:104050008B8B85E090E09E8F8D8F83E190E09A8737
:10406000898782E190E09C878B8787E090E09E8B38
:104070008D8B89E090E0988F8F8B88E090E098A3FB
:104080008F8F82E090E09E878D8783E090E0988B11
:104090008F878AE090E09A8F898F8BE090E09C8FE9
:1040A0008B8F8CE090E09AA389A38FE290E09DA78C
:1040B0008CA7AEE2B0E0BBA7AAA78DE290E099A7DB
:1040C00088A795E49FA714E4212E312C0BE2402E03
:1040D000512CAAE2AEA789E290E09FA38EA3A8E2AA
:1040E000B0E0D4CEB5E06B16710409F041C082E0B7
:1040F00090E09E838D8383E090E098878F8389E0B2
:1041000090E09A8B898B8AE090E09C8B8B8B82E18C
:1041100090E09A87898783E190E09C878B8787E08E
:1041200090E09E8B8D8B88E090E0988F8F8B85E15F
:1041300090E09E878D8784E190E0988B8F8786E062
:1041400090E09A8F898F7C8E6B8E8CE28FA7ABE28A
:104150002A2E312CB2E34B2E512C93E39EA7A1E3E0
:10416000B0E0BFA3AEA380E390E09DA38CA390CE6C
:1041700096E06916710409F05BC084E190E09E83CB
:104180008D8385E190E098878F8384E090E09A8B1F
:10419000898B85E090E09C8B8B8B7E8E6D8E83E18E
:1041A00090E09A87898782E190E09C878B8787E0FF
:1041B00090E09E8B8D8B88E090E0988F8F8B89E0CC
:1041C00090E098A38F8F90934C0380934B0382E0F1
:1041D00090E09E878D8783E090E0988B8F878BE0BF
:1041E00090E09A8F898F8CE090E09C8F8B8F8AE093
:1041F00090E09AA389A3AFE2B0E0BDA7ACA78EE29E
:1042000090E09BA78AA7ADE2B0E0B9A7A8A7B5E464
:10421000BFA7E4E42E2E312CFBE24F2E512C8AE274
:104220008EA7A9E2B0E0BFA3AEA388E290E09DCF45
:1042300098E069167104C9F584E190E09E838D834E
:1042400085E190E098878F8386E090E09A8B898B58
:1042500084E090E09C8B8B8B85E090E09E8F8D8F2F
:1042600083E190E09A87898782E190E09C878B8741
:1042700087E090E09E8B8D8B89E090E0988F8F8B0C
:1042800078A26F8E82E090E09E878D8783E090E039
:10429000988B8F878BE090E09A8F898F8AE090E0EF
:1042A0009C8F8B8F8CE090E0A4CF8EE499E00E94ED
:1042B000A40E80EE97E00E94C51E81E080937503F6
:1042C000FFCF80E197E2A0E0B0E089839A83AB83DF
:1042D000BC838CE48BA3DE0111965D01CE01839635
:1042E0006C011C967D018E01015F1F4F9E01255EB2
:1042F0003F4FAE01475E5F4FEFCD811104C180E1BA
:1043000097E2A0E0B0E089839A83AB83BC838CE41E
:104310008BA3DE0111965D01CE0183966C011E9682
:104320007D018E01035F1F4F9E01255E3F4FAE0151
:10433000475E5F4FBE016F5D7F4F87EC97E00E9445
:10434000EF1780E197E2A0E0B0E089839A83AB8326
:10435000BC8382E58BA3D50114967D01065011091B
:104360009E012F5E3F4FAE014D5E5F4FBE01635E0B
:104370007F4F88EB96E00E94EF1780E197E2A0E084
:10438000B0E089839A83AB83BC838AE58BA3CE019B
:1043900001965C01DE0193966D0108967C018E0109
:1043A000055F1F4F9E01295E3F4FAE014B5E5F4F81
:1043B000BE01615E7F4F89EA95E00E94EF178DEFA5
:1043C000882E83E0982E99EFA92E93E0B92E25EF41
:1043D000C22E23E0D22E31EFE32E33E0F32E0DEE8A
:1043E00013E029EE33E045EE53E061EE73E087EC35
:1043F00097E00E94731B29EE33E045EE53E061EE37
:1044000073E088EB96E00E94731B4DE1842E44E03C
:10441000942E59E1A52E54E0B52E65E1C62E64E038
:10442000D62E71E1E72E74E0F72E0DE014E029E0BE
:1044300034E045E054E061E074E089EA95E00E94F0
:10444000731BACA1BDA1B0934A03A093490395E0AF
:104450006916710409F089C050926F0340926E038F
:104460008EA19FA1909371038093700370906E034F
:1044700061E0872D0E94D30F60E0872D0E94A50F79
:1044800060E08EA50E94D30F2114310421F060E07A
:10449000822D0E94D30F60E08FA50E94D30FA8A5A4
:1044A000B9A51A161B0624F460E088A50E94D30F54
:1044B000AAA5BBA51A161B0624F460E08AA50E94D3
:1044C000D30F8CA59DA51816190624F460E08CA5C1
:1044D0000E94D30FAF960FB6F894DEBF0FBECDBFCC
:1044E000DF91CF911F910F91FF90EF90DF90CF90D0
:1044F000BF90AF909F908F907F906F905F904F9004
:104500003F902F90089580E197E2A0E0B0E089838A
:104510009A83AB83BC838CE48BA3DE0111965D018F
:10452000CE0183966C011E967D018E01035F1F4FA5
:104530009E01255E3F4FAE01475E5F4FBE016F5D3E
:104540007F4F87EC97E00E94EF1780E197E2A0E0B1
:10455000B0E089839A83AB83BC8382E58BA3D501CA
:1045600014967D0106501109CDCC8EA19FA1909388
:104570006F0380936E03509271034092700376CF65
:10458000CF93DF930E94E50DEC010E94C11E8C0FBA
:104590009D1FDF91CF9108958F929F92AF92BF920E
:1045A0000F931F93CF93DF93CDB7DEB7A1970FB6CD
:1045B000F894DEBF0FBECDBF19A2423008F44AE026
:1045C0008E010F5D1F4F842E912CB12CA12CA501C3
:1045D00094010E94ED73E62FB901CA01EA30F4F4A8
:1045E000E05DD801EE938D01232B242B252B79F749
:1045F00090E080E0109719F0CD010E94B41EA196C2
:104600000FB6F894DEBF0FBECDBFDF91CF911F91E3
:104610000F91BF90AF909F908F900895E95CE1CF8C
:10462000CF92DF92EF92FF92CF93DF936C01990FBD
:10463000EE08FF08F7FE17C08DE20E94BF0EEC01E6
:1046400066277727CB016C197D098E099F094AE0FF
:104650000E94CC228C0F9D1FDF91CF91FF90EF9095
:10466000DF90CF9008954AE0C701B601DF91CF9166
:10467000FF90EF90DF90CF900C94CC22CF93DF93FC
:104680000E941023EC010E94C11E8C0F9D1FDF9120
:10469000CF910895CF93811105C08BE096E0CF9123
:1046A0000C94C51EC82F83E096E00E94A40EC33070
:1046B000D1F090F481EF95E0C23089F386E695E081
:1046C0000E94A40E6C2F70E090E080E04AE00E940F
:1046D000CC22CF910C94C11EC73041F082EA95E004
:1046E000CD30E9F2EBCF8FED95E0D9CF88E795E0BB
:1046F000D6CF4F925F926F927F928F929F92AF929E
:10470000BF92CF92DF92EF92FF920F931F93CF93BE
:104710006B017C01742EAC019B010E948A77882377
:1047200099F08FE592E0CF911F910F91FF90EF905C
:10473000DF90CF90BF90AF909F908F907F906F90C1
:104740005F904F900C94B41E46015701E894B7F85F
:104750002FEF3FEF4FE75FE7C501B4010E948A7773
:1047600081110DC02FEF3FEF4FE75FE7C501B401A7
:104770000E947E7218161CF483E692E0D4CF2FEFCD
:104780003FEF4FE75FE4C701B6010E945F7618165E
:104790001CF487E692E0C7CF2FEF3FEF4FE75FECC7
:1047A000C701B6010E947E7287FDF3CF20E030E0A2
:1047B000A901C701B6010E947E7210E000E087FFE8
:1047C00008C08DE20E94BF0E8C01F7FAF094F7F852
:1047D000F094C0E060E070E080E09FE37C1641F080
:1047E00020E030E040E251E40E941D75CF5FF6CF3B
:1047F000A70196010E941F742B013C010E9496752F
:104800004B015C014AE00E94CC227C01E00EF11ECB
:10481000CC23B1F1C501B4010E9483729B01AC01AC
:10482000C301B2010E941E744B015C018EE20E9422
:10483000BF0EE80EF91EC15018F120E030E040E252
:1048400051E4C501B4010E94E4722B013C010E94B5
:1048500096754B01B12CA12C4AE0C501B4010E9410
:10486000CC22E80EF91EC501B4010E9483729B019F
:10487000AC01C301B2010E941E744B015C01DBCF8D
:10488000C701CF911F910F91FF90EF90DF90CF90D4
:10489000BF90AF909F908F907F906F905F904F9060
:1048A00008950C947923CF92DF92EF92FF920F93A9
:1048B0001F93CF93DF93EC01CB01BA017901A901DA
:1048C00098010E941E7444E050E00E94512484EA42
:1048D00099E00E94A40EFE01E454FF4F60817181B3
:1048E00082819381E35BFF4F0190F081E02D208175
:1048F0003181428153810E94E472A70198010E9494
:104900001E7444E050E00E94512482EA99E00E9423
:10491000A40EFE01E054FF4F60817181828193817A
:1049200044E050E00E94512480EA99E00E94A40EE5
:10493000FE01EF59FF4F608171818281938144E0D4
:1049400050E00E9451248EE999E00E94A40EC55BBC
:10495000DF4F88819981DF91CF911F910F91FF9057
:10496000EF90DF90CF900C943E23CF93DF9342E003
:104970000E947923EC010E94C11E8C0F9D1FDF91C4
:10498000CF910895CF93DF930E94B41EEC010E9453
:10499000C11E8C0F9D1FDF91CF910895CF938BE6A1
:1049A00092E00E94C224C0916E0361E08C2F0E94AD
:1049B000D30F60E08C2FCF910C94A50F2F923F92D4
:1049C0004F925F926F927F928F929F92AF92BF921F
:1049D000CF92DF92EF92FF920F931F93CF93DF93CB
:1049E00000D01F92CDB7DEB71B018A01FC014080C9
:1049F000518062807380C090E004D090E104E09028
:104A0000E204F090E304A3019201C301B2010E9409
:104A1000E4724B015C01A7019601C701B6010E9437
:104A2000E4729B01AC01C501B4010E941E740E9496
:104A3000217769837A838B839C83F80160817181FC
:104A4000828193810E9413774B015C01A70196013B
:104A500069817A818B819C810E941D756B017C012B
:104A60002091F0043091F1044091F2045091F3044C
:104A7000C301B2010E941F742B013C01ECEDF4E074
:104A80002081318142815381C501B4010E94E472C9
:104A90009B01AC01C301B2010E941E74F10120818F
:104AA0003181428153810E941D759B01AC01C70178
:104AB000B6010E941E740F900F900F900F90DF911F
:104AC000CF911F910F91FF90EF90DF90CF90BF900B
:104AD000AF909F908F907F906F905F904F903F909E
:104AE0002F9008954F925F926F927F928F929F9234
:104AF000AF92BF92CF92DF92EF92FF920F931F93EC
:104B0000CF93DF93CCEDD4E08DEC9CECACE4BEEB2A
:104B100089A39AA3ABA3BCA301EA13E0F8018088A0
:104B20009188A288B38820E030E040E05FE3C501CF
:104B3000B4010E94E472F801C488D588E688F78839
:104B40009B01AC010E94E4722B013C01A70196017C
:104B5000C701B6010E94E4729B01AC01C301B2011E
:104B60000E941F740E942177688379838A839B83C4
:104B7000A7019601C701B6010E941F74A501940107
:104B80000E941D750E94E9746B017C01CDAADEAA0A
:104B9000EFAAF8AE2DEC3CEC4CE45EE30E941F74EF
:104BA00069AF7AAF8BAF9CAF2DEC3CEC4CE45EE38D
:104BB000C701B6010E941E746093190570931A050F
:104BC00080931B0590931C0520E030E040E05FE3FC
:104BD000F80160817181828193810E94E47268870B
:104BE00079878A879B8720E030E040E05FE3F80127
:104BF00064817581868197810E94E4726B017C01DA
:104C0000CC86DD86EE86FF8620E030E040E05FE384
:104C1000F80160857185828593850E94E472688FB2
:104C2000798F8A8F9B8FA7019601F801648575851E
:104C3000868597850E941F746C8F7D8F8E8F9F8FC6
:104C4000DF91CF911F910F91FF90EF90DF90CF9068
:104C5000BF90AF909F908F907F906F905F904F909C
:104C600008952F923F924F925F926F927F928F9210
:104C70009F92AF92BF92CF92DF92EF92FF920F93EB
:104C80001F93CF93DF93CDB7DEB7CB56D1090FB6C5
:104C9000F894DEBF0FBECDBF3B018D8B9987522E9E
:104CA000432E4D8759A3A4961FAF0EAFA497A69687
:104CB000FFAEEEAEA697C090E404D090E504E0907D
:104CC000E604F090E704D701C601B058898B9A8BAF
:104CD000AB8BBC8B8091BD038090E8049090E9047D
:104CE000A090EA04B090EB049091E004998FA09119
:104CF000E104AD8F2090E2043090E30429893A89E1
:104D00004B895C89813011F00C94E1308D89998553
:104D10000E947E7287FD0FC0A7019601B3018D89A5
:104D200099850E945F76181614F00C94CC2EC98ACF
:104D3000DA8AEB8AFC8A75016401F7FAF094F7F8D5
:104D4000F094A7019601652D742D8D8599A10E947F
:104D50007E7287FD10C0A5019401652D742D8D858F
:104D600099A10E945F7675016401181624F0C52C84
:104D7000D42CED84F9A02091AD033091AE03409185
:104D8000AF035091B003C501B4010E941F74A70185
:104D900096010E941E746D8B7E8B8F8B988F609313
:104DA000F0047093F1048093F2049093F3048091E3
:104DB000A9039091AA03A091AB03B091AC032196F3
:104DC0008CAF9DAFAEAFBFAF219720E030E040E0A9
:104DD0005FE3BC01CD010E94E4726B017C01298973
:104DE0003A894B895C890E941F744B015C01809257
:104DF000EC049092ED04A092EE04B092EF04AC01AA
:104E00009B01C701B6010E947E7287FFCEC7A50134
:104E1000940121966CAD7DAD8EAD9FAD21970E9422
:104E20001E746093EC047093ED048093EE049093F1
:104E3000EF0481E08093FC048091EC049091ED04F8
:104E4000A091EE04B091EF04898B9A8BAB8BBC8B55
:104E50009C01AD016D897E898F89988D0E941D7599
:104E60004B015C018092010590920205A09203051E
:104E7000B092040529893A894B895C8921966CADE9
:104E80007DAD8EAD9FAD21970E941E749B01AC013C
:104E90006D897E898F89988D0E941D756B017C01BB
:104EA000C0920505D0920605E0920705F09208052C
:104EB000A5019401C501B4010E94E47220E030E034
:104EC00040E85FE30E941F740E9421779B01AC01C0
:104ED000698D7D8DC1010E94E47260930905709314
:104EE0000A0580930B0590930C05A7019601C70155
:104EF000B6010E94E47220E030E040E85FE30E94E7
:104F00001F740E9421779B01AC01698D7D8DC101C9
:104F10000E94E47260930D0570930E0580930F0557
:104F2000909310059BE066969FAF66978091FD0475
:104F30009091FE04A091FF04B091000589A39AA36B
:104F4000ABA3BCA39C01AD01CD01B9010E94E472E9
:104F50004B015C012FE632E143E85AE369A17AA1F3
:104F60008BA19CA10E941F746B017C01AC019B0171
:104F70000E94E47269AF7AAF8BAF9CAF8091150548
:104F800090911605A0911705B091180589879A8709
:104F9000AB87BC879C01AD01CD01B9010E94E472D1
:104FA00069A77AA78BA79CA79B01AC0169857A8525
:104FB0008B859C850E94E47225966CAF7DAF8EAF89
:104FC0009FAF25974090190550901A0560901B05DA
:104FD00070901C05A3019201C301B2010E94E4720A
:104FE0006DA77EA78FA798AB9B01AC01C301B2014F
:104FF0000E94E47229966CAF7DAF8EAF9FAF299768
:105000002FE632E143E85AE369857A858B859C85F2
:105010000E941E746D877E878F87988B9B01AC01E1
:105020000E94E47269AB7AAB8BAB9CAB9B01AC0189
:105030006D857E858F8598890E94E4722D966CAF70
:105040007DAF8EAF9FAF2D972FE632E143E85AE355
:10505000C301B2010E941F746DA37EA38FA398A702
:105060009B01AC010E94E4726DAB7EAB8FAB98AF3D
:105070009B01AC016DA17EA18FA198A50E94E47255
:1050800061966CAF7DAF8EAF9FAF6197A501940124
:1050900069A17AA18BA19CA10E94E47228E73AE75A
:1050A00045E25EEB0E94E47265966CAF7DAF8EAF19
:1050B0009FAF659727E230EA49E05BE3C501B401A1
:1050C0000E94E4729B01AC0165966CAD7DAD8EAD26
:1050D0009FAD65970E941E744B015C012EE836E07F
:1050E00040E85FE369A17AA18BA19CA10E94E472D0
:1050F0009B01AC01C501B4010E941F746093890536
:1051000070938A0580938B0590938C0529AD3AADF9
:105110004BAD5CADC701B6010E94E47228E73AE7E7
:1051200045E25EEB0E94E4724B015C0127E230EA4B
:1051300049E05BE369AD7AAD8BAD9CAD0E94E47252
:105140009B01AC01C501B4010E941E744B015C01BE
:105150002EE836E040E85FE3C701B6010E94E47242
:105160009B01AC01C501B4010E941F7460938D05C1
:1051700070938E0580938F05909390052EEE3BEEF5
:1051800040EC5DEB25966CAD7DAD8EAD9FAD25976A
:105190000E94E4726B017C012DE435E14CE05EE39A
:1051A00069A57AA58BA59CA50E94E4729B01AC0120
:1051B000C701B6010E941E746B017C012DE13AE526
:1051C0004CE85FE369857A858B859C850E94E47253
:1051D0009B01AC01C701B6010E941F742DE53DE69D
:1051E00045EC5CE30E941E746E966CAF7DAF8EAF93
:1051F0009FAF6E976093690570936A0580936B0506
:1052000090936C0523E83FE24CE05EE325966CAD9D
:105210007DAD8EAD9FAD25970E94E4726B017C0140
:105220002DEE3DE04EE25FE369A57AA58BA59CA536
:105230000E94E4729B01AC01C701B6010E941E747A
:105240006B017C0121ED31E94CED5DE369857A85E7
:105250008B859C850E94E4729B01AC01C701B6015D
:105260000E941F742CEE30EC49E75FE30E941F742C
:1052700069A77AA78BA79CA760936D0570936E05AD
:1052800080936F059093700526E031E845E15EEB71
:1052900029966CAD7DAD8EAD9FAD29970E94E472CD
:1052A0006B017C0125EE31E641EA5CE36DA57EA54C
:1052B0008FA598A90E94E4729B01AC01C701B601B9
:1052C0000E941E746B017C0123ED3EED40E85FE31C
:1052D000C301B2010E94E4729B01AC01C701B60197
:1052E0000E941F7427E137EB41E55AE30E941E74C8
:1052F000A2966CAF7DAF8EAF9FAFA2976093710502
:105300007093720580937305909374052CE933E3D1
:1053100042EA5DE329966CAD7DAD8EAD9FAD2997D8
:105320000E94E4726B017C0126E73FE44EE05FE3FC
:105330006DA57EA58FA598A90E94E4729B01AC0182
:10534000C701B6010E941E746B017C012DE435E19A
:105350004CE85CE3C301B2010E94E4729B01AC0122
:10536000C701B6010E941F742BE733E84FE75FE3E4
:105370000E941F742B013C014092750550927605E6
:1053800060927705709278052EEE3BEE40EC5DEB77
:105390002D966CAD7DAD8EAD9FAD2D970E94E472C4
:1053A0006B017C012DE435E14CE05EE369A97AA94B
:1053B0008BA99CA90E94E4729B01AC01C701B601B4
:1053C0000E941E746B017C012DE13AE54CE85FE31D
:1053D0006D857E858F8598890E94E4729B01AC0162
:1053E000C701B6010E941F742DE53DE645EC5CE364
:1053F0000E941E746093790570937A0580937B05F3
:1054000090937C0523E83FE24CE05EE32D966CAD83
:105410007DAD8EAD9FAD2D970E94E4726B017C0136
:105420002DEE3DE04EE25FE369A97AA98BA99CA924
:105430000E94E4729B01AC01C701B6010E941E7478
:105440006B017C0121ED31E94CED5DE36D857E85DD
:105450008F8598890E94E4729B01AC01C701B60157
:105460000E941F742CEE30EC49E75FE30E941F742A
:105470006DA77EA78FA798AB60937D0570937E057F
:1054800080937F059093800526E031E845E15EEB4F
:1054900061966CAD7DAD8EAD9FAD61970E94E4725B
:1054A0006B017C0125EE31E641EA5CE36DA97EA942
:1054B0008FA998AD0E94E4729B01AC01C701B601AF
:1054C0000E941E746B017C0123ED3EED40E85FE31A
:1054D0006DA17EA18FA198A50E94E4729B01AC01F1
:1054E000C701B6010E941F7427E137EB41E55AE37B
:1054F0000E941E74609381057093820580938305DA
:10550000909384052CE933E342EA5DE361966CAD48
:105510007DAD8EAD9FAD61970E94E4726B017C0101
:1055200026E73FE44EE05FE36DA97EA98FA998AD21
:105530000E94E4729B01AC01C701B6010E941E7477
:105540006B017C012DE435E14CE85CE36DA17EA1AB
:105550008FA198A50E94E4729B01AC01C701B6011E
:105560000E941F742BE733E84FE75FE30E941F742C
:1055700069AB7AAB8BAB9CAB60938505709386056A
:10558000809387059093880565E7C62E65E0D62E43
:1055900071E7E72E75E0F72E0DE615E029E635E018
:1055A00049E855E06DE075E089E095E00E941B0B4D
:1055B0004B015C01DC01CB01B05880934D05909309
:1055C0004E05A0934F05B09350058091DC04909157
:1055D000DD04A091DE04B091DF0489879A87AB8750
:1055E000BC8729A53AA54BA55CA5BC01CD010E94AD
:1055F000E4722D966CAF7DAF8EAF9FAF2D979B0160
:10560000AC0169897A898B899C890E941E746DA37B
:105610007EA38FA398A769837A838B839C8349E6B3
:1056200055E0BE016F5F7F4F89E095E00E94DE2468
:105630006D877E878F87988BDC01CB01B058809374
:10564000510590935205A0935305B0935405A301BF
:10565000920169857A858B859C850E94E4726196AA
:105660006CAF7DAF8EAF9FAF61979B01AC01698935
:105670007A898B899C890E941F749B01AC012196B9
:105680006CAD7DAD8EAD9FAD21970E941E7469A754
:105690007AA78BA79CA769837A838B839C83A701B6
:1056A000BE016F5F7F4F8DE095E00E94DE242B01ED
:1056B0003C01DC01CB01B058809355059093560511
:1056C000A0935705B093580520E030E0A901C5012B
:1056D000B4010E947E7287FF6BC32FE632E143E87C
:1056E0005AEBC501B4010E945F7618160CF46AC328
:1056F00025E8C22E25E0D22E31E8E32E35E0F32E48
:105700000DE715E029E735E04DE855E06DE075E07F
:1057100089E095E00E941B0BA50194010E941E7474
:105720002FE632E143E85AE30E941D7560931D05A0
:1057300070931E0580931F059093200580910905A5
:1057400090910A05A0910B05B0910C0565968CAF60
:105750009DAFAEAFBFAF65972AE037ED43E25CE3A4
:10576000BC01CD010E941F746DAB7EAB8FAB98AFB7
:1057700069837A838B839C8345E7C42E45E0D42ECE
:1057800051E7E52E55E0F52E0DE615E029E635E06A
:1057900049E855E06DE075E0CE0101960E941B0BD3
:1057A000A50194010E941E742AE037ED43E25CE3F8
:1057B0000E941D7560932105709322058093230537
:1057C0009093240580910D0590910E05A0910F05F1
:1057D000B09110056A968CAF9DAFAEAFBFAF6A9720
:1057E0002AE037ED43E25CE3BC01CD010E941F7467
:1057F00069AF7AAF8BAF9CAF69837A838B839C83CD
:1058000029E635E049E855E0BE016F5F7F4F89E04A
:1058100095E00E941B0BA50194010E941E742AE0D2
:1058200037ED43E25CE30E941D756093250570939C
:10583000260580932705909328052DA53EA54FA505
:1058400058A969857A858B859C850E94E4729B01A5
:10585000AC0169897A898B899C890E941E7469834D
:105860007A838B839C8349E755E0BE016F5F7F4F4E
:1058700089E095E00E94DE242D853E854F8558897C
:105880000E941E742FE632E143E85AE30E941D7520
:105890006093290570932A0580932B0590932C051E
:1058A0008DA19EA1AFA1B8A58D839E83AF83B8873C
:1058B0008DA99EA9AFA9B8AD89839A83AB83BC8318
:1058C00049E655E0BE016B5F7F4FCE0101960E9415
:1058D000DE242D853E854F8558890E941E742AE05E
:1058E00037ED43E25CE30E941D7560932D057093D4
:1058F0002E0580932F05909330051092310510925C
:105900003205109233051092340529A93AA94BA902
:105910005CA969857A858B859C850E94E4722989BA
:105920003A894B895C890E941F749B01AC012196C6
:105930006CAD7DAD8EAD9FAD21970E941E746B0145
:105940007C01C982DA82EB82FC8241E855E0BE012B
:105950006F5F7F4F8DE095E00E94DE24A3019201EE
:105960000E941E742FE632E143E85AE30E941D753F
:10597000609335057093360580933705909338050D
:105980001092390510923A0510923B0510923C0591
:10599000CD82DE82EF82F88689AD9AADABADBCAD2B
:1059A00089839A83AB83BC8341E755E0BE016B5F7B
:1059B0007F4FCE0101960E94DE24A30192010E9436
:1059C0001E742AE037ED43E25CE30E941D7560938C
:1059D0003D0570933E0580933F0590934005A5E2F9
:1059E000B5E0BE87AD87EDE3F5E0FEABEDAB28E1BA
:1059F00030E03AAF29AF82E090E09EA78DA7EDA5F9
:105A0000FEA53196A896FFAFEEAFA8972DE435E03E
:105A100023963FAF2EAF23978D859E8527969FAF08
:105A20008EAF279794E0692E712C1AAA19AAA9ADF6
:105A3000BAAD1897AC96BFAFAEAFAC97EDA9FEA9C3
:105A400020813181428153812796AEADBFAD27972A
:105A50006D917D918D919C910E941D756B017C01D2
:105A600081E2482E85E0582E4618570801E010E0E4
:105A7000F20181909190A190B1902F019F0124504B
:105A80003109AA963FAF2EAFAA97F301E40DF51D99
:105A9000AC968EAD9FADAC97E80FF91F2081318198
:105AA00042815381C701B6010E94E4729B01AC019F
:105AB000C501B4010E941E74AA96AEADBFADAA97EF
:105AC0006D937D938D939C9313970F5F1F4FA896B3
:105AD000EEADFFADA897E017F10754F62396AEADF3
