:100000000C94560A0C94AF540C9484540C94595488
:100010000C942E540C9403540C94D8530C94AD535C
:100020000C9482530C94870A0C94870A0C94870AC8
:100030000C94870A0C94870A0C94870A0C94870AFC
:100040000C94870A0C94C3550C94870A0C94870A65
:100050000C9479410C94870A0C94870A0C948A5C5E
:100060000C94870A0C9403550C94DA540C94870A68
:100070000C94870A0C94870A0C94870A0C94870ABC
:100080000C9495550C94870A0C94870A0C94870A53
:100090000C94870A0C94870A0C94870A0C94870A9C
:1000A0000C94870A0C94870A0C9467550C94870A61
:1000B0000C94870A0C94870A0C94870A0C9439557F
:1000C0000C94870A0C94870A0C94870A0C94870A6C
:1000D0000C94870A0C94870A0C94870A0C94870A5C
:1000E0000C94870AC266C266C266C266C266C266EF
:1000F000C266C266C26640674D67586763679C67A1
:100100000A6BBD67C867D867E367F0670F68366832
:100110003668366836683668366836683668B16874
:10012000B168B168B168B168B168B168B168246993
:1001300031697169836990699D69AA69B9690A6BB6
:10014000B969B969B969B969B969B969B969B9699F
:10015000B969B969B969B969B969DA66E766F6660C
:10016000036710671D672A6733674E6857686068C2
:10017000696872687B688468C968D268DB68E4680B
:10018000ED68F668FF68C569806AD569E569F26956
:10019000FF690C6A196A266A336A406A4D6A5A6AAC
:1001A000676A746A6D1685169B168516DE16BB1671
:1001B0006D166D16BB16DE1685169B1685166D160A
:1001C000F059F359E259E659EC592A5AF759FB59B3
:1001D000015A055A095A0F5A135A175A2A5A1D5AC0
:1001E000215A255AB95BBE5BC35BCD5BD75B505CC4
:1001F000E15BE95BF15BFB5B055C0F5C1E5C285C13
:10020000505C325C3C5C465C036EDB363D9A9999EF
:10021000993DABAAAA2A3E000000803F084AD73B7E
:100220003BCE016E84BCBFFDC12F3D6C74319ABDC5
:1002300056833DDA3D00C77F11BED9E4BB4C3E91E9
:100240006BAAAABE000000803F072C7AA5BA6CC535
:1002500090DA3B9365FC8BBC53F810FD3C569283BF
:100260004DBD879D3AB63DCBC9BF5BBE73DA0FC9A2
:100270003F05A84CCDB2D44EB93836A9020C50B9BE
:10028000918688083CA6AAAA2ABE000000803F06E4
:1002900064EC1B3C04BC163E3BE5B93CC93C37C290
:1002A0009E5A3D660498083EEA69AAAA3E000000EC
:1002B000803F4E414E494E495459494E46CDCCCCD3
:1002C0003D0AD7233C17B7D13877CC2B329595E62A
:1002D000241FB14F0A000020410000C84200401C0A
:1002E0004620BCBE4CCA1B0E5AAEC59D7400407A57
:1002F00010F35A00A0724E18090010A5D4E80000AF
:10030000E87648170000E40B54020000CA9A3B004C
:100310000000E1F505000080969800000040420FC3
:10032000000000A08601000000102700000000E887
:1003300003000000006400000000000A000000004C
:10034000000100000000002C76D888DC674F0823ED
:10035000DFC1DFAE59E1B1B796E5E3E453C63AE653
:1003600051997696E8E6C28426EB898C9B62ED4033
:100370007C6FFCEFBC9C9F40F2BAA56FA5F4900582
:100380005A2AF75C936B6CF9676DC11BFCE0E40DB6
:1003900047FEF520E6B500D0ED902E0300943577AA
:1003A000050080841E080000204E0A000000C80CD2
:1003B000333333330F986E12831141EF8D2114893B
:1003C0003BE65516CFFEE6DB18D1844B381BF77C95
:1003D0001D901DA4BBE424203284725E228100C9DA
:1003E000F124ECA1E53D27546F6F6C206368616ECA
:1003F000676520746F20746F6F6C200020746F6FBE
:100400002073686F7274202D2069676E6F72656447
:100410002E00436F6D6D616E64200020756E7375E4
:1004200070706F7274656420616E642069676E6FAE
:100430007265642E00436F6D6D616E64204D0054D3
:100440006F6F6C204368616E67653A20506C656120
:10045000736520696E7365727420746F6F6C200011
:100460004669726D776172652056657273696F6E49
:1004700020002000526573746F72696E6720646596
:100480006661756C7473004D6573736167653A20BE
:1004900000202863616C5935290D0A00202863610A
:1004A0006C5934290D0A00202863616C5933290DD9
:1004B0000A00202863616C5932290D0A0020286344
:1004C000616C5931290D0A00202863616C5930296B
:1004D0000D0A00202863616C5835290D0A00202878
:1004E00063616C5834290D0A00202863616C58330D
:1004F000290D0A00202863616C5832290D0A00205A
:100500002863616C5831290D0A00202863616C58FA
:1005100030290D0A00202875736520696E74657294
:1005200070206F72206375727665290D0A0020288D
:10053000656E61626C652063616C69627261746989
:100540006F6E290D0A00202843656E74657220596C
:10055000204572726F722C206D6D290D0A002028C3
:1005600043656E7465722058204572726F722C203C
:100570006D6D290D0A0020287269676874204D6F1F
:10058000746F7220592C206D6D290D0A002028727D
:1005900069676874204D6F746F7220582C206D6DE0
:1005A000290D0A0020286C656674204D6F746F72E7
:1005B00020592C206D6D290D0A0020286C65667469
:1005C000204D6F746F7220582C206D6D290D0A001C
:1005D0002028746F70206265616D2074696C742CC2
:1005E0002064656772656573290D0A002028706FA5
:1005F000736974696F6E206572726F7220616C61CD
:10060000726D206C696D69742C206D6D2900202835
:10061000636861696E20746F6C6572616E63652CCE
:1006200020726967687420636861696E2C206D6D43
:10063000290D0A2434323D002028636861696E2048
:10064000746F6C6572616E63652C206C65667420D6
:10065000636861696E2C206D6D290D0A2434313D6B
:1006600000202850574D206672657175656E63795C
:100670002076616C756520313D33392C303030483F
:100680007A2C20323D342C313030487A2C20333DC6
:10069000343930487A290D0A2434303D002028634B
:1006A0006861696E206F766572207370726F636B1C
:1006B0006574290D0A2433393D0020286368616977
:1006C0006E2073616720636F7272656374696F6E09
:1006D0002076616C7565290D0A2433383D00202889
:1006E0007A20617869732056656C6F63697479202C
:1006F00070726F706F7274696F6E616C207765696C
:10070000676874290D0A2433373D0020287A206158
:10071000786973204B642056656C6F63697479291E
:100720000D0A2433363D0020287A20617869732031
:100730004B692056656C6F63697479290D0A2433FF
:10074000353D0020287A2061786973204B7020564F
:10075000656C6F63697479290D0A2433343D002078
:10076000287A206178697320506F732070726F70DF
:100770006F7274696F6E616C207765696768742940
:100780000D0A2433333D0020287A206178697320D4
:100790004B6420506F73290D0A2433323D0020280A
:1007A0007A2061786973204B6920506F73290D0A94
:1007B0002433313D0020287A2061786973204B7002
:1007C00020506F73290D0A2433303D0020286D61BD
:1007D000696E2056656C6F636974792070726F70F2
:1007E0006F7274696F6E616C2077656967687429D0
:1007F0000D0A2432393D0020286D61696E204B645A
:100800002056656C6F63697479290D0A2432383D6E
:100810000020286D61696E204B692056656C6F63FE
:10082000697479290D0A2432373D0020286D6169E9
:100830006E204B702056656C6F63697479290D0AC0
:100840002432363D0020286D61696E20506F732080
:1008500070726F706F7274696F6E616C207765690A
:10086000676874290D0A2432353D0020286D6169BE
:100870006E204B6420506F73290D0A2432343D00E2
:1008800020286D61696E204B6920506F73290D0A15
:100890002432333D0020286D61696E204B7020505A
:1008A0006F73290D0A2432323D0020287A206178A6
:1008B0006973207374657073207065722072657639
:1008C0006F6C7574696F6E290D0A2432313D0020FA
:1008D000287A20617869732064697374616E636536
:1008E000202F20726F746174696F6E290D0A243293
:1008F000303D0020286D6178207A2061786973206E
:1009000052504D290D0A2431393D0020286175745B
:100910006F207370696E646C6520656E61626C65D2
:1009200020313D736572766F2C20323D72656C61AB
:10093000795F682C20333D72656C61795F6C290D9D
:100940000A2431383D0020284175746F205A204117
:100950007869732C2031203D20596573290D0A24B4
:1009600031373D0020286D617820666565642C2054
:100970006D6D2F6D696E290D0A2431363D002028DA
:1009800064697374616E6365202F20726F74617483
:10099000696F6E2C206D6D290D0A2431353D0020C4
:1009A000286D61696E2073746570732070657220A4
:1009B0007265766F6C7574696F6E290D0A24313318
:1009C0003D00202863616C6962726174696F6E20FA
:1009D000636861696E206C656E6774682C206D6D4C
:1009E000290D0A2431323D00202866756C6C206C7C
:1009F000656E677468206F6620636861696E2C207D
:100A00006D6D290D0A2431313D002028617869730C
:100A10002069646C65206265666F72652064657428
:100A20006163682C206D73290D0A2431303D00204C
:100A300028726F746174696F6E2072616469757376
:100A40002C206D6D290D0A24393D0020284B696E3C
:100A5000656D6174696373205479706520313D510F
:100A600075616472696C61746572616C2C20323DD1
:100A7000547269616E67756C6172290D0A24383D84
:100A8000002028736C65642063672C206D6D290D30
:100A90000A24373D002028736C6564206865696707
:100AA00068742C206D6D290D0A24363D00202873B2
:100AB0006C65642077696474682C206D6D290D0A5B
:100AC00024353D0020286D6F746F7220686569675A
:100AD00068742C206D6D290D0A24343D0020286D8A
:100AE0006F746F722064697374616E63652C206D1E
:100AF0006D290D0A24333D0020286D616368696EFD
:100B000065206865696768742C206D6D290D0A245D
:100B1000323D0020286D616368696E6520776964E5
:100B200074682C206D6D290D0A24313D0024303D60
:100B3000002120286665656420686F6C6429007E4A
:100B400020286379636C65207374617274290024B2
:100B5000783D76616C7565202873617665204D61FE
:100B6000736C6F772073657474696E672900242431
:100B7000202876696577204D61736C6F77207365E7
:100B80007474696E677329002D2D50494420566591
:100B90006C6F6369747920546573742053746F703B
:100BA0002D2D0A00736574706F696E742C696E70F8
:100BB00075742C6F7574707574002D2D5049442018
:100BC00056656C6F6369747920546573742053742F
:100BD0006172742D2D002D2D50494420506F736982
:100BE00074696F6E20546573742053746F702D2D6B
:100BF0000A00736574706F696E742C696E70757419
:100C00002C6F75747075742C72706D696E7075745C
:100C10002C766F6C74616765002D2D50494420500F
:100C20006F736974696F6E205465737420537461B7
:100C300072742D2D002D2D566F6C746167652054D4
:100C40006573742053746F702D2D0A000A002C00F8
:100C50002D2D566F6C746167652054657374205335
:100C6000746172742D2D005D005B4D65617375724A
:100C7000653A20004D6573736167653A2054686575
:100C8000206D616368696E6520636861696E7320B9
:100C900068617665206265656E206D616E75616C58
:100CA0006C792072652D63616C6962726174656430
:100CB0002E006D6D0052696768743A20006D6D00FA
:100CC0004C6566743A20006D6D0052696768743A2D
:100CD00020006D6D004C6566743A20005365747495
:100CE000696E6720436861696E204C656E67746841
:100CF0007320546F3A2000546573747320636F6DD2
:100D0000706C6574652E004D6F746F722043616C5A
:100D10006962726174696F6E204E6F74204E6565F2
:100D2000646564003C49646C652C4D506F733A30C7
:100D30002C302C302C57506F733A302E3030302CF2
:100D4000302E3030302C302E3030303E004469723E
:100D5000656374696F6E2032202D204661696C00D6
:100D6000446972656374696F6E2032202D20506172
:100D70007373003C49646C652C4D506F733A302C92
:100D8000302C302C57506F733A302E3030302C309E
:100D90002E3030302C302E3030303E0044697265B9
:100DA0006374696F6E2031202D204661696C0044A8
:100DB0006972656374696F6E2031202D20506173F4
:100DC00073003C49646C652C4D506F733A302C3085
:100DD0002C302C57506F733A302E3030302C302E50
:100DE0003030302C302E3030303E00206D6F746F3C
:100DF000723A0054657374696E6720005A65726FA9
:100E0000696E672043616C6962726174696F6E0D0F
:100E10000A00206D6D0020696E002B004D65737314
:100E20006167653A20506C656173652061646A751D
:100E30007374205A2D4178697320746F2061206487
:100E400065707468206F662000202E20506C6561EC
:100E50007365207365742074686520636861696ECA
:100E60007320746F2061206B6E6F776E206C656EDF
:100E70006774682028416374696F6E73202D3E206B
:100E800053657420436861696E204C656E677468B1
:100E90007329004D6573736167653A20556E616211
:100EA0006C6520746F2066696E642076616C69647D
:100EB000206D616368696E6520706F736974696F16
:100EC0006E20666F7220636861696E206C656E6764
:100ED00074687320005B466F7277617264204361AF
:100EE0006C63756C6174696E6720506F73697469A7
:100EF0006F6E5D0020697320696E76616C69642E87
:100F0000204F6E6C79204733382E32207265636F24
:100F1000676E697A65642E00473338006572726FB8
:100F2000723A2070726F626520646964206E6F741B
:100F300020636F6E6E6563740A70726F6772616DA5
:100F40002073746F707065640A7A20617869732009
:100F50006E6F74207365740A007A2061786973205B
:100F60007A65726F656400206D6D20706572206D0A
:100F7000696E2E0066656564726174652000206D7F
:100F80006D2E006D61782064657074682000707249
:100F90006F62696E6720666F72207A20617869736C
:100FA000207A65726F004733382E322067636F6492
:100FB00065206F6E6C792076616C69642077697446
:100FC00068207A2D61786973206174746163686543
:100FD0006400206D732E00207365636F6E64730070
:100FE0006477656C6C2074696D65200020756E7384
:100FF0007570706F7274656420616E642069676ECD
:101000006F7265642E00436F6D6D616E64204700E2
:1010100028456E64206F66204275666665722900F9
:101020005C74005C72005C6E0042756666657220DE
:10103000436F6E74656E74733A2000427566666520
:101040007220456E643A20004275666665722042E1
:101050006567696E3A2000427566666572204E7556
:101060006D626572206F66204C696E65733A200070
:1010700042756666657220557365643A2000427554
:1010800066666572206F766572666C6F77210054B4
:10109000686520736C6564206973206E6F74206BC3
:1010A000656570696E67207570207769746820695E
:1010B000747320657870656374656420706F7369FC
:1010C00074696F6E20616E64206861732068616C62
:1010D0007465642E20436C69636B207468652027F7
:1010E00053746F702720627574746F6E20746F2054
:1010F000636C6561722074686520616C61726D2E2D
:10110000204D6F726520696E666F726D6174696FD4
:101110006E2061743A2068747470733A2F2F676977
:10112000746875622E636F6D2F4D61736C6F7743BA
:101130004E432F4669726D776172652F77696B69CF
:101140002F4B656570696E672D5570202000414CEE
:1011500041524D3A20005D005B50453A002C5750FB
:101160006F733A302E3030302C302E3030302C30FF
:101170002E3030303E002C002C0049646C652C4D24
:10118000506F733A0050617573652C4D506F733A10
:101190000053746F702C4D506F733A003C002C005C
:1011A0002C002C002C007265616479004772626C1F
:1011B0002076312E30300020446574656374656498
:1011C0000020544C453532303620005043422076C2
:1011D000312E00496E76616C69642067636F6465C7
:1011E0002049443A00454550524F4D207265616494
:1011F000206661696C2E205573696E672064656690
:1012000061756C742073657474696E67732E005019
:101210006C6561736520736574202431322C202441
:1012200031332C202431392C20616E64202432305B
:1012300020746F206C6F6164206F6C6420706F731A
:101240006974696F6E20646174612E00496E766105
:101250006C69642073746174656D656E74004261BD
:1012600064206E756D62657220666F726D617400C8
:101270006572726F723A20006F6B00506C6561731B
:101280006520736574202431322C202431332C20C6
:101290002431392C20616E642024323020746F2078
:1012A0006C6F616420706F736974696F6E2E004F8C
:1012B0006C6420706F736974696F6E20646174610F
:1012C0002064657465637465642E005475726E697C
:1012D0006E67205370696E646C65204F66660054BB
:1012E00075726E696E67205370696E646C65204F0D
:1012F0006E005475726E696E67205370696E646C0F
:1013000065204F6666005475726E696E6720537073
:10131000696E646C65204F6E005475726E696E67FD
:10132000205370696E646C65204F66660054757258
:101330006E696E67205370696E646C65204F6E0035
:101340004D61736C6F7720506175736564000102A5
:1013500010202008081020401020408002010201C7
:10136000080402010102040810204080804020107F
:1013700008040201800402018040201008040201D8
:101380000804020101020408102040800102040840
:1013900010204080000020002300260029002C009F
:1013A0002F003200000100000301060109010505BC
:1013B0000505070508080808020202020A0A0808CB
:1013C00004040404010101010101010103030303F9
:1013D00003030303040707070C0C0C0C0C0C0C0C88
:1013E0000202020206060606060606060B0B0B0B99
:1013F0000B0B0B0B00002100240027002A002D00FE
:101400003000330001010000040107010A0100005F
:101410002200250028002B002E003100340002019C
:101420000000050108010B0100000A0B02090C0D68
:101430000E08070304010000000000000000000087
:10144000000000000000000000000000000000009C
:101450000000000012111000000000000000000059
:1014600000000000000000000000000000006D6DA2
:10147000004D6561737572696E67206F75742072B7
:101480006967687420636861696E006D6D004D6501
:1014900061737572696E67206F7574206C65667410
:1014A00020636861696E00006E6D046D11241FBEBB
:1014B000CFEFD1E2DEBFCDBF00E00CBF13E0A0E074
:1014C000B2E0E8EAF2EF00E00BBF02C007900D9235
:1014D000A432B107D9F721E1A4E2B3E001C01D9223
:1014E000AB35B207E1F71AE0C5E5DAE000E006C087
:1014F00021970109802FFE010E94CB76C435D107C8
:1015000080E00807A9F70E9446600C9443790C9488
:1015100000002F923F924F925F926F927F928F9234
:101520009F92AF92BF92CF92DF92EF92FF920F9372
:101530001F93CF93DF93CDB7DEB7CE54D1090FB64B
:10154000F894DEBF0FBECDBF23E030E040E050E0B6
:1015500069EF7FE0CE0101960E943F536FE672E093
:10156000CE0101960E94B051182FCE0101960E9423
:101570001E53112319F087E09DE075C223E030E08F
:1015800040E050E069EF7FE0CE0101960E943F53BA
:1015900063E772E0CE0101960E94B0518F8BCE01BD
:1015A00001960E941E532F89222389F069EF7FE064
:1015B000CE0101960E942353CE0101960E942C5D1C
:1015C000CE0101960E941E531F8A0C94141423E02E
:1015D00030E040E050E069EF7FE0CE0101960E94EC
:1015E0003F5367E772E0CE0101960E94B051182F79
:1015F000CE0101960E941E53112309F458C0809118
:10160000270380688093270364EF71E080E090E017
:101610000E9421448091260381110C94141480E5CA
:101620009EE00E94F81664EF71E080E090E00E9476
:1016300021448091260381110C94141481E49DE0CF
:101640000E94F81664EF71E080E090E00E9421446F
:101650008091260381110C94141482E39CE00E9473
:10166000F81687EF9CE00E94645880E59EE00E9497
:10167000611869837A838B839C83BE016F5F7F4F80
:1016800080E59EE00E94F51581E49DE00E946118CE
:1016900069837A838B839C83BE016F5F7F4F81E474
:1016A0009DE00E94F515109227030C94141423E07A
:1016B00030E040E050E069EF7FE0CE0101960E940B
:1016C0003F536BE772E0CE0101960E94B051182F94
:1016D000CE0101960E941E53112309F451C08CEDD6
:1016E0009CE00E94645819821A821B821C82AE01FF
:1016F0004F5F5F4F6CE489EF9FE00E94C21B6D87D4
:101700007E878F87988B19821A821B821C82AE017A
:101710004F5F5F4F62E589EF9FE00E94C21B6F83BE
:10172000788789879A87BE01635F7F4F80E59EE057
:101730000E94F515BE01695F7F4F81E49DE00E9424
:10174000F51585ED9CE00E94355880E59EE00E94ED
:10175000611842E050E00E947C5982ED9CE00E94BA
:1017600064588AEC9CE00E94355881E49DE00E9418
:10177000611842E050E00E947C5987EC9CE07CC0FC
:1017800023E030E040E050E069EF7FE0CE010196D9
:101790000E943F536FE772E0CE0101960E94B05164
:1017A000182FCE0101960E941E53112309F467C021
:1017B0006091B1107091B21080E090E00E948E7242
:1017C00069837A838B839C83BE016F5F7F4F80E543
:1017D0009EE00E94F5156091B1107091B21080E00A
:1017E00090E00E948E7269837A838B839C83BE0112
:1017F0006F5F7F4F81E49DE00E94F51580EC9CE0D7
:101800000E94355880E59EE00E94611842E050E059
:101810000E947C598DEB9CE00E94645885EB9CE013
:101820000E94355881E49DE00E94611842E050E03A
:101830000E947C5982EB9CE00E94645881E49DE008
:101840000E9461186F83788789879A8780E59EE078
:101850000E94611869837A838B839C83E12CF12C2D
:101860008701A8019701BE01695F7F4FCE010196F4
:101870000E94CA2F84E79CE00E946458D5C723E0E9
:1018800030E040E050E069EF7FE0CE0101960E9439
:101890003F5363E872E0CE0101960E94B051182FC9
:1018A000CE0101960E941E53112309F4ABC0198288
:1018B0001A821B821C82AE014F5F5F4F6CE489EF7E
:1018C0009FE00E94C21B6B8B7C8B8D8B9E8B198241
:1018D0001A821B821C82AE014F5F5F4F62E589EF67
:1018E0009FE00E94C21B6D877E878F87988B80E068
:1018F00090E0A8E4B4E489839A83AB83BC83AE010F
:101900004F5F5F4F66E489EF9FE00E94C21B6F83C9
:10191000788789879A8780913D03882309F45DC081
:10192000CB88DC88ED88FE8820E030E0A901C70183
:10193000B6010E941D7618164CF020E030E0A90197
:10194000C701B6010E948A7287FF1AC080E59EE037
:101950000E9461189B01AC016B897C898D899E89ED
:101960000E941A7469837A838B839C83AE01495FDA
:101970005F4FBE016F5F7F4F80E59EE00E94801841
:10198000CD84DE84EF84F88820E030E0A901C7012F
:10199000B6010E941D7618164CF020E030E0A90137
:1019A000C701B6010E948A7287FF0ECE81E49DE0D6
:1019B0000E9461189B01AC016D857E858F85988999
:1019C0000E941A7469837A838B839C83AE01495F7A
:1019D0005F4FBE016F5F7F4F10C0AE01495F5F4F29
:1019E000BE016D5E7F4F80E59EE00E948018AE01D3
:1019F000495F5F4FBE01635F7F4F81E49DE00E94BE
:101A00008018E2CD23E030E040E050E069EF7FE075
:101A1000CE0101960E943F5367E872E0CE01019625
:101A20000E94B051182FCE0101960E941E5311231F
:101A3000E9F089E69CE00E94355840E050E06CE413
:101A400089EF9FE00E947151019619F080E59EE0B8
:101A500002C081E49DE00E94611842E050E00E94D3
:101A60007C5987E69CE00E946458AECD23E030E0CC
:101A700040E050E069EF7FE0CE0101960E943F53C5
:101A80006BE872E0CE0101960E94B051182FCE0192
:101A900001960E941E53112309F466C080E090E075
:101AA000A8ECB2E489839A83AB83BC83AE014F5F19
:101AB0005F4F63E589EF9FE00E94C21B6B017C01D1
:101AC00080E090E0A0E8BFE389839A83AB83BC8386
:101AD000AE014F5F5F4F64E589EF9FE00E94C21B3C
:101AE00020E030E04AE754E40E94EF724B015C01D1
:101AF0000E947E5C0E948E722B013C018091270324
:101B00008068809327030E947E5C0E948E72A301EE
:101B100092010E9419749B01AC01C501B4010E949D
:101B20001D7618160CF080C640E050E06CE489EF9A
:101B30009FE00E947151019641F0C701B6010E94D9
:101B4000627541E084E69EE007C0C701B6010E94CD
:101B5000627541E085E59DE082D60E940742809152
:101B60002603882381F260C623E030E040E050E0A5
:101B700069EF7FE0CE0101960E943F536FE872E06B
:101B8000CE0101960E94B0518F8BCE0101960E942A
:101B90001E535F89552309F45EC219821A821B8283
:101BA0001C82AE014F5F5F4F6CE489EF9FE00E94A3
:101BB000C21B2B013C0119821A821B821C82AE01BE
:101BC0004F5F5F4F6AE589EF9FE00E94C21B4B01A8
:101BD0005C01C12CD12C60E8E62E6FE3F62EC982A1
:101BE000DA82EB82FC82AE014F5F5F4F63E589EFE3
:101BF0009FE00E94C21B6F8F7B8F8BA39FA3C98224
:101C0000DA82EB82FC82AE014F5F5F4F66E489EFC0
:101C10009FE00E94C21B6F8B788F898F9A8FC98239
:101C2000DA82EB82FC82AE014F5F5F4F69E489EF9D
:101C30009FE00E94C21B6BAB7CAB8DAB9EABC9829D
:101C4000DA82EB82FC82AE014F5F5F4F66E589EF7F
:101C50009FE00E94C21B6FAB78AF89AF9AAF20E0C4
:101C600030E0A901C301B2010E941D7618161CF4D0
:101C700000E51EE002C001E41DE020E030E0A90123
:101C8000C501B4010E941D76181614F402E31CE08D
:101C90008AEB9BE00E94645863E972E0CE010796EC
:101CA0000E942B53F801E255FF4F0190F081E02D87
:101CB0004080518062807380F801E455FF4F0190AD
:101CC000F081E02DC080D180E280F380F801E655FC
:101CD000FF4F0190F081E02D80809180A280B38041
:101CE000BE01695F7F4FCE0101960E942353B5016B
:101CF000A401CE0101960E94B25267E972E00E94EF
:101D0000BE52B701A6010E94B2526CE972E00E9475
:101D1000BE52B301A2010E94B252BC01CE010D9687
:101D20000E942353CE0101960E941E53CE010796B6
:101D30000E941E53CE010D960E94E15DCE010D96CC
:101D40000E941E5320E030E040E050E46FA978ADDF
:101D500089AD9AAD0E948A72811104C084EA9BE029
:101D60000E9464580E94595C0E948E726BAF7CAFD7
:101D70008DAF9EAF0E94595C0E948E727B01782EBF
:101D8000692E2F8D3B8D4BA15FA16F89788D898D39
:101D90009A8D0E94197423966CAF7DAF8EAF9FAF62
:101DA0002397F801E653FF4F16AE81E0D8015A960B
:101DB0008C93C12CD12CED57F1092D96FFAFEEAFCE
:101DC0002D9798012F593F4F2F963FAF2EAF2F974A
:101DD000A80145595F4F588F4F8BB6010D2C000C51
:101DE000880B990B0E9490724B015C019B01AC0126
:101DF0006BA97CA98DA99EA90E941D7618160CF0CE
:101E0000E6C0C114D10411F120E030E040E85FE306
:101E10006BA97CA98DA99EA90E9419749B01AC0194
:101E2000C501B4010E94FA7423962CAD3DAD4EADB0
:101E30005FAD23970E94EF722F8D3B8D4BA15FA169
:101E40000E941A746FA77BA71C0106C05F8D5FA755
:101E50008B8D8BA72BA03FA00E94595C0E948E7295
:101E600027966CAF7DAF8EAF9FAF27978FA59BA5B1
:101E7000D1012D96EEADFFAD2D9780839183A28386
:101E8000B38320E034E244EF59E427966CAD7DAD96
:101E90008EAD9FAD27970E941A749701472D562D3E
:101EA0000E941D7618160CF08EC02BAD3CAD4DADCA
:101EB0005EADB701872D962D0E94197420E030E4A5
:101EC0004CE156E40E941D7618160CF074C020E018
:101ED00030E040E050E46FA978AD89AD9AAD0E9442
:101EE0008A72811155C0AF89B88D9096ED91FC91A1
:101EF000919780809180A280B3809496ED91FC911F
:101F0000959740805180628073809296ED91FC910C
:101F1000939720813181428153812B962CAF3DAF25
:101F20004EAF5FAF2B9767E173E0CE0101960E9441
:101F30002B53B301A201CE0101960E945D5241E0F4
:101F400050E061EA72E0CE0101960E943052B50184
:101F5000A401CE0101960E945D5241E050E061EA89
:101F600072E0CE0101960E9430522B964CAD5DADD1
:101F70006EAD7FAD2B97CE0101960E945D52CE01D2
:101F800001960E94E15DCE0101960E941E5313C08E
:101F90002FA53BA5A1012F96AEADBFAD2F976D919B
:101FA0007D918D919C910E9419740E94EB5DEBAE26
:101FB000FCAE7DAE6EAE0E94595C0E948E727B01BB
:101FC000782E692E5ECFBFEFCB1ADB0A06CFF80161
:101FD000E35BFF4F108211821282138288E89BE03C
:101FE0000E946458C8010E94611869837A838B83B8
:101FF0009C83BE016F5F7F4FC8012FD5C8014496F7
:10200000F6D406531F4FF80186AD811103C0C801F5
:102010000E94EB4581E0D801DE968C9381E49DE03F
:102020000E94611869837A838B839C8380E59EE09C
:102030000E9461186F83788789879A87E12CF12C39
:102040008701A8019701BE016F5F7F4FCE01079600
:102050000E94CA2FB9CA23E030E040E050E069EFA7
:102060007FE0CE0101960E943F5363EA72E0CE0109
:1020700001960E94B051182FCE0101960E941E5366
:10208000112309F457C219821A821B821C82AE01E5
:102090004F5F5F4F6CE489EF9FE00E94C21B2B01F2
:1020A0003C0119821A821B821C82AE014F5F5F4F76
:1020B0006AE589EF9FE00E94C21B4B015C01C12CC5
:1020C000D12C50E8E52E5FE3F52EC982DA82EB824F
:1020D000FC82AE014F5F5F4F63E589EF9FE00E9496
:1020E000C21B6B8F7C8F8D8F9E8FC982DA82EB82B1
:1020F000FC82AE014F5F5F4F66E489EF9FE00E9474
:10210000C21B6BA77CA78DA79EA7C982DA82EB8230
:10211000FC82AE014F5F5F4F69E489EF9FE00E9450
:10212000C21B6FA778AB89AB9AAB80E090E0AAEFB7
:10213000B4E489839A83AB83BC83AE014F5F5F4F66
:1021400064E589EF9FE00E94C21B6BAB7CAB8DAB5B
:102150009EABC982DA82EB82FC82AE014F5F5F4F99
:1021600066E589EF9FE00E94C21B6BA37CA38DA351
:102170009EA320E030E0A901C301B2010E941D76B8
:1021800018162CF440E5242E4EE0342E04C031E421
:10219000232E3DE0332E20E030E0A901C501B4013B
:1021A0000E941D76181624F422E3222E2CE0322EF3
:1021B00089E19CE00E94645863E972E0CE010796D1
:1021C0000E942B53F101E853FF4F0190F081E02D65
:1021D0004080518062807380F101EA53FF4F01908B
:1021E000F081E02DC080D180E280F380F101EC53DA
:1021F000FF4F0190F081E02D80809180A280B3801C
:10220000BE01695F7F4FCE0101960E942353B50145
:10221000A401CE0101960E94B25267E972E00E94C9
:10222000BE52B701A6010E94B2526CE972E00E9450
:10223000BE52B301A2010E94B252BC01CE010D9662
:102240000E942353CE0101960E941E53CE01079691
:102250000E941E53CE010D960E94E15DCE010D96A7
:102260000E941E5320E030E040E050E46BA17CA1CE
:102270008DA19EA10E948A72811104C082EF9BE011
:102280000E9464580E94595C2B013C010E94595CD9
:10229000C10117D76F8F78A389A39AA39B01AC01C3
:1022A0006B8D7C8D8D8D9E8D0E941A746FA378A787
:1022B00089A79AA72F8D38A149A15AA16BA57CA502
:1022C0008DA59EA50E941A742FA138A549A55AA5CF
:1022D0000E9419746BA77CA78DA79EA781E0F101CE
:1022E000828F1C8E1B8E2B8D3C8DB901330F880B7A
:1022F000990B0E9490726B017C019B01AC016FA550
:1023000078A989A99AA90E941D7618160CF09CC07C
:102310004B8D5C8D452B49F48FA198A5A9A5BAA535
:102320008D879E87AF87B88B20C020E030E040E8E3
:102330005FE36FA578A989A99AA90E9419749B01E6
:10234000AC01C701B6010E94FA742BA53CA54DA5AE
:102350005EA50E94EF722FA138A549A55AA50E943B
:102360001A746D877E878F87988B0E94595C4B010A
:102370005C010E94595C6B017C01BE01635F7F4F71
:10238000C1016BD3C501B4010E948E724B015C0187
:1023900020E030E04AE754E46BA97CA98DA99EA90E
:1023A0000E94EF729B01AC01C501B4010E941A7436
:1023B0004B015C01C701B6010E948E729B01AC010A
:1023C000C501B4010E941D761816BCF5D701C601DF
:1023D00084199509A609B70981319742A105B1056C
:1023E00018F120E030E040E050E46BA17CA18DA129
:1023F0009EA10E948A7281110CC04D855E856F85F9
:1024000078890F8D18A129A13AA1C1010E94A44188
:102410000DC0C10156D62D853E854F8558890E9435
:1024200019740E94EB5D02C0730162010E94595C45
:10243000260137016B017C01BDCF2B8D3C8D2F5FB9
:102440003F4F3C8F2B8F4FCF0E94595C4B015C015B
:102450000E94595C6B017C0130E4830E32E4931ED0
:102460003FE0A31EB11CC814D904EA04FB04B8F56C
:10247000D701C60184199509A609B7098131974288
:10248000A105B10518F120E030E040E050E46BA177
:102490007CA18DA19EA10E948A7281110CC04D85E4
:1024A0005E856F8578890F8D18A129A13AA1C10198
:1024B0000E94A4410DC0C10104D62D853E854F85E3
:1024C00058890E9419740E94EB5D02C07301620179
:1024D0000E94595C260137016B017C01C4CF86ED57
:1024E0009BE00E946458C101ECD569837A838B8399
:1024F0009C83BE016F5F7F4FC101AFD2C101449683
:1025000076D281E49DE0DDD569837A838B839C83D9
:1025100080E59EE0D6D56F83788789879A87E12CFE
:10252000F12C8701A8019701BE016F5F7F4FCE019B
:10253000079675C123E030E040E050E069EF7FE0AE
:10254000CE0101960E943F5367EA72E0CE010196E8
:102550000E94B0518F8BCE0101960E941E535F895D
:10256000552309F405C119821A821B821C82AE010F
:102570004F5F5F4F6CE489EF9FE00E94C21B2B010D
:102580003C0119821A821B821C82AE014F5F5F4F91
:102590006AE589EF9FE00E94C21B4B015C01C12CE0
:1025A000D12C90E8E92E9FE3F92EC982DA82EB82E2
:1025B000FC82AE014F5F5F4F63E589EF9FE00E94B1
:1025C000C21B6F8B788F898F9A8FC982DA82EB82D8
:1025D000FC82AE014F5F5F4F66E489EF9FE00E948F
:1025E000C21B6B017C0120E030E0A901C301B201F4
:1025F0000E941D7618161CF400E51EE002C001E4DE
:102600001DE020E030E0A901C501B4010E941D7663
:10261000181614F402E31CE0C701B6010E946275AB
:102620004B015C016F89788D898D9A8D0E9462754E
:102630002B013C0180E59CE00E94645884149504C1
:102640002CF48FEF9FEF9C8F8B8F04C0A1E0B0E044
:10265000BC8FAB8FF201E819F909F88FEF8BF7FF08
:1026600005C0F195E195F109F88FEF8B0E947E5C32
:102670009B01AC0128533F4F4F4F5F4F2FA338A70B
:1026800049A75AA70E947E5C4B015C011201C12C34
:10269000D12C7601412C512C320118A21F8EA80199
:1026A0004C5E5F4F5CA34BA341E0B1018BA19CA1A9
:1026B000D6D0D501C4018C199D09AE09BF092FA13F
:1026C00038A549A55AA582179307A407B50728F589
:1026D0000E947E5C4B015C01D301C201C296A11D28
:1026E000B11D88169906AA06BB0618F3C1010E94FF
:1026F0007D598EE49CE00E943558C8010E944D48E7
:1027000044E050E00E947C598CE49CE00E943558E3
:102710000E947E5C2B013C01CCCF4F8D58A14F5FB6
:102720005F4F58A34F8F8B8D9C8D280E391E98ECD0
:10273000C90ED11CE11CF11CAF89B88DA417B507D7
:102740000CF0B2CF41E060E070E08BA19CA187D09B
:1027500085E39CE00E946458C801B3D469837A83FE
:102760008B839C83BE016F5F7F4FC80176D156CCAF
:1027700023E030E040E050E069EF7FE0CE010196D9
:102780000E943F536BEA72E0CE0101960E94B05165
:10279000182FCE0101960E941E53112309F442C046
:1027A000FE013D967F018F0120E030E0A901CA01C2
:1027B000B9010E94361EC12CD12C88E4E82E84E495
:1027C000F82EC982DA82EB82FC82AE014F5F5F4F46
:1027D000B80180E59EE094D4C982DA82EB82FC8263
:1027E000AE014F5F5F4FB80181E49DE089D481E481
:1027F0009DE067D46F83788789879A8780E59EE01C
:1028000060D469837A838B839C83E12CF12C8701CC
:10281000A8019701BE01695F7F4FCE0101960E941A
:10282000CA2F02C0F3E0FF8B8F89C25BDF4F0FB668
:10283000F894DEBF0FBECDBFDF91CF911F910F91F6
:10284000FF90EF90DF90CF90BF90AF909F908F90D0
:102850007F906F905F904F903F902F9008950F93CF
:102860001F93CF93DF93EC018E81811103C044232A
:1028700009F4B8C09B016F3F710519F014F02FEFF8
:1028800030E021308FEF380714F421E03FEF38AF0C
:102890002FAB890137FF04C000271127021B130B40
:1028A0008A819B818430910551F08D30910539F0FA
:1028B0008B30910521F061E08C30910509F460E0E6
:1028C0004C815D814430510551F04D30510539F056
:1028D0004B30510521F071E04C30510509F470E0A6
:1028E000E091BF0AE11129C0E881F981E430F105E6
:1028F00021F03B97339708F04CC0121613060CF0EA
:1029000060C0772359F061E00E94285B6FEF70E0B0
:10291000601B710B8C810E94925B07C0B8010E9402
:10292000925B60E08C810E94285B61E08881DF918E
:10293000CF911F910F910C94285B12161306BCF4D3
:102940000115110579F0772349F061E00E94285BB9
:102950006FEF70E0601B710B8C812DC0B8010E947D
:10296000925B03C060E00E94285B60E009C06623C0
:1029700049F06FEF70E0601B710B0E94925B61E0A9
:102980008C81D5CFB801842F0E94925B60E08A8150
:10299000CECF61E0121613062CF40E94285B60E093
:1029A0008C8105C0842F0E94285B60E08A810E9490
:1029B000285BB8018881DF91CF911F910F910C9412
:1029C000925B662341F06FEF70E0601B710B0E9419
:1029D000925B61E0A7CFB801842F0E94925B60E018
:1029E0008A81A1CFDF91CF911F910F910895CF934D
:1029F000DF93EC011E828091BF0A81110BC061E060
:102A00008A810E94285B60E08C810E94285B60E0E4
:102A1000888106C060E08A810E94285B60E08C812A
:102A2000DF91CF910C94285B8CEF9DE00E9435588C
:102A300081E593E0FC012FE030E011921192DF017B
:102A4000A056BC4F1D921C9221503109B1F74E96F1
:102A500026E0833F920771F708950F931F93CF935A
:102A6000DF93EC018B010E947E5CFE01EC54FF4F72
:102A70006083718382839383EB5AFF4F0190F081CF
:102A8000E02D2081318142815381F8016081718183
:102A9000828193810E94FA74C854DF4F68837983DE
:102AA0008A839B83DF91CF911F910F9108950F939C
:102AB0001F93CF93DF93EC010E947E5CFE01EC54E8
:102AC000FF4F0081118122813381AB01BC01401B8A
:102AD000510B620B730B8091AD109091AE10A0E082
:102AE000B0E084179507A607B70738F4CE014496DF
:102AF000DF91CF911F910F917ACFDF91CF911F91ED
:102B00000F9108956F927F928F929F92AF92BF9292
:102B1000CF92DF92EF92FF920F931F93CF93DF93A9
:102B2000CDB7DEB73C01FC01EC53FF4F71836083EE
:102B300032965183408332963183208386539F4F50
:102B40000E94B746F301E655FF4FF182E0823296CC
:102B5000D182C0823296B182A08284019501A60101
:102B6000B701C30185599F4F0E94B746DF91CF91AE
:102B70001F910F91FF90EF90DF90CF90BF90AF909B
:102B80009F908F907F906F900895CF92DF92EF92F9
:102B9000FF92CF93DF93EC01FB01C080D180E280F4
:102BA000F380C701B6010E949072FE01E55FFE4FFF
:102BB0000190F081E02D20813181428153810E947A
:102BC000FA74FE01E854FF4F60837183828393831C
:102BD000F894CF82D886E986FA867894DF91CF91EF
:102BE000FF90EF90DF90CF9008958F929F92AF92D9
:102BF000BF92CF92DF92EF92FF92CF93DF93EC01DF
:102C0000FB0180809180A280B380FC01E75FFE4FD2
:102C10000190F081E02DC080D180E280F380A70197
:102C20009601C501B4010E94FA74FE01E854FF4FF9
:102C30006083718382839383ED5AFF4F0190F0810B
:102C4000E02D2081318142815381C501B4010E9470
:102C5000EF72A70196010E94FA740E946275F894BF
:102C60006F83788789879A877894DF91CF91FF90D7
:102C7000EF90DF90CF90BF90AF909F908F9008958E
:102C8000CF92DF92EF92FF92CF93DF93EC01E88136
:102C9000F9812081EA81FB8190818D8189234E8198
:102CA000E42FE3709C81922309F0E4608111E860D5
:102CB0008E2F90E095958795959587958E834E2FCD
:102CC00050E0FA013197EE30F10508F077C088271F
:102CD000EE52FF4F8F4F0C94CB768F819885A9854C
:102CE000BA850196A11DB11D8F839887A987BA87E0
:102CF0000E94595CCF84D888E988FA88DC01CB012E
:102D00008C199D09AE09BF0931C08F819885A985AD
:102D1000BA850197A109B1098F839887A987BA87D6
:102D2000CF84D888E988FA880E94595CC61AD70AE5
:102D3000E80AF90A39C08F819885A985BA85029673
:102D4000A11DB11D8F839887A987BA870E94595CFE
:102D5000CF84D888E988FA88DC01CB018C199D09D9
:102D6000AE09BF09B695A795979587958B879C87E0
:102D7000AD87BE871DC08F819885A985BA850297CA
:102D8000A109B1098F839887A987BA87CF84D8888A
:102D9000E988FA880E94595CC61AD70AE80AF90A33
:102DA000F694E794D794C794CB86DC86ED86FE86AE
:102DB0000E94595C6F87788B898B9A8BDF91CF91BA
:102DC000FF90EF90DF90CF900895CF93DF93EC01C9
:102DD0008B89823020F4F894CE0152DF01C0F89440
:102DE0006F81788589859A857894DF91CF91089550
:102DF0004F925F926F927F928F929F92AF92BF920B
:102E0000CF92DF92EF92FF920F931F93CF93DF93B6
:102E1000EC0183EF9DE00E943558FE01E25FFE4F1A
:102E200080810E946E588BEE9DE00E94645882EC77
:102E30009DE00E943558CE01C8DF2B013C0198EE81
:102E4000E92E93E0F92E8E010C5E1F4F41E06FEFEB
:102E500070E0C80104DD61E070E080E090E00E9475
:102E6000214480912603811182C081E0E81AF10893
:102E700069F7CE01AADF4B015C01C301B2010E94D8
:102E800090726B017C01C501B4010E9490729B019C
:102E9000AC01C701B6010E94197420E030E04AEF8E
:102EA00053E40E941D7618161CF48FEA9DE002C0C0
:102EB0008CE99DE00E946458CE0187DF2B013C0124
:102EC00083E79DE00E94355888EEE82E83E0F82ED7
:102ED00041E061E07FEFC801C2DC61E070E080E0CA
:102EE00090E00E94214480912603811140C081E03E
:102EF000E81AF10869F7CE0168DF4B015C01C301F4
:102F0000B2010E9490726B017C01C501B4010E9464
:102F100090729B01AC01C701B6010E94197420E0B8
:102F200030E04AEF53EC0E948A7287FF03C080E6CC
:102F30009DE002C08DE49DE00E94645841E060E0A5
:102F400070E0C8018CDC84E29DE0DF91CF911F919D
:102F50000F91FF90EF90DF90CF90BF90AF909F9038
:102F60008F907F906F905F904F900C943558DF91C9
:102F7000CF911F910F91FF90EF90DF90CF90BF9076
:102F8000AF909F908F907F906F905F904F9008953B
:102F9000CF92DF92EF92FF92CF93DF93EC0115DF98
:102FA000FE01E854FF4FC080D180E280F3800E9490
:102FB0009072FE01E55FFE4F0190F081E02D2081CF
:102FC0003181428153810E94FA74A70196010E94C7
:102FD0001974C75FDE4FE881F98120813181428118
:102FE00053810E94EF72DF91CF91FF90EF90DF90BD
:102FF000CF900895CF93DF93FC01E35FFE4F2081D4
:1030000021115CC0FC01228D222309F457C0EC0180
:10301000DCDE0E949072FE01E55FFE4F0190F081C0
:10302000E02D20813181428153810E94FA74FE019A
:10303000E454FF4F6083718382839383CE01865370
:103040009F4FFC0126AD222389F00E94B7448823BC
:1030500069F0FE01E054FF4F80819181A281B3812C
:10306000E357F10980839183A283B383CE010E9449
:103070004D48FE01EF5AFF4F608371838283938333
:10308000CE0185599F4FFC0126AD21110E94B74406
:10309000FE01E959FF4F60817181828193810E9415
:1030A0006275FE01E55BFF4F20813181620F731F66
:1030B00040E0CE014496DF91CF91D1CBDF91CF910B
:1030C0000895CF93DF93EC0180DE0E949072FE01A1
:1030D000E55FFE4F0190F081E02D2081318142813A
:1030E00053810E94FA74C75FDE4FE881F981208125
:1030F0003181428153810E94EF72DF91CF91089517
:103100002F923F924F925F926F927F928F929F92F7
:10311000AF92BF92CF92DF92EF92FF920F931F93E5
:10312000CF93DF93CDB7DEB728970FB6F894DEBF05
:103130000FBECDBF8C011B015A01C3DF2B013C0127
:103140009B01AC01F10160817181828193810E94B8
:1031500019746B017C0120E030E0A9010E941D760A
:10316000A701960118160CF05058C701B6010E942D
:10317000FA746D837E838F83988720EC31EE44E66A
:103180005CE4F50160817181828193810E94FA740F
:1031900020E030E44CE156E40E94EF724B015C0108
:1031A0009B01AC01C701B6010E94FA746B017C015E
:1031B00020E030E0A9010E941D7618161CF4C7011A
:1031C000B60103C0C701B60190580E9462756B0139
:1031D0007C01F7FE08C0F094E094D094C094C11C28
:1031E000D11CE11CF11CA50194016D817E818F81B0
:1031F00098850E94EF724B015C0181E0F801828F9B
:1032000049825A826B827C82412C512C32014C14AF
:103210005D046E047F0421F18091970A8111F7CF3C
:10322000A501940169817A818B819C810E941A7425
:1032300069837A838B839C83BE016F5F7F4FC80154
:103240000CDCF1E0F093970A0E940742809126037C
:10325000811109C08FEF481A580A680A780AD7CF37
:10326000B101C801FADB28960FB6F894DEBF0FBE95
:10327000CDBFDF91CF911F910F91FF90EF90DF9025
:10328000CF90BF90AF909F908F907F906F905F9006
:103290004F903F902F9008952F923F924F925F92C0
:1032A0006F927F928F929F92AF92BF92CF92DF9256
:1032B000EF92FF920F931F93CF93DF93CDB7DEB7BB
:1032C000A6970FB6F894DEBF0FBECDBF9AA389A311
:1032D0001B015A8F498F298B3D8B80902903909039
:1032E0002A03A0902B03B0902C0380912D03909182
:1032F0002E03A0912F03B09130038D879E87AF8757
:10330000B88B82E39CE0DDDE6BA37CA38DA39EA340
:103310004090C0105090C1106090C2107090C310C7
:10332000E0913B0DF0913C0DC080D180E280F380B4
:1033300020E030E0A901C701B6010E941D761816F1
:1033400024F0F7FAF094F7F8F094A3019201C70182
:10335000B6010E94EF726D8F7E8F8F8F98A3A501AB
:103360009401A9A1BAA16D917D918D919C910E942A
:1033700019742B013C012D853E854F855889F1013B
:1033800060817181828193810E9419746D877E872B
:103390008F87988B2BA13CA14DA15EA1A98DBA8DE1
:1033A0006D917D918D919C910E9419746B017C01AE
:1033B000A3019201C301B2010E94EF724B015C01B3
:1033C0002D853E854F855889CA01B9010E94EF724B
:1033D0009B01AC01C501B4010E941A744B015C0150
:1033E000A7019601C701B6010E94EF729B01AC01D3
:1033F000C501B4010E941A740E943276698F7A8FD7
:103400008B8F9C8F20E030E040E85FE3B801898932
:103410009D890E948A7287FD15C06091BB107091D2
:10342000BC1080E090E00E948E725B014C0198011C
:1034300049895D890E948A7287FD0AC0580189887E
:103440009D8806C0A12CB12C80E8882E9FE3992E80
:1034500020EC31EE44E65CE4B501C4010E94FA744C
:1034600020E030E44CE156E40E94EF729B01AC0195
:10347000698D7A8D8B8D9C8D0E94FA744B015C0155
:1034800020E030E0A9010E941D76181624F0B7FA5A
:10349000B094B7F8B094A5019401C701B6010E9499
:1034A000FA749F7720EC31EE44E65CE40E94EF7200
:1034B00020E030E44CE156E40E94FA749B01AC0138
:1034C0006D8D7E8D8F8D98A10E948A7287FF23C09B
:1034D00020EC31EE44E65CE46D8D7E8D8F8D98A1FD
:1034E0000E94FA7420E030E44CE156E40E94EF724E
:1034F0009B01AC01C701B6010E94FA744B015C014B
:1035000020E030E0A9010E941D76181624F0B7FAD9
:10351000B094B7F8B094A5019401C301B2010E9420
:10352000FA746D8B7E8B8F8B988FA50194016D85BE
:103530007E858F8598890E94FA746D8F7E8F8F8F1C
:1035400098A3A5019401C701B6010E94FA74698F7E
:103550007A8F8B8F9C8F81E080936A0E80935B0DB6
:103560009091BD10911180934C0C8BA19CA1ADA1A9
:10357000BEA189879A87AB87BC87412C512C320129
:10358000DD24D394C301B2010E9490729B01AC016F
:10359000C501B4010E941D7618160CF076C080910A
:1035A000970A8111EFCF2091290330912A0340918E
:1035B0002B0350912C036D897E898F89988D0E94F1
:1035C0001A746D877E878F87988B60932903709319
:1035D0002A0380932B0390932C0320912D03309189
:1035E0002E0340912F03509130036D8D7E8D8F8D72
:1035F00098A10E941A74698B7A8B8B8B9C8B609339
:103600002D0370932E0380932F0390933003298D05
:103610003A8D4B8D5C8D69857A858B859C850E9462
:103620001A7469877A878B879C87DE0115967D01DE
:103630008E010F5F1F4F29893A894B895C896D85FF
:103640007E858F85988912D3B80180E59EE005DAE2
:10365000B70181E49DE001DA8091BD10882331F04B
:10366000BE01675F7F4F82E39CE0F7D9D092970A53
:10367000BFEF4B1A5B0A6B0A7B0A0E9407428091DC
:103680002603882309F47ECF3FC0F10120813181D8
:1036900042815381A9A1BAA16D917D918D919C9197
:1036A000FE0135967F018E010F5F1F4FDFD2B801FB
:1036B00080E59EE0D2D9B70181E49DE0CED980912A
:1036C000BD10882331F0BE01675F7F4F82E39CE02D
:1036D000C4D9E9A1FAA180819181A281B3818093AB
:1036E000290390932A03A0932B03B0932C03F10199
:1036F00080819181A281B38180932D0390932E03C9
:10370000A0932F03B093300381E090E0A6960FB60C
:10371000F894DEBF0FBECDBFDF91CF911F910F9107
:10372000FF90EF90DF90CF90BF90AF909F908F90E1
:103730007F906F905F904F903F902F900895CF9320
:10374000DF93EC010E947E5CFE01EC54FF4F60832E
:10375000718382839383CE01B4DCFE01E75FFE4F69
:103760000190F081E02D20813181428153810E94BE
:10377000FA74C854DF4F688379838A839B83DF910F
:10378000CF9108954F925F926F927F928F929F9206
:10379000AF92BF92CF92DF92EF92FF920F931F935F
:1037A000CF93DF93CDB7DEB72C970FB6F894DEBF7B
:1037B0000FBECDBF7C01162F4A0167E173E0CE0139
:1037C00007960E942B5340E050E0612FC7010E94F2
:1037D00071516C015C018FEFA81AB80AF70164807F
:1037E0007580850106151705D0F09801A501B70170
:1037F000CE0101960E943F53BE016F5F7F4FCE0105
:1038000007960E94CF51CE0101960E941E538F81D0
:1038100098850097B1F4412C512C320116C0B801A3
:10382000C7010E948D51082E000C990B9C0120535A
:1038300031092A30310590F00E94EC78892B71F41F
:10384000D4CF0E948B6E2B013C01CD20C09449F453
:10385000F401408051806280738003C00F5F1F4F6E
:10386000C1CFCE0107960E941E53C301B2012C9610
:103870000FB6F894DEBF0FBECDBFDF91CF911F9181
:103880000F91FF90EF90DF90CF90BF90AF909F90FF
:103890008F907F906F905F904F9008952F923F92FE
:1038A0004F925F926F927F928F929F92AF92BF9250
:1038B000CF92DF92EF92FF920F931F93CF93DF93FC
:1038C000CDB7DEB764970FB6F894DEBF0FBECDBF9D
:1038D0008C011B018090290390902A03A0902B0358
:1038E000B0902C0380912D0390912E03A0912F0373
:1038F000B0913003898B9A8BAB8BBC8B82E39CE0BD
:10390000E0DB6B017C0140904803509049036090DC
:103910004A0370904B03A3019201C501B4010E94B8
:10392000FA7469837A838B839C83AE014F5F5F4F08
:1039300068E5C80127DF9B01AC01C301B2010E9409
:10394000EF726D837E838F839887409048035090F9
:10395000490360904A0370904B03A3019201698967
:103960007A898B899C890E94FA7469837A838B8314
:103970009C83AE014F5F5F4F69E5C80103DF9B0188
:10398000AC01C301B2010E94EF7269877A878B870D
:103990009C87409048035090490360904A03709080
:1039A0004B03A3019201C701B6010E94FA74698317
:1039B0007A838B839C83AE014F5F5F4F6AE5C801BA
:1039C000E1DE9B01AC01C301B2010E94EF726D8781
:1039D0007E878F87988B4090480350904903609072
:1039E0004A0370904B03A301920160914C037091C4
:1039F0004D0380914E0390914F030E94FA746983A6
:103A00007A838B839C83AE014F5F5F4F66E4C8016E
:103A1000B9DE9B01AC01C301B2010E94EF723B0110
:103A2000582E492ECB01A52DB42D80934C03909395
:103A30004D03A0934E03B0934F0380913D03882321
:103A4000F1F140E050E068E5C8010E94715197FD36
:103A50000CC0A50194016D817E818F8198850E94A3
:103A60001A746D837E838F83988740E050E069E508
:103A7000C8010E94715197FD0EC029893A894B896E
:103A80005C8969857A858B859C850E941A74698713
:103A90007A878B879C8740E050E06AE5C8010E94E6
:103AA000715197FD0CC0A70196016D857E858F85AC
:103AB00098890E941A746D877E878F87988B20E083
:103AC00030E040E85FE3B301852D942D0E948A72B7
:103AD00087FD17C06091BB107091BC1080E090E032
:103AE0000E948E725B018C019B01AC01B301852D9C
:103AF000942D0E941D76181644F05301052D142DA7
:103B000004C0A12CB12C00E81FE3C501D8018093AB
:103B10004C0390934D03A0934E03B0934F038091B9
:103B2000BD1081116BC02D853E854F855889C70119
:103B3000B6010E9419746B017C0120E030E0A901FC
:103B40000E941D76181624F0F7FAF094F7F8F09416
:103B50002DEC3CEC4CEC5DE3C701B6010E941D76F8
:103B600018160CF04BC08CE19EE00E94355820E006
:103B700030E0A9016D857E858F8598890E941D762C
:103B8000181624F48AE19EE00E94355820914803DB
:103B90003091490340914A0350914B036D857E85D6
:103BA0008F8598890E94FA7442E050E00E947C5907
:103BB00023E333E34BEC51E46091480370914903F4
:103BC00080914A0390914B030E948A72811103C035
:103BD00086E19EE002C082E19EE00E9464580E945D
:103BE000824ABE01635F7F4F82E39CE00E94F5152D
:103BF00068EE73E080E090E00E9421442A9423283C
:103C000049F400914C0310914D0320914E033091E3
:103C10004F030AC06091BB107091BC1080E090E02F
:103C20000E948E728B019C01AE01435F5F4FBE010B
:103C3000675F7F4FCE0105962FDB64960FB6F89431
:103C4000DEBF0FBECDBFDF91CF911F910F91FF90CF
:103C5000EF90DF90CF90BF90AF909F908F907F902C
:103C60006F905F904F903F902F9008952F923F92CA
:103C70004F925F926F927F928F929F92AF92BF927C
:103C8000CF92DF92EF92FF920F931F93CF93DF9328
:103C9000CDB7DEB7C956D1090FB6F894DEBF0FBE57
:103CA000CDBFA4961FAF0EAFA497A696FFAEEEAE03
:103CB000A6971091A810113011F00C9423296D874C
:103CC0007E878F87988B29873A874B875C87BE01D1
:103CD000675F7F4FCE010D960E94005E2091981085
:103CE0003091991040919A1050919B106091790BEE
:103CF00070917A0B80917B0B90917C0B0E941A74CF
:103D000029853A854B855C850E941974698F7A8F65
:103D10008B8F9C8F6093810B7093820B8093830BAE
:103D20009093840B209194103091951040919610AF
:103D3000509197102DAB3EAB4FAB58AF20E030E029
:103D400040E05FE36DA97EA98FA998AD0E94EF7254
:103D50004B015C012D853E854F8558890E941A7460
:103D60006B017C0160937D0B70937E0B80937F0BC6
:103D70009093800B9B01AC01C501B4010E948A7233
:103D800087FF13C0A70196016DA97EA98FA998ADE1
:103D90000E94197460937D0B70937E0B80937F0B50
:103DA0009093800B1093850B02C01092850B80912D
:103DB0007D0B90917E0BA0917F0BB091800B89A71A
:103DC0009AA7ABA7BCA79C01AD01698D7A8D8B8D9D
:103DD0009C8D0E94FA744B015C0160938A0B709376
:103DE0008B0B80938C0B90938D0B29A53AA54BA53B
:103DF0005CA56DA97EA98FA998AD0E9419749B013D
:103E0000AC01698D7A8D8B8D9C8D0E94FA746B014B
:103E10007C0160938E0B70938F0B8093900B90932B
:103E2000910B9091610B9D8BA091620BA98B2090BF
:103E3000630B3090640BA5019401C501B4010E948D
:103E4000EF7220E030E040E85FE30E941A740E94C5
:103E500032769B01AC016D897989C1010E94EF72B4
:103E60006093920B7093930B8093940B9093950BAC
:103E7000A7019601C701B6010E94EF7220E030E071
:103E800040E85FE30E941A740E9432769B01AC0105
:103E90006D897989C1010E94EF726093960B7093CE
:103EA000970B8093980B9093990BBBE06E96BFAFE6
:103EB0006E972091860B3091870B4091880B509123
:103EC000890B2DA33EA34FA358A7CA01B9010E9495
:103ED000EF724B015C012FE632E143E85AE36DA13A
:103EE0007EA18FA198A50E941A746B017C019B0191
:103EF000AC010E94EF7229966CAF7DAF8EAF9FAF81
:103F0000299780919E0B90919F0BA091A00BB0914F
:103F1000A10B89A39AA3ABA3BCA39C01AD01BC01D7
:103F2000CD010E94EF726DA77EA78FA798AB9B0172
:103F3000AC0169A17AA18BA19CA10E94EF7261964C
:103F40006CAF7DAF8EAF9FAF61974090A20B50904A
:103F5000A30B6090A40B7090A50BA3019201C30169
:103F6000B2010E94EF7269AF7AAF8BAF9CAF9B0139
:103F7000AC01C301B2010E94EF722D966CAF7DAF10
:103F80008EAF9FAF2D972FE632E143E85AE369A148
:103F90007AA18BA19CA10E9419746D8F7E8F8F8F47
:103FA00098A39B01AC010E94EF7221966CAF7DAF8C
:103FB0008EAF9FAF21979B01AC016D8D7E8D8F8D54
:103FC00098A10E94EF7265966CAF7DAF8EAF9FAFE8
:103FD00065972FE632E143E85AE3C301B2010E943C
:103FE0001A7469AB7AAB8BAB9CAB9B01AC010E94A2
:103FF000EF7225966CAF7DAF8EAF9FAF25979B017B
:10400000AC0169A97AA98BA99CA90E94EF72699653
:104010006CAF7DAF8EAF9FAF6997A50194016DA185
:104020007EA18FA198A50E94EF7228E73AE745E2AA
:104030005EEB0E94EF726D966CAF7DAF8EAF9FAF5F
:104040006D9727E230EA49E05BE3C501B4010E94C5
:10405000EF729B01AC016D966CAD7DAD8EAD9FADE9
:104060006D970E9419744B015C012EE836E040E820
:104070005FE36DA17EA18FA198A50E94EF729B01C5
:10408000AC01C501B4010E941A746093120C7093C4
:10409000130C8093140C9093150C29962CAD3DAD08
:1040A0004EAD5FAD2997C701B6010E94EF7228E7B8
:1040B0003AE745E25EEB0E94EF724B015C0127E2BA
:1040C00030EA49E05BE329966CAD7DAD8EAD9FADE6
:1040D00029970E94EF729B01AC01C501B4010E94B7
:1040E00019744B015C012EE836E040E85FE3C7013C
:1040F000B6010E94EF729B01AC01C501B4010E94A0
:104100001A746093160C7093170C8093180C90938C
:10411000190C2EEE3BEE40EC5DEB61966CAD7DAD87
:104120008EAD9FAD61970E94EF726B017C012DE413
:1041300035E14CE05EE36DA57EA58FA598A90E94B0
:10414000EF729B01AC01C701B6010E9419746B01AB
:104150007C012DE13AE54CE85FE369A17AA18BA1EE
:104160009CA10E94EF729B01AC01C701B6010E94A5
:104170001A742DE53DE645EC5CE30E9419746D96DA
:104180006CAF7DAF8EAF9FAF6D976093F20B709366
:10419000F30B8093F40B9093F50B23E83FE24CE094
:1041A0005EE361966CAD7DAD8EAD9FAD61970E9473
:1041B000EF726B017C012DEE3DE04EE25FE36DA5F9
:1041C0007EA58FA598A90E94EF729B01AC01C70143
:1041D000B6010E9419746B017C0121ED31E94CEDAF
:1041E0005DE369A17AA18BA19CA10E94EF729B0162
:1041F000AC01C701B6010E941A742CEE30EC49E7FD
:104200005FE30E941A744B015C016093F60B70939C
:10421000F70B8093F80B9093F90B26E031E845E11A
:104220005EEB2D966CAD7DAD8EAD9FAD2D970E9452
:10423000EF726B017C0125EE31E641EA5CE369AD8A
:104240007AAD8BAD9CAD0E94EF729B01AC01C701B2
:10425000B6010E9419746B017C0123ED3EED40E82C
:104260005FE3C301B2010E94EF729B01AC01C70181
:10427000B6010E941A7427E137EB41E55AE30E9428
:104280001974A2966CAF7DAF8EAF9FAFA29760936B
:10429000FA0B7093FB0B8093FC0B9093FD0B2CE9B6
:1042A00033E342EA5DE32D966CAD7DAD8EAD9FADFF
:1042B0002D970E94EF726B017C0126E73FE44EE0F0
:1042C0005FE369AD7AAD8BAD9CAD0E94EF729B014F
:1042D000AC01C701B6010E9419746B017C012DE489
:1042E00035E14CE85CE3C301B2010E94EF729B012F
:1042F000AC01C701B6010E941A742BE733E84FE7FF
:104300005FE30E941A742D966CAF7DAF8EAF9FAFA6
:104310002D976093FE0B7093FF0B8093000C90938E
:10432000010C2EEE3BEE40EC5DEB65966CAD7DAD89
:104330008EAD9FAD65970E94EF726B017C012DE4FD
:1043400035E14CE05EE321966CAD7DAD8EAD9FAD69
:1043500021970E94EF729B01AC01C701B6010E9438
:1043600019746B017C012DE13AE54CE85FE36D8D3A
:104370007E8D8F8D98A10E94EF729B01AC01C701C9
:10438000B6010E941A742DE53DE645EC5CE30E94FF
:1043900019746093020C7093030C8093040C909337
:1043A000050C23E83FE24CE05EE365966CAD7DAD25
:1043B0008EAD9FAD65970E94EF726B017C012DEE73
:1043C0003DE04EE25FE321966CAD7DAD8EAD9FADDD
:1043D00021970E94EF729B01AC01C701B6010E94B8
:1043E00019746B017C0121ED31E94CED5DE36D8DBC
:1043F0007E8D8F8D98A10E94EF729B01AC01C70149
:10440000B6010E941A742CEE30EC49E75FE30E947B
:104410001A7429966CAF7DAF8EAF9FAF29976093CA
:10442000060C7093070C8093080C9093090C26E0FF
:1044300031E845E15EEB69966CAD7DAD8EAD9FAD2B
:1044400069970E94EF726B017C0125EE31E641EA2B
:104450005CE325966CAD7DAD8EAD9FAD25970E943A
:10446000EF729B01AC01C701B6010E9419746B0188
:104470007C0123ED3EED40E85FE369A97AA98BA9B1
:104480009CA90E94EF729B01AC01C701B6010E947A
:104490001A7427E137EB41E55AE30E9419746093DF
:1044A0000A0C70930B0C80930C0C90930D0C2CE960
:1044B00033E342EA5DE369966CAD7DAD8EAD9FADB1
:1044C00069970E94EF726B017C0126E73FE44EE0A2
:1044D0005FE325966CAD7DAD8EAD9FAD25970E94B7
:1044E000EF729B01AC01C701B6010E9419746B0108
:1044F0007C012DE435E14CE85CE369A97AA98BA93C
:104500009CA90E94EF729B01AC01C701B6010E94F9
:104510001A742BE733E84FE75FE30E941A7425967D
:104520006CAF7DAF8EAF9FAF259760930E0C7093ED
:104530000F0C8093100C9093110CAEEFCA2EABE0D1
:10454000DA2EBAEFEB2EBBE0FB2E06EF1BE022EFDC
:104550003BE042E15CE066E97BE082E99BE00E94AF
:104560000F5F6DA77EA78FA798AB2B013C0177FA51
:10457000709477F870944092D60B5092D70B60925B
:10458000D80B7092D90B20915D0B30915E0B40914E
:104590005F0B5091600B2D8F3E8F4F8F58A3A5015D
:1045A00094016D8D7E8D8F8D98A10E94EF72619622
:1045B0006CAF7DAF8EAF9FAF61979B01AC0169A5DA
:1045C0007AA58BA59CA50E94197469A37AA38BA3D5
:1045D0009CA369837A838B839C8342EF5BE0BE015B
:1045E0006F5F7F4F82E99BE00E947B5E69AF7AAF8D
:1045F0008BAF9CAF4B015C01B7FAB094B7F8B094A5
:104600008092DA0B9092DB0BA092DC0BB092DD0B68
:104610002D962CAD3DAD4EAD5FAD2D976D8D7E8D44
:104620008F8D98A10E94EF722D966CAF7DAF8EAFEB
:104630009FAF2D979B01AC0169A57AA58BA59CA581
:104640000E941A749B01AC016DA97EA98FA998AD37
:104650000E94197469AB7AAB8BAB9CAB69837A838C
:104660008B839C83A701BE016F5F7F4F86E99BE030
:104670000E947B5E21966CAF7DAF8EAF9FAF21977E
:104680006B017C01F7FAF094F7F8F094C092DE0B1E
:10469000D092DF0BE092E00BF092E10B20E030E0F3
:1046A000A901C301B2010E941D7618165CF42FE621
:1046B00032E143E85AE3C301B2010E948A7287FFE4
:1046C000B0C10BC02FE632E143E85AEBC301B2019F
:1046D0000E941D7618160CF0A4C120E030E0A9015C
:1046E000C501B4010E941D7618165CF42FE632E174
:1046F00043E85AE3C501B4010E948A7287FF91C161
:104700000BC02FE632E143E85AEBC501B4010E9429
:104710001D7618160CF085C120E030E0A901C70114
:10472000B6010E941D7618165CF42FE632E143E8CC
:104730005AE3C701B6010E948A7287FF72C10BC09B
:104740002FE632E143E85AEBC701B6010E941D761D
:1047500018160CF066C161968CAD9DADAEADBFADC7
:1047600061978093E20B9093E30BA093E40BB093DB
:10477000E50B2D962CAD3DAD4EAD5FAD2D97209345
:10478000E60B3093E70B4093E80B5093E90B6D96E3
:104790002CAD3DAD4EAD5FAD6D976D8D7E8D8F8D2A
:1047A00098A10E94EF724B015C016093EA0B709339
:1047B000EB0B8093EC0B9093ED0BA2962CAD3DADE3
:1047C0004EAD5FADA2976D8D7E8D8F8D98A10E94AD
:1047D000EF726DA37EA38FA398A76093EE0B7093E7
:1047E000EF0B8093F00B9093F10B4090920B509055
:1047F000930B6090940B7090950BA5019401698DBB
:104800007A8D8B8D9C8D0E941974A30192010E9458
:104810001A7429A13AA14BA15CA10E94FA746B0100
:104820007C0160938A0B70938B0B80938C0B90931D
:104830008D0B8091960B9091970BA091980BB09156
:10484000990B8D8F9E8FAF8FB8A32DA13EA14FA145
:1048500058A5698D7A8D8B8D9C8D0E9419742D8D34
:104860003E8D4F8D58A10E941A7429A93AA94BA9CF
:104870005CA90E94FA7469A77AA78BA79CA760938A
:104880008E0B70938F0B8093900B9093910BC701BD
:10489000B6010E94CF746DAB7EAB8FAB98AF6093C7
:1048A0001E0C70931F0C8093200C9093210C69A513
:1048B0007AA58BA59CA50E94CF746DA77EA78FA714
:1048C00098AB60931A0C70931B0C80931C0C909304
:1048D0001D0C8091850B882309F4F2C3A30192017A
:1048E000698D7A8D8B8D9C8D0E941A74A50194011F
:1048F0000E9419744B015C0129A13AA14BA15CA152
:10490000CA01B9010E94EF722B013C01A50194017B
:10491000C501B4010E94EF729B01AC01C301B20159
:104920000E941A740E9432764B015C01A701960125
:104930006D897989C1010E94EF729B01AC01C501AB
:10494000B4010E9419746B017C012DA93EA94FA9E5
:1049500058AD6D897989C1010E94EF729B01AC014C
:10496000C701B6010E941A7460932E0C70932F0C2D
:104970008093300C9093310C2D8D3E8D4F8D58A12E
:10498000698D7A8D8B8D9C8D0E941A742DA13EA10C
:104990004FA158A50E9419746B017C0129A93AA95D
:1049A0004BA95CA9CA01B9010E94EF724B015C01DD
:1049B000A7019601C701B6010E94EF729B01AC01ED
:1049C000C501B4010E941A740E9432766B017C0109
:1049D00029A53AA54BA55CA56D897989C1010E94DD
:1049E000EF729B01AC01C701B6010E9419746B0103
:1049F0007C012DA53EA54FA558A96D897989C101D6
:104A00000E94EF729B01AC01C701B6010E941A74AB
:104A100060932A0C70932B0C80932C0C90932D0C8C
:104A2000F1C34EE0C42E4CE0D42E5AE0E52E5CE0FB
:104A3000F52E06E01CE022E03CE046E15CE066E9A1
:104A40007BE082E99BE00E940F5F2DA53EA54FA56C
:104A500058A90E9419742FE632E143E85AE30E94F4
:104A6000FA746093A60B7093A70B8093A80B909396
:104A7000A90B2091920B3091930B4091940B509184
:104A8000950B65962CAF3DAF4EAF5FAF65972AE0B3
:104A900037ED43E25CE365966CAD7DAD8EAD9FADC9
:104AA00065970E941A744B015C0169837A838B833A
:104AB0009C836EEFC62E6BE0D62E7AEFE72E7BE05E
:104AC000F72E06EF1BE022EF3BE042E15CE066E9F7
:104AD0007BE0CE0101960E940F5F2DA53EA54FA55C
:104AE00058A90E9419742AE037ED43E25CE30E9462
:104AF000FA746093AA0B7093AB0B8093AC0B9093FA
:104B0000AD0B8091960B9091970BA091980BB09163
:104B1000990B69968CAF9DAFAEAFBFAF69972AE096
:104B200037ED43E25CE3BC01CD010E941A742B0116
:104B30003C0169837A838B839C8322EF3BE042E1D3
:104B40005CE0BE016F5F7F4F82E99BE00E940F5FD8
:104B50002DA53EA54FA558A90E9419742AE037ED4E
:104B600043E25CE30E94FA746093AE0B7093AF0B68
:104B70008093B00B9093B10B29962CAD3DAD4EAD0B
:104B80005FAD29976D8D7E8D8F8D98A10E94EF72FC
:104B90009B01AC0169A57AA58BA59CA50E941974FF
:104BA00069837A838B839C8342E05CE0BE016F5F04
:104BB0007F4F82E99BE00E947B5E29AD3AAD4BAD11
:104BC0005CAD0E9419742FE632E143E85AE30E947B
:104BD000FA746093B20B7093B30B8093B40B909301
:104BE000B50B29A13AA14BA15CA12D833E834F8334
:104BF000588789829A82AB82BC8242EF5BE0BE0119
:104C00006B5F7F4FCE0101960E947B5E29AD3AAD6E
:104C10004BAD5CAD0E9419742AE037ED43E25CE3D2
:104C20000E94FA746093B60B7093B70B8093B80B25
:104C30009093B90B1092BA0B1092BB0B1092BC0B55
:104C40001092BD0B25962CAD3DAD4EAD5FAD2597B9
:104C50006D8D7E8D8F8D98A10E94EF7229A53AA54A
:104C60004BA55CA50E941A749B01AC016DA97EA99D
:104C70008FA998AD0E9419746B017C0169837A83B6
:104C80008B839C834AE05CE0BE016F5F7F4F86E9C7
:104C90009BE00E947B5E21962CAD3DAD4EAD5FAD9D
:104CA00021970E9419742FE632E143E85AE30E94EB
:104CB000FA746093BE0B7093BF0B8093C00B9093FC
:104CC000C10B1092C20B1092C30B1092C40B109226
:104CD000C50BCD82DE82EF82F88649825A826B82D2
:104CE0007C824AEF5BE0BE016B5F7F4FCE01019695
:104CF0000E947B5E21962CAD3DAD4EAD5FAD219700
:104D00000E9419742AE037ED43E25CE30E94FA74D2
:104D10006093C60B7093C70B8093C80B9093C90B1D
:104D2000EEEAEE2EEBE0FE2E46EC5BE05EAF4DAF22
:104D300088E190E09AAF89AFF2E06F2E712CD30139
:104D40001196A896BFAFAEAFA897E6EDFBE0279609
:104D5000FFAFEEAF27972396FFAEEEAE239734E07A
:104D6000C32ED12C412C512C29AD3AAD2450310900
:104D7000AA963FAF2EAFAA97ADADBEAD2D913D9196
:104D80004D915C912396EEADFFAD239760817181CB
:104D9000828193810E94FA744B015C010DE410E062
:104DA0000C191D099801235A344F3EA72DA701E085
:104DB00010E0EDA5FEA5EC0DFD1DAA964EAD5FAD74
:104DC000AA97E40FF51F2081318142815381C501EB
:104DD000B4010E94EF729B01AC01ADA5BEA56D911F
:104DE0007D918D919C910E941974EDA5FEA5619312
:104DF000719381939193FEA7EDA70F5F1F4FA89624
:104E00002EAD3FADA897201731079CF6D701D0965D
:104E10002D913D914D915C91D397C501B4010E94B4
:104E2000EF729B01AC012796EEADFFAD2797608135
:104E30007181828193810E9419742796AEADBFADB6
:104E400027976D937D938D939D932796BFAFAEAFBC
:104E50002797BFEF4B1A5B0A2396EEADFFAD239762
:104E60003C962396FFAFEEAF2397FCE0CF1AD10814
:104E70006414750409F080CF21E0621A710849AD0D
:104E80005AAD4C5051095AAF49AF54E0E51AF108F8
:104E90008DAD9EAD40979EAF8DAF6114710409F04A
:104EA0004ECF2091A60B3091A70B4091A80B5091AB
:104EB000A90B6091D60B7091D70B8091D80B909174
:104EC000D90B0E94FA746B017C016093CA0B70933A
:104ED000CB0B8093CC0B9093CD0B8090DA0B909002
:104EE000DB0BA090DC0BB090DD0B2091B20B30916E
:104EF000B30B4091B40B5091B50B0E94EF729B0124
:104F0000AC01C501B4010E9419742091B60B309117
:104F1000B70B4091B80B5091B90B0E94FA744B013A
:104F20005C016093CE0B7093CF0B8093D00B90936A
:104F3000D10B4090DE0B5090DF0B6090E00B709037
:104F4000E10B2091BE0B3091BF0B4091C00B5091F3
:104F5000C10BC701B6010E94EF729B01AC01C301F6
:104F6000B2010E9419742B013C012091C20B3091B7
:104F7000C30B4091C40B5091C50BC501B4010E94F5
:104F8000EF729B01AC01C301B2010E941974209120
:104F9000C60B3091C70B4091C80B5091C90B0E94B2
:104FA000FA742B013C016093D20B7093D30B809366
:104FB000D40B9093D50BA70196016DA17EA18FA173
:104FC00098A50E941A746B017C016093860B709304
:104FD000870B8093880B9093890BA50194016596AC
:104FE0006CAD7DAD8EAD9FAD65970E941A745B016F
:104FF0008C019B01AC016D897989C1010E941D76EC
:1050000018161CF4AD88B9888101C501D8018093B8
:10501000920B9093930BA093940BB093950BA301D9
:10502000920169966CAD7DAD8EAD9FAD69970E9482
:105030001A745B018C019B01AC016D897989C101F6
:105040000E941D7618161CF4AD88B9888101C5012F
:10505000D8018093960B9093970BA093980BB093E5
:10506000990B80909A0B90909B0BA0909C0BB0900A
:105070009D0BA7019601C501B4010E9419746093AC
:105080009E0B70939F0B8093A00B9093A10BA50197
:105090009401C701B6010E941A746093A20B709329
:1050A000A30B8093A40B9093A50B6E969FAD6E9768
:1050B00091506E969FAF6E9791110C94591F4BCBE8
:1050C000A3019201698D7A8D8B8D9C8D0E941A743B
:1050D000A50194010E9419744B015C0129A13AA118
:1050E0004BA15CA1CA01B9010E94EF722B013C01E6
:1050F000A5019401C501B4010E94EF729B01AC01AE
:10510000C301B2010E941A740E9432764B015C0105
:10511000A70196016D897989C1010E94EF729B01F7
:10512000AC01C501B4010E9419746B017C012DA969
:105130003EA94FA958AD6D897989C1010E94EF72CE
:105140009B01AC01C701B6010E941A7460932A0C3E
:1051500070932B0C80932C0C90932D0C2D8D3E8DE9
:105160004F8D58A1698D7A8D8B8D9C8D0E941A74FC
:105170002DA13EA14FA158A50E9419746B017C017D
:1051800029A93AA94BA95CA9CA01B9010E94EF72E9
:105190004B015C01A7019601C701B6010E94EF72A5
:1051A0009B01AC01C501B4010E941A740E943276C1
:1051B0006B017C0129A53AA54BA55CA56D89798970
:1051C000C1010E94EF729B01AC01C701B6010E94B0
:1051D00019746B017C012DA53EA54FA558A96D89B9
:1051E0007989C1010E94EF729B01AC01C701B60130
:1051F0000E941A7460932E0C70932F0C8093300CC5
:105200009093310C80912A0C90912B0CA0912C0C36
:10521000B0912D0CA496EEADFFADA4978083918341
:10522000A283B38380912E0C90912F0CA091300C0F
:10523000B091310CA696EEADFFADA6978083918319
:10524000A283B3838DC66D837E838F8398872983E2
:105250003A834B835C83BE016F5F7F4FCE0105961F
:105260000E94005E80912211882309F4DEC38091A0
:1052700023112D813E814F8158852D8B3E8B4F8B85
:10528000588F49805A806B807C80882309F4D4C26F
:1052900020E030E040E05FE360918C1070918D1071
:1052A00080918E1090918F100E94EF722D893E890F
:1052B0004F89588D0E941A7423E333E34BEC51E479
:1052C0000E94FA7420E030E040E450E40E94FA7456
:1052D00020E030E040E85FE30E9419746B017C013C
:1052E00020E030E040E05FE3609190107091911019
:1052F00080919210909193100E94EF72A3019201FD
:105300000E94197423E333E34BEC51E40E94FA74D6
:1053100020E030E040E450E40E94FA7420E030E005
:1053200040E85FE30E94197469A77AA78BA79CA73E
:10533000C701B6010E9462754B015C0169A57AA59F
:105340008BA59CA50E94627594012F5F3F4FFB01C6
:105350003196A4014032510514F04FE150E05A8FCC
:10536000498F57FF02C01A8E198EAB01603171054B
:1053700014F04FE050E08A0157FF02C000E010E057
:105380002032310514F02FE130E0190137FF02C05F
:10539000212C312CCF01709714F08FE090E09A8B84
:1053A000898B97FF02C01A8A198A498D5A8D241653
:1053B000350609F04FC08FE0829D6001839DD00CBF
:1053C00011247601E00EF11EF701EE0FFF1FEF5AD8
:1053D000FC4F60817181072E000C880B990B0E9495
:1053E00090726D8F7E8F8F8F98A389899A89C80E4E
:1053F000D91EF601EE0FFF1FEF5AFC4F608171813D
:10540000072E000C880B990B0E94907269AB7AAB47
:105410008BAB9CABF701EE0FFF1FED50F94F608196
:105420007181072E000C880B990B0E9490726DAB56
:105430007EAB8FAB98AFC601880F991FFC01ED5072
:10544000F94F60817181072E000C880B990B0E9427
:1054500090721DC1B101A98DBA8D6A1B7B0B072EFD
:10546000000C880B990B0E9490724B015C01B101FA
:10547000032C000C880B990B0E949072A7019601D7
:105480000E941974A50194010E94FA746DA37EA371
:105490008FA398A7E98DFA8DBF01FF0F880B990B99
:1054A0000E9490729B01AC01C701B6010E94197461
:1054B000A50194010E94FA744B015C018FE0498DB3
:1054C0005A8D849F9001859F300D11243AA329A302
:1054D000200F311F3EAB2DABF901EE0FFF1FEF5A2E
:1054E000FC4F60817181072E000C880B990B0E9484
:1054F00090722DA13EA14FA158A50E94EF726B01A1
:105500007C01EFE0E29DD001E39DB00D1124BA8F44
:10551000A98F1D01200E311EF101EE0FFF1FEF5A62
:10552000FC4F60817181072E000C880B990B0E9443
:105530009072A50194010E94EF729B01AC01C7011A
:10554000B6010E941A746D8F7E8F8F8F98A329A148
:105550003AA149895A89240F351F3AA329A3F90191
:10556000EE0FFF1FEF5AFC4F60817181072E000C78
:10557000880B990B0E9490722DA13EA14FA158A5B6
:105580000E94EF726B017C01898D9A8DA989BA897D
:105590008A0F9B1F9A8F898FFC01EE0FFF1FEF5A16
:1055A000FC4F60817181072E000C880B990B0E94C3
:1055B0009072A50194010E94EF729B01AC01C7019A
:1055C000B6010E941A7469AB7AAB8BAB9CABEDA9A8
:1055D000FEA9EE0FFF1FED50F94F60817181072E7C
:1055E000000C880B990B0E9490722DA13EA14FA137
:1055F00058A50E94EF726B017C01F101EE0FFF1FB5
:10560000ED50F94F60817181072E000C880B990BCA
:105610000E949072A50194010E94EF729B01AC015F
:10562000C701B6010E941A746DAB7EAB8FAB98AF09
:10563000E9A1FAA1EE0FFF1FED50F94F60817181D2
:10564000072E000C880B990B0E9490722DA13EA191
:105650004FA158A50E94EF726B017C01898D9A8D34
:10566000880F991FFC01ED50F94F60817181072E61
:10567000000C880B990B0E949072A50194010E9466
:10568000EF729B01AC01C701B6010E941A744B0175
:105690005C01E989FA89E017F10709F529A93AA916
:1056A0004BA95CA96D8D7E8D8F8D98A10E941A7477
:1056B00020E030E040E05FE30E94EF726B017C018C
:1056C000A50194016DA97EA98FA998AD0E941A74B5
:1056D00020E030E040E05FE30E94EF7274C069892F
:1056E0007A89601B710B072E000C880B990B0E94A6
:1056F00090726B017C0129893A89B901330F880BBB
:10570000990B0E94907229A53AA54BA55CA50E9411
:105710001974A70196010E94FA74698B7A8B8B8B9E
:105720009C8BB801110F880B990B0E9490729B0102
:10573000AC0169A57AA58BA59CA50E941974A70147
:1057400096010E94FA74698F7A8F8B8F9C8F2989BA
:105750003A894B895C896D8D7E8D8F8D98A10E94D1
:10576000EF726B017C01298D3A8D4B8D5C8D69A99F
:105770007AA98BA99CA90E94EF729B01AC01C70179
:10578000B6010E941A746B017C0129893A894B8900
:105790005C896DA97EA98FA998AD0E94EF72698B73
:1057A0007A8B8B8B9C8B298D3A8D4B8D5C8DC501B3
:1057B000B4010E94EF729B01AC0169897A898B89DF
:1057C0009C890E941A744B015C01609121057091C3
:1057D0002205072E000C880B990B0E9490729B01EA
:1057E000AC01C701B6010E94197420E030E04AE71D
:1057F00054E40E94FA742D893E894F89588D0E9485
:105800001A746D837E838F8398876091C30870912B
:10581000C408072E000C880B990B0E9490729B0104
:10582000AC01C501B4010E94197420E030E04AE7E0
:1058300054E40E94FA74EAC0209134113091351179
:1058400040913611509137116D897E898F89988DDD
:105850000E94EF722D893E894F89588D0E94EF7208
:105860006B017C01209138113091391140913A112E
:1058700050913B11C301B2010E94EF72A30192014A
:105880000E94EF729B01AC01C701B6010E941A741D
:105890006B017C0120913011309131114091321116
:1058A000509133116D897E898F89988D0E94EF7296
:1058B000A30192010E94EF729B01AC01C701B601E6
:1058C0000E941A746B017C012091281130912911DA
:1058D00040912A1150912B116D897E898F89988D65
:1058E0000E94EF729B01AC01C701B6010E941A74BD
:1058F0006B017C0120912C1130912D1140912E11C2
:1059000050912F11C301B2010E94EF729B01AC01B3
:10591000C701B6010E941A742D893E894F89588D9E
:105920000E941A746D837E838F83988720914C1117
:1059300030914D1140914E1150914F116D897E89DA
:105940008F89988D0E94EF722D893E894F89588DDD
:105950000E94EF726B017C01209150113091511126
:105960004091521150915311C301B2010E94EF7244
:10597000A30192010E94EF729B01AC01C701B60125
:105980000E941A746B017C012091481130914911D9
:1059900040914A1150914B116D897E898F89988D64
:1059A0000E94EF72A30192010E94EF729B01AC0171
:1059B000C701B6010E941A746B017C01209140114D
:1059C0003091411140914211509143116D897E896E
:1059D0008F89988D0E94EF729B01AC01C701B601BF
:1059E0000E941A746B017C01209144113091451181
:1059F0004091461150914711C301B2010E94EF72CC
:105A00009B01AC01C701B6010E941A74A301920167
:105A10000E941A7469837A838B839C83BE016F5FB3
:105A20007F4FCE0105960E94005E8D809E80AF80E4
:105A3000B884A50194016091650B7091660B80910B
:105A4000670B9091680B0E9419742B013C018981AE
:105A50009A81AB81BC81898B9A8BAB8BBC8B9C016F
:105A6000AD016091690B70916A0B80916B0B909105
:105A70006C0B0E9419746B017C01A3019201C3019C
:105A8000B2010E94EF722B013C01A7019601C701F0
:105A9000B6010E94EF729B01AC01C301B2010E94EA
:105AA0001A740E9432766D8B7E8B8F8B988FA50136
:105AB000940160916D0B70916E0B80916F0B9091C2
:105AC000700B0E9419744B015C0129893A894B893A
:105AD0005C896091710B7091720B8091730B909146
