:100000000C94E40B0C9469690C943E690C9413698C
:100010000C94E8680C94BD680C9492680C94676822
:100020000C943C680C94150C0C94150C0C94150C49
:100030000C94150C0C94150C0C94150C0C94150CBC
:100040000C94150C0C941E6A0C94150C0C94150C45
:100050000C944C6A0C94150C0C94150C0C94F267CF
:100060000C94150C0C94BC670C9492670C94150CB2
:100070000C94150C0C94150C0C94150C0C94150C7C
:100080000C94F0690C94150C0C94150C0C94150C34
:100090000C94150C0C94150C0C94150C0C94150C5C
:1000A0000C94150C0C94150C0C94C2690C94150C42
:1000B0000C94150C0C94150C0C94150C0C94946960
:1000C0000C94150C0C94150C0C94150C0C94150C2C
:1000D0000C94150C0C94150C0C94150C0C94150C1C
:1000E0000C94150C036EDB363D9A9999993DABAA99
:1000F000AA2A3E000000803F084AD73B3BCE016E53
:1001000084BCBFFDC12F3D6C74319ABD56833DDA6E
:100110003D00C77F11BED9E4BB4C3E916BAAAABE7D
:10012000000000803F072C7AA5BA6CC590DA3B939B
:1001300065FC8BBC53F810FD3C5692834DBD879DEA
:100140003AB63DCBC9BF5BBE73DA0FC93F05A84CB9
:10015000CDB2D44EB93836A9020C50B99186880870
:100160003CA6AAAA2ABE000000803F028988083C5B
:10017000ABAAAA2A3E000000803F0664EC1B3C04A8
:10018000BC163E3BE5B93CC93C37C29E5A3D6604AD
:1001900098083EEA69AAAA3E000000803F07634231
:1001A00036B79BD8A71A39685618AEBAAB558C1D0E
:1001B0003CB7CC5763BD6DEDFD753EF6177231BF90
:1001C000000000803F000C94104A0C94EC4C0C94FE
:1001D000B2720C94B84B0C94694A0C94131D0C9495
:1001E000AD110C94B5110C94AB100C945D4A0C94A9
:1001F000440F0C94074A0C94C54A0C94BE1C0C94F2
:10020000F91C0C9491110C94434C0C94C9110C944E
:100210008A0F0C94C24C0C94311D0C949B110C94BD
:10022000191D0C94A64B0C940D4C0C949F1C0C9413
:100230001F4C0C9466100C94284C0C94EF4A0C94B0
:100240003A4C0C94CA4B0C94AF4B0C94D04C0C947D
:10025000D3110C940A120C94194A0C94044C0C946B
:1002600087110C949D100C94F5490C94DF1C0C9490
:10027000A6100C9499100C94BF110C94224A0C9463
:1002800070100C9485100C94924C0C9478100C9473
:100290007A110C94B44C0C94FD4A0C94E34A0C94DF
:1002A000084D0C94454B0C94EC490C94514C0C9417
:1002B000A5110C9481100C948F100C946C100C945C
:1002C00084670C94324D0C9493100C94FE490C945A
:1002D000E2110C94FA4C0C9400120C94520F0C94F2
:1002E000944B0C94C51C0C94514A0C94294A0C94C0
:1002F000164C0C941D4B0C94210F0C949D4B0C949C
:10030000251D0C942B1D0C94F70F0C94EC110C94E0
:100310004A120C94A7100C941F1D0C94A1100C945D
:10032000324A0C947B100C94D14A0C948B4B0C9455
:10033000F6110C949F6A0C94300F0C94DE4C0C94C4
:100340008B100C941E4D0C94A34A0C9414120C9414
:10035000C9490C94A64C0C94314C0C94EB0E0C94A3
:10036000C14B0C9482110C9474104E414E494E496D
:100370005459494E46CDCCCC3D0AD7233C17B7D172
:100380003877CC2B329595E6241FB14F0A00002018
:10039000410000C84200401C4620BCBE4CCA1B0E97
:1003A0005AAEC59D7400407A10F35A00A0724E18E0
:1003B000090010A5D4E80000E87648170000E40B17
:1003C00054020000CA9A3B000000E1F505000080DD
:1003D000969800000040420F000000A08601000037
:1003E00000102700000000E8030000000064000087
:1003F0000000000A00000000000100000000002CC6
:1004000076D888DC674F0823DFC1DFAE59E1B1B78A
:1004100096E5E3E453C63AE651997696E8E6C28457
:1004200026EB898C9B62ED407C6FFCEFBC9C9F406F
:10043000F2BAA56FA5F490055A2AF75C936B6CF994
:10044000676DC11BFCE0E40D47FEF520E6B500D06A
:10045000ED902E0300943577050080841E0800007F
:10046000204E0A000000C80C333333330F986E124D
:10047000831141EF8D2114893BE65516CFFEE6DB53
:1004800018D1844B381BF77C1D901DA4BBE424209D
:100490003284725E228100C9F124ECA1E53D273C43
:1004A00049646C652C4D506F733A302C302C302CD5
:1004B00057506F733A302E3030302C302E30303071
:1004C0002C302E3030303E00446972656374696FA1
:1004D0006E2032202D204661696C0044697265638C
:1004E00074696F6E2032202D2050617373003C4977
:1004F000646C652C4D506F733A302C302C302C5777
:10050000506F733A302E3030302C302E3030302C4B
:10051000302E3030303E00446972656374696F6E0E
:100520002031202D204661696C0044697265637436
:10053000696F6E2031202D2050617373003C496437
:100540006C652C4D506F733A302C302C302C57503A
:100550006F733A302E3030302C302E3030302C301B
:100560002E3030303E00206D6F746F723A0054654B
:100570007374696E672000206D6D0020696E002B1A
:10058000004D6573736167653A20506C65617365F2
:100590002061646A757374205A2D417869732074E0
:1005A0006F2061206465707468206F662000496E5A
:1005B00076616C69642067636F64652049443A0022
:1005C000454550524F4D2072656164206661696CEB
:1005D0002E205573696E672064656661756C7420A2
:1005E00073657474696E67732E00506C6561736512
:1005F00020736574202431322C202431332C2024A4
:1006000031392C20616E642024323020746F206CCC
:100610006F6164206F6C6420706F736974696F6EB2
:1006200020646174612E00496E76616C6964207388
:10063000746174656D656E7400426164206E756DE1
:1006400062657220666F726D6174006572726F729E
:100650003A20006F6B00506C6561736520736574A0
:10066000202431322C202431332C202431392C20E9
:10067000616E642024323020746F206C6F616420BE
:10068000706F736974696F6E2E004F6C6420706FA9
:10069000736974696F6E2064617461206465746548
:1006A000637465642E000D0A6E6577207370696E41
:1006B000646C65206D61783D000D0A6E657720736E
:1006C00070696E646C65206D696E3D005475726E64
:1006D000696E67205370696E646C65204F666600B2
:1006E0005475726E696E67205370696E646C652014
:1006F0004F6E005475726E696E67205370696E6438
:100700006C65204F6666005475726E696E67205383
:1007100070696E646C65204F6E005475726E696E00
:1007200067205370696E646C65204F666600416493
:100730006A757374696E67205370696E646C6520A6
:10074000537065656420746F204D696E696D756DB9
:10075000005475726E696E67205370696E646C65C3
:10076000204F6E005475726E696E67205370696E0B
:10077000646C65204F66660041646A757374696EC7
:1007800067205370696E646C6520537065656420E2
:10079000746F204D696E696D756D005475726E6968
:1007A0006E67205370696E646C65204F6E006E65D5
:1007B000772070776D206F7574707574203D200000
:1007C0006E6577207370696E646C65207370656503
:1007D00064203D20007370696E646C65206D696EE5
:1007E000203D20007370696E646C65206D61782017
:1007F0003D20006D6D004D6561737572696E6720F7
:100800006F757420726967687420636861696E002F
:100810006D6D004D6561737572696E67206F7574DB
:10082000206C65667420636861696E004D61736C4D
:100830006F77205061757365640028456E64206F82
:10084000662042756666657229005C74005C720001
:100850005C6E0042756666657220436F6E74656EED
:1008600074733A200042756666657220456E643A7C
:10087000200042756666657220426567696E3A209F
:1008800000427566666572204E756D626572206FF6
:1008900066204C696E65733A200042756666657223
:1008A00020557365643A2000427566666572206F54
:1008B000766572666C6F77210072656164790047B6
:1008C00072626C2076312E3030002044657465638E
:1008D0007465640020544C453532303620000A508F
:1008E00043422076312E000A0A736F6674207265C7
:1008F00073657420636F6D6D616E6465640A0A00D0
:1009000054686520426F6172642076657273696F06
:100910006E206E756D6265722066726F6D207468F0
:100920006973204D6F746F7220436F6E74726F6CB9
:1009300020626F61726420697320696E76616C69F0
:10094000642E202D2D2D28212121292D2D2D2051C2
:1009500075697420616E64206D616B6520737572BA
:10096000652069742069732070726F7065726C798C
:100970002073656174656420616E642074686174BD
:100980002074686520636F72726563742076657287
:1009900073696F6E206F66206669726D776172652C
:1009A000206973206C6F616465642E2E2E200054C4
:1009B000686520736C6564206973206E6F74206BAA
:1009C000656570696E672075702077697468206945
:1009D000747320657870656374656420706F7369E3
:1009E00074696F6E20616E64206861732068616C49
:1009F0007465642E20436C69636B207468652027DE
:100A000053746F702720627574746F6E20746F203A
:100A1000636C6561722074686520616C61726D2E13
:100A2000204D6F726520696E666F726D6174696FBB
:100A30006E2061743A2068747470733A2F2F67695E
:100A4000746875622E636F6D2F4D61736C6F7743A1
:100A50004E432F4669726D776172652F77696B69B6
:100A60002F4B656570696E672D5570202000414CD5
:100A700041524D3A20005D005B50453A002C5750E2
:100A80006F733A302E3030302C302E3030302C30E6
:100A90002E3030303E002C002C0049646C652C4D0B
:100AA000506F733A0050617573652C4D506F733AF7
:100AB0000053746F702C4D506F733A003C002C0043
:100AC0002C002C002C007265616479004772626C06
:100AD0002076312E30300046414B455F534552560B
:100AE0004F206F66660046414B455F534552564F57
:100AF000206F6E0020446574656374656400202077
:100B0000544236363433200020544C45393230318B
:100B1000200020544C4535323036200050434220CE
:100B200076312E0000002100240027002A002D002D
:100B30003000330001010000040107010A01000038
:100B40002200250028002B002E0031003400020175
:100B50000000050108010B0100000A0B02090C0D41
:100B60000E08070304010000000000000000000060
:100B70000000000000000000000000000000000075
:100B80000000000012111000000000000000000032
:100B90000000000000000000000000000000546F92
:100BA0006F6C206368616E676520746F20746F6F6F
:100BB0006C200020746F6F2073686F7274202D207A
:100BC00069676E6F7265642E00436F6D6D616E6450
:100BD000200020756E737570706F7274656420618B
:100BE0006E642069676E6F7265642E00436F6D6D71
:100BF000616E64204D00546F6F6C204368616E67B6
:100C0000653A20506C6561736520696E7365727416
:100C100020746F6F6C20004669726D776172652079
:100C200056657273696F6E20002000526573746F91
:100C300072696E672064656661756C7473004D65DA
:100C400073736167653A20002028536C65642057F0
:100C500065696768742C204E290D0A002028636896
:100C600061696E2073747265746368206661637471
:100C70006F722C206D2F6D2F4E290D0A2434363DB6
:100C80000020287265736572766564322C206D6D64
:100C9000290D0A2434353D0020287265736572766B
:100CA0006564312C20646567290D0A2434343D00C5
:100CB0002028706F736974696F6E206572726F722D
:100CC00020616C61726D206C696D69742C206D6D92
:100CD000290D0A2434333D002028636861696E20A1
:100CE000746F6C6572616E63652C207269676874DD
:100CF00020636861696E2C206D6D290D0A243432E1
:100D00003D002028636861696E20746F6C657261B4
:100D10006E63652C206C65667420636861696E2C57
:100D2000206D6D290D0A2434313D00202850574D87
:100D3000206672657175656E63792076616C756584
:100D400020313D33392C303030487A2C20323D343C
:100D50002C313030487A2C20333D343930487A29D0
:100D60000D0A2434303D002028636861696E206FCD
:100D7000766572207370726F636B6574290D0A2437
:100D800033393D002028636861696E2073616720F4
:100D9000636F7272656374696F6E2076616C7565DE
:100DA000290D0A2433383D0020287A2061786973A0
:100DB0002056656C6F636974792070726F706F7202
:100DC00074696F6E616C20776569676874290D0AB4
:100DD0002433373D0020287A2061786973204B64E2
:100DE0002056656C6F63697479290D0A2433363D8A
:100DF0000020287A2061786973204B692056656C41
:100E00006F63697479290D0A2433353D0020287AEF
:100E10002061786973204B702056656C6F6369742C
:100E200079290D0A2433343D0020287A206178691D
:100E30007320506F732070726F706F7274696F6E71
:100E4000616C20776569676874290D0A2433333D26
:100E50000020287A2061786973204B6420506F73DA
:100E6000290D0A2433323D0020287A2061786973E5
:100E7000204B6920506F73290D0A2433313D002027
:100E8000287A2061786973204B7020506F73290D88
:100E90000A2433303D0020286D61696E2056656C50
:100EA0006F636974792070726F706F7274696F6E9E
:100EB000616C20776569676874290D0A2432393DB1
:100EC0000020286D61696E204B642056656C6F634D
:100ED000697479290D0A2432383D0020286D616932
:100EE0006E204B692056656C6F63697479290D0A11
:100EF0002432373D0020286D61696E204B702056EA
:100F0000656C6F63697479290D0A2432363D0020BF
:100F1000286D61696E20506F732070726F706F72F0
:100F200074696F6E616C20776569676874290D0A52
:100F30002432353D0020286D61696E204B642050BD
:100F40006F73290D0A2432343D0020286D61696ECB
:100F5000204B6920506F73290D0A2432333D002045
:100F6000286D61696E204B7020506F73290D0A2423
:100F700032323D0020287A206178697320737465CD
:100F8000707320706572207265766F6C7574696F0E
:100F90006E290D0A2432313D0020287A20617869BB
:100FA000732064697374616E6365202F20726F749F
:100FB0006174696F6E290D0A2432303D0020286D5E
:100FC0006178207A20617869732052504D290D0A8A
:100FD0002431393D0020286175746F207370696E6B
:100FE000646C6520656E61626C6520313D7365726D
:100FF000766F2C20323D72656C61795F682C2033EE
:101000003D72656C61795F6C290D0A2431383D00B1
:1010100020284175746F205A20417869732C203143
:10102000203D20596573290D0A2431373D002028C1
:101030006D617820666565642C206D6D2F6D696E1D
:10104000290D0A2431363D00202864697374616ECD
:101050006365202F20726F746174696F6E2C206D30
:101060006D290D0A2431353D0020286D61696E20FF
:10107000737465707320706572207265766F6C751D
:1010800074696F6E290D0A2431333D002028636195
:101090006C6962726174696F6E20636861696E2049
:1010A0006C656E6774682C206D6D290D0A243132D1
:1010B0003D00202866756C6C206C656E6774682036
:1010C0006F6620636861696E2C206D6D290D0A249E
:1010D00031313D002028617869732069646C652096
:1010E0006265666F7265206465746163682C206D4B
:1010F00073290D0A2431303D002028726F74617409
:10110000696F6E207261646975732C206D6D290D95
:101110000A24393D0020284B696E656D617469634E
:1011200073205479706520313D5175616472696C2A
:1011300061746572616C2C20323D547269616E6716
:10114000756C6172290D0A24383D002028736C6586
:10115000642063672C206D6D290D0A24373D002023
:1011600028736C6564206865696768742C206D6DF0
:10117000290D0A24363D002028736C6564207769A8
:101180006474682C206D6D290D0A24353D002028DB
:101190006D6F746F72206865696768742C206D6D5F
:1011A000290D0A24343D0020286D6F746F7220646D
:1011B000697374616E63652C206D6D290D0A24338B
:1011C0003D0020286D616368696E65206865696708
:1011D00068742C206D6D290D0A24323D0020286D85
:1011E000616368696E652077696474682C206D6D31
:1011F000290D0A24313D0024303D00212028666558
:10120000656420686F6C6429007E20286379636CB4
:1012100065207374617274290024783D76616C7561
:1012200065202873617665204D61736C6F7720733C
:10123000657474696E6729002424202876696577AF
:10124000204D61736C6F772073657474696E67737A
:1012500029007468652076616C7565207265636528
:10126000697665643A200020697320696E76616C46
:1012700069642E204F6E6C79204733382E322072ED
:1012800065636F676E697A65642E00473338006561
:1012900072726F723A2070726F62652064696420A6
:1012A0006E6F7420636F6E6E6563740A70726F6721
:1012B00072616D2073746F707065640A7A20617852
:1012C0006973206E6F74207365740A007A206178E8
:1012D0006973207A65726F656400206D6D2070659A
:1012E00072206D696E2E006665656472617465209A
:1012F00000206D6D2E006D6178206465707468202B
:101300000070726F62696E6720666F72207A20616A
:10131000786973207A65726F004733382E32206700
:10132000636F6465206F6E6C792076616C696420F0
:1013300077697468207A2D617869732061747461AB
:101340006368656400206D732E00207365636F6EA3
:101350006473006477656C6C2074696D652000208F
:10136000756E737570706F7274656420616E642041
:1013700069676E6F7265642E00436F6D6D616E6498
:101380002047002D2D5049442056656C6F636974C9
:101390007920546573742053746F702D2D0A007377
:1013A0006574706F696E742C696E7075742C6F75CE
:1013B00074707574002D2D5049442056656C6F6310
:1013C00069747920546573742053746172742D2D7F
:1013D000002D2D50494420506F736974696F6E2041
:1013E000546573742053746F702D2D0A00736574E7
:1013F000706F696E742C696E7075742C6F75747073
:1014000075742C72706D696E7075742C766F6C7457
:10141000616765002D2D50494420506F73697469D0
:101420006F6E20546573742053746172742D2D0097
:101430002D2D566F6C74616765205465737420534D
:10144000746F702D2D0A000A002C002D2D566F6C24
:101450007461676520546573742053746172742DD0
:101460002D0046414B455F534552564F206F6666EF
:101470000046414B455F534552564F206F6E004E1C
:10148000414E00204C6F776572204C696D69743A4B
:1014900020004E414E005A204178697320557070EB
:1014A0006572204C696D69743A20005A2041786950
:1014B00073204C696D69747320436C656172656457
:1014C000004572726F722073657474696E67206C68
:1014D000696D697400202020004C6F776572206C64
:1014E000696D69742073657420746F3A20004572C9
:1014F000726F722073657474696E67206C696D69B0
:101500007400202020005570706572206C696D6930
:10151000742073657420746F3A20005D005B4D6524
:1015200061737572653A20004D6573736167653A42
:1015300020546865206D616368696E652063686129
:10154000696E732068617665206265656E206D61E5
:101550006E75616C6C792072652D63616C69627265
:10156000617465642E006D6D0052696768743A207D
:10157000006D6D004C6566743A20006D6D00526917
:101580006768743A20006D6D004C6566743A2000FF
:1015900053657474696E6720436861696E204C6599
:1015A0006E6774687320546F3A20005465737473C7
:1015B00020636F6D706C6574652E004D6F746F7273
:1015C0002043616C6962726174696F6E204E6F7442
:1015D000204E6565646564002053797374656D20E1
:1015E000436861696E204C656E6774683A2000201C
:1015F000526967687420436861696E204C656E6744
:1016000074682047726561746572207468616E2029
:1016100053797374656D2053657474696E677320B4
:10162000436861696E204C656E677468204C65661E
:1016300074436861696E4C656E6774683A20002077
:101640004C65667420436861696E204C656E6774F2
:10165000682047726561746572207468616E2053FA
:10166000797374656D2053657474696E6773204374
:101670006861696E204C656E677468204C6566749D
:10168000436861696E4C656E6774683A2000204E4D
:10169000756D626572206F6620677565737365731B
:1016A0002065786365656473204B494E454D415410
:1016B0004943534D4158475545535320004D657399
:1016C000736167653A20556E61626C6520746F20A6
:1016D00066696E642076616C6964206D6163686917
:1016E0006E6520706F736974696F6E20666F72200B
:1016F000636861696E206C656E6774687320005B57
:10170000466F72776172642043616C63756C6174BB
:10171000696E6720506F736974696F6E5D000102B6
:1017200010202008081020401020408002010201F3
:1017300008040201010204081020408080402010AB
:101740000804020180040201804020100804020104
:10175000080402010102040810204080010204086C
:1017600010204080000020002300260029002C00CB
:101770002F003200000100000301060109010505E8
:101780000505070508080808020202020A0A0808F7
:101790000404040401010101010101010303030325
:1017A00003030303040707070C0C0C0C0C0C0C0CB4
:1017B0000202020206060606060606060B0B0B0BC5
:1017C0000B0B0B0B9F6AB27211241FBECFEFD1E23D
:1017D000DEBFCDBF00E00CBF13E0A0E0B2E0ECE85C
:1017E000FFEF00E00BBF02C007900D92A636B107D5
:1017F000D9F72AE0A6E6B3E001C01D92AF33B207E5
:10180000E1F71BE0C3EEDBE000E006C02197010931
:10181000802FFE010E942E7DC23ED10780E0080786
:10182000A9F70E94316B0C94B47F0C940000CF9305
:10183000DF938091B5099091B609C091B709D09115
:10184000B80930E020E0E0E8F0E0C817D90771F00F
:10185000DC01AB54B64F14964C914A3011F42F5F13
:101860003F4F0196BF010E941A7DEFCFC901DF9162
:10187000CF9108954F925F926F927F928F929F9235
:10188000AF92BF92CF92DF92EF92FF920F931F938E
:10189000CF93DF938C01EB01FC014080518062808B
:1018A00073808090B7059090B805A090B905B0906E
:1018B000BA0575016401F7FAF094F7F8F094A701FE
:1018C0009601B201C3010E94607787FD0CC0A5019B
:1018D0009401B201C3010E94417B62017301181699
:1018E00014F475016401F801C082D182E282F382AE
:1018F000688079800A811B818090BB059090BC052F
:10190000A090BD05B090BE0575016401F7FAF09492
:10191000F7F8F094A7019601B301C8010E9460771F
:1019200087FD0CC0A5019401B301C8010E94417B51
:1019300063017801181614F475016401C882D98214
:10194000EA82FB82DF91CF911F910F91FF90EF9080
:10195000DF90CF90BF90AF909F908F907F906F90CF
:101960005F904F9008952F923F924F925F926F92A7
:101970007F928F929F92AF92BF92CF92DF92EF921F
:10198000FF920F931F93CF93DF93CDB7DEB7689786
:101990000FB6F894DEBF0FBECDBF988F8F8B1B01A3
:1019A0005E8B4D8BEFEAF5E080819181A281B3815E
:1019B00089839A83AB83BC83D8018D919D910D90CF
:1019C000BC91A02D8D839E83AF83B887D6018D9166
:1019D0009D910D90BC91A02D89879A87AB87BC877C
:1019E000D9018D919D910D90BC91A02D8D879E87E1
:1019F000AF87B88BD7018D919D910D90BC91A02D93
:101A0000898B9A8BAB8BBC8B84889588A688B7888A
:101A100040885188628873882D853E854F85588916
:101A200069817A818B819C810E94C6779B01AC0180
:101A3000C501B4010E940079EF89F88D20813181C0
:101A4000428153810E9401796B017C012D813E818D
:101A50004F81588569817A818B819C810E94C677EC
:101A60009B01AC01C301B2010E9400799B01AC0152
:101A7000C701B6010E94FF796B017C0129893A896F
:101A80004B895C8969817A818B819C810E94C677B0
:101A90009B01AC01C501B4010E940079D1012D91D7
:101AA0003D914D915C910E9401794B015C0129852A
:101AB0003A854B855C8569817A818B819C810E9406
:101AC000C677A30192010E9401799B01AC0160914C
:101AD00068047091690480916A0490916B040E947B
:101AE00000799B01AC01C501B4010E94FF794B0153
:101AF0005C01A70196016D817E818F8198850E948E
:101B0000C6772B013C01A501940169857A858B85F7
:101B10009C850E94C6779B01AC01C301B2010E9463
:101B200000792B013C012D853E854F8558896989B7
:101B30007A898B899C890E9400799B01AC01C30141
:101B4000B2010E9401792B013C01A5019401C7015A
:101B5000B6010E9401799B01AC0169817A818B8178
:101B60009C810E94FF799B01AC01C301B2010E94DC
:101B7000C6776B017C01ED89FE892081318142812C
:101B80005381609178047091790480917A049091E6
:101B90007B040E94C6779B01AC01C701B6010E947D
:101BA000017968960FB6F894DEBF0FBECDBFDF9106
:101BB000CF911F910F91FF90EF90DF90CF90BF904A
:101BC000AF909F908F907F906F905F904F903F90DD
:101BD0002F900895FC01248135816217730748F422
:101BE00080819181009729F0860F971FFC018081E9
:101BF000089580E008952F923F924F925F926F92E6
:101C00007F928F929F92AF92BF92CF92DF92EF928C
:101C1000FF920F931F93CF93DF9300D01F92CDB706
:101C2000DEB79C838B831B01EB81FC811081E12E4D
:101C3000F12CB7018FEA99E00E94EA0D2091B309D7
:101C40003091B409803241F4E216F30628F41F5FA4
:101C5000EB81FC811083E8CF812C412C512C80E852
:101C6000682E8FE3782EC12CD12C7601912C19820D
:101C7000EB81FC81F081FA830F2F10E0A090B30973
:101C8000B090B409B8018FEA99E00E94EA0DE82FFC
:101C90000A151B0580F58D3209F476C08E3209F4E1
:101CA00076C080ED8E0F8A3008F58394AAE0B0E00C
:101CB000A70196010E94BC78CE2EEE0FDD08EE083B
:101CC000FF08C60ED71EE81EF91E80E3C81AD10809
:101CD000E108F108992051F02DEC3CEC4CEC5DE36F
:101CE000C301B2010E94C6772B013C018A818F5F3C
:101CF000EB81FC818083EB81FC81008110E0B801E5
:101D00008FEA99E00E94EA0D80330CF443C08A33D5
:101D10000CF445C060E070E0CB018820F1F0F9815F
:101D2000FF2341F0F094E094D094C094C11CD11CE6
:101D3000E11CF11CC701B6010E946777992021F0D0
:101D4000A30192010E94C677F101608371838283AF
:101D5000938360E070E080E89FE30F900F900F9016
:101D60000F90DF91CF911F910F91FF90EF90DF9037
:101D7000CF90BF90AF909F908F907F906F905F902B
:101D80004F903F902F900895E1E0E983AFCF9924E1
:101D90009394ACCF8E3209F0BDCF9110BBCF809120
:101DA000B3099091B4090817190708F461CFB2CFAD
:101DB000FC01248135816217730720F480819181B1
:101DC000009729F41092290489E294E00895860F7F
:101DD000971F08950895AF92BF92CF92DF92EF922E
:101DE000FF920F931F93CF93DF936C017B018B01C5
:101DF000040F151FEB015E01AE18BF08C017D10715
:101E000059F06991D601ED91FC910190F081E02D9E
:101E1000C6011995892B79F7C501DF91CF911F91E3
:101E20000F91FF90EF90DF90CF90BF90AF9008950B
:101E3000FC01448155816081718182E195E00C94BF
:101E4000EB0EFC01538D448D252F30E0842F90E064
:101E5000821B930B541710F0CF96089501970895A5
:101E6000FC01918D828D981761F0A28DAE0FBF2F6E
:101E7000B11D5D968C91928D9F5F9F73928F90E0C4
:101E800008958FEF9FEF0895FC01918D828D981733
:101E900031F0828DE80FF11D858D90E008958FEF70
:101EA0009FEF0895FC01918D228D892F90E0805C39
:101EB0009F4F821B91098F739927089582E195E0C6
:101EC0000E94520F21E0892B09F420E0822F08950F
:101ED000FC01A48DA80FB92FB11DA35ABF4F2C919F
:101EE000848D90E001968F739927848FA689B78996
:101EF0002C93A089B1898C91837080648C93938D8D
:101F0000848D981306C00288F389E02D80818F7D2F
:101F100080830895EF92FF920F931F93CF93DF93E7
:101F2000EC0181E0888F9B8D8C8D98131AC0E88915
:101F3000F989808185FF15C09FB7F894EE89FF89E4
:101F40006083E889F98980818370806480839FBF82
:101F500081E090E0DF91CF911F910F91FF90EF9082
:101F60000895F62E0B8D10E00F5F1F4F0F73112792
:101F7000E02E8C8D8E110CC00FB607FCFACFE889CD
:101F8000F989808185FFF5CFCE010E94680FF1CFDE
:101F9000EB8DEC0FFD2FF11DE35AFF4FF0829FB741
:101FA000F8940B8FEA89FB8980818062CFCF0F93F1
:101FB0001F93CF93DF938C01D0E0C0E0F801EC0FCA
:101FC000FD1F6491662341F082E195E00E948A0F33
:101FD000892B11F02196F2CFCE01DF91CF911F9185
:101FE0000F910895682F82E195E00C948A0FCF93AA
:101FF000DF93EC01888D8823B9F0AA89BB89E88931
:10200000F9898C9185FD03C0808186FD0DC00FB6D6
:1020100007FCF7CF8C9185FFF2CF808185FFEDCF54
:10202000CE010E94680FE9CFDF91CF91089580E043
:1020300090E0892B29F00E945E0F81110E94000020
:1020400080E090E0892B49F080E090E0892B29F036
:102050000E94000081110E94000080E090E0892B26
:1020600049F080E090E0892B29F00E940000811166
:102070000E94000080E090E0892B49F080E090E031
:10208000892B29F00E94000081110C940000089512
:102090008150823108F05AC0E82FF0E08827EC5ACE
:1020A000FF4E8F4F0C942E7D7410781066106C10BC
:1020B0007010A6107B10811085108B108F1093105C
:1020C00099109D10A610A110A710AB108091800050
:1020D0008F77809380000895809180008F7DF9CF65
:1020E00080918000877FF5CF84B58F7784BD089578
:1020F00084B58F7DFBCF8091B0008F778093B00047
:1021000008958091B0008F7DF9CF809190008F77F6
:10211000809390000895809190008F7DF9CF8091F9
:102120009000877FF5CF8091A0008F778093A000EB
:1021300008958091A0008F7DF9CF8091A000877FC6
:10214000F5CF809120018F778093200108958091B1
:1021500020018F7DF9CF80912001877FF5CFCF932C
:10216000DF93282F30E0F901E85AF44F8491F90108
:10217000E25EF84ED491F901E258F84EC491CC23B6
:10218000A1F081110E944810EC2FF0E0EE0FFF1F2C
:10219000EC59F84EA591B491EC91ED2381E090E0DB
:1021A00009F480E0DF91CF91089580E090E0FACFCC
:1021B0001F93CF93DF93282F30E0F901E85AF44FB3
:1021C0008491F901E25EF84ED491F901E258F84E9B
:1021D000C491CC23A9F0162F81110E944810EC2F36
:1021E000F0E0EE0FFF1FE25CF44FA591B4918FB7C2
:1021F000F894EC91111108C0D095DE23DC938FBFC9
:10220000DF91CF911F910895DE2BF8CFCF93DF930D
:1022100090E0FC01E25EF84E24918258984EFC0159
:1022200084918823C9F090E0880F991FFC01EC5D30
:10223000F44FA591B491FC01E25CF44FC591D491A7
:1022400061110DC09FB7F8948C91209582238C93D7
:102250008881282328839FBFDF91CF910895623022
:1022600051F49FB7F8943C91822F809583238C93EF
:10227000E8812E2BEFCF8FB7F894EC912E2B2C9377
:102280008FBFEACF1F93CF93DF93182FEB0161E04D
:102290000E940611209739F460E0812FDF91CF91E1
:1022A0001F910C94D810CF3FD10511F461E0F5CF08
:1022B000E12FF0E0E85AF44FE491E150E23108F008
:1022C000B3C0F0E08827E859FE4E8F4F0C942E7D66
:1022D0007A118211871191119B111412A511AD1160
:1022E000B511BF11C911D311E211EC111412F6117D
:1022F00000120A1284B5806884BDC7BDDF91CF91FA
:102300001F91089584B5806284BDC8BDF7CF8091C8
:102310008000806880938000D0938900C0938800FB
:10232000EDCF80918000806280938000D0938B00FD
:10233000C0938A00E3CF8091800088608093800002
:10234000D0938D00C0938C00D9CF8091B00080686D
:102350008093B000C093B300D1CF8091B000806271
:102360008093B000C093B400C9CF80919000806882
:1023700080939000D0939900C0939800BFCF809134
:102380009000806280939000D0939B00C0939A004D
:10239000B5CF80919000886080939000D0939D008D
:1023A000C0939C00ABCF8091A00080688093A00078
:1023B0008091A0008F7B8093A000D093A900C09350
:1023C000A8009CCF8091A00080628093A000D09351
:1023D000AB00C093AA0092CF8091A0008860809348
:1023E000A000D093AD00C093AC0088CF80912001B5
:1023F000806880932001D0932901C09328017ECF6B
:1024000080912001806280932001D0932B01C093A2
:102410002A0174CF80912001886080932001D0939D
:102420002D01C0932C016ACFC038D1050CF03ECFEE
:1024300033CF3FB7F8948091250490912604A09162
:102440002704B091280426B5A89B05C02F3F19F09A
:102450000196A11DB11D3FBFBA2FA92F982F882724
:10246000BC01CD01620F711D811D911D42E0660FFF
:10247000771F881F991F4A95D1F708952FB7F894B1
:10248000609121047091220480912304909124048E
:102490002FBF08950895CF93DF93DB01EA01FC017C
:1024A000E45EFB4F40815CE0589F9001599F300DE6
:1024B000112447FF1CC011961C921E9280818F5FD1
:1024C00080838081A901480F511D87FD5A9557FFD0
:1024D00003C080818C30ACF08D919C911197049653
:1024E00080349C4938F18D919C91049625C080815F
:1024F000A901480F511D87FD5A9557FFDFCF8081F5
:10250000DDCF8D919C914081240F311D47FD3A957F
:10251000D901AA0FBB1FA20FB31FA457BC4F11961E
:102520002D913C91820F931F998388838081DF9145
:10253000CF91089580E49CE9998388838FEF80830D
:10254000F6CF009709F440C097FF03C0919581959D
:1025500091098430910514F083E090E020911105F9
:10256000211135C020910F05222351F084309105AF
:1025700014F083E090E08230910514F482E090E062
:102580002091B100287F2093B10020919100287FF5
:10259000209391002091A100287F2093A100282F53
:1025A00083309105BCF09091B1008F5F892B8093AF
:1025B000B10090919100922B909391008091A10095
:1025C000822B8093A100089581E090E0C7CF83E043
:1025D00090E0D6CF9091B100E9CFAF92BF92CF9269
:1025E000DF92EF92FF920F931F93CF93DF9362E0FE
:1025F00086E10E94061162E087E10E94061162E016
:1026000088E10E94061162E089E10E94061162E001
:102610008AE10E94061162E08BE10E9406118BE1C3
:102620000E94AF10EC018AE10E94AF105C0189E1C9
:102630000E94AF106C0188E10E94AF107C0187E11D
:102640000E94AF108C0186E10E94AF109E01220F04
:10265000331F2A0D3B1D220F331F2C0D3D1D220F52
:10266000331F2E0D3F1D220F331F200F311F220F4E
:10267000331F820F931F88309105F1F08CF4863060
:10268000910599F1C4F5843091059CF085709927E6
:102690001092100521E02093110510920F0523C020
:1026A00080349105A4F48D339105ACF48C339105FD
:1026B00069F388309105BCF0DF91CF911F910F91A4
:1026C000FF90EF90DF90CF90BF90AF900895893446
:1026D00022E0920771F783709927109211051092EA
:1026E0000F05109210050197E7CF21E02093100508
:1026F00010921105D2CF109210051092110521E011
:1027000020930F05F0CF82E195E00C94300F82E129
:1027100095E00C94520FCF93DF9382E195E00E94F5
:102720008A0FEC0182E195E00E94F70FCE01DF9164
:10273000CF91089590E080E008954F925F926F925C
:102740007F928F929F92AF92BF92CF92DF92EF9241
:10275000FF92CF93DF93CDB7DEB72E970FB6F894E5
:10276000DEBF0FBECDBF9E878D87DC019096ED91B9
:10277000FC9180819181A281B38189839A83AB830B
:10278000BC83AD85BE859496ED91FC91608171818D
:102790008281938129813A814B815C810E940079F9
:1027A0004B015C01ED85FE8526A537A540A951A901
:1027B00069817A818B819C810E9400796B017C0107
:1027C000AD85BE8554962D913D914D915C91579765
:1027D000C501B4010E94C677ED85FE8522A533A50B
:1027E00044A555A50E9401792B013C01AD85BE850C
:1027F0009A964D925D926D927C929D9711968C91D6
:1028000011978823B1F016962D913D914D915C91D1
:102810001997C701B6010E94C6779B01AC01C3019D
:10282000B2010E940079ED85FE8562A773A784A797
:1028300095A7AD85BE859A968D919D910D90BC9181
:10284000A02D8D839E83AF83B887ED85FE8542AC36
:1028500053AC64AC75ACA3019201BC01CD010E94E4
:10286000417BAD85BE8518160CF075C09A964D92C9
:102870005D926D927C929D97AD85BE858C918823EB
:1028800009F488C012962D913D914D915C91159758
:10289000C501B4010E94C6774B015C01ED85FE8540
:1028A000208D318D428D538DC701B6010E94C677B0
:1028B0009B01AC01AD85BE859A966D917D918D9100
:1028C0009C919D970E940079A50194010E94017935
:1028D0006B017C019B01AC01C301B2010E946077D6
:1028E00087FD10C0ED85FE8546A857A860AC71AC89
:1028F000A3019201B601C7010E94607787FD02C063
:1029000026013701AD85BE859296ED91FC914082FE
:1029100051826282738289819A81AB81BC81ED850B
:10292000FE8586A797A7A0ABB1AB81E02E960FB628
:10293000F894DEBF0FBECDBFDF91CF91FF90EF9037
:10294000DF90CF90BF90AF909F908F907F906F90CF
:102950005F904F900895D6968D919D910D90BC916A
:10296000A02D89879A87AB87BC879C01AD016D81BB
:102970007E818F8198850E94607787FF7DCF8985D2
:102980009A85AB85BC85ED85FE8582A793A7A4A714
:10299000B5A772CF812C912C540180CF8F929F923A
:1029A000AF92BF92CF92DF92EF92FF92CF93DF93DD
:1029B000EC01EAA1FBA1C080D180E280F380CAA62D
:1029C000DBA6ECA6FDA6E8A1F9A180819181A281F8
:1029D000B3818EA79FA7A8ABB9AB8AAC9BACACACBC
:1029E000BDACA5019401C701B6010E94417B181638
:1029F0002CF48AA69BA6ACA6BDA60CC08EA89FA848
:102A0000A8ACB9ACA5019401C701B6010E946077DA
:102A100087FDEFCFDF91CF91FF90EF90DF90CF90C8
:102A2000BF90AF909F908F9008958F929F92AF929A
:102A3000BF92CF92DF92EF92FF920F931F93CF93AB
:102A4000DF93EC018A01FB01C080D180E280F3803A
:102A5000FA012081318142815381C701B6010E9470
:102A6000417B87FF5CC0CEAADFAAE8AEF9AEF801D1
:102A700060817181828193816AAF7BAF8CAF9DAFA2
:102A80002EAD222309F44BC00AA11BA1F80120811D
:102A90003181428153810E94607787FF1EC08AADD9
:102AA0009BADACADBDADF80180839183A283B383B0
:102AB0008AA49BA4ACA4BDA4CAACDBACECACFDACBA
:102AC000A7019601C501B4010E94417B1816DCF4F0
:102AD000CAA6DBA6ECA6FDA622C0F80120813181A2
:102AE00042815381C701B6010E94417B18162CF424
:102AF0008EA99FA9A8ADB9ADD6CFF80180819181EB
:102B0000A281B381D0CFCEA8DFA8E8ACF9ACA701F1
:102B10009601C501B4010E94607787FDD9CFDF918E
:102B2000CF911F910F91FF90EF90DF90CF90BF90CA
:102B3000AF909F908F9008952F923F924F925F9207
:102B40006F927F928F929F92AF92BF92CF92DF92BD
:102B5000EF92FF920F931F93CF93DF93CDB7DEB722
:102B60002C970FB6F894DEBF0FBECDBF9C878B8726
:102B70007A8369835A8749871901DB018D919D9179
:102B80000D90BC91A02D8D839E83AF83B88720E0EC
:102B900030E0A901BC01CD010E94607787FDEFC044
:102BA000E985FA85C080D180E280F38020E030E0C2
:102BB000A901C701B6010E94607787FDE0C0D1017D
:102BC0008D909D90AD90BC9020E030E0A901C501B2
:102BD000B4010E94607787FDD2C0F8014080518027
:102BE0006280738020E030E0A901C301B2010E943D
:102BF000607787FDC4C020E030E040E85FE3C301B8
:102C0000B2010E94417B18160CF4B9C011E020E01B
:102C100030E0A901C301B2010E94417B18160CF0FB
:102C200010E0AB85BC851C9320E030E040E85FE31A
:102C3000C301B2010E946077881F8827881FEB8537
:102C4000FC85818389819A8193878287A985BA854A
:102C5000B587A4873786268662A973A984A995A912
:102C60000E94657720E030E04AE754E40E94FF7953
:102C700069837A838B839C838D819E81AF81B885A4
:102C8000EB85FC85808B918BA28BB38B29813A815C
:102C90004B815C81C701B6010E94C6776B017C0144
:102CA000AB85BC855496CD92DD92ED92FC92579700
:102CB00029813A814B815C81C501B4010E94FF7971
:102CC0004B015C01EB85FC85808E918EA28EB38ECC
:102CD000848D958D019769F52D813E814F815885B1
:102CE00060E070E0CB010E940079AB85BC85509616
:102CF0006D937D938D939C935397A701960160E00C
:102D000070E0CB010E940079EB85FC85648B758BAC
:102D1000868B978BA501940160E070E0CB010E9447
:102D20000079AB85BC8558966D937D938D939C936C
:102D30005B97EB85FC85C088D188E288F388A70182
:102D40009601C301B2010E94C677AB85BC8512967D
:102D50006D937D938D939C931597A301920160E0F1
:102D600070E080E89FE30E940079A70196010E942D
:102D7000C677EB85FC8566837783808791872C9661
:102D80000FB6F894DEBF0FBECDBFDF91CF911F917C
:102D90000F91FF90EF90DF90CF90BF90AF909F90FA
:102DA0008F907F906F905F904F903F902F900895FD
:102DB0006F927F928F929F92AF92BF92CF92DF924B
:102DC000EF92FF920F931F93CF93DF93CDB7DEB7B0
:102DD0003C01C8018501F30153A342A371A360A381
:102DE00035A324A316AE16AA17AA10AE11AE40E062
:102DF00050E06FE773E442AF53AF64AF75AF44E6A2
:102E000050E060E070E042AB53AB64AB75ABF401F3
:102E100020813181F301358F248F9601A701BC01F8
:102E2000C3010E949C150E943E12F30102A913A93E
:102E300024A935A9601B710B820B930B66A377A3A2
:102E400080A791A7DF91CF911F910F91FF90EF90F5
:102E5000DF90CF90BF90AF909F908F907F906F90BA
:102E60000895823109F468C030F48230E1F0833093
:102E700069F180E008958431D9F108F44BC08531BF
:102E8000C1F770936B0360936A0385E29DE19093B1
:102E9000050280930402809169008C7F8160809399
:102EA0006900E89A11C0709367036093660381E339
:102EB0009DE1909301028093000280916A008C7FD3
:102EC000816080936A00EC9A81E0089570936903B1
:102ED000609368038BE29DE190930302809302026A
:102EE00080916A00837F846080936A00ED9AECCFC2
:102EF00070936D0360936C038FE19DE190930702E3
:102F00008093060280916900837F846080936900CA
:102F1000E99ADACF70936F0360936E0389E19DE1C4
:102F20009093090280930802809169008F7C8061F0
:102F300080936900EA9AC8CF70937103609370031D
:102F400083E19DE190930B0280930A0280916900D6
:102F50008F73806480936900EB9AB6CFEF92FF92F3
:102F60000F931F93CF93DF93EC019B018E8181110F
:102F700003C0442309F4DCC080912F0490913004F5
:102F80008A9709F4D5C089012F3F310519F014F053
:102F90000FEF10E001304FEF140714F401E01FEFC2
:102FA00018AF0FAB17FF03C01195019511098A8166
:102FB0009B818430910539F051E0BC016B5071095F
:102FC0006330710508F450E0EC80FD8044E0E416C5
:102FD000F10429F071E0F7013B97339708F470E0B2
:102FE0004091110541115DC0E881F981E430F1059E
:102FF00031F041E0DF011B97139708F440E0609146
:103000000F05611178C0121613068CF5442389F060
:1030100061E00E94D81060E08C810E94D810B80155
:103020008881DF91CF911F910F91FF90EF900C94C9
:1030300042117723A1F061E00E94D8106FEF70E099
:10304000601B710B8C810E94421161E08881DF91CD
:10305000CF911F910F91FF90EF900C94D810B80171
:103060000E94421160E08C810E94D810EECF442370
:1030700039F061E08E2D0E94D81060E08A81CDCFBA
:10308000552341F06FEF70E0601B710B0E944211FD
:1030900061E0E9CFB8018E2D0E94421160E08A8183
:1030A000E3CF0F3F110514F00EEF10E012161306D8
:1030B0008CF4772349F061E00E94D8106FEF70E044
:1030C000601B710B8C81ADCFB8010E94421160E092
:1030D0008C81BDCF552341F06FEF70E0601B710B09
:1030E0000E94421161E0F4CFB8018E2D0E9442117E
:1030F00060E08A81ACCF409177035091780361E022
:10310000E417F50729F4121613064CF460E007C023
:103110004091E4044130B9F712161306BCF70E943F
:10312000D810B80188810E94421160E08E2D8FCFA7
:10313000DF91CF911F910F91FF90EF9008952F9203
:103140003F924F925F926F927F928F929F92AF9237
:10315000BF92CF92DF92EF92FF920F931F93CF9384
:10316000DF93CDB7DEB7A0970FB6F894DEBF0FBEE2
:10317000CDBF3C012B014A013A8F298FD8A2CF8EB7
:1031800015011D8A1E8A1F8A188E80E090E0A0E833
:10319000BFE3898B9A8BAB8BBC8B930128533F4F3A
:1031A0003C8F2B8FCE014596F9019183808322506D
:1031B00031093E8F2D8FF90191838083329791835E
:1031C0008083F701E080F180F8010081118162E0E5
:1031D000802F0E94061162E08E2D0E940611A80128
:1031E0005527FA01E258F84EE491F0E0EE0FFF1F88
:1031F000EC59F84E25913491F30131832083425EDE
:10320000584EFA014491F3014483C7019927FC0108
:10321000E258F84EE491F0E0EE0FFF1FEC59F84E43
:10322000A591B491F301B383A283825E984EFC0111
:103230008491F30185831782108611861286EBE351
:10324000FFE13197F1F7F9019081492391E009F409
:1032500090E0EC91E82309F09260F3019683B301CA
:10326000802F0E943117F301838BB3018E2D0E94B2
:103270003117F3019389890F838B1D861E861F8664
:10328000188A80E090E0A0E8BFE389879A87AB873F
:10329000BC87830102551F4FCE010D96F801918323
:1032A00080833297918380833297918380837301E7
:1032B000F4E1EF0EF11CF20180819181F301848B26
:1032C000958BF40120813181F301378B268BE98DB9
:1032D000FA8D20813181F301318F208F128E9091F0
:1032E0001105992309F461C160E00E94061161E0B3
:1032F000F30186890E94061161E0F301808D0E942E
:10330000061160E0F30186890E94D81060E0F301A5
:10331000808D0E94D81040E070E060E0C7010E94FC
:10332000AE172301FBE64F0E511C1A821982F801D9
:10333000C080D180F301E455FF4FE080F1803297E7
:10334000008111819E012F5F3F4F4901CE010996F7
:103350005C019301235B3F4FA30149595F4FB301C8
:103360006F5A7F4FC2010E94D816F20186AD8111BB
:1033700003C0C2010E94CE1481E0F20186AF80E05A
:1033800090E0AFE7B3E489839A83AB83BC8380E0AA
:1033900090E0AFE7B3EC8D839E83AF83B887AE0137
:1033A0004F5F5F4FBE016B5F7F4FC2010E941515DB
:1033B000F101608171818281938128EE33E040E0E8
:1033C00050E00E94CF7812161306C4F56901330F3E
:1033D000EE08FF08C701B6010E9467774B015C0148
:1033E000F20162A973A984A995A90E9465779B013E
:1033F000AC01C501B4010E94FF794B015C01AC0135
:103400009B01F20164897589868997890E94C67734
:10341000F201648B758B868B978BA5019401608D6F
:10342000718D828D938D0E94FF79F201608F718F73
:10343000828F938FC2AAD3AAE4AAF5AA2301FAEC39
:103440004F0E511C81E090E09A838983EB8DFC8DB7
:10345000C080D180ED8DFE8DE080F180F301EC53D2
:10346000FF4F008111819E012F5F3F4F4901CE0127
:1034700041965C01930128543F4FA30140545F4F94
:10348000B30164547F4FC2010E94D816EF8DF8A19A
:1034900080818301025F1E4FF8018083F20186ADB7
:1034A000811103C0C2010E94CE1481E0F20186AFF7
:1034B00080E090E0A0EAB1E489839A83AB83BC8387
:1034C00080E090E0A0EAB1EC8D839E83AF83B88763
:1034D000AE014F5F5F4FBE016B5F7F4FC2010E9425
:1034E0001515F101608171818281938128EE33E0AD
:1034F00040E050E00E94CF7812161306C4F569012F
:10350000330FEE08FF08C701B6010E9467774B0131
:103510005C01F20162A973A984A995A90E9465774B
:103520009B01AC01C501B4010E94FF794B015C0114
:10353000AC019B01F20164897589868997890E9493
:10354000C677F201648B758B868B978BA5019401EE
:10355000608D718D828D938D0E94FF79F201608F55
:10356000718F828F938FC2AAD3AAE4AAF5AAF3011E
:10357000EB59FF4F11830083A0960FB6F894DEBF7E
:103580000FBECDBFDF91CF911F910F91FF90EF90B4
:10359000DF90CF90BF90AF909F908F907F906F9073
:1035A0005F904F903F902F9008959091100591114A
:1035B0009BCE90910F0561E0992371F00E94061156
:1035C00061E0F30186890E94061161E0F301808DBC
:1035D0000E94061161E09BCE0E94061161E0F3019A
:1035E00086890E94061161E0F301808D0E94061118
:1035F00061E0F30186890E94D81060E0F301808DBC
:103600000E94D81060E0F301848983CE41E00C94DD
:10361000AE17CF93DF93EC018E818823F1F0809178
:103620001105882349F060E08A810E94D81060E08B
:103630008C810E94D81011C0809110058111F3CFA8
:1036400080910F0561E0882361F08C810E94D81081
:1036500070E060E088810E9442111E82DF91CF916C
:1036600008958A810E94D81060E08C810E94D81051
:1036700060E08881DECF2F923F924F925F926F92EF
:103680007F928F929F92AF92BF92CF92DF92EF92F2
:10369000FF920F931F93CF93DF93EC011B010E94C6
:1036A0003E12FE01EC54FF4F60837183828393834B
:1036B000E65AFF4F80818E01075F1E4FC854DF4FCF
:1036C0008A3509F059C0C0900605D0900705E090F2
:1036D0000805F0900905D1014D905D906D907C90AA
:1036E000D801ED91FC9180809180A280B380A701E8
:1036F0009601C701B6010E94927C811125C0A301E9
:103700009201C701B6010E94607787FF1DC0A50125
:103710009401C701B6010E94FF79688379838A8387
:103720009B83DF91CF911F910F91FF90EF90DF90DE
:10373000CF90BF90AF909F908F907F906F905F9051
:103740004F903F902F900895C0900A05D0900B05A0
:10375000E0900C05F0900D05A7019601C701B60198
:103760000E94927C811108C0A3019201C701B60199
:103770000E94417B18165CF2D801ED91FC912081EA
:10378000318142815381F101608171818281938114
:10379000C2CF0F931F93CF93DF93EC010E943E1291
:1037A000FE01EC54FF4F0081118122813381AB0176
:1037B000BC01401B510B620B730B809181049091F3
:1037C0008204B0E0A0E084179507A607B70740F48D
:1037D000CE014496DF91CF911F910F910C94091B5C
:1037E000DF91CF911F910F9108956F927F928F92E9
:1037F0009F92AF92BF92CF92DF92EF92FF920F9380
:103800001F93CF93DF93CDB7DEB73C01FC01EC53A0
:10381000FF4F7183608332965183408332963183A8
:10382000208386539F4F0E949C15F301E655FF4F5E
:10383000F182E0823296D182C0823296B182A08239
:1038400084019501A601B701C30185599F4F0E94CC
:103850009C15DF91CF911F910F91FF90EF90DF901A
:10386000CF90BF90AF909F908F907F906F90089572
:10387000CF92DF92EF92FF92CF93DF93EC01FB01A7
:10388000C080D180E280F380C701B6010E946777D3
:10389000FE01E55FFE4F0190F081E02D2081318136
:1038A000428153810E94FF79FE01E854FF4F6083FB
:1038B000718382839383F894CF82D886E986FA86CF
:1038C0007894DF91CF91FF90EF90DF90CF900895A3
:1038D000CF92DF92EF92FF92CF93DF93EC01E881DA
:1038E000F9819081EA81FB8180812D818223EE81A3
:1038F000E3702C81922309F0E4608111E8608E2F3F
:1039000090E095958795959587958E83E150EE305B
:1039100008F034C0F0E08827EF56F34E8F4F0C9438
:103920002E7D9F1CC51CDF1CC51CBE1CF91C9F1CCA
:103930009F1CF91CBE1CC51CDF1CC51C9F1C8F8155
:103940009885A985BA850196A11DB11D8F83988799
:10395000A987BA870E941912CF84D888E988FA8883
:103960006C197D098E099F096B877C878D879E87DF
:103970000E9419126F87788B898B9A8BDF91CF9178
:10398000FF90EF90DF90CF9008958F819885A98563
:10399000BA850197A109B1098F839887A987BA874A
:1039A000CF84D888E988FA880E941912C61AD70AE3
:1039B000E80AF90ACB86DC86ED86FE86D9CF8F81B0
:1039C0009885A985BA850296A11DB11D8F83988718
:1039D000A987BA870E941912CF84D888E988FA8803
:1039E0006C197D098E099F0996958795779567953E
:1039F000BBCF8F819885A985BA850297A109B109A6
:103A00008F839887A987BA87CF84D888E988FA886E
:103A10000E941912C61AD70AE80AF90AF694E7941E
:103A2000D794C794C7CF80917003909171030C9481
:103A3000681C80916E0390916F030C94681C8091B8
:103A40006C0390916D030C94681C80916A039091B3
:103A50006B030C94681C80916803909169030C942B
:103A6000681C80916603909167030C94681CCF9347
:103A7000DF93EC018B89823060F4F894CE010E94D0
:103A8000681C6F81788589859A857894DF91CF91BC
:103A90000895F894F6CF2F923F924F925F926F92D3
:103AA0007F928F929F92AF92BF92CF92DF92EF92CE
:103AB000FF920F931F93CF93DF9300D000D01F92FC
:103AC0001F92CDB7DEB798878F830E94371D0E9463
:103AD000677769837A838B839C830E9419120E9483
:103AE00065772B013C012F80388425E5220E311C9F
:103AF000F101208131814281538169817A818B81F9
:103B00009C810E9400796B017C0120E030E040E460
:103B100050E40E94417B2F813885275A3F4F3E83D6
:103B20002D83181654F020E030E040E450ECB6014C
:103B3000C7010E94607787FF9EC00F811885035AD6
:103B40001F4FF8012081318142815381B601C701A5
:103B50000E9400794B015C0120E030E040E85FEB1F
:103B60000E94607718160CF470C020E030E040E04E
:103B70005FE3B601C7010E94017946015701F801D0
:103B800080829182A282B382ED81FE8180809180C9
:103B9000A280B3800F8118850F591F4FAF81B88560
:103BA000A055BF4F2D913D914D915C910E94C677DC
:103BB0006B017C01A5019401C301B2010E9400794F
:103BC0000E94787A0E9465779B01AC01C701B6011B
:103BD0000E94FF79F80160837183828393832F8130
:103BE00038852F593F4FF90160817181828193811E
:103BF00090586083718382839383ED81FE8140823C
:103C000051826282738229813A814B815C81F10108
:103C1000208331834283538328960FB6F894DEBF06
:103C20000FBECDBFDF91CF911F910F91FF90EF900D
:103C3000DF90CF90BF90AF909F908F907F906F90CC
:103C40005F904F903F902F90089520E030E040E843
:103C50005FE3C501B4010E94417B87FD09C020E0FC
:103C600030E040E05FE3B601C7010E94007985CFF4
:103C7000B601C70182CFEF81F8858389823008F0D1
:103C800071C0F8948F8198850E94681CEF81F88537
:103C9000638574858585968578940E9467776B0126
:103CA0007C010E9419124B015C01EF81F885838928
:103CB000823008F059C0F8948F8198850E94681C62
:103CC000EF81F88587859089A189B2897894A501CB
:103CD0009401281B390B4A0B5B0BCA01B9010E94E6
:103CE00065774B015C0120E030E0A901C701B60116
:103CF0000E94417B0F8118850F591F4F1816B4F190
:103D0000A70196015058C501B4010E94417B1816C5
:103D10007CF420E030E0A901C701B6010E94607781
:103D20007501640187FF04C0F7FAF094F7F8F09486
:103D3000F801108211821282138220E030E0A90182
:103D4000C701B6010E946077882309F448CFA70114
:103D50009601EF81F885E055FF4F60817181828186
:103D6000938136CFF89492CFF894AACFA50194010D
:103D7000C701B6010E94607787FDCBCFE8CFCF9215
:103D8000DF92EF92FF92CF93DF93EC010E94371DF9
:103D9000FE01E854FF4FC080D180E280F3800E9492
:103DA0006777FE01E55FFE4F0190F081E02D2081F5
:103DB0003181428153810E94FF79A70196010E94BF
:103DC0000079C75FDE4FE881F9812081318142812E
:103DD00053810E94C677DF91CF91FF90EF90DF90E3
:103DE000CF900895CF93DF93EC010E94371D0E947E
:103DF0006777FE01E55FFE4F0190F081E02D2081A5
:103E00003181428153810E94FF79C75FDE4FE88193
:103E1000F98120813181428153810E94C677DF91EF
:103E2000CF910895CF93DF93EC010E943E12FE01E3
:103E3000EC54FF4F6083718382839383CE010E9491
:103E4000F21EFE01E75FFE4F0190F081E02D208120
:103E50003181428153810E94FF79C854DF4F6883CA
:103E600079838A839B83DF91CF910895FC01019030
:103E70000020E9F73197AF01481B590BBC0182E1E3
:103E800095E00C94EB0E8CE592E00C94361FCF93EA
:103E9000DF930E94D70FEC010E94431F8C0F9D1FE0
:103EA000DF91CF9108952F923F924F925F926F9240
:103EB0007F928F929F92AF92BF92CF92DF92EF92BA
:103EC000FF920F931F93CF93DF93CDB7DEB7AA97DF
:103ED0000FB6F894DEBF0FBECDBF0E94ED123C01BD
:103EE000009709F091C082E190E09E838D8383E189
:103EF00090E098878F8389E090E09A8B898B88E0A7
:103F000090E09C8B8B8B86E090E09E8F8D8F82E083
:103F100090E09A87898783E090E09C878B878BE08D
:103F200090E09E8B8D8B8AE090E0988F8F8B87E05E
:103F300090E098A38F8F85E190E09E878D8784E144
:103F400090E0988B8F878CE090E09A8F898F8DE03E
:103F500090E09C8F8B8F85E090E09AA389A3442406
:103F60004A94542C22242A94322C81E08AA7AEE071
:103F7000B0E0B8A7AFA3BFE0B9A780E18CA3A1E1EF
:103F8000B0E0BEA3ADA380910F059091E404913001
:103F900009F0D1C18111B3C180E197E2A0E0B0E0A6
:103FA00089839A83AB83BC838CE48BA3DE01119657
:103FB0005D01CE0183966C011C967D018E01015F2F
:103FC0001F4F9E01275E3F4FAE01455E5F4FBE0112
:103FD0006F5D7F4F8AE998E00E949F1880E197E229
:103FE000A0E0B0E089839A83AB83BC8382E58BA396
:103FF000D50116967D010A5011099E012D5E3F4F95
:10400000AE014F5E5F4FD0C18130910509F048C0CD
:1040100084E190E09E838D8385E190E098878F8393
:1040200086E090E09A8B898B84E090E09C8B8B8B70
:1040300085E090E09E8F8D8F83E190E09A8789875D
:1040400082E190E09C878B8789E090E09E8B8D8B4E
:1040500087E090E0988F8F8B88E090E098A38F8F17
:1040600082E090E09E878D8783E090E0988B8F8739
:104070008AE090E09A8F898F8BE090E09C8F8B8F05
:104080008CE090E09AA389A344244A94542C2224DF
:104090002A94322C8CE38AA72DE3622E712C67CFF1
:1040A00082309105C9F584E190E09E838D8385E19E
:1040B00090E098878F8384E090E09A8B898B86E0EC
:1040C00090E09C8B8B8B85E090E09E8F8D8F83E1C1
:1040D00090E09A87898782E190E09C878B8787E0D0
:1040E00090E09E8B8D8B89E090E0988F8F8B88E09D
:1040F00090E098A38F8F7E866D8683E090E0988B0A
:104100008F878BE090E09A8F898F8CE090E09C8F76
:104110008B8F8AE090E0B6CF0397029708F052C0E9
:1041200084E190E09E838D8385E190E098878F8382
:1041300086E090E09A8B898B84E090E09C8B8B8B5F
:1041400085E090E09E8F8D8F83E190E09A8789874C
:1041500082E190E09C878B8787E090E09E8B8D8B3F
:1041600089E090E0988F8F8B88E090E098A38F8F04
:1041700082E090E09E878D8783E090E0988B8F8728
:104180008AE090E09A8F898F8BE090E09C8F8B8FF4
:104190008CE090E09AA389A31FE2412E512C0EE2FD
:1041A000202E312CB5E4BAA7E4E46E2E712C8BE2FC
:1041B00090E098A78FA39AE299A7A9E2ACA388E21E
:1041C00090E042C095E06916710409F040C082E0B9
:1041D00090E09E838D8383E090E098878F8389E0D1
:1041E00090E09A8B898B8AE090E09C8B8B8B82E1AC
:1041F00090E09A87898783E190E09C878B8787E0AE
:1042000090E09E8B8D8B88E090E0988F8F8B85E17E
:1042100090E09E878D8784E190E0988B8F8786E081
:1042200090E09A8F898F7C8E6B8EACE2AAA7BBE25E
:104230006B2E712C82E390E098A78FA393E399A74C
:10424000A1E3ACA380E390E09EA38DA39CCE96E077
:104250006916710409F047C084E190E09E838D8364
:1042600085E190E098878F8384E090E09A8B898B3A
:1042700085E090E09C8B8B8B7E8E6D8E83E190E051
:104280009A87898782E190E09C878B8787E090E01E
:104290009E8B8D8B88E090E0988F8F8B89E090E0EB
:1042A00098A38F8F909378038093770382E090E0B8
:1042B0009E878D8783E090E0988B8F878BE090E0DE
:1042C0009A8F898F8CE090E09C8F8B8F8AE090E0B2
:1042D0009AA389A3FFE24F2E512CAEE22A2E312C55
:1042E000A5E4AAA761CF8EE69AE00E94D70F80E0EE
:1042F00099E00E94471F81E080933104FFCF80E165
:1043000097E2A0E0B0E089839A83AB83BC838CE41E
:104310008BA3DE0111965D01CE0183966C011C9684
:104320007D018E01015F1F4F9E01255E3F4FAE0153
:10433000475E5F4F4CCE8111FAC080E197E2A0E06A
:10434000B0E089839A83AB83BC838CE48BA3DE01CA
:1043500011965D01CE0183966C011E967D018E0142
:10436000035F1F4F9E01255E3F4FAE01475E5F4FCB
:10437000BE016F5D7F4F8AE998E00E949F1880E13F
:1043800097E2A0E0B0E089839A83AB83BC8382E5A7
:104390008BA3D50114967D01065011099E012F5E55
:1043A0003F4FAE014D5E5F4FBE01635E7F4F8BE8B6
:1043B00097E00E949F1880E197E2A0E0B0E0898337
:1043C0009A83AB83BC838AE58BA3CE0101965C0103
:1043D000DE0193966D0108967C018E01055F1F4FEB
:1043E0009E01295E3F4FAE014B5E5F4FBE01615E95
:1043F0007F4F8CE796E00E949F188CEB882E84E01C
:10440000982E98EBA92E94E0B92E24EBC22E24E02E
:10441000D22E30EBE32E34E0F32E0CEA14E028EA3F
:1044200034E044EA54E060EA74E08AE998E00E94EB
:10443000F51B28EA34E044EA54E060EA74E08BE8D3
:1044400097E00E94F51B4CED842E44E0942E58ED2D
:10445000A52E54E0B52E64EDC62E64E0D62E70ED88
:10446000E72E74E0F72E0CEC14E028EC34E044EC7A
:1044700054E060EC74E08CE796E00E94F51BADA17F
:10448000BEA1B0937603A09375038DE290E0909364
:1044900074038093730361E00E940611BCA1B09382
:1044A0002A0410922B048FA198A590932D04809339
:1044B0002C0461E08B2F0E94061160E08CA10E9409
:1044C000D81060E089A50E9406116114710421F0E2
:1044D00060E0862D0E94061160E08AA50E94061108
:1044E0001214130424F460E0822D0E9406111414A7
:1044F000150424F460E0842D0E940611AA960FB6DC
:10450000F894DEBF0FBECDBFDF91CF911F910F9109
:10451000FF90EF90DF90CF90BF90AF909F908F90E3
:104520007F906F905F904F903F902F90089580E123
:1045300097E2A0E0B0E089839A83AB83BC838CE4EC
:104540008BA3DE0111965D01CE0183966C011E9650
:104550007D018E01035F1F4F9E01255E3F4FAE011F
:10456000475E5F4FBE016F5D7F4F8AE998E00E9412
:104570009F1880E197E2A0E0B0E089839A83AB8343
:10458000BC8382E58BA3D50114967D0106501109E9
:1045900034CDCF93DF930E94180FEC010E94431F8C
:1045A0008C0F9D1FDF91CF9108958F929F92AF92B4
:1045B000BF920F931F93CF93DF93CDB7DEB7A19731
:1045C0000FB6F894DEBF0FBECDBF19A2423008F47B
:1045D0004AE08E010F5D1F4F842E912CB12CA12C2F
:1045E000A50194010E94CF78E62FB901CA01EA30F3
:1045F000F4F4E05DD801EE938D01232B242B252BC1
:1046000079F790E080E0109719F0CD010E94361FF5
:10461000A1960FB6F894DEBF0FBECDBFDF91CF914C
:104620001F910F91BF90AF909F908F900895E95C7C
:10463000E1CFBC0190E080E04AE00C94D522CF921B
:10464000DF92EF92FF92CF93DF936C01990FEE0808
:10465000FF08F7FE17C08DE20E94F20FEC016627FB
:104660007727CB016C197D098E099F094AE00E94CA
:10467000D5228C0F9D1FDF91CF91FF90EF90DF909F
:10468000CF9008954AE0C701B601DF91CF91FF9026
:10469000EF90DF90CF900C94D522CF93DF930E94C0
:1046A0001F23EC010E94431F8C0F9D1FDF91CF91B0
:1046B0000895CF93DF93009761F460E080917303D6
:1046C0000E94D8101092510410925004DF91CF91A3
:1046D00008952091020530910305281739070CF43D
:1046E0009C01C0910405D09105052C173D070CF4E1
:1046F000E901D0935104C093500484EE97E00E94E6
:10470000D70F80910405909105050E944D2385EDFA
:1047100097E00E94D70F80910205909103050E94B7
:104720004D2380EC97E00E94D70FCE010E944D23CD
:104730002FEF30E0DE010E94367D2091040530919C
:104740000505032E000C440B550B0E949D78D0E00C
:10475000C0E057FD09C0E9012F3F31054105510572
:1047600019F014F0CFEFD0E08EEA97E00E94D70F57
:10477000CE010E944D2380914F04882341F0BE0159
:10478000809173030E94421181E090E09FCF60E02E
:10479000809173030E94D81090E080E097CFCF9370
:1047A000811105C083E596E0CF910C94471FC82F77
:1047B0008BE496E00E94D70FC330D1F090F489E3E8
:1047C00096E0C23089F38EEA95E00E94D70F6C2FF5
:1047D00070E090E080E04AE00E94D522CF910C94F6
:1047E000431FC73041F08AEE95E0CD30E9F2EBCFC0
:1047F00087E296E0D9CF80EC95E0D6CF4F925F92DA
:104800006F927F928F929F92AF92BF92CF92DF92E0
:10481000EF92FF920F931F93CF936B017C01742E45
:10482000AC019B010E94927C882399F08FE592E075
:10483000CF911F910F91FF90EF90DF90CF90BF909D
:10484000AF909F908F907F906F905F904F900C945F
:10485000361F46015701E894B7F82FEF3FEF4FE7B7
:104860005FE7C501B4010E94927C81110DC02FEF5A
:104870003FEF4FE75FE7C501B4010E94607718166C
:104880001CF483E692E0D4CF2FEF3FEF4FE75FE4D5
:10489000C701B6010E94417B18161CF487E692E01E
:1048A000C7CF2FEF3FEF4FE75FECC701B6010E9484
:1048B000607787FDF3CF20E030E0A901C701B601A2
:1048C0000E94607710E000E087FF08C08DE20E9440
:1048D000F20F8C01F7FAF094F7F8F094C0E060E082
:1048E00070E080E09FE37C1641F020E030E040E2A1
:1048F00051E40E94FF79CF5FF6CFA70196010E9495
:1049000001792B013C010E94787A4B015C014AE05D
:104910000E94D5227C01E00EF11ECC2399F1C50145
:10492000B4010E9465779B01AC01C301B2010E94F2
:1049300000794B015C018EE20E94F20FE80EF91E35
:10494000C15000F120E030E040E251E4C501B40183
:104950000E94C6772B013C010E94787A4B01CB0163
:104960000E941923E80EF91EB40190E080E00E9435
:1049700065779B01AC01C301B2010E9400794B0134
:104980005C01DECFC701CF911F910F91FF90EF9097
:10499000DF90CF90BF90AF909F908F907F906F905F
:1049A0005F904F9008950C94FE23CF92DF92EF9288
:1049B000FF920F931F93CF93DF93EC01CB01BA01CA
:1049C0007901A90198010E94007944E050E00E9419
:1049D000D32484EC9AE00E94D70FFE01E454FF4FE9
:1049E0006081718182819381E35BFF4F0190F0814F
:1049F000E02D20813181428153810E94C677A70139
:104A000098010E94007944E050E00E94D32482EC97
:104A10009AE00E94D70FFE01E054FF4F6081718140
:104A20008281938144E050E00E94D32480EC9AE09C
:104A30000E94D70FFE01EF59FF4F60817181828183
:104A4000938144E050E00E94D3248EEB9AE00E94D0
:104A5000D70FC55BDF4F88819981DF91CF911F917F
:104A60000F91FF90EF90DF90CF900C944D23CF9358
:104A7000DF9342E00E94FE23EC010E94431F8C0F53
:104A80009D1FDF91CF910895CF93DF930E94361F32
:104A9000EC010E94431F8C0F9D1FDF91CF91089561
:104AA000CF938BE692E00E944425C0912A0461E0F6
:104AB0008C2F0E94061160E08C2FCF910C94D8109F
:104AC0002F923F924F925F926F927F928F929F921E
:104AD000AF92BF92CF92DF92EF92FF920F931F930C
:104AE000CF93DF9300D01F92CDB7DEB71B018A01B1
:104AF000FC014080518062807380C090B305D090EB
:104B0000B405E090B505F090B605A3019201C3018C
:104B1000B2010E94C6774B015C01A7019601C70153
:104B2000B6010E94C6779B01AC01C501B4010E9489
:104B300000790E94297C69837A838B839C83F801A6
:104B400060817181828193810E941B7C4B015C0199
:104B5000A701960169817A818B819C810E94FF79EE
:104B60006B017C012091C3053091C4054091C505BE
:104B70005091C605C301B2010E9401792B013C018D
:104B8000EFEAF5E02081318142815381C501B40112
:104B90000E94C6779B01AC01C301B2010E9400795B
:104BA000F10120813181428153810E94FF799B0173
:104BB000AC01C701B6010E9400790F900F900F90D1
:104BC0000F90DF91CF911F910F91FF90EF90DF90A9
:104BD000CF90BF90AF909F908F907F906F905F909D
:104BE0004F903F902F9008954F925F926F927F92D7
:104BF0008F929F92AF92BF92CF92DF92EF92FF92ED
:104C00000F931F93CF93DF93CFEAD5E08DEC9CEC0D
:104C1000ACE4BEEB89A39AA3ABA3BCA300E614E06B
:104C2000F80180889188A288B38820E030E040E0D5
:104C30005FE3C501B4010E94C677F801C488D58836
:104C4000E688F7889B01AC010E94C6772B013C01E6
:104C5000A7019601C701B6010E94C6779B01AC016E
:104C6000C301B2010E9401790E94297C6883798383
:104C70008A839B83A7019601C701B6010E9401792F
:104C8000A50194010E94FF790E94CB796B017C0100
:104C9000CDAADEAAEFAAF8AE2DEC3CEC4CE45EE324
:104CA0000E94017969AF7AAF8BAF9CAF2DEC3CECE1
:104CB0004CE45EE3C701B6010E9400796093EC0505
:104CC0007093ED058093EE059093EF0520E030E0C2
:104CD00040E05FE3F80160817181828193810E94ED
:104CE000C677688779878A879B8720E030E040E035
:104CF0005FE3F80164817581868197810E94C677A0
:104D00006B017C01CC86DD86EE86FF8620E030E0FC
:104D100040E05FE3F80160857185828593850E949C
:104D2000C677688F798F8A8F9B8FA7019601F801CC
:104D300064857585868597850E9401796C8F7D8F46
:104D40008E8F9F8FDF91CF911F910F91FF90EF90EA
:104D5000DF90CF90BF90AF909F908F907F906F909B
:104D60005F904F9008952F923F924F925F926F9273
:104D70007F928F929F92AF92BF92CF92DF92EF92EB
:104D8000FF920F931F93CF93DF93CDB7DEB7C35737
:104D9000D1090FB6F894DEBF0FBECDBF6D8B7E8BF1
:104DA0008F8B988F29A33AA34BA35CA3A0961FAF28
:104DB0000EAFA097A296FFAEEEAEA29710917C0424
:104DC000113011F00C9443316D877E878F87988B5B
:104DD000DA01C90189879A87AB87BC87BE01675F03
:104DE0007F4FCE010D960E943A0C20916C043091B9
:104DF0006D0440916E0450916F046091BB057091F9
:104E0000BC058091BD059091BE050E940179298560
:104E10003A854B855C850E940079698B7A8B8B8BF8
:104E20009C8B6093C3057093C4058093C5059093D4
:104E3000C6058091680490916904A0916A04B091BC
:104E40006B0489A79AA7ABA7BCA720E030E040E09D
:104E50005FE3BC01CD010E94C6774B015C012D854B
:104E60003E854F8558890E9401796B017C01C09273
:104E7000BF05D092C005E092C105F092C205AC0119
:104E80009B01C501B4010E94607787FFF4C7A701A9
:104E9000960169A57AA58BA59CA50E9400796093CF
:104EA000BF057093C0058093C1059093C205109310
:104EB000CF058091BF059091C005A091C105B0912B
:104EC000C2058DA39EA3AFA3B8A79C01AD016989BC
:104ED0007A898B899C890E94FF794B015C018092C1
:104EE000D4059092D505A092D605B092D7052DA1F4
:104EF0003EA14FA158A569A57AA58BA59CA50E94A6
:104F000000799B01AC0169897A898B899C890E940F
:104F1000FF796B017C01C092D805D092D905E0924F
:104F2000DA05F092DB059091B3059D8BA091B40555
:104F3000A9A32090B5053090B605A5019401C5013F
:104F4000B4010E94C67720E030E040E85FE30E94B1
:104F500001790E94297C9B01AC016D8979A1C10175
:104F60000E94C6776093DC057093DD058093DE05B3
:104F70009093DF05A7019601C701B6010E94C6778D
:104F800020E030E040E85FE30E9401790E94297C44
:104F90009B01AC016D8979A1C1010E94C677609324
:104FA000E0057093E1058093E2059093E305BBE093
:104FB0006E96BFAF6E978091D0059091D105A0916C
:104FC000D205B091D3058DA79EA7AFA7B8AB9C0122
:104FD000AD01CD01B9010E94C6774B015C012FE6FE
:104FE00032E143E85AE36DA57EA58FA598A90E94FA
:104FF00001796B017C01AC019B010E94C677299667
:105000006CAF7DAF8EAF9FAF29978091E8059091EF
:10501000E905A091EA05B091EB058D8F9E8FAF8FCA
:10502000B8A39C01AD01CD01B9010E94C6776DAB5B
:105030007EAB8FAB98AF9B01AC016D8D7E8D8F8D5C
:1050400098A10E94C6772D966CAF7DAF8EAF9FAFB3
:105050002D974090EC055090ED056090EE05709016
:10506000EF05A3019201C301B2010E94C67769AFA7
:105070007AAF8BAF9CAF9B01AC01C301B2010E9420
:10508000C67761966CAF7DAF8EAF9FAF61972FE60D
:1050900032E143E85AE36D8D7E8D8F8D98A10E9499
:1050A0000079698F7A8F8B8F9C8F9B01AC010E9456
:1050B000C67721966CAF7DAF8EAF9FAF21979B01D6
:1050C000AC01698D7A8D8B8D9C8D0E94C67765961B
:1050D0006CAF7DAF8EAF9FAF65972FE632E143E8AF
:1050E0005AE3C301B2010E94017969AB7AAB8BAB81
:1050F0009CAB9B01AC010E94C67725966CAF7DAF3F
:105100008EAF9FAF25979B01AC0169A97AA98BA9A6
:105110009CA90E94C67769966CAF7DAF8EAF9FAF9A
:105120006997A50194016DA57EA58FA598A90E94F8
:10513000C67728E73AE745E25EEB0E94C6776D96B0
:105140006CAF7DAF8EAF9FAF6D9727E230EA49E03D
:105150005BE3C501B4010E94C6779B01AC016D966B
:105160006CAD7DAD8EAD9FAD6D970E9400794B010A
:105170005C012EE836E040E85FE36DA57EA58FA5D3
:1051800098A90E94C6779B01AC01C501B4010E9499
:10519000017960935C0670935D0680935E06909340
:1051A0005F0629962CAD3DAD4EAD5FAD2997C70189
:1051B000B6010E94C67728E73AE745E25EEB0E9417
:1051C000C6774B015C0127E230EA49E05BE32996B0
:1051D0006CAD7DAD8EAD9FAD29970E94C6779B01CA
:1051E000AC01C501B4010E9400794B015C012EE8BD
:1051F00036E040E85FE3C701B6010E94C6779B0135
:10520000AC01C501B4010E940179609360067093FE
:10521000610680936206909363062EEE3BEE40ECAF
:105220005DEB2D966CAD7DAD8EAD9FAD2D970E9443
:10523000C6776B017C012DE435E14CE05EE36DA99E
:105240007EA98FA998AD0E94C6779B01AC01C701CA
:10525000B6010E9400796B017C012DE13AE54CE832
:105260005FE36D8D7E8D8F8D98A10E94C6779B0127
:10527000AC01C701B6010E9401792DE53DE645EC80
:105280005CE30E940079AA966CAF7DAF8EAF9FAFB2
:10529000AA9760933C0670933D0680933E069093D8
:1052A0003F0623E83FE24CE05EE32D966CAD7DAD1A
:1052B0008EAD9FAD2D970E94C6776B017C012DEEC0
:1052C0003DE04EE25FE36DA97EA98FA998AD0E94F3
:1052D000C6779B01AC01C701B6010E9400796B0142
:1052E0007C0121ED31E94CED5DE36D8D7E8D8F8D7F
:1052F00098A10E94C6779B01AC01C701B6010E942C
:1053000001792CEE30EC49E75FE30E9401796DAB47
:105310007EAB8FAB98AF609340067093410680934D
:1053200042069093430626E031E845E15EEB619644
:105330006CAD7DAD8EAD9FAD61970E94C6776B0160
:105340007C0125EE31E641EA5CE369AD7AAD8BADD7
:105350009CAD0E94C6779B01AC01C701B6010E94BB
:1053600000796B017C0123ED3EED40E85FE3C30172
:10537000B2010E94C6779B01AC01C701B6010E9431
:10538000017927E137EB41E55AE30E940079AE96B7
:105390006CAF7DAF8EAF9FAFAE97609344067093B6
:1053A000450680934606909347062CE933E342EA8C
:1053B0005DE361966CAD7DAD8EAD9FAD61970E9452
:1053C000C6776B017C0126E73FE44EE05FE369AD01
:1053D0007AAD8BAD9CAD0E94C6779B01AC01C70135
:1053E000B6010E9400796B017C012DE435E14CE8A7
:1053F0005CE3C301B2010E94C6779B01AC01C70107
:10540000B6010E9401792BE733E84FE75FE30E9482
:1054100001792B013C014092480650924906609266
:105420004A0670924B062EEE3BEE40EC5DEB659625
:105430006CAD7DAD8EAD9FAD65970E94C6776B015B
:105440007C012DE435E14CE05EE321966CAD7DAD51
:105450008EAD9FAD21970E94C6779B01AC01C7011D
:10546000B6010E9400796B017C012DE13AE54CE820
:105470005FE3698D7A8D8B8D9C8D0E94C6779B0131
:10548000AC01C701B6010E9401792DE53DE645EC6E
:105490005CE30E94007960934C0670934D06809304
:1054A0004E0690934F0623E83FE24CE05EE365969C
:1054B0006CAD7DAD8EAD9FAD65970E94C6776B01DB
:1054C0007C012DEE3DE04EE25FE321966CAD7DADBB
:1054D0008EAD9FAD21970E94C6779B01AC01C7019D
:1054E000B6010E9400796B017C0121ED31E94CEDA0
:1054F0005DE3698D7A8D8B8D9C8D0E94C6779B01B3
:10550000AC01C701B6010E9401792CEE30EC49E7ED
:105510005FE30E94017969AF7AAF8BAF9CAF609374
:10552000500670935106809352069093530626E0DE
:1055300031E845E15EEB69966CAD7DAD8EAD9FAD1A
:1055400069970E94C6776B017C0125EE31E641EA3E
:105550005CE325966CAD7DAD8EAD9FAD25970E9429
:10556000C6779B01AC01C701B6010E9400796B01AF
:105570007C0123ED3EED40E85FE369A97AA98BA9A0
:105580009CA90E94C6779B01AC01C701B6010E948D
:10559000017927E137EB41E55AE30E9400796093F6
:1055A00054067093550680935606909357062CE93F
:1055B00033E342EA5DE369966CAD7DAD8EAD9FADA0
:1055C00069970E94C6776B017C0126E73FE44EE0B5
:1055D0005FE325966CAD7DAD8EAD9FAD25970E94A6
:1055E000C6779B01AC01C701B6010E9400796B012F
:1055F0007C012DE435E14CE85CE369A97AA98BA92B
:105600009CA90E94C6779B01AC01C701B6010E940C
:1056100001792BE733E84FE75FE30E940179219698
:105620006CAF7DAF8EAF9FAF21976093580670939C
:10563000590680935A0690935B0668E4C62E66E08E
:10564000D62E74E4E72E76E0F72E00E416E02CE385
:1056500036E04CE556E060EE75E08CED95E00E949A
:10566000B30C4B015C01DC01CB01B05880932006E8
:1056700090932106A0932206B09323068091AF0554
:105680009091B005A091B105B091B2058D8F9E8F1C
:10569000AF8FB8A32DA93EA94FA958ADBC01CD012C
:1056A0000E94C67765966CAF7DAF8EAF9FAF659752
:1056B0009B01AC016DA17EA18FA198A50E940079EC
:1056C00069AB7AAB8BAB9CAB69837A838B839C830E
:1056D0004CE356E0BE016F5F7F4F8CED95E00E947A
:1056E0006025698F7A8F8B8F9C8FDC01CB01B0583E
:1056F0008093240690932506A0932606B093270650
:10570000A30192016D8D7E8D8F8D98A10E94C67729
:1057100069966CAF7DAF8EAF9FAF69979B01AC016F
:105720006DA17EA18FA198A50E9401799B01AC017A
:1057300069A57AA58BA59CA50E9400796DAB7EAB6F
:105740008FAB98AF69837A838B839C83A701BE015B
:105750006F5F7F4F80EE95E00E9460252B013C013A
:10576000DC01CB01B0588093280690932906A093C2
:105770002A06B0932B0620E030E0A901C501B40150
:105780000E94607787FF7AC32FE632E143E85AEB45
:10579000C501B4010E94417B18160CF479C328E5B9
:1057A000C22E26E0D22E34E5E32E36E0F32E00E5BD
:1057B00016E02CE436E040E656E060EE75E08CED55
:1057C00095E00E94B30CA50194010E9400792FE698
:1057D00032E143E85AE30E94FF796093F005709349
:1057E000F1058093F2059093F3058091DC0590918B
:1057F000DD05A091DE05B091DF056D968CAF9DAF04
:10580000AEAFBFAF6D972AE037ED43E25CE3BC017A
:10581000CD010E94017925966CAF7DAF8EAF9FAF11
:10582000259769837A838B839C8348E4C42E46E062
:10583000D42E54E4E52E56E0F52E00E416E02CE3D9
:1058400036E04CE556E060EE75E0CE0101960E9430
:10585000B30CA50194010E9400792AE037ED43E2E0
:105860005CE30E94FF796093F4057093F5058093E3
:10587000F6059093F7058091E0059091E105A091E0
:10588000E205B091E305A6968CAF9DAFAEAFBFAF7A
:10589000A6972AE037ED43E25CE3BC01CD010E940C
:1058A000017929966CAF7DAF8EAF9FAF2997698341
:1058B0007A838B839C832CE336E04CE556E0BE0173
:1058C0006F5F7F4F8CED95E00E94B30CA5019401B2
:1058D0000E9400792AE037ED43E25CE30E94FF7901
:1058E0006093F8057093F9058093FA059093FB0592
:1058F00029AD3AAD4BAD5CAD6D8D7E8D8F8D98A190
:105900000E94C6779B01AC016DA17EA18FA198A5D5
:105910000E94007969837A838B839C834CE456E0F0
:10592000BE016F5F7F4F8CED95E00E946025298D51
:105930003A8D4B8D5C8D0E9400792FE632E143E871
:105940005AE30E94FF796093FC057093FD058093F4
:10595000FE059093FF0589A99AA9ABA9BCA98D83DF
:105960009E83AF83B88725968CAD9DADAEADBFADA0
:10597000259789839A83AB83BC834CE356E0BE01B1
:105980006B5F7F4FCE0101960E946025298D3A8D75
:105990004B8D5C8D0E9400792AE037ED43E25CE399
:1059A0000E94FF79609300067093010680930206BF
:1059B00090930306109204061092050610920606B4
:1059C0001092070621962CAD3DAD4EAD5FAD2197EF
:1059D0006D8D7E8D8F8D98A10E94C6772DA13EA1E1
:1059E0004FA158A50E9401799B01AC0169A57AA538
:1059F0008BA59CA50E9400796B017C01C982DA828B
:105A0000EB82FC8244E556E0BE016F5F7F4F80EE83
:105A100095E00E946025A30192010E9400792FE683
:105A200032E143E85AE30E94FF79609308067093DD
:105A3000090680930A0690930B0610920C061092AA
:105A40000D0610920E0610920F06CD82DE82EF82B6
:105A5000F88629968CAD9DADAEADBFAD29978983F3
:105A60009A83AB83BC8344E456E0BE016B5F7F4FF7
:105A7000CE0101960E946025A30192010E94007947
:105A80002AE037ED43E25CE30E94FF796093100661
:105A9000709311068093120690931306A8EFB5E059
:105AA000BA8FA98FE0E1F6E02396FFAFEEAF239720
:105AB00028E130E027963FAF2EAF279782E090E0B5
:105AC0009AAF89AFE9ADFAAD3196E096FFAFEEAF90
:105AD000E09720E236E02B963FAF2EAF2B97898DD3
