:100000000C94E40B0C9436690C940B690C94E06826
:100010000C94B5680C948A680C945F680C943468EE
:100020000C9409680C94150C0C94150C0C94150C7C
:100030000C94150C0C94150C0C94150C0C94150CBC
:100040000C94150C0C94EB690C94150C0C94150C79
:100050000C94196A0C94150C0C94150C0C94BF6735
:100060000C94150C0C9489670C945F670C94150C18
:100070000C94150C0C94150C0C94150C0C94150C7C
:100080000C94BD690C94150C0C94150C0C94150C67
:100090000C94150C0C94150C0C94150C0C94150C5C
:1000A0000C94150C0C94150C0C948F690C94150C75
:1000B0000C94150C0C94150C0C94150C0C94616993
:1000C0000C94150C0C94150C0C94150C0C94150C2C
:1000D0000C94150C0C94150C0C94150C0C94150C1C
:1000E0000C94150C036EDB363D9A9999993DABAA99
:1000F000AA2A3E000000803F084AD73B3BCE016E53
:1001000084BCBFFDC12F3D6C74319ABD56833DDA6E
:100110003D00C77F11BED9E4BB4C3E916BAAAABE7D
:10012000000000803F072C7AA5BA6CC590DA3B939B
:1001300065FC8BBC53F810FD3C5692834DBD879DEA
:100140003AB63DCBC9BF5BBE73DA0FC93F05A84CB9
:10015000CDB2D44EB93836A9020C50B99186880870
:100160003CA6AAAA2ABE000000803F028988083C5B
:10017000ABAAAA2A3E000000803F0664EC1B3C04A8
:10018000BC163E3BE5B93CC93C37C29E5A3D6604AD
:1001900098083EEA69AAAA3E000000803F07634231
:1001A00036B79BD8A71A39685618AEBAAB558C1D0E
:1001B0003CB7CC5763BD6DEDFD753EF6177231BF90
:1001C000000000803F000C94734B0C9486720C94DA
:1001D00022110C94D4490C94731C0C94F6490C9481
:1001E000BF1C0C941E4A0C94854B0C9446110C9425
:1001F000AB4C0C94D54C0C948F4C0C9469110C9412
:100200002D100C9491110C94A80E0C94EF490C94A1
:1002100002100C94331C0C94584B0C94124B0C94FD
:100220009D4C0C94CB0E0C946A4B0C941E4C0C946D
:10023000F54B0C94C74C0C94521C0C94F30F0C947B
:100240009B110C94C2490C9428100C94364A0C94BF
:10025000EA4A0C94B70E0C94FE4B0C94CB490C94C8
:100260001A100C94AD1C0C942A4A0C9487110C940F
:10027000BC4A0C940E110C94110F0C9424100C9485
:10028000EB4C0C943C110C94074C0C942C110C94DA
:1002900096490C9450110C949E4A0C94814C0C94E9
:1002A00032100C94B91C0C94E34B0C9408100C9471
:1002B0008D1C0C94614B0C94720E0C94A71C0C9426
:1002C000B04A0C9420100C94C51C0C9418110C947A
:1002D00012100C94DD490C9434110C947D110C9483
:1002E00016100C9409110C945F4C0C94591C0C942E
:1002F000E6490C94EC4B0C94F70F0C94734C0C9453
:10030000974B0C94DA4B0C94D90E0C94FF0F0C9471
:100310007C4B0C94FF490C946C6A0C94924A0C949C
:100320005A110C94FF4C0C9473110C94B94C0C940E
:10033000B9490C942E100C940C100C94D14B0C94C5
:10034000B31C0C94CA4A0C9451670C9401110C9480
:10035000104C0C94FB0F0C948E4B0C94ED0F0C94E2
:100360007E0F0C94704A0C94D1114E414E494E4967
:100370005459494E46CDCCCC3D0AD7233C17B7D172
:100380003877CC2B329595E6241FB14F0A00002018
:10039000410000C84200401C4620BCBE4CCA1B0E97
:1003A0005AAEC59D7400407A10F35A00A0724E18E0
:1003B000090010A5D4E80000E87648170000E40B17
:1003C00054020000CA9A3B000000E1F505000080DD
:1003D000969800000040420F000000A08601000037
:1003E00000102700000000E8030000000064000087
:1003F0000000000A00000000000100000000002CC6
:1004000076D888DC674F0823DFC1DFAE59E1B1B78A
:1004100096E5E3E453C63AE651997696E8E6C28457
:1004200026EB898C9B62ED407C6FFCEFBC9C9F406F
:10043000F2BAA56FA5F490055A2AF75C936B6CF994
:10044000676DC11BFCE0E40D47FEF520E6B500D06A
:10045000ED902E0300943577050080841E0800007F
:10046000204E0A000000C80C333333330F986E124D
:10047000831141EF8D2114893BE65516CFFEE6DB53
:1004800018D1844B381BF77C1D901DA4BBE424209D
:100490003284725E228100C9F124ECA1E53D273C43
:1004A00049646C652C4D506F733A302C302C302CD5
:1004B00057506F733A302E3030302C302E30303071
:1004C0002C302E3030303E00446972656374696FA1
:1004D0006E2032202D204661696C0044697265638C
:1004E00074696F6E2032202D2050617373003C4977
:1004F000646C652C4D506F733A302C302C302C5777
:10050000506F733A302E3030302C302E3030302C4B
:10051000302E3030303E00446972656374696F6E0E
:100520002031202D204661696C0044697265637436
:10053000696F6E2031202D2050617373003C496437
:100540006C652C4D506F733A302C302C302C57503A
:100550006F733A302E3030302C302E3030302C301B
:100560002E3030303E00206D6F746F723A0054654B
:100570007374696E672000206D6D0020696E002B1A
:10058000004D6573736167653A20506C65617365F2
:100590002061646A757374205A2D417869732074E0
:1005A0006F2061206465707468206F662000496E5A
:1005B00076616C69642067636F64652049443A0022
:1005C000454550524F4D2072656164206661696CEB
:1005D0002E205573696E672064656661756C7420A2
:1005E00073657474696E67732E00506C6561736512
:1005F00020736574202431322C202431332C2024A4
:1006000031392C20616E642024323020746F206CCC
:100610006F6164206F6C6420706F736974696F6EB2
:1006200020646174612E00496E76616C6964207388
:10063000746174656D656E7400426164206E756DE1
:1006400062657220666F726D6174006572726F729E
:100650003A20006F6B00506C6561736520736574A0
:10066000202431322C202431332C202431392C20E9
:10067000616E642024323020746F206C6F616420BE
:10068000706F736974696F6E2E004F6C6420706FA9
:10069000736974696F6E2064617461206465746548
:1006A000637465642E000D0A6E6577207370696E41
:1006B000646C65206D61783D000D0A6E657720736E
:1006C00070696E646C65206D696E3D005475726E64
:1006D000696E67205370696E646C65204F666600B2
:1006E0005475726E696E67205370696E646C652014
:1006F0004F6E005475726E696E67205370696E6438
:100700006C65204F6666005475726E696E67205383
:1007100070696E646C65204F6E005475726E696E00
:1007200067205370696E646C65204F666600416493
:100730006A757374696E67205370696E646C6520A6
:10074000537065656420746F204D696E696D756DB9
:10075000005475726E696E67205370696E646C65C3
:10076000204F6E005475726E696E67205370696E0B
:10077000646C65204F66660041646A757374696EC7
:1007800067205370696E646C6520537065656420E2
:10079000746F204D696E696D756D005475726E6968
:1007A0006E67205370696E646C65204F6E006E65D5
:1007B000772070776D206F7574707574203D200000
:1007C0006E6577207370696E646C65207370656503
:1007D00064203D20007370696E646C65206D696EE5
:1007E000203D20007370696E646C65206D61782017
:1007F0003D20006D6D004D6561737572696E6720F7
:100800006F757420726967687420636861696E002F
:100810006D6D004D6561737572696E67206F7574DB
:10082000206C65667420636861696E004D61736C4D
:100830006F77205061757365640028456E64206F82
:10084000662042756666657229005C74005C720001
:100850005C6E0042756666657220436F6E74656EED
:1008600074733A200042756666657220456E643A7C
:10087000200042756666657220426567696E3A209F
:1008800000427566666572204E756D626572206FF6
:1008900066204C696E65733A200042756666657223
:1008A00020557365643A2000427566666572206F54
:1008B000766572666C6F77210072656164790047B6
:1008C00072626C2076312E3030002044657465638E
:1008D0007465640020544C453532303620000A508F
:1008E00043422076312E000A0A736F6674207265C7
:1008F00073657420636F6D6D616E6465640A0A00D0
:1009000054686520426F6172642076657273696F06
:100910006E206E756D6265722066726F6D207468F0
:100920006973204D6F746F7220436F6E74726F6CB9
:1009300020626F61726420697320696E76616C69F0
:10094000642E202D2D2D28212121292D2D2D2051C2
:1009500075697420616E64206D616B6520737572BA
:10096000652069742069732070726F7065726C798C
:100970002073656174656420616E642074686174BD
:100980002074686520636F72726563742076657287
:1009900073696F6E206F66206669726D776172652C
:1009A000206973206C6F616465642E2E2E200054C4
:1009B000686520736C6564206973206E6F74206BAA
:1009C000656570696E672075702077697468206945
:1009D000747320657870656374656420706F7369E3
:1009E00074696F6E20616E64206861732068616C49
:1009F0007465642E20436C69636B207468652027DE
:100A000053746F702720627574746F6E20746F203A
:100A1000636C6561722074686520616C61726D2E13
:100A2000204D6F726520696E666F726D6174696FBB
:100A30006E2061743A2068747470733A2F2F67695E
:100A4000746875622E636F6D2F4D61736C6F7743A1
:100A50004E432F4669726D776172652F77696B69B6
:100A60002F4B656570696E672D5570202000414CD5
:100A700041524D3A20005D005B50453A002C5750E2
:100A80006F733A302E3030302C302E3030302C30E6
:100A90002E3030303E002C002C0049646C652C4D0B
:100AA000506F733A0050617573652C4D506F733AF7
:100AB0000053746F702C4D506F733A003C002C0043
:100AC0002C002C002C007265616479004772626C06
:100AD0002076312E30300046414B455F534552560B
:100AE0004F206F66660046414B455F534552564F57
:100AF000206F6E0020446574656374656400205443
:100B00004236363433200020544C453932303120BF
:100B10000020544C45353230362000504342207678
:100B2000312E0000002100240027002A002D003073
:100B300000330001010000040107010A0100002246
:100B400000250028002B002E003100340002010097
:100B500000050108010B0100000A0B02090C0D0E33
:100B6000080703040100000000000000000000006E
:100B70000000000000000000000000000000000075
:100B80000000001211100000000000000000000032
:100B900000000000000000000000000000546F6F23
:100BA0006C206368616E676520746F20746F6F6C72
:100BB000200020746F6F2073686F7274202D20697D
:100BC000676E6F7265642E00436F6D6D616E642099
:100BD0000020756E737570706F7274656420616E3D
:100BE000642069676E6F7265642E00436F6D6D617E
:100BF0006E64204D00546F6F6C204368616E6765B2
:100C00003A20506C6561736520696E73657274205B
:100C1000746F6F6C20004669726D77617265205643
:100C2000657273696F6E20002000526573746F7275
:100C3000696E672064656661756C7473004D6573D9
:100C4000736167653A20002028536C6564205765FE
:100C5000696768742C204E290D0A0020286368619A
:100C6000696E207374726574636820666163746F63
:100C7000722C206D2F6D2F4E290D0A2434363D0025
:100C800020287265736572766564322C206D6D293B
:100C90000D0A2434353D002028726573657276652F
:100CA00064312C20646567290D0A2434343D00200A
:100CB00028706F736974696F6E206572726F72202D
:100CC000616C61726D206C696D69742C206D6D2989
:100CD0000D0A2434333D002028636861696E207456
:100CE0006F6C6572616E63652C2072696768742031
:100CF000636861696E2C206D6D290D0A2434323DC4
:100D0000002028636861696E20746F6C6572616E83
:100D100063652C206C65667420636861696E2C20A5
:100D20006D6D290D0A2434313D00202850574D2087
:100D30006672657175656E63792076616C75652084
:100D4000313D33392C303030487A2C20323D342C30
:100D5000313030487A2C20333D343930487A290DEF
:100D60000A2434303D002028636861696E206F7664
:100D70006572207370726F636B6574290D0A24337A
:100D8000393D002028636861696E207361672063C4
:100D90006F7272656374696F6E2076616C75652918
:100DA0000D0A2433383D0020287A206178697320A9
:100DB00056656C6F636974792070726F706F7274AE
:100DC000696F6E616C20776569676874290D0A2404
:100DD00033373D0020287A2061786973204B6420E6
:100DE00056656C6F63697479290D0A2433363D00AA
:100DF00020287A2061786973204B692056656C6FD2
:100E000063697479290D0A2433353D0020287A203E
:100E100061786973204B702056656C6F63697479D3
:100E2000290D0A2433343D0020287A206178697323
:100E300020506F732070726F706F7274696F6E6183
:100E40006C20776569676874290D0A2433333D0087
:100E500020287A2061786973204B6420506F7329B1
:100E60000D0A2433323D0020287A206178697320EE
:100E70004B6920506F73290D0A2433313D0020281F
:100E80007A2061786973204B7020506F73290D0AA6
:100E90002433303D0020286D61696E2056656C6FEB
:100EA000636974792070726F706F7274696F6E61AC
:100EB0006C20776569676874290D0A2432393D0012
:100EC00020286D61696E204B642056656C6F6369E4
:100ED0007479290D0A2432383D0020286D61696E2D
:100EE000204B692056656C6F63697479290D0A245B
:100EF00032373D0020286D61696E204B70205665A9
:100F00006C6F63697479290D0A2432363D002028FC
:100F10006D61696E20506F732070726F706F7274A4
:100F2000696F6E616C20776569676874290D0A24A2
:100F300032353D0020286D61696E204B6420506F72
:100F400073290D0A2432343D0020286D61696E201A
:100F50004B6920506F73290D0A2432333D0020283D
:100F60006D61696E204B7020506F73290D0A243219
:100F7000323D0020287A206178697320737465708F
:100F80007320706572207265766F6C7574696F6E10
:100F9000290D0A2432313D0020287A2061786973B6
:100FA0002064697374616E6365202F20726F7461B1
:100FB00074696F6E290D0A2432303D0020286D615E
:100FC00078207A20617869732052504D290D0A24C7
:100FD00031393D0020286175746F207370696E642B
:100FE0006C6520656E61626C6520313D736572765B
:100FF0006F2C20323D72656C61795F682C20333D27
:1010000072656C61795F6C290D0A2431383D0020CE
:10101000284175746F205A20417869732C20312043
:101020003D20596573290D0A2431373D0020286D74
:10103000617820666565642C206D6D2F6D696E2961
:101040000D0A2431363D00202864697374616E6393
:1010500065202F20726F746174696F6E2C206D6D26
:10106000290D0A2431353D0020286D61696E2073F9
:101070007465707320706572207265766F6C75741C
:10108000696F6E290D0A2431333D00202863616C9D
:101090006962726174696F6E20636861696E206C49
:1010A000656E6774682C206D6D290D0A2431323D00
:1010B00000202866756C6C206C656E677468206F04
:1010C0006620636861696E2C206D6D290D0A2431DC
:1010D000313D002028617869732069646C65206265
:1010E00065666F7265206465746163682C206D733A
:1010F000290D0A2431303D002028726F7461746913
:101100006F6E207261646975732C206D6D290D0AF4
:1011100024393D0020284B696E656D6174696373E5
:10112000205479706520313D5175616472696C613C
:10113000746572616C2C20323D547269616E677502
:101140006C6172290D0A24383D002028736C656497
:101150002063672C206D6D290D0A24373D0020285F
:10116000736C6564206865696768742C206D6D29EF
:101170000D0A24363D002028736C6564207769646D
:1011800074682C206D6D290D0A24353D0020286DD2
:101190006F746F72206865696768742C206D6D29A3
:1011A0000D0A24343D0020286D6F746F722064692D
:1011B0007374616E63652C206D6D290D0A24333DB7
:1011C0000020286D616368696E65206865696768DD
:1011D000742C206D6D290D0A24323D0020286D618C
:1011E0006368696E652077696474682C206D6D2969
:1011F0000D0A24313D0024303D002120286665651C
:101200006420686F6C6429007E20286379636C65B4
:10121000207374617274290024783D76616C756561
:10122000202873617665204D61736C6F772073653C
:101230007474696E672900242420287669657720F4
:101240004D61736C6F772073657474696E67732971
:10125000007468652076616C7565207265636569E8
:101260007665643A200020697320696E76616C6946
:10127000642E204F6E6C79204733382E32207265F1
:10128000636F676E697A65642E0047333800657254
:10129000726F723A2070726F626520646964206EAA
:1012A0006F7420636F6E6E6563740A70726F67721D
:1012B000616D2073746F707065640A7A206178695B
:1012C00073206E6F74207365740A007A20617869E8
:1012D00073207A65726F656400206D6D2070657291
:1012E000206D696E2E00666565647261746520000C
:1012F000206D6D2E006D617820646570746820002B
:1013000070726F62696E6720666F72207A206178F2
:101310006973207A65726F004733382E3220676315
:101320006F6465206F6E6C792076616C69642077DC
:10133000697468207A2D61786973206174746163BF
:1013400068656400206D732E00207365636F6E64A2
:1013500073006477656C6C2074696D65200020757E
:101360006E737570706F7274656420616E6420694D
:10137000676E6F7265642E00436F6D6D616E6420E1
:1013800047002D2D5049442056656C6F6369747970
:1013900020546573742053746F702D2D0A0073658B
:1013A00074706F696E742C696E7075742C6F7574BF
:1013B000707574002D2D5049442056656C6F63691B
:1013C000747920546573742053746172742D2D00E8
:1013D0002D2D50494420506F736974696F6E2054ED
:1013E0006573742053746F702D2D0A0073657470CB
:1013F0006F696E742C696E7075742C6F757470756E
:10140000742C72706D696E7075742C766F6C74616B
:101410006765002D2D50494420506F736974696FC2
:101420006E20546573742053746172742D2D002DD9
:101430002D566F6C74616765205465737420537406
:101440006F702D2D0A000A002C002D2D566F6C7424
:1014500061676520546573742053746172742D2D17
:101460000046414B455F534552564F206F6666001C
:1014700046414B455F534552564F206F6E004E41DB
:101480004E00204C6F776572204C696D69743A206C
:10149000004E414E005A20417869732055707065A6
:1014A00072204C696D69743A20005A204178697342
:1014B000204C696D69747320436C656172656400CA
:1014C0004572726F722073657474696E67206C69FF
:1014D0006D697400202020004C6F776572206C6964
:1014E0006D69742073657420746F3A2000457272C0
:1014F0006F722073657474696E67206C696D6974AE
:1015000000202020005570706572206C696D697430
:101510002073657420746F3A20005D005B4D656137
:10152000737572653A20004D6573736167653A2083
:10153000546865206D616368696E652063686169E0
:101540006E732068617665206265656E206D616EE0
:1015500075616C6C792072652D63616C6962726172
:101560007465642E006D6D0052696768743A2000DE
:101570006D6D004C6566743A20006D6D00526967B0
:1015800068743A20006D6D004C6566743A20005313
:10159000657474696E6720436861696E204C656E7E
:1015A0006774687320546F3A200054657374732015
:1015B000636F6D706C6574652E004D6F746F722073
:1015C00043616C6962726174696F6E204E6F742042
:1015D0004E6565646564002053797374656D2043BE
:1015E0006861696E204C656E6774683A200020520D
:1015F0006967687420436861696E204C656E677422
:10160000682047726561746572207468616E20534A
:10161000797374656D2053657474696E67732043C4
:101620006861696E204C656E677468204C656674ED
:10163000436861696E4C656E6774683A2000204C9F
:1016400065667420436861696E204C656E677468D6
:101650002047726561746572207468616E205379E9
:101660007374656D2053657474696E677320436885
:1016700061696E204C656E677468204C65667443C2
:101680006861696E4C656E6774683A2000204E751B
:101690006D626572206F6620677565737365732070
:1016A00065786365656473204B494E454D415449E7
:1016B00043534D4158475545535320004D6573736F
:1016C0006167653A20556E61626C6520746F2066B3
:1016D000696E642076616C6964206D616368696E0F
:1016E0006520706F736974696F6E20666F72206316
:1016F0006861696E206C656E6774687320005B4674
:101700006F72776172642043616C63756C61746998
:101710006E6720506F736974696F6E5D000102100F
:1017200020200808102040102040800201020108FB
:1017300004020101020408102040808040201008AB
:101740000402018004020180402010080402010804
:101750000402010102040810204080010204081064
:10176000204080000020002300260029002C002FAC
:101770000032000001000003010601090105050512
:1017800005070508080808020202020A0A080804F8
:101790000404040101010101010101030303030326
:1017A000030303040707070C0C0C0C0C0C0C0C02B5
:1017B00002020206060606060606060B0B0B0B0BBC
:1017C0000B0B0B006C6A867211241FBECFEFD1E2A7
:1017D000DEBFCDBF00E00CBF13E0A0E0B2E0E4E369
:1017E000FFEF00E00BBF02C007900D92A636B107D5
:1017F000D9F72AE0A6E6B3E001C01D92AF33B207E5
:10180000E1F71BE0C3EEDBE000E006C02197010931
:10181000802FFE010E94027DC23ED10780E00807B2
:10182000A9F70E94FE6A0C94887F0C940000CF9365
:10183000DF938091B5099091B609C091B709D09115
:10184000B80930E020E0E0E8F0E0C817D90771F00F
:10185000DC01AB54B64F14964C914A3011F42F5F13
:101860003F4F0196BF010E94EE7CEFCFC901DF918F
:10187000CF9108952F923F924F925F926F927F92F5
:101880008F929F92AF92BF92CF92DF92EF92FF9290
:101890000F931F93CF93DF93CDB7DEB768970FB643
:1018A000F894DEBF0FBECDBF988F8F8B1B015E8B70
:1018B0004D8BEFEAF5E080819181A281B38189832C
:1018C0009A83AB83BC83D8018D919D910D90BC917F
:1018D000A02D8D839E83AF83B887D6018D919D9176
:1018E0000D90BC91A02D89879A87AB87BC87D901C1
:1018F0008D919D910D90BC91A02D8D879E87AF8776
:10190000B88BD7018D919D910D90BC91A02D898BA5
:101910009A8BAB8BBC8B84889588A688B7884088C7
:101920005188628873882D853E854F8558896981E5
:101930007A818B819C810E949A779B01AC01C501C1
:10194000B4010E94D478EF89F88D208131814281E1
:1019500053810E94D5786B017C012D813E814F819E
:10196000588569817A818B819C810E949A779B013D
:10197000AC01C301B2010E94D4789B01AC01C70144
:10198000B6010E94D3796B017C0129893A894B8980
:101990005C8969817A818B819C810E949A779B0105
:1019A000AC01C501B4010E94D478D1012D913D91C3
:1019B0004D915C910E94D5784B015C0129853A8557
:1019C0004B855C8569817A818B819C810E949A77A5
:1019D000A30192010E94D5789B01AC01609168043B
:1019E0007091690480916A0490916B040E94D4788C
:1019F0009B01AC01C501B4010E94D3794B015C018C
:101A0000A70196016D817E818F8198850E949A77CA
:101A10002B013C01A501940169857A858B859C8504
:101A20000E949A779B01AC01C301B2010E94D47855
:101A30002B013C012D853E854F85588969897A891E
:101A40008B899C890E94D4789B01AC01C301B201AF
:101A50000E94D5782B013C01A5019401C701B60174
:101A60000E94D5789B01AC0169817A818B819C8130
:101A70000E94D3799B01AC01C301B2010E949A7705
:101A80006B017C01ED89FE89208131814281538186
:101A9000609178047091790480917A0490917B042C
:101AA0000E949A779B01AC01C701B6010E94D578CC
:101AB00068960FB6F894DEBF0FBECDBFDF91CF9111
:101AC0001F910F91FF90EF90DF90CF90BF90AF905C
:101AD0009F908F907F906F905F904F903F902F904E
:101AE0000895FC01248135816217730748F48081D1
:101AF0009181009729F0860F971FFC01808108953E
:101B000080E008952F923F924F925F926F927F9262
:101B10008F929F92AF92BF92CF92DF92EF92FF92FD
:101B20000F931F93CF93DF9300D01F92CDB7DEB7F3
:101B30009C838B831B01EB81FC811081E12EF12CB6
:101B4000B7018FEA99E00E94710D2091B30930919D
:101B5000B409803241F4E216F30628F41F5FEB81EA
:101B6000FC811083E8CF812C412C512C80E8682E19
:101B70008FE3782EC12CD12C7601912C1982EB8128
:101B8000FC81F081FA830F2F10E0A090B309B09090
:101B9000B409B8018FEA99E00E94710DE82F0A1587
:101BA0001B0580F58D3209F476C08E3209F476C0BB
:101BB00080ED8E0F8A3008F58394AAE0B0E0A7018B
:101BC00096010E949078CE2EEE0FDD08EE08FF08F9
:101BD000C60ED71EE81EF91E80E3C81AD108E10818
:101BE000F108992051F02DEC3CEC4CEC5DE3C30185
:101BF000B2010E949A772B013C018A818F5FEB81B1
:101C0000FC818083EB81FC81008110E0B8018FEAC8
:101C100099E00E94710D80330CF443C08A330CF4B8
:101C200045C060E070E0CB018820F1F0F981FF232E
:101C300041F0F094E094D094C094C11CD11CE11CFC
:101C4000F11CC701B6010E943B77992021F0A30146
:101C500092010E949A77F10160837183828393835A
:101C600060E070E080E89FE30F900F900F900F907E
:101C7000DF91CF911F910F91FF90EF90DF90CF9068
:101C8000BF90AF909F908F907F906F905F904F909C
:101C90003F902F900895E1E0E983AFCF992493948A
:101CA000ACCF8E3209F0BDCF9110BBCF8091B3097C
:101CB0009091B4090817190708F461CFB2CFFC015D
:101CC000248135816217730720F480819181009708
:101CD00029F41092290489E294E00895860F971F51
:101CE00008950895AF92BF92CF92DF92EF92FF9244
:101CF0000F931F93CF93DF936C017B018B01040F34
:101D0000151FEB015E01AE18BF08C017D10759F0CF
:101D10006991D601ED91FC910190F081E02DC60111
:101D20001995892B79F7C501DF91CF911F910F91FB
:101D3000FF90EF90DF90CF90BF90AF900895FC019F
:101D4000448155816081718182E195E00C94720E2D
:101D5000FC01538D448D252F30E0842F90E0821BB1
:101D6000930B541710F0CF96089501970895FC0136
:101D7000918D828D981761F0A28DAE0FBF2FB11D8E
:101D80005D968C91928D9F5F9F73928F90E00895E6
:101D90008FEF9FEF0895FC01918D828D981731F0A0
:101DA000828DE80FF11D858D90E008958FEF9FEFF4
:101DB0000895FC01918D228D892F90E0805C9F4FCA
:101DC000821B91098F739927089582E195E00E9403
:101DD000D90E21E0892B09F420E0822F0895FC011F
:101DE000A48DA80FB92FB11DA35ABF4F2C91848D7C
:101DF00090E001968F739927848FA689B7892C93D9
:101E0000A089B1898C91837080648C93938D848D2B
:101E1000981306C00288F389E02D80818F7D80832E
:101E20000895EF92FF920F931F93CF93DF93EC01EE
:101E300081E0888F9B8D8C8D98131AC0E889F98971
:101E4000808185FF15C09FB7F894EE89FF89608374
:101E5000E889F98980818370806480839FBF81E0F5
:101E600090E0DF91CF911F910F91FF90EF90089537
:101E7000F62E0B8D10E00F5F1F4F0F731127E02E12
:101E80008C8D8E110CC00FB607FCFACFE889F9894A
:101E9000808185FFF5CFCE010E94EF0EF1CFEB8D53
:101EA000EC0FFD2FF11DE35AFF4FF0829FB7F8941E
:101EB0000B8FEA89FB8980818062CFCF0F931F93BC
:101EC000CF93DF938C01D0E0C0E0F801EC0FFD1F51
:101ED0006491662341F082E195E00E94110F892B05
:101EE00011F02196F2CFCE01DF91CF911F910F918A
:101EF0000895682F82E195E00C94110FCF93DF9342
:101F0000EC01888D8823B9F0AA89BB89E889F98911
:101F10008C9185FD03C0808186FD0DC00FB607FC46
:101F2000F7CF8C9185FFF2CF808185FFEDCFCE0179
:101F30000E94EF0EE9CFDF91CF91089580E090E00D
:101F4000892B29F00E94E50E81110E94000080E09B
:101F500090E0892B49F080E090E0892B29F00E94E5
:101F6000000081110E94000080E090E0892B49F080
:101F700080E090E0892B29F00E94000081110E94EE
:101F8000000080E090E0892B49F080E090E0892B10
:101F900029F00E94000081110C94000008958150E6
:101FA000823108F05AC0E82FF0E08827E552F04F60
:101FB0008F4F0C94027DFB0FFF0FED0FF30FF70F08
:101FC0002D10021008100C10121016101A102010EC
:101FD00024102D1028102E103210809180008F7741
:101FE000809380000895809180008F7DF9CF80914B
:101FF0008000877FF5CF84B58F7784BD089584B541
:102000008F7DFBCF8091B0008F778093B0000895D3
:102010008091B0008F7DF9CF809190008F77809371
:1020200090000895809190008F7DF9CF809190006D
:10203000877FF5CF8091A0008F778093A0000895CF
:102040008091A0008F7DF9CF8091A000877FF5CF90
:10205000809120018F778093200108958091200145
:102060008F7DF9CF80912001877FF5CFCF93DF93CC
:10207000282F30E0F901E95AF44F8491F901E35E29
:10208000F84ED491F901E358F84EC491CC23A1F055
:1020900081110E94CF0FEC2FF0E0EE0FFF1FED59E2
:1020A000F84EA591B491EC91ED2381E090E009F414
:1020B00080E0DF91CF91089580E090E0FACF1F9308
:1020C000CF93DF93282F30E0F901E95AF44F849140
:1020D000F901E35EF84ED491F901E358F84EC4914A
:1020E000CC23A9F0162F81110E94CF0FEC2FF0E026
:1020F000EE0FFF1FE35CF44FA591B4918FB7F894F6
:10210000EC91111108C0D095DE23DC938FBFDF91D5
:10211000CF911F910895DE2BF8CFCF93DF9390E0FE
:10212000FC01E35EF84E24918358984EFC018491A3
:102130008823C9F090E0880F991FFC01ED5DF44FF2
:10214000A591B491FC01E35CF44FC591D491611168
:102150000DC09FB7F8948C91209582238C93888131
:10216000282328839FBFDF91CF910895623051F4D7
:102170009FB7F8943C91822F809583238C93E881BC
:102180002E2BEFCF8FB7F894EC912E2B2C938FBF83
:10219000EACF1F93CF93DF93182FEB0161E00E94EA
:1021A0008D10209739F460E0812FDF91CF911F913E
:1021B0000C945F10CF3FD10511F461E0F5CFE12F12
:1021C000F0E0E95AF44FE491E150E23108F0B3C095
:1021D000F0E08827E151FF4E8F4F0C94027D0111F2
:1021E00009110E11181122119B112C1134113C11DF
:1021F000461150115A11691173119B117D118711EC
:10220000911184B5806884BDC7BDDF91CF911F91C6
:10221000089584B5806284BDC8BDF7CF80918000E9
:10222000806880938000D0938900C0938800EDCFB0
:1022300080918000806280938000D0938B00C09357
:102240008A00E3CF80918000886080938000D093E3
:102250008D00C0938C00D9CF8091B00080688093AE
:10226000B000C093B300D1CF8091B0008062809362
:10227000B000C093B400C9CF809190008068809373
:102280009000D0939900C0939800BFCF80919000A8
:10229000806280939000D0939B00C0939A00B5CF4A
:1022A00080919000886080939000D0939D00C093AF
:1022B0009C00ABCF8091A00080688093A0008091AB
:1022C000A0008F7B8093A000D093A900C093A800AA
:1022D0009CCF8091A00080628093A000D093AB003F
:1022E000C093AA0092CF8091A00088608093A00044
:1022F000D093AD00C093AC0088CF8091200180685E
:1023000080932001D0932901C09328017ECF809132
:102310002001806280932001D0932B01C0932A0179
:1023200074CF80912001886080932001D0932D018B
:10233000C0932C016ACFC038D1050CF03ECF33CF0B
:102340003FB7F8948091250490912604A09127042A
:10235000B091280426B5A89B05C02F3F19F001961F
:10236000A11DB11D3FBFBA2FA92F982F8827BC01EF
:10237000CD01620F711D811D911D42E0660F771F17
:10238000881F991F4A95D1F708952FB7F894609147
:1023900021047091220480912304909124042FBF82
:1023A00008950895CF93DF93DB01EA01FC01E45E19
:1023B000FB4F40815CE0589F9001599F300D1124E4
:1023C00047FF1CC011961C921E9280818F5F8083F4
:1023D0008081A901480F511D87FD5A9557FF03C001
:1023E00080818C30ACF08D919C9111970496803453
:1023F0009C4938F18D919C91049625C08081A9015A
:10240000480F511D87FD5A9557FFDFCF8081DDCFE3
:102410008D919C914081240F311D47FD3A95D90142
:10242000AA0FBB1FA20FB31FA457BC4F11962D912B
:102430003C91820F931F998388838081DF91CF9194
:10244000089580E49CE9998388838FEF8083F6CF99
:10245000009709F440C097FF03C0919581959109B9
:102460008430910514F083E090E020911105211152
:1024700035C020910F05222351F08430910514F0CE
:1024800083E090E08230910514F482E090E02091A6
:10249000B100287F2093B10020919100287F2093E4
:1024A00091002091A100287F2093A100282F833044
:1024B0009105BCF09091B1008F5F892B8093B100A2
:1024C00090919100922B909391008091A100822B8A
:1024D0008093A100089581E090E0C7CF83E090E071
:1024E000D6CF9091B100E9CFAF92BF92CF92DF9259
:1024F000EF92FF920F931F93CF93DF9362E086E1F9
:102500000E948D1062E087E10E948D1062E088E1F8
:102510000E948D1062E089E10E948D1062E08AE1E4
:102520000E948D1062E08BE10E948D108BE10E9471
:102530003610EC018AE10E9436105C0189E10E94AC
:1025400036106C0188E10E9436107C0187E10E9400
:1025500036108C0186E10E9436109E01220F331F37
:102560002A0D3B1D220F331F2C0D3D1D220F331F43
:102570002E0D3F1D220F331F200F311F220F331F3F
:10258000820F931F88309105F1F08CF4863091050D
:1025900099F1C4F5843091059CF0857099271092CB
:1025A000100521E02093110510920F0523C08034FF
:1025B0009105A4F48D339105ACF48C33910569F346
:1025C00088309105BCF0DF91CF911F910F91FF9062
:1025D000EF90DF90CF90BF90AF900895893422E0C4
:1025E000920771F7837099271092110510920F05C9
:1025F000109210050197E7CF21E02093100510926B
:102600001105D2CF109210051092110521E02093F0
:102610000F05F0CF82E195E00C94B70E82E195E0D2
:102620000C94D90ECF93DF9382E195E00E94110FB5
:10263000EC0182E195E00E947E0FCE01DF91CF9107
:10264000089590E080E008954F925F926F927F929C
:102650008F929F92AF92BF92CF92DF92EF92FF92B2
:10266000CF93DF93CDB7DEB72E970FB6F894DEBFCA
:102670000FBECDBF9E878D87DC019096ED91FC91BA
:1026800080819181A281B38189839A83AB83BC834A
:10269000AD85BE859496ED91FC91608171818281BA
:1026A000938129813A814B815C810E94D4784B01CE
:1026B0005C01ED85FE8526A537A540A951A9698154
:1026C0007A818B819C810E94D4786B017C01AD85DD
:1026D000BE8554962D913D914D915C915797C501C2
:1026E000B4010E949A77ED85FE8522A533A544A505
:1026F00055A50E94D5782B013C01AD85BE859A96E3
:102700004D925D926D927C929D9711968C9111974E
:102710008823B1F016962D913D914D915C911997BA
:10272000C701B6010E949A779B01AC01C301B201B7
:102730000E94D478ED85FE8562A773A784A795A72C
:10274000AD85BE859A968D919D910D90BC91A02DE1
:102750008D839E83AF83B887ED85FE8542AC53ACF5
:1027600064AC75ACA3019201BC01CD010E94157B44
:10277000AD85BE8518160CF075C09A964D925D9287
:102780006D927C929D97AD85BE858C91882309F4CE
:1027900088C012962D913D914D915C911597C50180
:1027A000B4010E949A774B015C01ED85FE85208D76
:1027B000318D428D538DC701B6010E949A779B01DE
:1027C000AC01AD85BE859A966D917D918D919C9160
:1027D0009D970E94D478A50194010E94D5786B0141
:1027E0007C019B01AC01C301B2010E94347787FDDB
:1027F00010C0ED85FE8546A857A860AC71ACA3015A
:102800009201B601C7010E94347787FD02C02601FC
:102810003701AD85BE859296ED91FC914082518243
:102820006282738289819A81AB81BC81ED85FE854C
:1028300086A797A7A0ABB1AB81E02E960FB6F89410
:10284000DEBF0FBECDBFDF91CF91FF90EF90DF9045
:10285000CF90BF90AF909F908F907F906F905F9040
:102860004F900895D6968D919D910D90BC91A02D7D
:1028700089879A87AB87BC879C01AD016D817E817A
:102880008F8198850E94347787FF7DCF89859A85CF
:10289000AB85BC85ED85FE8582A793A7A4A7B5A7C8
:1028A00072CF812C912C540180CF8F929F92AF9246
:1028B000BF92CF92DF92EF92FF92CF93DF93EC0122
:1028C000EAA1FBA1C080D180E280F380CAA6DBA68A
:1028D000ECA6FDA6E8A1F9A180819181A281B38136
:1028E0008EA79FA7A8ABB9AB8AAC9BACACACBDAC78
:1028F000A5019401C701B6010E94157B18162CF49E
:102900008AA69BA6ACA6BDA60CC08EA89FA8A8AC04
:10291000B9ACA5019401C701B6010E94347787FDC7
:10292000EFCFDF91CF91FF90EF90DF90CF90BF90EE
:10293000AF909F908F9008958F929F92AF92BF9289
:10294000CF92DF92EF92FF920F931F93CF93DF937B
:10295000EC018A01FB01C080D180E280F380FA01A2
:102960002081318142815381C701B6010E94157BCC
:1029700087FF5CC0CEAADFAAE8AEF9AEF80160819D
:102980007181828193816AAF7BAF8CAF9DAF2EAD99
:10299000222309F44BC00AA11BA1F8012081318137
:1029A000428153810E94347787FF1EC08AAD9BAD60
:1029B000ACADBDADF80180839183A283B3838AA4BB
:1029C0009BA4ACA4BDA4CAACDBACECACFDACA70131
:1029D0009601C501B4010E94157B1816DCF4CAA645
:1029E000DBA6ECA6FDA622C0F80120813181428140
:1029F0005381C701B6010E94157B18162CF48EA9CD
:102A00009FA9A8ADB9ADD6CFF80180819181A281EF
:102A1000B381D0CFCEA8DFA8E8ACF9ACA70196016E
:102A2000C501B4010E94347787FDD9CFDF91CF91E2
:102A30001F910F91FF90EF90DF90CF90BF90AF90DC
:102A40009F908F9008952F923F924F925F926F9236
:102A50007F928F929F92AF92BF92CF92DF92EF922E
:102A6000FF920F931F93CF93DF93CDB7DEB72C97D1
:102A70000FB6F894DEBF0FBECDBF9C878B877A83DD
:102A800069835A8749871901DB018D919D910D90CA
:102A9000BC91A02D8D839E83AF83B88720E030E06A
:102AA000A901BC01CD010E94347787FDEFC0E98503
:102AB000FA85C080D180E280F38020E030E0A90177
:102AC000C701B6010E94347787FDE0C0D1018D9027
:102AD0009D90AD90BC9020E030E0A901C501B4010B
:102AE0000E94347787FDD2C0F80140805180628017
:102AF000738020E030E0A901C301B2010E94347765
:102B000087FDC4C020E030E040E85FE3C301B201CC
:102B10000E94157B18160CF4B9C011E020E030E0DB
:102B2000A901C301B2010E94157B18160CF010E038
:102B3000AB85BC851C9320E030E040E85FE3C30137
:102B4000B2010E943477881F8827881FEB85FC8597
:102B5000818389819A8193878287A985BA85B58780
:102B6000A4873786268662A973A984A995A90E949D
:102B7000397720E030E04AE754E40E94D379698352
:102B80007A838B839C838D819E81AF81B885EB8511
:102B9000FC85808B918BA28BB38B29813A814B81F1
:102BA0005C81C701B6010E949A776B017C01AB85FD
:102BB000BC855496CD92DD92ED92FC925797298177
:102BC0003A814B815C81C501B4010E94D3794B01EC
:102BD0005C01EB85FC85808E918EA28EB38E848DF8
:102BE000958D019769F52D813E814F81588560E073
:102BF00070E0CB010E94D478AB85BC8550966D9374
:102C00007D938D939C935397A701960160E070E0AC
:102C1000CB010E94D478EB85FC85648B758B868B09
:102C2000978BA501940160E070E0CB010E94D478FD
:102C3000AB85BC8558966D937D938D939C935B97E4
:102C4000EB85FC85C088D188E288F388A7019601CE
:102C5000C301B2010E949A77AB85BC8512966D9331
:102C60007D938D939C931597A301920160E070E092
:102C700080E89FE30E94D478A70196010E949A778A
:102C8000EB85FC8566837783808791872C960FB6CA
:102C9000F894DEBF0FBECDBFDF91CF911F910F9192
:102CA000FF90EF90DF90CF90BF90AF909F908F906C
:102CB0007F906F905F904F903F902F9008956F920C
:102CC0007F928F929F92AF92BF92CF92DF92EF92BC
:102CD000FF920F931F93CF93DF93CDB7DEB73C01E5
:102CE000C8018501F30153A342A371A360A335A3D7
:102CF00024A316AE16AA17AA10AE11AE40E050E0FB
:102D00006FE773E442AF53AF64AF75AF44E650E092
:102D100060E070E042AB53AB64AB75ABF401208173
:102D20003181F301358F248F9601A701BC01C301C6
:102D30000E9423150E94C511F30102A913A924A919
:102D400035A9601B710B820B930B66A377A380A739
:102D500091A7DF91CF911F910F91FF90EF90DF909E
:102D6000CF90BF90AF909F908F907F906F9008957D
:102D7000823109F468C030F48230E1F0833069F1C7
:102D800080E008958431D9F108F44BC08531C1F752
:102D900070936B0360936A0389EB9CE19093050247
:102DA00080930402809169008C7F81608093690028
:102DB000E89A11C0709367036093660385EC9CE109
:102DC000909301028093000280916A008C7F816061
:102DD00080936A00EC9A81E0089570936903609390
:102DE00068038FEB9CE19093030280930202809131
:102DF0006A00837F846080936A00ED9AECCF7093C1
:102E00006D0360936C0383EB9CE1909307028093C6
:102E1000060280916900837F846080936900E99A4B
:102E2000DACF70936F0360936E038DEA9CE1909309
:102E3000090280930802809169008F7C80618093F1
:102E40006900EA9AC8CF709371036093700387EAB0
:102E50009CE190930B0280930A02809169008F732A
:102E6000806480936900EB9AB6CFEF92FF920F9344
:102E70001F93CF93DF93EC019B018E81811103C0DF
:102E8000442309F4E9C080912F04909130048A977B
:102E900009F4E2C089012F3F310519F014F00FEF5A
:102EA00010E001304FEF140714F401E01FEF18AFEA
:102EB0000FAB17FF03C01195019511098A819B8102
:102EC0008430910539F051E0BC016B5071096330D9
:102ED000710508F450E0EC80FD8044E0E416F10454
:102EE00029F071E0F7013B97339708F470E04091C7
:102EF0001105411118C0E881F981E430F10531F084
:102F000041E0DF011B97139708F440E06091100542
:102F1000662309F440C012161306C4F5B8010E94D6
:102F2000C91060E023C00F3F110514F00EEF10E050
:102F30001216130694F4772389F361E00E945F1060
:102F40006FEF70E0601B710B8C81DF91CF911F914F
:102F50000F91FF90EF900C94C910552381F06FEF03
:102F600070E0601B710B0E94C91061E08C81DF91E1
:102F7000CF911F910F91FF90EF900C945F10B801CB
:102F80008E2D0E94C91060E08A81F1CF60E00E941E
:102F90005F10B801D9CF60910F056623E9F0409129
:102FA00077035091780361E0E417F50729F41216CE
:102FB00013064CF460E007C04091E4044130B9F7D7
:102FC00012161306BCF70E945F10B80188810E9498
:102FD000C91060E08E2DCBCF121613061CF54423CA
:102FE00051F061E00E945F1060E08C810E945F10F0
:102FF000B8018881AACF772369F061E00E945F1051
:103000006FEF70E0601B710B8C810E94C91061E052
:103010008881ADCFB8010E94C91060E08C810E9408
:103020005F10F5CF442339F061E08E2D0E945F10D0
:1030300060E08A81DBCF552341F06FEF70E0601BC9
:10304000710B0E94C91061E0E9CFB8018E2D0E947A
:10305000C91060E08A81E3CFDF91CF911F910F917A
:10306000FF90EF9008952F923F924F925F926F9250
:103070007F928F929F92AF92BF92CF92DF92EF9208
:10308000FF920F931F93CF93DF93CDB7DEB7A09737
:103090000FB6F894DEBF0FBECDBF3C012B014A0135
:1030A0003A8F298FD8A2CF8E15011D8A1E8A1F8ABA
:1030B000188E80E090E0A0E8BFE3898B9A8BAB8B01
:1030C000BC8B930128533F4F3C8F2B8FCE014596ED
:1030D000F90191838083225031093E8F2D8FF901B0
:1030E00091838083329791838083F701E080F18020
:1030F000F8010081118162E0802F0E948D1062E052
:103100008E2D0E948D10A8015527FA01E358F84E24
:10311000E491F0E0EE0FFF1FED59F84E2591349148
:10312000F30131832083435E584EFA014491F30149
:103130004483C7019927FC01E358F84EE491F0E07D
:10314000EE0FFF1FED59F84EA591B491F301B38333
:10315000A283835E984EFC018491F30185831782DC
:10316000108611861286EBE3FFE13197F1F7F90142
:103170009081492391E009F490E0EC91E82309F073
:103180009260F3019683B301802F0E94B816F30179
:10319000838BB3018E2D0E94B816F3019389890F9A
:1031A000838B1D861E861F86188A80E090E0A0E82B
:1031B000BFE389879A87AB87BC87830102551F4F7E
:1031C000CE010D96F801918380833297918380839D
:1031D0003297918380837301F4E1EF0EF11CF201C9
:1031E00080819181F301848B958BF4012081318161
:1031F000F301378B268BE98DFA8D20813181F30124
:10320000318F208F128E90911105992309F461C19D
:1032100060E00E948D1061E0F30186890E948D10AC
:1032200061E0F301808D0E948D1060E0F3018689DA
:103230000E945F1060E0F301808D0E945F1040E00B
:1032400070E060E0C7010E9435172301FBE64F0ED6
:10325000511C1A821982F801C080D180F301E45513
:10326000FF4FE080F1803297008111819E012F5F36
:103270003F4F4901CE0109965C019301235B3F4F0B
:10328000A30149595F4FB3016F5A7F4FC2010E949A
:103290005F16F20186AD811103C0C2010E94551470
:1032A00081E0F20186AF80E090E0AFE7B3E489838C
:1032B0009A83AB83BC8380E090E0AFE7B3EC8D836F
:1032C0009E83AF83B887AE014F5F5F4FBE016B5FD8
:1032D0007F4FC2010E949C14F10160817181828143
:1032E000938128EE33E040E050E00E94A37812166C
:1032F0001306C4F56901330FEE08FF08C701B601D4
:103300000E943B774B015C01F20162A973A984A979
:1033100095A90E9439779B01AC01C501B4010E94B7
:10332000D3794B015C01AC019B01F2016489758981
:10333000868997890E949A77F201648B758B868BB8
:10334000978BA5019401608D718D828D938D0E9464
:10335000D379F201608F718F828F938FC2AAD3AA23
:10336000E4AAF5AA2301FAEC4F0E511C81E090E08B
:103370009A838983EB8DFC8DC080D180ED8DFE8D8D
:10338000E080F180F301EC53FF4F008111819E0139
:103390002F5F3F4F4901CE0141965C0193012854B4
:1033A0003F4FA30140545F4FB30164547F4FC201AC
:1033B0000E945F16EF8DF8A180818301025F1E4F8E
:1033C000F8018083F20186AD811103C0C2010E9421
:1033D000551481E0F20186AF80E090E0A0EAB1E40C
:1033E00089839A83AB83BC8380E090E0A0EAB1EC50
:1033F0008D839E83AF83B887AE014F5F5F4FBE0161
:103400006B5F7F4FC2010E949C14F101608171814A
:103410008281938128EE33E040E050E00E94A3785F
:1034200012161306C4F56901330FEE08FF08C70131
:10343000B6010E943B774B015C01F20162A973A9BE
:1034400084A995A90E9439779B01AC01C501B401FB
:103450000E94D3794B015C01AC019B01F2016489AC
:103460007589868997890E949A77F201648B758B9A
:10347000868B978BA5019401608D718D828D938DC4
:103480000E94D379F201608F718F828F938FC2AACD
:10349000D3AAE4AAF5AAF301EB59FF4F11830083E5
:1034A000A0960FB6F894DEBF0FBECDBFDF91CF91CF
:1034B0001F910F91FF90EF90DF90CF90BF90AF9052
:1034C0009F908F907F906F905F904F903F902F9044
:1034D00008959091100591119BCE90910F0561E098
:1034E000992371F00E948D1061E0F30186890E949A
:1034F0008D1061E0F301808D0E948D1061E09BCE04
:103500000E948D1061E0F30186890E948D1061E0B8
:10351000F301808D0E948D1061E0F30186890E9485
:103520005F1060E0F301808D0E945F1060E0F301A6
:10353000848983CE41E00C943517CF93DF93EC015F
:103540008E818823F1F080911105882349F060E095
:103550008A810E945F1060E08C810E945F1011C020
:10356000809110058111F3CF80910F0561E08823D0
:1035700061F08C810E945F1070E060E088810E94A1
:10358000C9101E82DF91CF9108958A810E945F1039
:1035900060E08C810E945F1060E08881DECF2F9216
:1035A0003F924F925F926F927F928F929F92AF92D3
:1035B000BF92CF92DF92EF92FF920F931F93CF9320
:1035C000DF93EC011B010E94C511FE01EC54FF4F7B
:1035D0006083718382839383E65AFF4F80818E01DB
:1035E000075F1E4FC854DF4F8A3509F059C0C0909D
:1035F0000605D0900705E0900805F0900905D10177
:103600004D905D906D907C90D801ED91FC91808003
:103610009180A280B380A7019601C701B6010E94E4
:10362000667C811125C0A3019201C701B6010E94E9
:10363000347787FF1DC0A5019401C701B6010E9420
:10364000D379688379838A839B83DF91CF911F919C
:103650000F91FF90EF90DF90CF90BF90AF909F9031
:103660008F907F906F905F904F903F902F90089534
:10367000C0900A05D0900B05E0900C05F0900D0568
:10368000A7019601C701B6010E94667C811108C09E
:10369000A3019201C701B6010E94157B18165CF2C6
:1036A000D801ED91FC912081318142815381F1015A
:1036B0006081718182819381C2CF0F931F93CF93D9
:1036C000DF93EC010E94C511FE01EC54FF4F008115
:1036D000118122813381AB01BC01401B510B620B74
:1036E000730B8091810490918204B0E0A0E0841774
:1036F0009507A607B70740F4CE014496DF91CF9116
:103700001F910F910C949D1ADF91CF911F910F91F2
:1037100008956F927F928F929F92AF92BF92CF92B5
:10372000DF92EF92FF920F931F93CF93DF93CDB76A
:10373000DEB73C01FC01EC53FF4F7183608332968E
:103740005183408332963183208386539F4F0E945A
:103750002315F301E655FF4FF182E0823296D182C4
:10376000C0823296B182A08284019501A601B70180
:10377000C30185599F4F0E942315DF91CF911F915F
:103780000F91FF90EF90DF90CF90BF90AF909F9000
:103790008F907F906F900895CF92DF92EF92FF927B
:1037A000CF93DF93EC01FB01C080D180E280F380F6
:1037B000C701B6010E943B77FE01E55FFE4F019015
:1037C000F081E02D20813181428153810E94D379A3
:1037D000FE01E854FF4F6083718382839383F894E2
:1037E000CF82D886E986FA867894DF91CF91FF90D0
:1037F000EF90DF90CF900895CF92DF92EF92FF92FB
:10380000CF93DF93EC01E881F9819081EA81FB811C
:1038100080812D818223EE81E3702C81922309F037
:10382000E4608111E8608E2F90E0959587959595DD
:1038300087958E83E150EE3008F034C0F0E08827A1
:10384000EB5DF34E8F4F0C94027D331C591C731C9F
:10385000591C521C8D1C331C331C8D1C521C591CB2
:10386000731C591C331C8F819885A985BA850196D4
:10387000A11DB11D8F839887A987BA870E94A011C7
:10388000CF84D888E988FA886C197D098E099F0948
:103890006B877C878D879E870E94A0116F87788BAE
:1038A000898B9A8BDF91CF91FF90EF90DF90CF9033
:1038B00008958F819885A985BA850197A109B109D5
:1038C0008F839887A987BA87CF84D888E988FA88B0
:1038D0000E94A011C61AD70AE80AF90ACB86DC862C
:1038E000ED86FE86D9CF8F819885A985BA85029607
:1038F000A11DB11D8F839887A987BA870E94A01147
:10390000CF84D888E988FA886C197D098E099F09C7
:103910009695879577956795BBCF8F819885A98573
:10392000BA850297A109B1098F839887A987BA87B9
:10393000CF84D888E988FA880E94A011C61AD70ACD
:10394000E80AF90AF694E794D794C794C7CF809110
:103950007003909171030C94FC1B80916E03909105
:103960006F030C94FC1B80916C0390916D030C947D
:10397000FC1B80916A0390916B030C94FC1B80915B
:103980006803909169030C94FC1B809166039091ED
:1039900067030C94FC1BCF93DF93EC018B8982307F
:1039A00060F4F894CE010E94FC1B6F8178858985B4
:1039B0009A857894DF91CF910895F894F6CF2F925D
:1039C0003F924F925F926F927F928F929F92AF92AF
:1039D000BF92CF92DF92EF92FF920F931F93CF93FC
:1039E000DF9300D000D01F921F92CDB7DEB798872B
:1039F0008F830E94CB1C0E943B7769837A838B83E1
:103A00009C830E94A0110E9439772B013C012F80DA
:103A1000388425E5220E311CF1012081318142815B
:103A2000538169817A818B819C810E94D4786B015A
:103A30007C0120E030E040E450E40E94157B2F81BF
:103A40003885275A3F4F3E832D83181654F020E0C7
:103A500030E040E450ECB601C7010E94347787FFA4
:103A60009EC00F811885035A1F4FF80120813181B4
:103A700042815381B601C7010E94D4784B015C0199
:103A800020E030E040E85FEB0E94347718160CF439
:103A900070C020E030E040E05FE3B601C7010E9463
:103AA000D57846015701F80180829182A282B382C3
:103AB000ED81FE8180809180A280B3800F81188586
:103AC0000F591F4FAF81B885A055BF4F2D913D9124
:103AD0004D915C910E949A776B017C01A501940144
:103AE000C301B2010E94D4780E944C7A0E943977B7
:103AF0009B01AC01C701B6010E94D379F801608334
:103B00007183828393832F8138852F593F4FF90129
:103B100060817181828193819058608371838283F7
:103B20009383ED81FE81408251826282738229817A
:103B30003A814B815C81F10120833183428353833D
:103B400028960FB6F894DEBF0FBECDBFDF91CF91A0
:103B50001F910F91FF90EF90DF90CF90BF90AF90AB
:103B60009F908F907F906F905F904F903F902F909D
:103B7000089520E030E040E85FE3C501B4010E9411
:103B8000157B87FD09C020E030E040E05FE3B6012F
:103B9000C7010E94D47885CFB601C70182CFEF81DB
:103BA000F8858389823008F071C0F8948F819885F8
:103BB0000E94FC1BEF81F885638574858585968559
:103BC00078940E943B776B017C010E94A0114B010D
:103BD0005C01EF81F8858389823008F059C0F89440
:103BE0008F8198850E94FC1BEF81F88587859089DD
:103BF000A189B2897894A5019401281B390B4A0B3D
:103C00005B0BCA01B9010E9439774B015C0120E0CE
:103C100030E0A901C701B6010E94157B0F8118850C
:103C20000F591F4F1816B4F1A70196015058C5013E
:103C3000B4010E94157B18167CF420E030E0A90145
:103C4000C701B6010E9434777501640187FF04C083
:103C5000F7FAF094F7F8F094F801108211821282CA
:103C6000138220E030E0A901C701B6010E94347739
:103C7000882309F448CFA7019601EF81F885E05524
:103C8000FF4F608171818281938136CFF89492CF0A
:103C9000F894AACFA5019401C701B6010E94347718
:103CA00087FDCBCFE8CFCF92DF92EF92FF92CF93F9
:103CB000DF93EC010E94CB1CFE01E854FF4FC08053
:103CC000D180E280F3800E943B77FE01E55FFE4FEA
:103CD0000190F081E02D20813181428153810E9449
:103CE000D379A70196010E94D478C75FDE4FE8819F
:103CF000F98120813181428153810E949A77DF913D
:103D0000CF91FF90EF90DF90CF900895CF93DF9306
:103D1000EC010E94CB1C0E943B77FE01E55FFE4F49
:103D20000190F081E02D20813181428153810E94F8
:103D3000D379C75FDE4FE881F981208131814281EB
:103D400053810E949A77DF91CF910895CF93DF93AB
:103D5000EC010E94C511FE01EC54FF4F608371839A
:103D600082839383CE010E94861EFE01E75FFE4F91
:103D70000190F081E02D20813181428153810E94A8
:103D8000D379C854DF4F688379838A839B83DF911B
:103D9000CF910895FC0101900020E9F73197AF0120
:103DA000481B590BBC0182E195E00C94720E8CE526
:103DB00092E00C94CA1ECF93DF930E945E0FEC0139
:103DC0000E94D71E8C0F9D1FDF91CF9108952F92D7
:103DD0003F924F925F926F927F928F929F92AF929B
:103DE000BF92CF92DF92EF92FF920F931F93CF93E8
:103DF000DF93CDB7DEB7AA970FB6F894DEBF0FBE3C
:103E0000CDBF0E9474123C01009709F091C082E17D
:103E100090E09E838D8383E190E098878F8389E093
:103E200090E09A8B898B88E090E09C8B8B8B86E06E
:103E300090E09E8F8D8F82E090E09A87898783E063
:103E400090E09C878B878BE090E09E8B8D8B8AE047
:103E500090E0988F8F8B87E090E098A38F8F85E11B
:103E600090E09E878D8784E190E0988B8F878CE02F
:103E700090E09A8F898F8DE090E09C8F8B8F85E00A
:103E800090E09AA389A344244A94542C22242A948F
:103E9000322C81E08AA7AEE0B0E0B8A7AFA3BFE0C4
:103EA000B9A780E18CA3A1E1B0E0BEA3ADA380914E
:103EB0000F059091E404913009F0D1C18111B3C193
:103EC00080E197E2A0E0B0E089839A83AB83BC8372
:103ED0008CE48BA3DE0111965D01CE0183966C010B
:103EE0001C967D018E01015F1F4F9E01275E3F4F93
:103EF000AE01455E5F4FBE016F5D7F4F8AE998E07E
:103F00000E94331880E197E2A0E0B0E089839A83B1
:103F1000AB83BC8382E58BA3D50116967D010A5045
:103F200011099E012D5E3F4FAE014F5E5F4FD0C124
:103F30008130910509F048C084E190E09E838D8333
:103F400085E190E098878F8386E090E09A8B898B5B
:103F500084E090E09C8B8B8B85E090E09E8F8D8F32
:103F600083E190E09A87898782E190E09C878B8744
:103F700089E090E09E8B8D8B87E090E0988F8F8B0F
:103F800088E090E098A38F8F82E090E09E878D87F5
:103F900083E090E0988B8F878AE090E09A8F898FFA
:103FA0008BE090E09C8F8B8F8CE090E09AA389A3AC
:103FB00044244A94542C22242A94322C8CE38AA739
:103FC0002DE3622E712C67CF82309105C9F584E113
:103FD00090E09E838D8385E190E098878F8384E0D5
:103FE00090E09A8B898B86E090E09C8B8B8B85E0B0
:103FF00090E09E8F8D8F83E190E09A87898782E1A0
:1040000090E09C878B8787E090E09E8B8D8B89E08A
:1040100090E0988F8F8B88E090E098A38F8F7E86BA
:104020006D8683E090E0988B8F878BE090E09A8F8D
:10403000898F8CE090E09C8F8B8F8AE090E0B6CFE8
:104040000397029708F052C084E190E09E838D832D
:1040500085E190E098878F8386E090E09A8B898B4A
:1040600084E090E09C8B8B8B85E090E09E8F8D8F21
:1040700083E190E09A87898782E190E09C878B8733
:1040800087E090E09E8B8D8B89E090E0988F8F8BFE
:1040900088E090E098A38F8F82E090E09E878D87E4
:1040A00083E090E0988B8F878AE090E09A8F898FE9
:1040B0008BE090E09C8F8B8F8CE090E09AA389A39B
:1040C0001FE2412E512C0EE2202E312CB5E4BAA76E
:1040D000E4E46E2E712C8BE290E098A78FA39AE215
:1040E00099A7A9E2ACA388E290E042C095E06916E6
:1040F000710409F040C082E090E09E838D8383E0EC
:1041000090E098878F8389E090E09A8B898B8AE092
:1041100090E09C8B8B8B82E190E09A87898783E18A
:1041200090E09C878B8787E090E09E8B8D8B88E06A
:1041300090E0988F8F8B85E190E09E878D8784E15A
:1041400090E0988B8F8786E090E09A8F898F7C8EA5
:104150006B8EACE2AAA7BBE26B2E712C82E390E0DF
:1041600098A78FA393E399A7A1E3ACA380E390E082
:104170009EA38DA39CCE96E06916710409F047C0FA
:1041800084E190E09E838D8385E190E098878F8322
:1041900084E090E09A8B898B85E090E09C8B8B8B00
:1041A0007E8E6D8E83E190E09A87898782E190E030
:1041B0009C878B8787E090E09E8B8D8B88E090E0DA
:1041C000988F8F8B89E090E098A38F8F90937803DE
:1041D0008093770382E090E09E878D8783E090E074
:1041E000988B8F878BE090E09A8F898F8CE090E09E
:1041F0009C8F8B8F8AE090E09AA389A3FFE24F2ED9
:10420000512CAEE22A2E312CA5E4AAA761CF8EE66E
:104210009AE00E945E0F80E099E00E94DB1E81E040
:1042200080933104FFCF80E197E2A0E0B0E0898382
:104230009A83AB83BC838CE48BA3DE0111965D0172
:10424000CE0183966C011C967D018E01015F1F4F8C
:104250009E01255E3F4FAE01475E5F4F4CCE811100
:10426000FAC080E197E2A0E0B0E089839A83AB8353
:10427000BC838CE48BA3DE0111965D01CE01839695
:104280006C011E967D018E01035F1F4F9E01255E0E
:104290003F4FAE01475E5F4FBE016F5D7F4F8AE9C2
:1042A00098E00E94331880E197E2A0E0B0E08983B3
:1042B0009A83AB83BC8382E58BA3D50114967D01E1
:1042C000065011099E012F5E3F4FAE014D5E5F4FBC
:1042D000BE01635E7F4F8BE897E00E94331880E158
:1042E00097E2A0E0B0E089839A83AB83BC838AE540
:1042F0008BA3CE0101965C01DE0193966D010896B9
:104300007C018E01055F1F4F9E01295E3F4FAE016C
:104310004B5E5F4FBE01615E7F4F8CE796E00E946F
:1043200033188CEB882E84E0982E98EBA92E94E01D
:10433000B92E24EBC22E24E0D22E30EBE32E34E053
:10434000F32E0CEA14E028EA34E044EA54E060EA90
:1043500074E08AE998E00E94891B28EA34E044EA84
:1043600054E060EA74E08BE897E00E94891B4CED12
:10437000842E44E0942E58EDA52E54E0B52E64ED25
:10438000C62E64E0D62E70EDE72E74E0F72E0CEC0E
:1043900014E028EC34E044EC54E060EC74E08CE78A
:1043A00096E00E94891BADA1BEA1B0937603A093B5
:1043B00075038DE290E0909374038093730361E042
:1043C0000E948D10BCA1B0932A0410922B048FA1DF
:1043D00098A590932D0480932C0461E08B2F0E946C
:1043E0008D1060E08CA10E945F1060E089A50E94A2
:1043F0008D106114710421F060E0862D0E948D10F3
:1044000060E08AA50E948D101214130424F460E069
:10441000822D0E948D101414150424F460E0842D64
:104420000E948D10AA960FB6F894DEBF0FBECDBFC6
:10443000DF91CF911F910F91FF90EF90DF90CF9080
:10444000BF90AF909F908F907F906F905F904F90B4
:104450003F902F90089580E197E2A0E0B0E089833B
:104460009A83AB83BC838CE48BA3DE0111965D0140
:10447000CE0183966C011E967D018E01035F1F4F56
:104480009E01255E3F4FAE01475E5F4FBE016F5DEF
:104490007F4F8AE998E00E94331880E197E2A0E01C
:1044A000B0E089839A83AB83BC8382E58BA3D5017B
:1044B00014967D010650110934CDCF93DF930E94ED
:1044C0009F0EEC010E94D71E8C0F9D1FDF91CF9194
:1044D00008958F929F92AF92BF920F931F93CF93A5
:1044E000DF93CDB7DEB7A1970FB6F894DEBF0FBE4E
:1044F000CDBF19A2423008F44AE08E010F5D1F4F74
:10450000842E912CB12CA12CA50194010E94A3789A
:10451000E62FB901CA01EA30F4F4E05DD801EE9368
:104520008D01232B242B252B79F790E080E0109729
:1045300019F0CD010E94CA1EA1960FB6F894DEBFF5
:104540000FBECDBFDF91CF911F910F91BF90AF9064
:104550009F908F900895E95CE1CFBC0190E080E0EE
:104560004AE00C946922CF92DF92EF92FF92CF93B0
:10457000DF936C01990FEE08FF08F7FE17C08DE27C
:104580000E94790FEC0166277727CB016C197D0912
:104590008E099F094AE00E9469228C0F9D1FDF91BE
:1045A000CF91FF90EF90DF90CF9008954AE0C70140
:1045B000B601DF91CF91FF90EF90DF90CF900C94F8
:1045C0006922CF93DF930E94B322EC010E94D71E91
:1045D0008C0F9D1FDF91CF910895CF93DF930097AC
:1045E00061F460E0809173030E945F1010925104A7
:1045F00010925004DF91CF910895209102053091DF
:104600000305281739070CF49C01C0910405D091CB
:1046100005052C173D070CF4E901D0935104C09314
:10462000500484EE97E00E945E0F80910405909103
:1046300005050E94E12285ED97E00E945E0F8091C2
:104640000205909103050E94E12280EC97E00E9410
:104650005E0FCE010E94E1222FEF30E0DE010E94CA
:104660000A7D2091040530910505032E000C440BB2
:10467000550B0E947178D0E0C0E057FD09C0E901F8
:104680002F3F31054105510519F014F0CFEFD0E06F
:104690008EEA97E00E945E0FCE010E94E122809197
:1046A0004F04882341F0BE01809173030E94C9101A
:1046B00081E090E09FCF60E0809173030E945F10E3
:1046C00090E080E097CFCF93811105C083E596E01D
:1046D000CF910C94DB1EC82F8BE496E00E945E0FF6
:1046E000C330D1F090F489E396E0C23089F38EEACA
:1046F00095E00E945E0F6C2F70E090E080E04AE051
:104700000E946922CF910C94D71EC73041F08AEEE7
:1047100095E0CD30E9F2EBCF87E296E0D9CF80EC9F
:1047200095E0D6CF4F925F926F927F928F929F9239
:10473000AF92BF92CF92DF92EF92FF920F931F93AF
:10474000CF936B017C01742EAC019B010E94667CAF
:10475000882399F08FE592E0CF911F910F91FF9000
:10476000EF90DF90CF90BF90AF909F908F907F9011
:104770006F905F904F900C94CA1E46015701E894C9
:10478000B7F82FEF3FEF4FE75FE7C501B4010E9495
:10479000667C81110DC02FEF3FEF4FE75FE7C5014A
:1047A000B4010E94347718161CF483E692E0D4CF4B
:1047B0002FEF3FEF4FE75FE4C701B6010E94157B83
:1047C00018161CF487E692E0C7CF2FEF3FEF4FE7B4
:1047D0005FECC701B6010E94347787FDF3CF20E07C
:1047E00030E0A901C701B6010E94347710E000E073
:1047F00087FF08C08DE20E94790F8C01F7FAF094D0
:10480000F7F8F094C0E060E070E080E09FE37C1691
:1048100041F020E030E040E251E40E94D379CF5FE4
:10482000F6CFA70196010E94D5782B013C010E948A
:104830004C7A4B015C014AE00E9469227C01E00E47
:10484000F11ECC2399F1C501B4010E9439779B0177
:10485000AC01C301B2010E94D4784B015C018EE22D
:104860000E94790FE80EF91EC15000F120E030E0FF
:1048700040E251E4C501B4010E949A772B013C014A
:104880000E944C7A4B01CB010E94AD22E80EF91E2A
:10489000B40190E080E00E9439779B01AC01C30134
:1048A000B2010E94D4784B015C01DECFC701CF91E9
:1048B0001F910F91FF90EF90DF90CF90BF90AF903E
:1048C0009F908F907F906F905F904F9008950C9481
:1048D0009223CF92DF92EF92FF920F931F93CF9389
:1048E000DF93EC01CB01BA017901A90198010E9483
:1048F000D47844E050E00E94672484EC9AE00E945F
:104900005E0FFE01E454FF4F6081718182819381CB
:10491000E35BFF4F0190F081E02D208131814281E6
:1049200053810E949A77A70198010E94D47844E0AD
:1049300050E00E94672482EC9AE00E945E0FFE0124
:10494000E054FF4F608171818281938144E050E0A7
:104950000E94672480EC9AE00E945E0FFE01EF59EE
:10496000FF4F608171818281938144E050E00E9419
:1049700067248EEB9AE00E945E0FC55BDF4F888153
:104980009981DF91CF911F910F91FF90EF90DF9070
:10499000CF900C94E122CF93DF9342E00E949223C8
:1049A000EC010E94D71E8C0F9D1FDF91CF910895BF
:1049B000CF93DF930E94CA1EEC010E94D71E8C0F7A
:1049C0009D1FDF91CF9108952F923F924F925F925A
:1049D0006F927F928F929F92AF92BF92CF92DF920F
:1049E000EF92FF920F931F93CF93DF9300D01F920C
:1049F000CDB7DEB71B018A01FC0140805180628087
:104A00007380C090B305D090B405E090B505F090E8
:104A1000B605A3019201C301B2010E949A774B012E
:104A20005C01A7019601C701B6010E949A779B011C
:104A3000AC01C501B4010E94D4780E94FD7B69835A
:104A40007A838B839C83F801608171818281938159
:104A50000E94EF7B4B015C01A701960169817A817D
:104A60008B819C810E94D3796B017C012091C305CD
:104A70003091C4054091C5055091C605C301B201EE
:104A80000E94D5782B013C01EFEAF5E020813181CD
:104A900042815381C501B4010E949A779B01AC0108
:104AA000C301B2010E94D478F10120813181428199
:104AB00053810E94D3799B01AC01C701B6010E94CA
:104AC000D4780F900F900F900F90DF91CF911F919E
:104AD0000F91FF90EF90DF90CF90BF90AF909F909D
:104AE0008F907F906F905F904F903F902F900895A0
:104AF0004F925F926F927F928F929F92AF92BF92EE
:104B0000CF92DF92EF92FF920F931F93CF93DF9399
:104B1000CFEAD5E08DEC9CECACE4BEEB89A39AA384
:104B2000ABA3BCA300E614E0F80180889188A288BA
:104B3000B38820E030E040E05FE3C501B4010E94AB
:104B40009A77F801C488D588E688F7889B01AC017C
:104B50000E949A772B013C01A7019601C701B6017B
:104B60000E949A779B01AC01C301B2010E94D578E3
:104B70000E94FD7B688379838A839B83A7019601CA
:104B8000C701B6010E94D578A50194010E94D3798E
:104B90000E949F796B017C01CDAADEAAEFAAF8AE34
:104BA0002DEC3CEC4CE45EE30E94D57869AF7AAF23
:104BB0008BAF9CAF2DEC3CEC4CE45EE3C701B6013F
:104BC0000E94D4786093EC057093ED058093EE0518
:104BD0009093EF0520E030E040E05FE3F801608172
:104BE0007181828193810E949A77688779878A8709
:104BF0009B8720E030E040E05FE3F801648175814D
:104C0000868197810E949A776B017C01CC86DD8634
:104C1000EE86FF8620E030E040E05FE3F80160854B
:104C20007185828593850E949A77688F798F8A8FA4
:104C30009B8FA7019601F801648575858685978508
:104C40000E94D5786C8F7D8F8E8F9F8FDF91CF9153
:104C50001F910F91FF90EF90DF90CF90BF90AF909A
:104C60009F908F907F906F905F904F9008952F92BC
:104C70003F924F925F926F927F928F929F92AF92EC
:104C8000BF92CF92DF92EF92FF920F931F93CF9339
:104C9000DF93CDB7DEB7CE56D1090FB6F894DEBF9D
:104CA0000FBECDBF698F798B8D8B99A32DA339ABA7
:104CB00049A75DA76B961FAF0EAF6B976D96FFAEC2
:104CC000EEAE6D972091B30529873091B4053D87ED
:104CD0002090B5053090B60510917C04113011F08C
:104CE0000C948C3020916C0430916D0440916E04D2
:104CF00050916F046091BB057091BC058091BD051A
:104D00009091BE050E94D5782DA139A949A55DA530
:104D10000E94D4786DA37EA38FA398A76093C30548
:104D20007093C4058093C5059093C605809168046F
:104D300090916904A0916A04B0916B0489AB9AAB1D
:104D4000ABABBCAB20E030E040E05FE3BC01CD01A9
:104D50000E949A776B017C01AC019B01698D798976
:104D60008D8999A10E94D5784B015C018092BF0585
:104D70009092C005A092C105B092C205AC019B0102
:104D8000C701B6010E94347787FFBEC7A501940111
:104D900069A97AA98BA99CA90E94D4786093BF05C0
:104DA0007093C0058093C1059093C2051093CF0501
:104DB0002091BF053091C0054091C1055091C205B9
:104DC000298F3A8F4B8F5C8F6DA17EA18FA198A503
:104DD0000E94D3794B015C018092D4059092D50555
:104DE000A092D605B092D705298D3A8D4B8D5C8D5A
:104DF00069A97AA98BA99CA90E94D4789B01AC01CE
:104E00006DA17EA18FA198A50E94D3796B017C0131
:104E1000C092D805D092D905E092DA05F092DB0570
:104E2000A5019401C501B4010E949A7720E030E009
:104E300040E85FE30E94D5780E94FD7B29853D858F
:104E4000A1010E949A776093DC057093DD05809341
:104E5000DE059093DF05A7019601C701B6010E9408
:104E60009A7720E030E040E85FE30E94D5780E9426
:104E7000FD7B29853D85A1010E949A776093E0051D
:104E80007093E1058093E2059093E3053BE02E9655
:104E90003FAF2E978091D0059091D105A091D2057A
:104EA000B091D30589A39AA3ABA3BCA39C01AD0188
:104EB000CD01B9010E949A774B015C012FE632E1E6
:104EC00043E85AE369A17AA18BA19CA10E94D578FD
:104ED0006B017C01AC019B010E949A7721966CAF1B
:104EE0007DAF8EAF9FAF21972091E8053091E90506
:104EF0004091EA055091EB05298B3A8B4B8B5C8BEB
:104F0000CA01B9010E949A776DA77EA78FA798ABB7
:104F10009B01AC0169897A898B899C890E949A7767
:104F200025966CAF7DAF8EAF9FAF25974090EC0577
:104F30005090ED056090EE057090EF05A301920191
:104F4000C301B2010E949A776D8F7E8F8F8F98A3D5
:104F50009B01AC01C301B2010E949A7729966CAF04
:104F60007DAF8EAF9FAF29972FE632E143E85AE33A
:104F700069897A898B899C890E94D4786D8B7E8B14
:104F80008F8B988F9B01AC010E949A776DAB7EABA3
:104F90008FAB98AF9B01AC016D897E898F89988D0D
:104FA0000E949A772D966CAF7DAF8EAF9FAF2D97F5
:104FB0002FE632E143E85AE3C301B2010E94D578FB
:104FC00069A77AA78BA79CA79B01AC010E949A773F
:104FD00069AF7AAF8BAF9CAF9B01AC0169A57AA595
:104FE0008BA59CA50E949A7765966CAF7DAF8EAF1E
:104FF0009FAF6597A501940169A17AA18BA19CA19E
:105000000E949A7728E73AE745E25EEB0E949A779A
:1050100069966CAF7DAF8EAF9FAF699727E230EA9C
:1050200049E05BE3C501B4010E949A779B01AC01A2
:1050300069966CAD7DAD8EAD9FAD69970E94D478B9
:105040004B015C012EE836E040E85FE369A17AA1FC
:105050008BA19CA10E949A779B01AC01C501B40170
:105060000E94D57860935C0670935D0680935E061F
:1050700090935F0621962CAD3DAD4EAD5FAD21976F
:10508000C701B6010E949A7728E73AE745E25EEB4E
:105090000E949A774B015C0127E230EA49E05BE32A
:1050A00021966CAD7DAD8EAD9FAD21970E949A7714
:1050B0009B01AC01C501B4010E94D4784B015C0195
:1050C0002EE836E040E85FE3C701B6010E949A7718
:1050D0009B01AC01C501B4010E94D57860936006C4
:1050E0007093610680936206909363062EEE3BEE0A
:1050F00040EC5DEB25966CAD7DAD8EAD9FAD2597FB
:105100000E949A776B017C012DE435E14CE05EE36F
:105110006DA57EA58FA598A90E949A779B01AC01E9
:10512000C701B6010E94D4786B017C012DE13AE5FC
:105130004CE85FE369897A898B899C890E949A7718
:105140009B01AC01C701B6010E94D5782DE53DE673
:1051500045EC5CE30E94D478A5966CAF7DAF8EAF32
:105160009FAFA59760933C0670933D0680933E06E3
:1051700090933F0623E83FE24CE05EE325966CAD5A
:105180007DAD8EAD9FAD25970E949A776B017C0116
:105190002DEE3DE04EE25FE36DA57EA58FA598A9BB
:1051A0000E949A779B01AC01C701B6010E94D47896
:1051B0006B017C0121ED31E94CED5DE369897A8970
:1051C0008B899C890E949A779B01AC01C701B6012B
:1051D0000E94D5782CEE30EC49E75FE30E94D57849
:1051E0006DA77EA78FA798AB60934006709341068A
:1051F000809342069093430626E031E845E15EEB5A
:1052000029966CAD7DAD8EAD9FAD29970E949A77A2
:105210006B017C0125EE31E641EA5CE36D8D7E8D0C
:105220008F8D98A10E949A779B01AC01C701B601AE
:105230000E94D4786B017C0123ED3EED40E85FE3F2
:10524000C301B2010E949A779B01AC01C701B6016C
:105250000E94D57827E137EB41E55AE30E94D478E4
:10526000A9966CAF7DAF8EAF9FAFA99760934406B0
:105270007093450680934606909347062CE933E3E6
:1052800042EA5DE329966CAD7DAD8EAD9FAD299769
:105290000E949A776B017C0126E73FE44EE05FE3D2
:1052A0006D8D7E8D8F8D98A10E949A779B01AC01A8
:1052B000C701B6010E94D4786B017C012DE435E171
:1052C0004CE85CE3C301B2010E949A779B01AC01F8
:1052D000C701B6010E94D5782BE733E84FE75FE3BB
:1052E0000E94D5782B013C01409248065092490615
:1052F00060924A0670924B062EEE3BEE40EC5DEB60
:105300002D966CAD7DAD8EAD9FAD2D970E949A7799
:105310006B017C012DE435E14CE05EE36DA97EA9D3
:105320008FA998AD0E949A779B01AC01C701B60185
:105330000E94D4786B017C012DE13AE54CE85FE3F3
:105340006D897E898F89988D0E949A779B01AC0127
:10535000C701B6010E94D5782DE53DE645EC5CE33A
:105360000E94D47860934C0670934D0680934E064D
:1053700090934F0623E83FE24CE05EE32D966CAD40
:105380007DAD8EAD9FAD2D970E949A776B017C010C
:105390002DEE3DE04EE25FE36DA97EA98FA998ADA9
:1053A0000E949A779B01AC01C701B6010E94D47894
:1053B0006B017C0121ED31E94CED5DE36D897E8966
:1053C0008F89988D0E949A779B01AC01C701B60125
:1053D0000E94D5782CEE30EC49E75FE30E94D57847
:1053E0006D8F7E8F8F8F98A36093500670935106B8
:1053F000809352069093530626E031E845E15EEB38
:1054000065966CAD7DAD8EAD9FAD65970E949A7728
:105410006B017C0125EE31E641EA5CE369AD7AADD2
:105420008BAD9CAD0E949A779B01AC01C701B60180
:105430000E94D4786B017C0123ED3EED40E85FE3F0
:1054400069A57AA58BA59CA50E949A779B01AC01C2
:10545000C701B6010E94D57827E137EB41E55AE351
:105460000E94D47860935406709355068093560634
:10547000909357062CE933E342EA5DE365966CAD01
:105480007DAD8EAD9FAD65970E949A776B017C01D3
:1054900026E73FE44EE05FE369AD7AAD8BAD9CADAE
:1054A0000E949A779B01AC01C701B6010E94D47893
:1054B0006B017C012DE435E14CE85CE369A57AA53C
:1054C0008BA59CA50E949A779B01AC01C701B601F0
:1054D0000E94D5782BE733E84FE75FE30E94D57849
:1054E0006DAB7EAB8FAB98AF609358067093590647
:1054F00080935A0690935B0668E4C62E66E0D62E2B
:1055000074E4E72E76E0F72E00E416E02CE336E0B4
:105510004CE556E060EE75E08CED95E00E943A0CAB
:105520004B015C01DC01CB01B058809320069093C5
:105530002106A0932206B09323068091AF05909197
:10554000B005A091B105B091B205898B9A8BAB8B58
:10555000BC8B2DA53EA54FA558A9BC01CD010E942D
:105560009A772D966CAF7DAF8EAF9FAF2D979B0135
:10557000AC01698D7A8D8B8D9C8D0E94D47869A742
:105580007AA78BA79CA769837A838B839C834CE340
:1055900056E0BE016F5F7F4F8CED95E00E94E424E2
:1055A0006D8B7E8B8F8B988FDC01CB01B0588093F5
:1055B000240690932506A0932606B0932706A30100
:1055C000920169897A898B899C890E949A7765966C
:1055D0006CAF7DAF8EAF9FAF65979B01AC01698DBE
:1055E0007A8D8B8D9C8D0E94D5789B01AC0169A929
:1055F0007AA98BA99CA90E94D4786DA77EA78FA7B2
:1056000098AB69837A838B839C83A701BE016F5F0C
:105610007F4F80EE95E00E94E4242B013C01DC01E9
:10562000CB01B0588093280690932906A0932A06B0
:10563000B0932B0620E030E0A901C501B4010E941F
:10564000347787FF64C32FE632E143E85AEBC501A4
:10565000B4010E94157B18160CF463C328E5C22E12
:1056600026E0D22E34E5E32E36E0F32E00E516E0F8
:105670002CE436E040E656E060EE75E08CED95E017
:105680000E943A0CA50194010E94D4782FE632E1E1
:1056900043E85AE30E94D3796093F0057093F105D3
:1056A0008093F2059093F3052091DC053091DD05A0
:1056B0004091DE055091DF0569962CAF3DAF4EAFAE
:1056C0005FAF69972AE037ED43E25CE369966CAD22
:1056D0007DAD8EAD9FAD69970E94D57869AF7AAFE9
:1056E0008BAF9CAF69837A838B839C8348E4C42E01
:1056F00046E0D42E54E4E52E56E0F52E00E416E004
:105700002CE336E04CE556E060EE75E0CE01019604
:105710000E943A0CA50194010E94D4782AE037ED4A
:1057200043E25CE30E94D3796093F4057093F5053E
:105730008093F6059093F7058091E0059091E1053F
:10574000A091E205B091E305A1968CAF9DAFAEAFFD
:10575000BFAFA1972AE037ED43E25CE3BC01CD0186
:105760000E94D57821966CAF7DAF8EAF9FAF219709
:1057700069837A838B839C832CE336E04CE556E087
:10578000BE016F5F7F4F8CED95E00E943A0CA50142
:1057900094010E94D4782AE037ED43E25CE30E9452
:1057A000D3796093F8057093F9058093FA05909387
:1057B000FB052D8D3E8D4F8D58A169897A898B8986
:1057C0009C890E949A779B01AC01698D7A8D8B8DA3
:1057D0009C8D0E94D47869837A838B839C834CE46C
:1057E00056E0BE016F5F7F4F8CED95E00E94E42490
:1057F0002D893E894F89588D0E94D4782FE632E159
:1058000043E85AE30E94D3796093FC057093FD0549
:105810008093FE059093FF0529A53AA54BA55CA5AD
:105820002D833E834F83588789AD9AADABADBCAD18
:1058300089839A83AB83BC834CE356E0BE016B5FE4
:105840007F4FCE0101960E94E4242D893E894F8925
:10585000588D0E94D4782AE037ED43E25CE30E9441
:10586000D3796093000670930106809302069093AB
:105870000306109204061092050610920606109276
:1058800007062DA93EA94FA958AD69897A898B8948
:105890009C890E949A77298D3A8D4B8D5C8D0E9450
:1058A000D5789B01AC0169A97AA98BA99CA90E9412
:1058B000D4786B017C01C982DA82EB82FC8244E5F8
:1058C00056E0BE016F5F7F4F80EE95E00E94E424BA
:1058D000A30192010E94D4782FE632E143E85AE313
:1058E0000E94D379609308067093090680930A0694
:1058F00090930B0610920C0610920D0610920E0655
:1059000010920F06CD82DE82EF82F88621962CADB2
:105910003DAD4EAD5FAD219729833A834B835C83C8
:1059200044E456E0BE016B5F7F4FCE0101960E94BA
:10593000E424A30192010E94D4782AE037ED43E2E7
:105940005CE30E94D37960931006709311068093F4
:1059500012069093130648EF55E05E8B4D8B80E165
:1059600096E09AAF89AFA8E1B0E0BEAFADAFE2E09C
:10597000F0E0FE8FED8F4D8D5E8D4F5F5F4FAB96EC
:105980005FAF4EAFAB9780E296E023969FAF8EAFAE
:105990002397AD89BE892796BFAFAEAF279794E016
:1059A000692E712C1EAA1DAAEDADFEAD3897AF96DB
:1059B000FFAFEEAFAF97A9ADBAAD2D913D914D912F
:1059C0005C912796EEADFFAD279760817181828152
:1059D00093810E94D3796B017C0184EF482E85E08E
:1059E000582E4618570801E010E0D2018D909D9086
:1059F000AD90BD902D01FD013497AD96FFAFEEAF98
:105A0000AD97F301EA0FFB1FAF962EAD3FADAF97F9
:105A1000E20FF31F2081318142815381C701B6011A
:105A20000E949A779B01AC01C501B4010E94D47811
:105A3000AD96AEADBFADAD976D937D938D939C93B9
:105A400013970F5F1F4FAB96EEADFFADAB97E0170F
:105A5000F1075CF62396AEADBFAD23978D909D9078
:105A6000AD90BD902396BFAFAEAF23978D0104508C
:105A70001109ED89FE8920A931A942A953A9C701BD
:105A8000B6010E949A779B01AC01C501B4010E9446
:105A9000D478D8016D937D938D939C931397EDA942
:105AA000FEA93196FEABEDAB27962EAD3FAD279705
:105AB000245F3F4F27963FAF2EAF27973CE0631AF6
:105AC00071084D8D5E8D4E175F0709F074CF8DAD57
:105AD0009EAD0C979EAF8DAFAD89BE891497BE8BDE
