:100000000C94D1090C9406580C94DB570C94B057FF
:100010000C9485570C945A570C942F570C940457F2
:100020000C94D9560C94020A0C94020A0C94020AFD
:100030000C94020A0C94020A0C94020A0C94020A10
:100040000C94020A0C94BB580C94020A0C94020AF9
:100050000C94E9580C94020A0C94020A0C948F56E2
:100060000C94020A0C9459560C942F560C94020AC4
:100070000C94020A0C94020A0C94020A0C94020AD0
:100080000C948D580C94020A0C94020A0C94020AE7
:100090000C94020A0C94020A0C94020A0C94020AB0
:1000A0000C94020A0C94020A0C945F580C94020AF5
:1000B0000C94020A0C94020A0C94020A0C94315813
:1000C0000C94020A0C94020A0C94020A0C94020A80
:1000D0000C94020A0C94020A0C94020A0C94020A70
:1000E0000C94020A036EDB363D9A9999993DABAAAE
:1000F000AA2A3E000000803F084AD73B3BCE016E53
:1001000084BCBFFDC12F3D6C74319ABD56833DDA6E
:100110003D00C77F11BED9E4BB4C3E916BAAAABE7D
:10012000000000803F072C7AA5BA6CC590DA3B939B
:1001300065FC8BBC53F810FD3C5692834DBD879DEA
:100140003AB63DCBC9BF5BBE73DA0FC93F05A84CB9
:10015000CDB2D44EB93836A9020C50B99186880870
:100160003CA6AAAA2ABE000000803F0664EC1B3C05
:1001700004BC163E3BE5B93CC93C37C29E5A3D66BD
:100180000498083EEA69AAAA3E000000803F0C9449
:100190001D0D0C94630D0C94C85F0C94450E0C94CB
:1001A00051610C94CF1C0C94DB610C9495600C9401
:1001B000825F0C94600F0C94800E0C946B620C9414
:1001C0008A600C94C40C0C940C620C94D00D0C94AA
:1001D000BF5F0C94980F0C94720E0C94D2610C9427
:1001E000631C0C942B0D0C94680E0C94DC600C9426
:1001F00032600C94510E0C944C620C94C9610C94B6
:10020000AD5F0C94E4610C94DA5F0C94B71C0C9411
:1002100027600C941C600C946C0E0C94090D0C94CB
:10022000E15F0C948E0F0C94FF610C947F0E0C9484
:100230005B0F0C943F0E0C94FA0C0C94F91E0C946A
:10024000B0600C94740F0C946A0F0C945C1C0C94AA
:10025000A20F0C943C590C9475610C94BD600C94E5
:1002600023100C947E610C94BD1C0C94C50F0C944F
:100270002B640C94C31C0C94BB0F0C9487610C94DE
:100280005A610C94ED0F0C947E0F0C945E620C94EA
:10029000D15F0C945E0E0C947A0E0C94D90F0C94D2
:1002A00063610C94640E0C94760E0C94EA5F0C94CB
:1002B000CF0F0C94530F0C94ED610C946C610C9463
:1002C00048610C94E30F0C94B65F0C94971C0C944B
:1002D000C91C0C9478620C9403610C947D1C0C94E2
:1002E000860F0C94B11C0C94A45F0C9469600C9460
:1002F0005A0E0C94C0610C94840E0C94F35B0C9415
:10030000A5600C94540E0C94AC0F0C94490E0C94F4
:10031000F6610C943D1C0C944D0E4E414E494E49D5
:100320005459494E46CDCCCC3D0AD7233C17B7D1C2
:100330003877CC2B329595E6241FB14F0A00002068
:10034000410000C84200401C4620BCBE4CCA1B0EE7
:100350005AAEC59D7400407A10F35A00A0724E1830
:10036000090010A5D4E80000E87648170000E40B67
:1003700054020000CA9A3B000000E1F5050000802D
:10038000969800000040420F000000A08601000087
:1003900000102700000000E80300000000640000D7
:1003A0000000000A00000000000100000000002C16
:1003B00076D888DC674F0823DFC1DFAE59E1B1B7DB
:1003C00096E5E3E453C63AE651997696E8E6C284A8
:1003D00026EB898C9B62ED407C6FFCEFBC9C9F40C0
:1003E000F2BAA56FA5F490055A2AF75C936B6CF9E5
:1003F000676DC11BFCE0E40D47FEF520E6B500D0BB
:10040000ED902E0300943577050080841E080000CF
:10041000204E0A000000C80C333333330F986E129D
:10042000831141EF8D2114893BE65516CFFEE6DBA3
:1004300018D1844B381BF77C1D901DA4BBE42420ED
:100440003284725E228100C9F124ECA1E53D273C93
:1004500049646C652C4D506F733A302C302C302C25
:1004600057506F733A302E3030302C302E303030C1
:100470002C302E3030303E00446972656374696FF1
:100480006E2032202D204661696C004469726563DC
:1004900074696F6E2032202D2050617373003C49C7
:1004A000646C652C4D506F733A302C302C302C57C7
:1004B000506F733A302E3030302C302E3030302C9C
:1004C000302E3030303E00446972656374696F6E5F
:1004D0002031202D204661696C0044697265637487
:1004E000696F6E2031202D2050617373003C496488
:1004F0006C652C4D506F733A302C302C302C57508B
:100500006F733A302E3030302C302E3030302C306B
:100510002E3030303E00206D6F746F723A0054659B
:100520007374696E672000206D6D0020696E002B6A
:10053000004D6573736167653A20506C6561736542
:100540002061646A757374205A2D41786973207430
:100550006F2061206465707468206F662000496EAA
:1005600076616C69642067636F64652049443A0072
:10057000454550524F4D2072656164206661696C3B
:100580002E205573696E672064656661756C7420F2
:1005900073657474696E67732E00506C6561736562
:1005A00020736574202431322C202431332C2024F4
:1005B00031392C20616E642024323020746F206C1D
:1005C0006F6164206F6C6420706F736974696F6E03
:1005D00020646174612E00496E76616C69642073D9
:1005E000746174656D656E7400426164206E756D32
:1005F00062657220666F726D6174006572726F72EF
:100600003A20006F6B00506C6561736520736574F0
:10061000202431322C202431332C202431392C2039
:10062000616E642024323020746F206C6F6164200E
:10063000706F736974696F6E2E004F6C6420706FF9
:10064000736974696F6E2064617461206465746598
:10065000637465642E005475726E696E6720537002
:10066000696E646C65204F6666005475726E696EC3
:1006700067205370696E646C65204F6E005475720C
:100680006E696E67205370696E646C65204F666694
:10069000005475726E696E67205370696E646C6584
:1006A000204F6E005475726E696E67205370696ECC
:1006B000646C65204F6666005475726E696E6720C3
:1006C0005370696E646C65204F6E006D6D004D65F2
:1006D00061737572696E67206F75742072696768DF
:1006E0007420636861696E006D6D004D656173759E
:1006F00072696E67206F7574206C6566742063681C
:1007000061696E004D61736C6F7720506175736520
:10071000640028456E64206F6620427566666572C7
:1007200029005C74005C72005C6E00427566666550
:100730007220436F6E74656E74733A200042756662
:1007400066657220456E643A200042756666657281
:1007500020426567696E3A200042756666657220C0
:100760004E756D626572206F66204C696E65733AD6
:10077000200042756666657220557365643A2000F4
:10078000427566666572206F766572666C6F77215A
:100790000054686520736C6564206973206E6F7403
:1007A000206B656570696E67207570207769746865
:1007B0002069747320657870656374656420706F58
:1007C000736974696F6E20616E642068617320685C
:1007D000616C7465642E20436C69636B207468657A
:1007E000202753746F702720627574746F6E2074A5
:1007F0006F20636C6561722074686520616C617242
:100800006D2E204D6F726520696E666F726D61741A
:10081000696F6E2061743A2068747470733A2F2F78
:100820006769746875622E636F6D2F4D61736C6FAD
:1008300077434E432F4669726D776172652F7769F2
:100840006B692F4B656570696E672D5570202000B0
:10085000414C41524D3A20005D005B50453A002C1E
:1008600057506F733A302E3030302C302E303030BD
:100870002C302E3030303E002C002C0049646C654A
:100880002C4D506F733A0050617573652C4D506F4D
:10089000733A0053746F702C4D506F733A003C00E4
:1008A0002C002C002C002C007265616479004772CA
:1008B000626C2076312E303000204465746563749C
:1008C00065640020544C4535323036200050434298
:1008D0002076312E0000002100240027002A002D60
:1008E000003000330001010000040107010A01008B
:1008F000002200250028002B002E003100340002C9
:10090000010000050108010B0100000A0B02090C9F
:100910000D0E0807030401000000000000000000A5
:1009200000000000000000000000000000000000C7
:100930000000000000121110000000000000000084
:100940000000000000000000000000000000005453
:100950006F6F6C206368616E676520746F20746FC1
:100960006F6C200020746F6F2073686F7274202D7D
:100970002069676E6F7265642E00436F6D6D616EE6
:1009800064200020756E737570706F7274656420DA
:10099000616E642069676E6F7265642E00436F6DCF
:1009A0006D616E64204D00546F6F6C204368616E02
:1009B00067653A20506C6561736520696E73657276
:1009C0007420746F6F6C20004669726D7761726578
:1009D0002056657273696F6E200020005265737433
:1009E0006F72696E672064656661756C7473004D23
:1009F0006573736167653A20002028706F736974AE
:100A0000696F6E206572726F7220616C61726D2009
:100A10006C696D69742C206D6D29002028636861F4
:100A2000696E20746F6C6572616E63652C207269EB
:100A300067687420636861696E2C206D6D290D0AEA
:100A40002434323D002028636861696E20746F6C25
:100A50006572616E63652C206C65667420636861E5
:100A6000696E2C206D6D290D0A2434313D0020283B
:100A700050574D206672657175656E637920766199
:100A80006C756520313D33392C303030487A2C205C
:100A9000323D342C313030487A2C20333D343930DB
:100AA000487A290D0A2434303D00202863686169A2
:100AB0006E206F766572207370726F636B65742938
:100AC0000D0A2433393D002028636861696E207364
:100AD000616720636F7272656374696F6E207661FF
:100AE0006C7565290D0A2433383D0020287A206171
:100AF0007869732056656C6F636974792070726FC2
:100B0000706F7274696F6E616C2077656967687465
:100B1000290D0A2433373D0020287A206178697333
:100B2000204B642056656C6F63697479290D0A2423
:100B300033363D0020287A2061786973204B692084
:100B400056656C6F63697479290D0A2433353D004D
:100B500020287A2061786973204B702056656C6F6D
:100B600063697479290D0A2433343D0020287A20E2
:100B70006178697320506F732070726F706F727438
:100B8000696F6E616C20776569676874290D0A2446
:100B900033333D0020287A2061786973204B64202C
:100BA000506F73290D0A2433323D0020287A2061CA
:100BB000786973204B6920506F73290D0A243331F3
:100BC0003D0020287A2061786973204B7020506F97
:100BD00073290D0A2433303D0020286D61696E2091
:100BE00056656C6F636974792070726F706F727480
:100BF000696F6E616C20776569676874290D0A24D6
:100C000032393D0020286D61696E204B64205665A5
:100C10006C6F63697479290D0A2432383D002028ED
:100C20006D61696E204B692056656C6F63697479DC
:100C3000290D0A2432373D0020286D61696E204B52
:100C4000702056656C6F63697479290D0A243236F9
:100C50003D0020286D61696E20506F732070726FA7
:100C6000706F7274696F6E616C2077656967687404
:100C7000290D0A2432353D0020286D61696E204B14
:100C80006420506F73290D0A2432343D0020286DF2
:100C900061696E204B6920506F73290D0A2432332D
:100CA0003D0020286D61696E204B7020506F7329C4
:100CB0000D0A2432323D0020287A206178697320A1
:100CC000737465707320706572207265766F6C75D1
:100CD00074696F6E290D0A2432313D0020287A2074
:100CE000617869732064697374616E6365202F2075
:100CF000726F746174696F6E290D0A2432303D0081
:100D000020286D6178207A20617869732052504DD7
:100D1000290D0A2431393D0020286175746F207334
:100D200070696E646C6520656E61626C6520313D32
:100D3000736572766F2C20323D72656C61795F68E5
:100D40002C20333D72656C61795F6C290D0A24316A
:100D5000383D0020284175746F205A20417869730E
:100D60002C2031203D20596573290D0A2431373D4F
:100D70000020286D617820666565642C206D6D2FDC
:100D80006D696E290D0A2431363D0020286469738F
:100D900074616E6365202F20726F746174696F6E69
:100DA0002C206D6D290D0A2431353D0020286D6100
:100DB000696E207374657073207065722072657639
:100DC0006F6C7574696F6E290D0A2431333D0020F4
:100DD0002863616C6962726174696F6E2063686117
:100DE000696E206C656E6774682C206D6D290D0A24
:100DF0002431323D00202866756C6C206C656E676E
:100E00007468206F6620636861696E2C206D6D299F
:100E10000D0A2431313D002028617869732069640E
:100E20006C65206265666F726520646574616368D5
:100E30002C206D73290D0A2431303D002028726F5B
:100E4000746174696F6E207261646975732C206DB2
:100E50006D290D0A24393D0020284B696E656D61AE
:100E600074696373205479706520313D51756164F4
:100E700072696C61746572616C2C20323D547269C8
:100E8000616E67756C6172290D0A24383D00202857
:100E9000736C65642063672C206D6D290D0A2437FF
:100EA0003D002028736C6564206865696768742C50
:100EB000206D6D290D0A24363D002028736C656471
:100EC0002077696474682C206D6D290D0A24353DE6
:100ED0000020286D6F746F72206865696768742CD4
:100EE000206D6D290D0A24343D0020286D6F746F2C
:100EF000722064697374616E63652C206D6D290DB9
:100F00000A24333D0020286D616368696E6520689E
:100F100065696768742C206D6D290D0A24323D00C7
:100F200020286D616368696E652077696474682C38
:100F3000206D6D290D0A24313D0024303D00212013
:100F4000286665656420686F6C6429007E202863CC
:100F500079636C65207374617274290024783D761E
:100F6000616C7565202873617665204D61736C6FC7
:100F7000772073657474696E6729002424202876AD
:100F8000696577204D61736C6F7720736574746940
:100F90006E6773290020697320696E76616C6964DD
:100FA0002E204F6E6C79204733382E3220726563C5
:100FB0006F676E697A65642E004733380065727218
:100FC0006F723A2070726F626520646964206E6F80
:100FD0007420636F6E6E6563740A70726F677261FE
:100FE0006D2073746F707065640A7A20617869731C
:100FF000206E6F74207365740A007A2061786973BB
:10100000207A65726F656400206D6D2070657220B6
:101010006D696E2E006665656472617465200020DE
:101020006D6D2E006D6178206465707468200070AD
:10103000726F62696E6720666F72207A20617869CC
:1010400073207A65726F004733382E322067636FE2
:101050006465206F6E6C792076616C6964207769B5
:101060007468207A2D617869732061747461636893
:10107000656400206D732E00207365636F6E64736A
:10108000006477656C6C2074696D65200020756E56
:10109000737570706F7274656420616E6420696727
:1010A0006E6F7265642E00436F6D6D616E642047D4
:1010B000002D2D5049442056656C6F63697479206A
:1010C000546573742053746F702D2D0A007365740A
:1010D000706F696E742C696E7075742C6F75747096
:1010E0007574002D2D5049442056656C6F636974EA
:1010F0007920546573742053746172742D2D002D02
:101100002D50494420506F736974696F6E20546587
:1011100073742053746F702D2D0A00736574706F93
:10112000696E742C696E7075742C6F75747075743B
:101130002C72706D696E7075742C766F6C7461674B
:1011400065002D2D50494420506F736974696F6E8E
:1011500020546573742053746172742D2D002D2DED
:10116000566F6C7461676520546573742053746F97
:10117000702D2D0A000A002C002D2D566F6C746105
:10118000676520546573742053746172742D2D004B
:101190005D005B4D6561737572653A20004D657346
:1011A000736167653A20546865206D616368696E94
:1011B0006520636861696E73206861766520626589
:1011C000656E206D616E75616C6C792072652D6342
:1011D000616C696272617465642E006D6D005269A4
:1011E0006768743A20006D6D004C6566743A2000A3
:1011F0006D6D0052696768743A20006D6D004C6532
:1012000066743A200053657474696E6720436861A0
:10121000696E204C656E6774687320546F3A2000C5
:10122000546573747320636F6D706C6574652E0004
:101230004D6F746F722043616C6962726174696F83
:101240006E204E6F74204E656564656400202E200C
:10125000506C6561736520736574207468652063E4
:101260006861696E7320746F2061206B6E6F776E9A
:10127000206C656E6774682028416374696F6E73B3
:10128000202D3E2053657420436861696E204C65B3
:101290006E6774687329004D6573736167653A20E2
:1012A000556E61626C6520746F2066696E6420768D
:1012B000616C6964206D616368696E6520706F732D
:1012C0006974696F6E20666F7220636861696E2051
:1012D0006C656E6774687320005B466F727761722D
:1012E000642043616C63756C6174696E6720506F34
:1012F000736974696F6E5D00010210202008081088
:101300002040102040800201020108040201010275
:10131000040810204080804020100804020180044E
:1013200002018040201008040201080402010102A9
:1013300004081020408001020408102040800000B2
:1013400020002300260029002C002F00320000017D
:101350000000030106010901050505050705080848
:101360000808020202020A0A08080404040401012F
:101370000101010101010303030303030303040744
:1013800007070C0C0C0C0C0C0C0C020202020606DB
:101390000606060606060B0B0B0B0B0B0B0B3C593C
:1013A0002B6411241FBECFEFD1E2DEBFCDBF00E022
:1013B0000CBF13E0A0E0B2E0EAEAFEED00E00BBFF4
:1013C00002C007900D92A432B107D9F729E0A4E238
:1013D000B3E001C01D92A93DB207E1F719E0C0EDED
:1013E000D9E000E006C021970109802FFE010E948C
:1013F000C46CCF3CD10780E00807A9F70E94125ABD
:101400000C94436F0C940000CF93DF9380914F09AD
:1014100090915009C0915109D091520930E020E0DB
:10142000E0E8F0E0C817D90771F0DC01A15BB64F26
:1014300014964C914A3011F42F5F3F4F0196BF0133
:101440000E94B06CEFCFC901DF91CF9108952F9228
:101450003F924F925F926F927F928F929F92AF9244
:10146000BF92CF92DF92EF92FF920F931F93CF9391
:10147000DF93CDB7DEB768970FB6F894DEBF0FBE27
:10148000CDBF988F8F8B1B015E8B4D8BE5EBF4E00E
:1014900080819181A281B38189839A83AB83BC834C
:1014A000D8018D919D910D90BC91A02D8D839E832F
:1014B000AF83B887D6018D919D910D90BC91A02DE1
:1014C00089879A87AB87BC87D9018D919D910D90B3
:1014D000BC91A02D8D879E87AF87B88BD7018D914A
:1014E0009D910D90BC91A02D898B9A8BAB8BBC8B61
:1014F00084889588A688B7884088518862887388D0
:101500002D853E854F85588969817A818B819C81A3
:101510000E948B689B01AC01C501B4010E94C569A2
:10152000EF89F88D20813181428153810E94C66903
:101530006B017C012D813E814F81588569817A81C3
:101540008B819C810E948B689B01AC01C301B2011D
:101550000E94C5699B01AC01C701B6010E94C46A23
:101560006B017C0129893A894B895C8969817A817F
:101570008B819C810E948B689B01AC01C501B401E9
:101580000E94C569D1012D913D914D915C910E94C0
:10159000C6694B015C0129853A854B855C8569816B
:1015A0007A818B819C810E948B68A30192010E94A9
:1015B000C6699B01AC0160918C0370918D03809191
:1015C0008E0390918F030E94C5699B01AC01C501F8
:1015D000B4010E94C46A4B015C01A70196016D81B0
:1015E0007E818F8198850E948B682B013C01A5012B
:1015F000940169857A858B859C850E948B689B0107
:10160000AC01C301B2010E94C5692B013C012D85CB
:101610003E854F85588969897A898B899C890E9482
:10162000C5699B01AC01C301B2010E94C6692B01CF
:101630003C01A5019401C701B6010E94C6699B0146
:10164000AC0169817A818B819C810E94C46A9B0173
:10165000AC01C301B2010E948B686B017C01ED8972
:10166000FE89208131814281538160919C03709178
:101670009D0380919E0390919F030E948B689B0124
:10168000AC01C701B6010E94C66968960FB6F8940E
:10169000DEBF0FBECDBFDF91CF911F910F91FF90A5
:1016A000EF90DF90CF90BF90AF909F908F907F9002
:1016B0006F905F904F903F902F9008958F929F92E0
:1016C000AF92BF92FF920F931F93CF93DF93F0904F
:1016D00040092FE22F1508F44CC02091420908E57B
:1016E00012E0021B110927FD1395000F111F000FB7
:1016F000111F20914109C8E8D0E0C21BD10927FD84
:10170000D395CC0FDD1FCC0FDD1F4E010D2E000C2D
:10171000AA08BB089801012E000C440B550B281990
:1017200039094A095B09DC010E948C6924EB30E02D
:1017300040E050E00E946269820E931EA41EB51E16
:101740008C169D062CF0E801801691060CF4E4013D
:101750002297CC0FDD1F2FB7F8948F2D90E0FC015E
:10176000EE0FFF1FE80FF91FE155F74FD283C1833A
:101770002FBFDF91CF911F910F91FF90BF90AF903E
:101780009F908F900895FC01248135816217730723
:1017900048F480819181009729F0860F971FFC0102
:1017A0008081089580E008952F923F924F925F923A
:1017B0006F927F928F929F92AF92BF92CF92DF9261
:1017C000EF92FF920F931F93CF93DF9300D01F925E
:1017D000CDB7DEB79C838B831B01EB81FC8110812D
:1017E000E12EF12CB70189E499E00E94C30B20910E
:1017F0004D0930914E09803241F4E216F30628F487
:101800001F5FEB81FC811083E8CF812C412C512C90
:1018100080E8682E8FE3782EC12CD12C7601912C94
:101820001982EB81FC81F081FA830F2F10E0A090E8
:101830004D09B0904E09B80189E499E00E94C30BAC
:10184000E82F0A151B0580F58D3209F476C08E321B
:1018500009F476C080ED8E0F8A3008F58394AAE0F3
:10186000B0E0A70196010E948169CE2EEE0FDD083F
:10187000EE08FF08C60ED71EE81EF91E80E3C81A40
:10188000D108E108F108992051F02DEC3CEC4CEC2A
:101890005DE3C301B2010E948B682B013C018A8188
:1018A0008F5FEB81FC818083EB81FC81008110E004
:1018B000B80189E499E00E94C30B80330CF443C063
:1018C0008A330CF445C060E070E0CB018820F1F071
:1018D000F981FF2341F0F094E094D094C094C11CAE
:1018E000D11CE11CF11CC701B6010E942C68992093
:1018F00021F0A30192010E948B68F1016083718342
:101900008283938360E070E080E89FE30F900F9004
:101910000F900F90DF91CF911F910F91FF90EF905B
:10192000DF90CF90BF90AF909F908F907F906F90FF
:101930005F904F903F902F900895E1E0E983AFCF03
:1019400099249394ACCF8E3209F0BDCF9110BBCFC8
:1019500080914D0990914E090817190708F461CF3D
:10196000B2CFFC01248135816217730720F4808196
:101970009181009729F41092530383E593E0089531
:10198000860F971F08950895AF92BF92CF92DF926E
:10199000EF92FF920F931F93CF93DF936C017B0124
:1019A0008B01040F151FEB015E01AE18BF08C017B5
:1019B000D10759F06991D601ED91FC910190F08128
:1019C000E02DC6011995892B79F7C501DF91CF91DB
:1019D0001F910F91FF90EF90DF90CF90BF90AF904D
:1019E0000895FC01448155816081718188E194E012
:1019F0000C94C40CFC01538D448D252F30E0842FB2
:101A000090E0821B930B541710F0CF960895019726
:101A10000895FC01918D828D981761F0A28DAE0F13
:101A2000BF2FB11D5D968C91928D9F5F9F73928F9A
:101A300090E008958FEF9FEF0895FC01918D828DC6
:101A4000981731F0828DE80FF11D858D90E0089593
:101A50008FEF9FEF0895FC01918D228D892F90E0EB
:101A6000805C9F4F821B91098F739927089588E1AD
:101A700094E00E942B0D21E0892B09F420E0822FB5
:101A80000895FC01A48DA80FB92FB11DA35ABF4F13
:101A90002C91848D90E001968F739927848FA6896D
:101AA000B7892C93A089B1898C91837080648C93C1
:101AB000938D848D981306C00288F389E02D808170
:101AC0008F7D80830895EF92FF920F931F93CF93A2
:101AD000DF93EC0181E0888F9B8D8C8D98131AC069
:101AE000E889F989808185FF15C09FB7F894EE8950
:101AF000FF896083E889F9898081837080648083AD
:101B00009FBF81E090E0DF91CF911F910F91FF90F7
:101B1000EF900895F62E0B8D10E00F5F1F4F0F739F
:101B20001127E02E8C8D8E110CC00FB607FCFACF5A
:101B3000E889F989808185FFF5CFCE010E94410DAA
:101B4000F1CFEB8DEC0FFD2FF11DE35AFF4FF0822B
:101B50009FB7F8940B8FEA89FB8980818062CFCF91
:101B60000F931F93CF93DF938C01D0E0C0E0F80177
:101B7000EC0FFD1F6491662341F088E194E00E9420
:101B8000630D892B11F02196F2CFCE01DF91CF9119
:101B90001F910F910895682F88E194E00C94630DD4
:101BA000CF93DF93EC01888D8823B9F0AA89BB8994
:101BB000E889F9898C9185FD03C0808186FD0DC07F
:101BC0000FB607FCF7CF8C9185FFF2CF808185FFA0
:101BD000EDCFCE010E94410DE9CFDF91CF91089565
:101BE00080E090E0892B29F00E94370D81110E943E
:101BF000000080E090E0892B49F080E090E0892BA4
:101C000029F00E94000081110E94000080E090E015
:101C1000892B49F080E090E0892B29F00E94000098
:101C200081110E94000080E090E0892B49F080E063
:101C300090E0892B29F00E94000081110C94000093
:101C400008958150823108F05AC0E82FF0E08827CB
:101C5000E35DF14F8F4F0C94C46C4D0E510E3F0E4F
:101C6000450E490E7F0E540E5A0E5E0E640E680E1F
:101C70006C0E720E760E7F0E7A0E800E840E8091A0
:101C800080008F77809380000895809180008F7D01
:101C9000F9CF80918000877FF5CF84B58F7784BDA1
:101CA000089584B58F7DFBCF8091B0008F778093AE
:101CB000B00008958091B0008F7DF9CF80919000A1
:101CC0008F77809390000895809190008F7DF9CF59
:101CD00080919000877FF5CF8091A0008F778093CF
:101CE000A00008958091A0008F7DF9CF8091A00081
:101CF000877FF5CF809120018F7780932001089511
:101D0000809120018F7DF9CF80912001877FF5CFD1
:101D1000CF93DF93282F30E0F901E75FF64F8491EE
:101D2000F901E850FD4ED491F901E85AFC4EC491F6
:101D3000CC23A1F081110E94210EEC2FF0E0EE0FD8
:101D4000FF1FE25CFC4EA591B491EC91ED2381E084
:101D500090E009F480E0DF91CF91089580E090E079
:101D6000FACF1F93CF93DF93282F30E0F901E75F7D
:101D7000F64F8491F901E850FD4ED491F901E85AEB
:101D8000FC4EC491CC23A9F0162F81110E94210E84
:101D9000EC2FF0E0EE0FFF1FE151F74FA591B4914A
:101DA0008FB7F894EC91111108C0D095DE23DC9325
:101DB0008FBFDF91CF911F910895DE2BF8CFCF9386
:101DC000DF9390E0FC01E850FD4E2491885A9C4E30
:101DD000FC0184918823C9F090E0880F991FFC01D1
:101DE000EB52F74FA591B491FC01E151F74FC5912A
:101DF000D49161110DC09FB7F8948C9120958223E6
:101E00008C938881282328839FBFDF91CF910895E9
:101E1000623051F49FB7F8943C91822F80958323D0
:101E20008C93E8812E2BEFCF8FB7F894EC912E2B6B
:101E30002C938FBFEACF1F93CF93DF93182FEB0123
:101E400061E00E94DF0E209739F460E0812FDF917E
:101E5000CF911F910C94B10ECF3FD10511F461E0E9
:101E6000F5CFE12FF0E0E75FF64FE491E150E2318A
:101E700008F0B3C0F0E08827EF5BF04F8F4F0C9471
:101E8000C46C530F5B0F600F6A0F740FED0F7E0F62
:101E9000860F8E0F980FA20FAC0FBB0FC50FED0F63
:101EA000CF0FD90FE30F84B5806884BDC7BDDF9124
:101EB000CF911F91089584B5806284BDC8BDF7CFCE
:101EC00080918000806880938000D0938900C093C7
:101ED0008800EDCF80918000806280938000D09355
:101EE0008B00C0938A00E3CF80918000886080934C
:101EF0008000D0938D00C0938C00D9CF8091B0002A
:101F000080688093B000C093B300D1CF8091B000BF
:101F100080628093B000C093B400C9CF80919000DC
:101F2000806880939000D0939900C0939800BFCFB1
:101F300080919000806280939000D0939B00C0932A
:101F40009A00B5CF80919000886080939000D093E4
:101F50009D00C0939C00ABCF8091A00080688093CF
:101F6000A0008091A0008F7B8093A000D093A90057
:101F7000C093A8009CCF8091A00080628093A000B5
:101F8000D093AB00C093AA0092CF8091A00088604C
:101F90008093A000D093AD00C093AC0088CF809117
:101FA0002001806880932001D0932901C0932801EB
:101FB0007ECF80912001806280932001D0932B01FD
:101FC000C0932A0174CF8091200188608093200102
:101FD000D0932D01C0932C016ACFC038D1050CF0ED
:101FE0003ECF33CF3FB7F89480914F039091500389
:101FF000A0915103B091520326B5A89B05C02F3F75
:1020000019F00196A11DB11D3FBFBA2FA92F982F1E
:102010008827BC01CD01620F711D811D911D42E019
:10202000660F771F881F991F4A95D1F708952FB71C
:10203000F89460914B0370914C0380914D03909103
:102040004E032FBF08950895AF92BF92CF92DF92B3
:10205000EF92FF920F931F93CF93DF936B017A015F
:10206000EC01CA5BDC4F28813CE0389F8001399F3E
:10207000100D1124A0903F09B12C27FF1FC0FB01B8
:102080001182108288818F5F888388819801280F50
:10209000311D87FD3A95F6012A153B051CF4888110
:1020A0008C30C4F180819181049680349C4908F47D
:1020B00073C0F60180819181049670C08881980177
:1020C000280F311D87FD3A952A153B05DCF68881DE
:1020D000A801480F511D87FD5A95FA01EE0FFF1F09
:1020E000E40FF51FE155F74F808186FFCBCF888144
:1020F000F801E80FF11D87FDFA95CF01EE0FFF1FE4
:10210000E80FF91FE155F74F808160E08F730E945F
:10211000B10EB8CF808191812881A801420F511D55
:1021200027FD5A959A01FA01EE0FFF1FE20FF31FE8
:10213000E155F74F21813281820F931FF70191837F
:10214000808388819801280F311D87FD3A95F90118
:10215000EE0FFF1FE20FF31FE155F74F808186FF5F
:1021600022C08881080F111D87FD1A95F801EE0F16
:10217000FF1FE00FF11FE155F74F808161E08F7382
:10218000DF91CF911F910F91FF90EF90DF90CF9053
:10219000BF90AF900C94B10E80E49CE9F70191835D
:1021A00080838FEF8883DF91CF911F910F91FF90F4
:1021B000EF90DF90CF90BF90AF9008952091B10045
:1021C000287F2093B10020919100287F20939100D7
:1021D0002091A100287F2093A1008330910594F0E5
:1021E0003091B10021E0280F232B2093B100909172
:1021F0009100982B909391009091A100892B80934E
:10220000A10008952091B100282BEFCFAF92BF928B
:10221000CF92DF92EF92FF920F931F93CF93DF93B2
:1022200062E086E10E94DF0E62E087E10E94DF0E3D
:1022300062E088E10E94DF0E62E089E10E94DF0E29
:1022400062E08AE10E94DF0E62E08BE10E94DF0E15
:102250008BE10E94880EEC018AE10E94880E5C01ED
:1022600089E10E94880E6C0188E10E94880E7C0141
:1022700087E10E94880E8C0186E10E94880E9E01F3
:10228000220F331F2A0D3B1D220F331F2C0D3D1D26
:10229000220F331F2E0D3F1D220F331F200F311F22
:1022A000220F331F820F931F84339105D9F07CF4E2
:1022B00084309105B9F00197DF91CF911F910F9173
:1022C000FF90EF90DF90CF90BF90AF9008959C016A
:1022D0002D5331092330310570F7837099271092FF
:1022E0001704E9CF8770992721E020931704E3CFE3
:1022F00088E194E00C94090D88E194E00C942B0D96
:10230000CF93DF9388E194E00E94630DEC0188E1B4
:1023100094E00E94D00DCE01DF91CF91089590E01E
:1023200080E008954F925F926F927F928F929F927A
:10233000AF92BF92CF92DF92EF92FF92CF93DF9353
:10234000CDB7DEB72E970FB6F894DEBF0FBECDBF68
:102350009E878D87DC019096ED91FC918081918123
:10236000A281B38189839A83AB83BC83AD85BE850B
:102370009496ED91FC916081718182819381298194
:102380003A814B815C810E94C5694B015C01ED85FE
:10239000FE8526A537A540A951A969817A818B813F
:1023A0009C810E94C5696B017C01AD85BE855496F8
:1023B0002D913D914D915C915797C501B4010E94BB
:1023C0008B68ED85FE8522A533A544A555A50E9401
:1023D000C6692B013C01AD85BE859A964D925D92F2
:1023E0006D927C929D9711968C9111978823B1F0F4
:1023F00016962D913D914D915C911997C701B601AB
:102400000E948B689B01AC01C301B2010E94C569A7
:10241000ED85FE8562A773A784A795A7AD85BE85C8
:102420009A968D919D910D90BC91A02D8D839E8348
:10243000AF83B887ED85FE8542AC53AC64AC75AC18
:10244000A3019201BC01CD010E94066CAD85BE8541
:1024500018160CF075C09A964D925D926D927C9212
:102460009D97AD85BE858C91882309F488C012960E
:102470002D913D914D915C911597C501B4010E943C
:102480008B684B015C01ED85FE85208D318D428D81
:10249000538DC701B6010E948B689B01AC01AD85CD
:1024A000BE859A966D917D918D919C919D970E948C
:1024B000C569A50194010E94C6696B017C019B015D
:1024C000AC01C301B2010E94256887FD10C0ED85F3
:1024D000FE8546A857A860AC71ACA3019201B60175
:1024E000C7010E94256887FD02C026013701AD851E
:1024F000BE859296ED91FC914082518262827382F8
:1025000089819A81AB81BC81ED85FE8586A797A7DD
:10251000A0ABB1AB81E02E960FB6F894DEBF0FBE34
:10252000CDBFDF91CF91FF90EF90DF90CF90BF9024
:10253000AF909F908F907F906F905F904F90089595
:10254000D6968D919D910D90BC91A02D89879A87EB
:10255000AB87BC879C01AD016D817E818F819885A1
:102560000E94256887FF7DCF89859A85AB85BC85CC
:10257000ED85FE8582A793A7A4A7B5A772CF812C6E
:10258000912C540180CF8F929F92AF92BF92CF92A5
:10259000DF92EF92FF92CF93DF93EC01EAA1FBA1D0
:1025A000C080D180E280F380CAA6DBA6ECA6FDA69F
:1025B000E8A1F9A180819181A281B3818EA79FA713
:1025C000A8ABB9AB8AAC9BACACACBDACA5019401DB
:1025D000C701B6010E94066C18162CF48AA69BA6A9
:1025E000ACA6BDA60CC08EA89FA8A8ACB9ACA5018E
:1025F0009401C701B6010E94256887FDEFCFDF91E6
:10260000CF91FF90EF90DF90CF90BF90AF909F90D1
:102610008F9008958F929F92AF92BF92CF92DF9248
:10262000EF92FF920F931F93CF93DF93EC018A01F8
:10263000FB01C080D180E280F380FA0120813181EA
:1026400042815381C701B6010E94066C87FF5CC0BE
:10265000CEAADFAAE8AEF9AEF8016081718182816D
:1026600093816AAF7BAF8CAF9DAF2EAD222309F46F
:102670004BC00AA11BA1F801208131814281538105
:102680000E94256887FF1EC08AAD9BADACADBDAD75
:10269000F80180839183A283B3838AA49BA4ACA412
:1026A000BDA4CAACDBACECACFDACA7019601C50186
:1026B000B4010E94066C1816DCF4CAA6DBA6ECA6D0
:1026C000FDA622C0F8012081318142815381C701DA
:1026D000B6010E94066C18162CF48EA99FA9A8AD0D
:1026E000B9ADD6CFF80180819181A281B381D0CFDD
:1026F000CEA8DFA8E8ACF9ACA7019601C501B401EA
:102700000E94256887FDD9CFDF91CF911F910F914E
:10271000FF90EF90DF90CF90BF90AF909F908F9001
:1027200008952F923F924F925F926F927F928F9275
:102730009F92AF92BF92CF92DF92EF92FF920F9350
:102740001F93CF93DF93CDB7DEB72C970FB6F894D6
:10275000DEBF0FBECDBF9C878B877A8369835A8784
:1027600049871901DB018D919D910D90BC91A02DA0
:102770008D839E83AF83B88720E030E0A901BC0140
:10278000CD010E94256887FDEFC0E985FA85C080EC
:10279000D180E280F38020E030E0A901C701B601DA
:1027A0000E94256887FDE0C0D1018D909D90AD907D
:1027B000BC9020E030E0A901C501B4010E94256869
:1027C00087FDD2C0F801408051806280738020E094
:1027D00030E0A901C301B2010E94256887FDC4C091
:1027E00020E030E040E85FE3C301B2010E94066CE4
:1027F00018160CF4B9C011E020E030E0A901C301C3
:10280000B2010E94066C18160CF010E0AB85BC8576
:102810001C9320E030E040E85FE3C301B2010E9476
:102820002568881F8827881FEB85FC85818389811F
:102830009A8193878287A985BA85B587A4873786C9
:10284000268662A973A984A995A90E942A6820E016
:1028500030E04AE754E40E94C46A69837A838B8338
:102860009C838D819E81AF81B885EB85FC85808BB3
:10287000918BA28BB38B29813A814B815C81C701FB
:10288000B6010E948B686B017C01AB85BC855496B8
:10289000CD92DD92ED92FC92579729813A814B813E
:1028A0005C81C501B4010E94C46A4B015C01EB85E7
:1028B000FC85808E918EA28EB38E848D958D01972E
:1028C00069F52D813E814F81588560E070E0CB0134
:1028D0000E94C569AB85BC8550966D937D938D93A1
:1028E0009C935397A701960160E070E0CB010E9492
:1028F000C569EB85FC85648B758B868B978BA501F1
:10290000940160E070E0CB010E94C569AB85BC8595
:1029100058966D937D938D939C935B97EB85FC8587
:10292000C088D188E288F388A7019601C301B2016B
:102930000E948B68AB85BC8512966D937D938D93B9
:102940009C931597A301920160E070E080E89FE3FB
:102950000E94C569A70196010E948B68EB85FC85E2
:1029600066837783808791872C960FB6F894DEBFB5
:102970000FBECDBFDF91CF911F910F91FF90EF90D0
:10298000DF90CF90BF90AF909F908F907F906F908F
:102990005F904F903F902F9008956F927F928F920B
:1029A0009F92AF92BF92CF92DF92EF92FF920F93DE
:1029B0001F93CF93DF93CDB7DEB73C01C8018501EC
:1029C000F30153A342A371A360A335A324A316AEBE
:1029D00016AA17AA10AE11AE40E050E06FE773E4FC
:1029E00042AF53AF64AF75AF44E650E060E070E0D3
:1029F00042AB53AB64AB75ABF40120813181F30181
:102A0000358F248F9601A701BC01C3010E94911349
:102A10000E941710F30102A913A924A935A9601B6C
:102A2000710B820B930B66A377A380A791A7DF910D
:102A3000CF911F910F91FF90EF90DF90CF90BF90BB
:102A4000AF909F908F907F906F900895823109F49E
:102A500068C030F48230E1F0833069F180E008959D
:102A60008431D9F108F44BC08531C1F77093290343
:102A70006093280383EC9CE1909305028093040209
:102A8000809169008C7F816080936900E89A11C011
:102A900070932503609324038FEC9CE190930102D3
:102AA0008093000280916A008C7F816080936A002D
:102AB000EC9A81E00895709327036093260389ECD4
:102AC0009CE1909303028093020280916A00837FCD
:102AD000846080936A00ED9AECCF70932B0360932F
:102AE0002A038DEB9CE1909307028093060280916C
:102AF0006900837F846080936900E99ADACF7093DC
:102B00002D0360932C0387EB9CE190930902809343
:102B10000802809169008F7C806180936900EA9A45
:102B2000C8CF70932F0360932E0381EB9CE19093A9
:102B30000B0280930A02809169008F7380648093F6
:102B40006900EB9AB6CF0F931F93CF93DF93EC01FD
:102B50008E81811103C0442309F4A8C08B016F3F0B
:102B6000710519F014F00FEF10E001308FEF180726
:102B700014F401E01FEF18AF0FAB17FF03C011955E
:102B8000019511098A819B818430910539F041E0DA
:102B90009C012B5031092330310508F440E02C8191
:102BA0003D812430310529F051E0F9013B973397FD
:102BB00008F450E0E0911704E11148C0E881F98180
:102BC000E430F10521F03B97339708F064C0161606
:102BD0001706C4F0411132C0B801822F0E941B0FAA
:102BE00060E08A8128C061E00E94B10E60E08C81C3
:102BF0000E94B10EB8018881DF91CF911F910F9192
:102C00000C941B0F552391F061E00E94B10E6FEF01
:102C100070E0601B710B8C810E941B0F61E088814A
:102C2000DF91CF911F910F910C94B10EB8010E94CA
:102C30001B0F60E08C810E94B10EF0CF6FEF70E04F
:102C4000601B710B0E941B0F61E0F4CF1616170674
:102C50008CF4552349F061E00E94B10E6FEF70E0F3
:102C6000601B710B8C81C8CFB8010E941B0F60E004
:102C70008C81D6CF442341F06FEF70E0601B710B65
:102C80000E941B0F61E0F4CFB801822F0E941B0F3E
:102C900060E08A81C5CF161617060CF4A4CF61E058
:102CA000822F0E94B10E60E08A81A2CFDF91CF9186
:102CB0001F910F9108952F923F924F925F926F92C2
:102CC0007F928F929F92AF92BF92CF92DF92EF92BC
:102CD000FF920F931F93CF93DF93CDB7DEB7A097EB
:102CE0000FB6F894DEBF0FBECDBF3C012B014A01E9
:102CF0003A8F298FD8A2CF8E15011D8A1E8A1F8A6E
:102D0000188E80E090E0A0E8BFE3898B9A8BAB8BB4
:102D1000BC8B930128533F4F3C8F2B8FCE014596A0
:102D2000F90191838083225031093E8F2D8FF90163
:102D300091838083329791838083F701E080F180D3
:102D4000F8010081118162E0802F0E94DF0E62E0B5
:102D50008E2D0E94DF0EA8015527FA01E85AFC4E7D
:102D6000E491F0E0EE0FFF1FE25CFC4E2591349100
:102D7000F3013183208348505D4EFA014491F30101
:102D80004483C7019927FC01E85AFC4EE491F0E026
:102D9000EE0FFF1FE25CFC4EA591B491F301B383EB
:102DA000A28388509D4EFC018491F3018583178294
:102DB000108611861286EBE3FFE13197F1F7F901F6
:102DC0009081492391E009F490E0EC91E82309F027
:102DD0009260F3019683B301802F0E942615F301C0
:102DE000838BB3018E2D0E942615F3019389890FE1
:102DF000838B1D861E861F86188A80E090E0A0E8DF
:102E0000BFE389879A87AB87BC87830102551F4F31
:102E1000CE010D96F8019183808332979183808350
:102E20003297918380837301F4E1EF0EF11CF2017C
:102E300080819181F301848B958BF4012081318114
:102E4000F301378B268BE98DFA8D20813181F301D7
:102E5000318F208F128E90911704911166C161E01D
:102E60000E94DF0E61E0F30186890E94DF0E61E0BF
:102E7000F301808D0E94DF0E61E0F30186890E94DC
:102E8000B10E60E0F301808D0E94B10E60E0F301AD
:102E900084890E94B10E40E070E060E0C7010E94AA
:102EA000A3152301FBE64F0E511C1A821982F8016B
:102EB000C080D180F301E455FF4FE080F18032976C
:102EC000008111819E012F5F3F4F4901CE0109967C
:102ED0005C019301235B3F4FA30149595F4FB3014D
:102EE0006F5A7F4FC2010E94CD14F20186AD81114D
:102EF00003C0C2010E94C31281E0F20186AF80E0EC
:102F000090E0AFE7B3E489839A83AB83BC8380E02E
:102F100090E0AFE7B3EC8D839E83AF83B887AE01BB
:102F20004F5F5F4FBE016B5F7F4FC2010E940A136C
:102F3000F101608171818281938128EE33E040E06C
:102F400050E00E94946912161306C4F56901330F0C
:102F5000EE08FF08C701B6010E942C684B015C0116
:102F6000F20162A973A984A995A90E942A689B010C
:102F7000AC01C501B4010E94C46A4B015C01AC0103
:102F80009B01F20164897589868997890E948B6803
:102F9000F201648B758B868B978BA5019401608DF4
:102FA000718D828D938D0E94C46AF201608F718F42
:102FB000828F938FC2AAD3AAE4AAF5AA2301FAECBE
:102FC0004F0E511C81E090E09A838983EB8DFC8D3C
:102FD000C080D180ED8DFE8DE080F180F301EC5357
:102FE000FF4F008111819E012F5F3F4F4901CE01AC
:102FF00041965C01930128543F4FA30140545F4F19
:10300000B30164547F4FC2010E94CD14EF8DF8A12B
:1030100080818301025F1E4FF8018083F20186AD3B
:10302000811103C0C2010E94C31281E0F20186AF88
:1030300080E090E0A0EAB1E489839A83AB83BC830B
:1030400080E090E0A0EAB1EC8D839E83AF83B887E7
:10305000AE014F5F5F4FBE016B5F7F4FC2010E94A9
:103060000A13F101608171818281938128EE33E03E
:1030700040E050E00E94946912161306C4F56901FD
:10308000330FEE08FF08C701B6010E942C684B0100
:103090005C01F20162A973A984A995A90E942A681A
:1030A0009B01AC01C501B4010E94C46A4B015C01E3
:1030B000AC019B01F20164897589868997890E9418
:1030C0008B68F201648B758B868B978BA5019401BD
:1030D000608D718D828D938D0E94C46AF201608F24
:1030E000718F828F938FC2AAD3AAE4AAF5AAF301A3
:1030F000EB59FF4F11830083A0960FB6F894DEBF03
:103100000FBECDBFDF91CF911F910F91FF90EF9038
:10311000DF90CF90BF90AF909F908F907F906F90F7
:103120005F904F903F902F90089560E00E94DF0ED7
:1031300061E0F30186890E94DF0E61E0F301808D7A
:103140000E94DF0E60E0F30186890E94B10E60E00C
:10315000F301808D9ECECF93DF93EC011E828A8196
:103160009091170491110DC061E00E94B10E60E0D2
:103170008C810E94B10E60E08881DF91CF910C9428
:10318000B10E60E00E94B10E60E08C81F6CF0F932B
:103190001F93CF93DF93EC018B010E941710FE0168
:1031A000EC54FF4F6083718382839383EB5AFF4F0C
:1031B0000190F081E02D2081318142815381F8011D
:1031C00060817181828193810E94C46AC854DF4FFB
:1031D000688379838A839B83DF91CF911F910F91BD
:1031E00008950F931F93CF93DF93EC010E94171064
:1031F000FE01EC54FF4F0081118122813381AB012C
:10320000BC01401B510B620B730B8091A503909185
:10321000A603B0E0A0E084179507A607B70740F41F
:10322000CE014496DF91CF911F910F910C94AB1872
:10323000DF91CF911F910F9108956F927F928F929E
:103240009F92AF92BF92CF92DF92EF92FF920F9335
:103250001F93CF93DF93CDB7DEB73C01FC01EC5356
:10326000FF4F71836083329651834083329631835E
:10327000208386539F4F0E949113F301E655FF4F21
:10328000F182E0823296D182C0823296B182A082EF
:1032900084019501A601B701C30185599F4F0E9482
:1032A0009113DF91CF911F910F91FF90EF90DF90DD
:1032B000CF90BF90AF909F908F907F906F90089528
:1032C0002F923F924F925F926F927F928F929F9236
:1032D000AF92BF92CF92DF92EF92FF920F931F9324
:1032E000CF93DF93CDB7DEB7A5970FB6F894DEBFC7
:1032F0000FBECDBF0E940611009709F042C082E1C7
:1033000090E09E838D8383E190E098878F8389E0AE
:1033100090E09A8B898B88E090E09C8B8B8B86E089
:1033200090E09E8F8D8F82E090E09A87898783E07E
:1033300090E09C878B878BE090E09E8B8D8B8AE062
:1033400090E0988F8F8B87E090E098A38F8F85E136
:1033500090E09E878D8784E190E0988B8F878CE04A
:1033600090E09A8F898F8DE090E09C8F8B8F85E025
:1033700090E09AA389A3BEE02B2E312C80E18CA390
:1033800045C08130910509F017C184E190E09E832A
:103390008D8385E190E098878F8386E090E09A8B1B
:1033A000898B84E090E09C8B8B8B85E090E09E8FF6
:1033B0008D8F83E190E09A87898782E190E09C87F6
:1033C0008B8789E090E09E8B8D8B87E090E0988FD3
:1033D0008F8B88E090E098A38F8F82E090E09E87AB
:1033E0008D8783E090E0988B8F878AE090E09A8FBA
:1033F000898F8BE090E09C8F8B8F8CE090E09AA37C
:1034000089A30EE0202E312C90E19CA31DA211E196
:10341000412E512C80910804E0E16E2EE7E27E2ED1
:10342000812C912C69827A828B829C82813009F076
:1034300047C18CE48BA3CE0101965C0182966C019E
:1034400046977C018E01015F1F4F9E01275E3F4F13
:10345000AE01455E5F4FBE016F5D7F4F80EA97E032
:103460000E945B1669827A828B829C8282E58BA3A2
:10347000C6014C977C010A5011099E012D5E3F4FF9
:10348000AE014F5E5F4FBE01635E7F4F81E996E004
:103490000E945B1680E197E2A0E0B0E089839A8306
:1034A000AB83BC838AE58BA3CE0101965C01829637
:1034B0006C014A977C018E01055F1F4F9E01295EBA
:1034C0003F4FAE014B5E5F4FBE01615E7F4F82E8B2
:1034D00095E00E945B1680EE882E83E0982E9CED8E
:1034E000A92E93E0B92E28EDC22E23E0D22E34ED82
:1034F000E32E33E0F32E00ED13E02CEC33E048EC48
:1035000053E064EC73E080EA97E00E941D192CEC14
:1035100033E048EC53E064EC73E081E996E00E940C
:103520001D1940E0842E44E0942E5CEFA52E53E05C
:10353000B52E68EFC62E63E0D62E74EFE72E73E04B
:10354000F72E00EF13E02CEE33E048EE53E064EE8C
:1035500073E082E895E00E941D1950923203409278
:10356000310330925703209256039CA19093540349
:103570008DA18093550361E0892F0E94DF0E60E0EA
:103580008CA10E94B10EA5960FB6F894DEBF0FBEB7
:10359000CDBFDF91CF911F910F91FF90EF90DF9002
:1035A000CF90BF90AF909F908F907F906F905F90E3
:1035B0004F903F902F90089582309105C9F524E1F6
:1035C00030E03E832D8325E130E038872F8324E0EF
:1035D00030E03A8B298B26E030E03C8B2B8B25E0CA
:1035E00030E03E8F2D8F23E130E03A87298722E1BA
:1035F00030E03C872B8727E030E03E8B2D8B29E0A5
:1036000030E0388F2F8B28E030E038A32F8F9E8753
:103610008D8783E090E0988B8F878BE090E09A8F86
:10362000898F8CE090E09C8F8B8F8AE090E0A1CE18
:103630008330910509F0EECE24E130E03E832D8306
:1036400025E130E038872F8326E030E03A8B298B64
:1036500024E030E03C8B2B8B25E030E03E8F2D8F3B
:1036600023E130E03A87298722E130E03C872B874D
:1036700027E030E03E8B2D8B29E030E0388F2F8B18
:1036800028E030E038A32F8F22E030E03E872D87FE
:10369000988B8F878AE090E09A8F898F8BE090E0FB
:1036A0009C8F8B8F8CE090E09AA389A3FBE22F2E56
:1036B000312C99E29CA31DA2A8E24A2E512CAACE3D
:1036C0008CE48BA3CE0101965C0182966C01449739
:1036D0007C018E01035F1F4F9E01255E3F4FAE01AF
:1036E000475E5F4FBE016F5D7F4F80EA97E00E94AB
:1036F0005B1669827A828B829C8282E58BA3C601EB
:103700004E977C01065011099E012F5E3F4FAE017E
:103710004D5E5F4FB8CECF92DF92EF92FF92CF9384
:10372000DF93EC01FB01C080D180E280F380C70110
:10373000B6010E942C68FE01E55FFE4F0190F0810A
:10374000E02D20813181428153810E94C46AFE01B3
:10375000E854FF4F6083718382839383F894CF8210
:10376000D886E986FA867894DF91CF91FF90EF9022
:10377000DF90CF9008958F929F92AF92BF92CF9299
:10378000DF92EF92FF92CF93DF93EC01FB018080F9
:103790009180A280B380FC01E75FFE4F0190F08131
:1037A000E02DC080D180E280F380A7019601C501A1
:1037B000B4010E94C46AFE01E854FF4F6083718324
:1037C00082839383ED5AFF4F0190F081E02D208199
:1037D000318142815381C501B4010E948B68A701E8
:1037E00096010E94C46A0E94366BF8946F837887B2
:1037F00089879A877894DF91CF91FF90EF90DF903F
:10380000CF90BF90AF909F908F900895CF92DF920E
:10381000EF92FF92CF93DF93EC01E881F9819081E1
:10382000EA81FB8180812D818223EE81E3702C81EE
:10383000922309F0E4608111E8608E2F90E0959565
:103840008795959587958E83E150EE3008F034C0CA
:10385000F0E08827E15DF34E8F4F0C94C46C3D1C63
:10386000631C7D1C631C5C1C971C3D1C3D1C971C31
:103870005C1C631C7D1C631C3D1C8F819885A98585
:10388000BA850196A11DB11D8F839887A987BA8734
:103890000E94F20FCF84D888E988FA886C197D09D4
:1038A0008E099F096B877C878D879E870E94F20F08
:1038B0006F87788B898B9A8BDF91CF91FF90EF90F8
:1038C000DF90CF9008958F819885A985BA8501975B
:1038D000A109B1098F839887A987BA87CF84D8882F
:1038E000E988FA880E94F20FC61AD70AE80AF90A8C
:1038F000CB86DC86ED86FE86D9CF8F819885A9851B
:10390000BA850296A11DB11D8F839887A987BA87B2
:103910000E94F20FCF84D888E988FA886C197D0953
:103920008E099F099695879577956795BBCF8F816F
:103930009885A985BA850297A109B1098F839887CF
:10394000A987BA87CF84D888E988FA880E94F20FBD
:10395000C61AD70AE80AF90AF694E794D794C794E6
:10396000C7CF80912E0390912F030C94061C809159
:103970002C0390912D030C94061C80912A039091A6
:103980002B030C94061C80912803909129030C941E
:10399000061C80912603909127030C94061C8091AD
:1039A0002403909125030C94061CCF93DF93EC0124
:1039B0008B89823060F4F894CE010E94061C6F81DE
:1039C000788589859A857894DF91CF910895F894C8
:1039D000F6CF2F923F924F925F926F927F928F928B
:1039E0009F92AF92BF92CF92DF92EF92FF920F938E
:1039F0001F93CF93DF9300D000D01F921F92CDB7BB
:103A0000DEB798878F830E94D51C0E942C6869833B
:103A10007A838B839C830E94F20F0E942A682B0179
:103A20003C012F80388425E5220E311CF1012081D4
:103A300031814281538169817A818B819C810E948D
:103A4000C5696B017C0120E030E040E450E40E9455
:103A5000066C2F813885275A3F4F3E832D831816D9
:103A600054F020E030E040E450ECB601C7010E9481
:103A7000256887FF9EC00F811885035A1F4FF801E4
:103A80002081318142815381B601C7010E94C569FD
:103A90004B015C0120E030E040E85FEB0E942568CC
:103AA00018160CF470C020E030E040E05FE3B6018F
:103AB000C7010E94C66946015701F80180829182C0
:103AC000A282B382ED81FE8180809180A280B3804A
:103AD0000F8118850F591F4FAF81B885A055BF4F73
:103AE0002D913D914D915C910E948B686B017C0101
:103AF000A5019401C301B2010E94C5690E943D6BFA
:103B00000E942A689B01AC01C701B6010E94C46AE9
:103B1000F80160837183828393832F8138852F59C5
:103B20003F4FF90160817181828193819058608358
:103B3000718382839383ED81FE8140825182628210
:103B4000738229813A814B815C81F1012083318329
:103B50004283538328960FB6F894DEBF0FBECDBFC5
:103B6000DF91CF911F910F91FF90EF90DF90CF9059
:103B7000BF90AF909F908F907F906F905F904F908D
:103B80003F902F90089520E030E040E85FE3C501CA
:103B9000B4010E94066C87FD09C020E030E040E0DF
:103BA0005FE3B601C7010E94C56985CFB601C701B1
:103BB00082CFEF81F8858389823008F071C0F89454
:103BC0008F8198850E94061CEF81F8856385748536
:103BD0008585968578940E942C686B017C010E94F3
:103BE000F20F4B015C01EF81F8858389823008F088
:103BF00059C0F8948F8198850E94061CEF81F88542
:103C000087859089A189B2897894A5019401281BA0
:103C1000390B4A0B5B0BCA01B9010E942A684B01A0
:103C20005C0120E030E0A901C701B6010E94066CEA
:103C30000F8118850F591F4F1816B4F1A70196016F
:103C40005058C501B4010E94066C18167CF420E09F
:103C500030E0A901C701B6010E9425687501640121
:103C600087FF04C0F7FAF094F7F8F094F801108297
:103C700011821282138220E030E0A901C701B6014F
:103C80000E942568882309F448CFA7019601EF8197
:103C9000F885E055FF4F608171818281938136CF35
:103CA000F89492CFF894AACFA5019401C701B60168
:103CB0000E94256887FDCBCFE8CFCF92DF92EF92AD
:103CC000FF92CF93DF93EC010E94D51CFE01E854D4
:103CD000FF4FC080D180E280F3800E942C68FE01FB
:103CE000E55FFE4F0190F081E02D2081318142811E
:103CF00053810E94C46AA70196010E94C569C75FEB
:103D0000DE4FE881F98120813181428153810E9417
:103D10008B68DF91CF91FF90EF90DF90CF90089567
:103D2000CF93DF93FC01E35FFE4F208121115EC042
:103D3000FC01228D222309F459C0EC010E94D51CFC
:103D40000E942C68FE01E55FFE4F0190F081E02D9E
:103D500020813181428153810E94C46AFE01E45472
:103D6000FF4F6083718382839383CE0186539F4F7D
:103D7000FC0126AD222389F00E949211882369F06C
:103D8000FE01E054FF4F80819181A281B381E3570E
:103D9000F10980839183A283B383CE010E94E91C41
:103DA000FE01EF5AFF4F6083718382839383CE01BC
:103DB00085599F4FFC0126AD21110E949211FE01F1
:103DC000E959FF4F60817181828193810E94366B36
:103DD000FE01E55BFF4F20813181620F731F40E0E0
:103DE000CE014496DF91CF910C94A315DF91CF9132
:103DF00008951092580380EA97E00E94901E81E98E
:103E000096E00E94901E82E895E00C94901ECF935D
:103E1000DF93EC010E94D51C0E942C68FE01E55F37
:103E2000FE4F0190F081E02D20813181428153814C
:103E30000E94C46AC75FDE4FE881F9812081318129
:103E4000428153810E948B68DF91CF910895CF9377
:103E5000DF93EC010E941710FE01EC54FF4F6083CA
:103E6000718382839383CE010E94071FFE01E75F67
:103E7000FE4F0190F081E02D2081318142815381FC
:103E80000E94C46AC854DF4F688379838A839B8306
:103E9000DF91CF910895FC0101900020E9F731975F
:103EA000AF01481B590BBC0188E194E00C94C40C91
:103EB00088E592E00C944B1FCF93DF930E94B00DE6
:103EC000EC010E94581F8C0F9D1FDF91CF91089528
:103ED000CF93DF930E94F10CEC010E94581F8C0FCE
:103EE0009D1FDF91CF9108958F929F92AF92BF92C5
:103EF0000F931F93CF93DF93CDB7DEB7A1970FB684
:103F0000F894DEBF0FBECDBF19A2423008F44AE0DC
:103F10008E010F5D1F4F842E912CB12CA12CA50179
:103F200094010E949469E62FB901CA01EA30F4F4C1
:103F3000E05DD801EE938D01232B242B252B79F7FF
:103F400090E080E0109719F0CD010E944B1FA196E0
:103F50000FB6F894DEBF0FBECDBFDF91CF911F919A
:103F60000F91BF90AF909F908F900895E95CE1CF43
:103F7000CF92DF92EF92FF92CF93DF936C01990F74
:103F8000EE08FF08F7FE17C08DE20E94CB0DEC0192
:103F900066277727CB016C197D098E099F094AE0B6
:103FA0000E94741F8C0F9D1FDF91CF91FF90EF90A7
:103FB000DF90CF9008954AE0C701B601DF91CF911D
:103FC000FF90EF90DF90CF900C94741FCF93DF930E
:103FD0000E94B81FEC010E94581F8C0F9D1FDF919B
:103FE000CF910895CF93811105C083E096E0CF91E2
:103FF0000C945C1FC82F8BEF95E00E94B00DC3306E
:10400000D1F090F489EE95E0C23089F38EE595E029
:104010000E94B00D6C2F70E090E080E04AE00E94BA
:10402000741FCF910C94581FC73041F08AE995E076
:10403000CD30E9F2EBCF87ED95E0D9CF80E795E081
:10404000D6CF4F925F926F927F928F929F92AF9254
:10405000BF92CF92DF92EF92FF920F931F93CF9375
:104060006B017C01742EAC019B010E948A6C882339
:1040700099F08BE592E0CF911F910F91FF90EF9017
:10408000DF90CF90BF90AF909F908F907F906F9078
:104090005F904F900C944B1F46015701E894B7F87E
:1040A0002FEF3FEF4FE75FE7C501B4010E948A6C35
:1040B00081110DC02FEF3FEF4FE75FE7C501B4015E
:1040C0000E94256818161CF48FE592E0D4CF2FEFDC
:1040D0003FEF4FE75FE4C701B6010E94066C181678
:1040E0001CF483E692E0C7CF2FEF3FEF4FE75FEC82
:1040F000C701B6010E94256887FDF3CF20E030E0BC
:10410000A901C701B6010E94256810E000E087FF01
:1041100008C08DE20E94CB0D8C01F7FAF094F7F8FD
:10412000F094C0E060E070E080E09FE37C1641F036
:1041300020E030E040E251E40E94C46ACF5FF6CF55
:10414000A70196010E94C6692B013C010E943D6BAC
:104150004B015C014AE00E94741F7C01E00EF11EDD
:10416000CC23B1F1C501B4010E942A689B01AC01C6
:10417000C301B2010E94C5694B015C018EE20E943D
:10418000CB0DE80EF91EC15018F120E030E040E2FE
:1041900051E4C501B4010E948B682B013C010E94CF
:1041A0003D6B4B01B12CA12C4AE0C501B4010E942A
:1041B000741FE80EF91EC501B4010E942A689B0114
:1041C000AC01C301B2010E94C5694B015C01DBCFA8
:1041D000C701CF911F910F91FF90EF90DF90CF908B
:1041E000BF90AF909F908F907F906F905F904F9017
:1041F00008950C942120CF92DF92EF92FF920F93BB
:104200001F93CF93DF93EC01CB01BA017901A90190
:1042100098010E94C56944E050E00E94F92086EAB6
:1042200098E00E94B00DFE01E454FF4F608171815F
:1042300082819381E35BFF4F0190F081E02D20812B
:104240003181428153810E948B68A70198010E94AD
:10425000C56944E050E00E94F92084EA98E00E9499
:10426000B00DFE01E054FF4F608171818281938126
:1042700044E050E00E94F92082EA98E00E94B00DEC
:10428000FE01EF59FF4F608171818281938144E08B
:1042900050E00E94F92080EA98E00E94B00DC55BD2
:1042A000DF4F88819981DF91CF911F910F91FF900E
:1042B000EF90DF90CF900C94E61FCF93DF9342E016
:1042C0000E942120EC010E94581F8C0F9D1FDF913E
:1042D000CF910895CF93DF930E944B1FEC010E9472
:1042E000581F8C0F9D1FDF91CF9108952F923F9201
:1042F0004F925F926F927F928F929F92AF92BF92F6
:10430000CF92DF92EF92FF920F931F93CF93DF93A1
:1043100000D01F92CDB7DEB71B018A01FC0140809F
:10432000518062807380C090B904D090BA04E0904C
:10433000BB04F090BC04A3019201C301B2010E942E
:104340008B684B015C01A7019601C701B6010E9471
:104350008B689B01AC01C501B4010E94C5690E9434
:10436000216C69837A838B839C83F80160817181DE
:10437000828193810E94136C4B015C01A70196011D
:1043800069817A818B819C810E94C46A6B017C0166
:104390002091C9043091CA044091CB045091CC04BF
:1043A000C301B2010E94C6692B013C01E5EBF4E0B8
:1043B0002081318142815381C501B4010E948B6803
:1043C0009B01AC01C301B2010E94C569F1012081CA
:1043D0003181428153810E94C46A9B01AC01C701B3
:1043E000B6010E94C5690F900F900F900F90DF915A
:1043F000CF911F910F91FF90EF90DF90CF90BF90E2
:10440000AF909F908F907F906F905F904F903F9074
:104410002F9008954F925F926F927F928F929F920A
:10442000AF92BF92CF92DF92EF92FF920F931F93C2
:10443000CF93DF93C5EBD4E08DEC9CECACE4BEEB0A
:1044400089A39AA3ABA3BCA304E813E0F801808876
:104450009188A288B38820E030E040E05FE3C501A6
:10446000B4010E948B68F801C488D588E688F78873
:104470009B01AC010E948B682B013C01A7019601B6
:10448000C701B6010E948B689B01AC01C301B20158
:104490000E94C6690E94216C688379838A839B830A
:1044A000A7019601C701B6010E94C669A501940142
:1044B0000E94C46A0E94906A6B017C01CDAADEAAA8
:1044C000EFAAF8AE2DEC3CEC4CE45EE30E94C6692A
:1044D00069AF7AAF8BAF9CAF2DEC3CEC4CE45EE364
:1044E000C701B6010E94C5696093F2047093F3049A
:1044F0008093F4049093F50420E030E040E05FE323
:10450000F80160817181828193810E948B68688744
:1045100079878A879B8720E030E040E05FE3F801FD
:1045200064817581868197810E948B686B017C0113
:10453000CC86DD86EE86FF8620E030E040E05FE35B
:10454000F80160857185828593850E948B68688FEC
:10455000798F8A8F9B8FA7019601F80164857585F5
:10456000868597850E94C6696C8F7D8F8E8F9F8F01
:10457000DF91CF911F910F91FF90EF90DF90CF903F
:10458000BF90AF909F908F907F906F905F904F9073
:1045900008952F923F924F925F926F927F928F92E7
:1045A0009F92AF92BF92CF92DF92EF92FF920F93C2
:1045B0001F93CF93DF93CDB7DEB7CB56D1090FB69C
:1045C000F894DEBF0FBECDBF3B018D8B9987522E75
:1045D000432E4D8759A3A4961FAF0EAFA497A6965E
:1045E000FFAEEEAEA697C090BD04D090BE04E090A2
:1045F000BF04F090C004D701C601B058898B9A8BD4
:10460000AB8BBC8B8091A0038090C1049090C204BE
:10461000A090C304B090C4049091B904998FA09164
:10462000BA04AD8F2090BB043090BC0429893A892C
:104630004B895C89813011F00C94792D8D89998595
:104640000E94256887FD0FC0A7019601B3018D89DF
:1046500099850E94066C181614F00C94642BC98A74
:10466000DA8AEB8AFC8A75016401F7FAF094F7F8AC
:10467000F094A7019601652D742D8D8599A10E9456
:10468000256887FD10C0A5019401652D742D8D85C9
:1046900099A10E94066C75016401181624F0C52CBE
:1046A000D42CED84F9A02091900330919103409196
:1046B000920350919303C501B4010E94C669A701FA
:1046C00096010E94C5696D8B7E8B8F8B988F60934E
:1046D000C9047093CA048093CB049093CC04809156
:1046E0008C0390918D03A0918E03B0918F0321963E
:1046F0008CAF9DAFAEAFBFAF219720E030E040E080
:104700005FE3BC01CD010E948B686B017C012989AC
:104710003A894B895C890E94C6694B015C01809291
:10472000C5049092C604A092C704B092C804AC011C
:104730009B01C701B6010E94256887FFCEC7A5016E
:10474000940121966CAD7DAD8EAD9FAD21970E94F9
:10475000C5696093C5047093C6048093C7049093A1
:10476000C80481E08093D5048091C5049091C6046B
:10477000A091C704B091C804898B9A8BAB8BBC8B7A
:104780009C01AD016D897E898F89988D0E94C46AD4
:104790004B015C018092DA049092DB04A092DC046D
:1047A000B092DD0429893A894B895C8921966CADE8
:1047B0007DAD8EAD9FAD21970E94C5699B01AC0177
:1047C0006D897E898F89988D0E94C46A6B017C01F6
:1047D000C092DE04D092DF04E092E004F092E104A3
:1047E000A5019401C501B4010E948B6820E030E06E
:1047F00040E85FE30E94C6690E94216C9B01AC0106
:10480000698D7D8DC1010E948B686093E204709375
:10481000E3048093E4049093E504A7019601C701A3
:10482000B6010E948B6820E030E040E85FE30E9420
:10483000C6690E94216C9B01AC01698D7D8DC1010F
:104840000E948B686093E6047093E7048093E80409
:104850009093E9049BE066969FAF66978091D6049B
:104860009091D704A091D804B091D90489A39AA3B8
:10487000ABA3BCA39C01AD01CD01B9010E948B6823
:104880004B015C012FE632E143E85AE369A17AA1CA
:104890008BA19CA10E94C6696B017C01AC019B01AC
:1048A0000E948B6869AF7AAF8BAF9CAF8091EE04AA
:1048B0009091EF04A091F004B091F10489879A8758
:1048C000AB87BC879C01AD01CD01B9010E948B680B
:1048D00069A77AA78BA79CA79B01AC0169857A85FC
:1048E0008B859C850E948B6825966CAF7DAF8EAFC3
:1048F0009FAF25974090F2045090F3046090F40429
:104900007090F504A3019201C301B2010E948B686B
:104910006DA77EA78FA798AB9B01AC01C301B20125
:104920000E948B6829966CAF7DAF8EAF9FAF2997A1
:104930002FE632E143E85AE369857A858B859C85C9
:104940000E94C5696D877E878F87988B9B01AC011C
:104950000E948B6869AB7AAB8BAB9CAB9B01AC01C3
:104960006D857E858F8598890E948B682D966CAFAA
:104970007DAF8EAF9FAF2D972FE632E143E85AE32C
:10498000C301B2010E94C6696DA37EA38FA398A73D
:104990009B01AC010E948B686DAB7EAB8FAB98AF77
:1049A0009B01AC016DA17EA18FA198A50E948B688F
:1049B00061966CAF7DAF8EAF9FAF6197A5019401FB
:1049C00069A17AA18BA19CA10E948B6828E73AE794
:1049D00045E25EEB0E948B6865966CAF7DAF8EAF53
:1049E0009FAF659727E230EA49E05BE3C501B40178
:1049F0000E948B689B01AC0165966CAD7DAD8EAD60
:104A00009FAD65970E94C5694B015C012EE836E0B9
:104A100040E85FE369A17AA18BA19CA10E948B6809
:104A20009B01AC01C501B4010E94C6696093620597
:104A300070936305809364059093650529AD3AAD45
:104A40004BAD5CADC701B6010E948B6828E73AE721
:104A500045E25EEB0E948B684B015C0127E230EA85
:104A600049E05BE369AD7AAD8BAD9CAD0E948B688C
:104A70009B01AC01C501B4010E94C5694B015C01F9
:104A80002EE836E040E85FE3C701B6010E948B687C
:104A90009B01AC01C501B4010E94C6696093660523
:104AA0007093670580936805909369052EEE3BEE41
:104AB00040EC5DEB25966CAD7DAD8EAD9FAD259741
:104AC0000E948B686B017C012DE435E14CE05EE3D4
:104AD00069A57AA58BA59CA50E948B689B01AC015A
:104AE000C701B6010E94C5696B017C012DE13AE561
:104AF0004CE85FE369857A858B859C850E948B688D
:104B00009B01AC01C701B6010E94C6692DE53DE6D7
:104B100045EC5CE30E94C5696E966CAF7DAF8EAFCD
:104B20009FAF6E9760934205709343058093440551
:104B30009093450523E83FE24CE05EE325966CAD9B
:104B40007DAD8EAD9FAD25970E948B686B017C017A
:104B50002DEE3DE04EE25FE369A57AA58BA59CA50D
:104B60000E948B689B01AC01C701B6010E94C56918
:104B70006B017C0121ED31E94CED5DE369857A85BE
:104B80008B859C850E948B689B01AC01C701B60197
:104B90000E94C6692CEE30EC49E75FE30E94C669CB
:104BA00069A77AA78BA79CA76093460570934705D2
:104BB000809348059093490526E031E845E15EEB96
:104BC00029966CAD7DAD8EAD9FAD29970E948B6807
:104BD0006B017C0125EE31E641EA5CE36DA57EA523
:104BE0008FA598A90E948B689B01AC01C701B601F3
:104BF0000E94C5696B017C0123ED3EED40E85FE357
:104C0000C301B2010E948B689B01AC01C701B601D0
:104C10000E94C66927E137EB41E55AE30E94C56966
:104C2000A2966CAF7DAF8EAF9FAFA29760934A05FF
:104C300070934B0580934C0590934D052CE933E31D
:104C400042EA5DE329966CAD7DAD8EAD9FAD2997AF
:104C50000E948B686B017C0126E73FE44EE05FE336
:104C60006DA57EA58FA598A90E948B689B01AC01BC
:104C7000C701B6010E94C5696B017C012DE435E1D5
:104C80004CE85CE3C301B2010E948B689B01AC015C
:104C9000C701B6010E94C6692BE733E84FE75FE31F
:104CA0000E94C6692B013C0140924E0550924F056F
:104CB00060925005709251052EEE3BEE40EC5DEB9C
:104CC0002D966CAD7DAD8EAD9FAD2D970E948B68FE
:104CD0006B017C012DE435E14CE05EE369A97AA922
:104CE0008BA99CA90E948B689B01AC01C701B601EE
:104CF0000E94C5696B017C012DE13AE54CE85FE358
:104D00006D857E858F8598890E948B689B01AC019B
:104D1000C701B6010E94C6692DE53DE645EC5CE39E
:104D20000E94C569609352057093530580935405A2
:104D30009093550523E83FE24CE05EE32D966CAD81
:104D40007DAD8EAD9FAD2D970E948B686B017C0170
:104D50002DEE3DE04EE25FE369A97AA98BA99CA9FB
:104D60000E948B689B01AC01C701B6010E94C56916
:104D70006B017C0121ED31E94CED5DE36D857E85B4
:104D80008F8598890E948B689B01AC01C701B60191
:104D90000E94C6692CEE30EC49E75FE30E94C669C9
:104DA0006DA77EA78FA798AB6093560570935705A4
:104DB000809358059093590526E031E845E15EEB74
:104DC00061966CAD7DAD8EAD9FAD61970E948B6895
:104DD0006B017C0125EE31E641EA5CE36DA97EA919
:104DE0008FA998AD0E948B689B01AC01C701B601E9
:104DF0000E94C5696B017C0123ED3EED40E85FE355
:104E00006DA17EA18FA198A50E948B689B01AC012A
:104E1000C701B6010E94C66927E137EB41E55AE3B5
:104E20000E94C56960935A0570935B0580935C0589
:104E300090935D052CE933E342EA5DE361966CAD46
:104E40007DAD8EAD9FAD61970E948B686B017C013B
:104E500026E73FE44EE05FE36DA97EA98FA998ADF8
:104E60000E948B689B01AC01C701B6010E94C56915
:104E70006B017C012DE435E14CE85CE36DA17EA182
:104E80008FA198A50E948B689B01AC01C701B60158
:104E90000E94C6692BE733E84FE75FE30E94C669CB
:104EA00069AB7AAB8BAB9CAB60935E0570935F058F
:104EB00080936005909361056EE4C62E65E0D62E62
:104EC0007AE4E72E75E0F72E06E415E022E435E0FB
:104ED00042E655E066EE74E082EE94E00E94270A16
:104EE0004B015C01DC01CB01B05880932605909307
:104EF0002705A0932805B09329058091B5049091CA
:104F0000B604A091B704B091B80489879A87AB879B
:104F1000BC8729A53AA54BA55CA5BC01CD010E9483
:104F20008B682D966CAF7DAF8EAF9FAF2D979B0199
:104F3000AC0169897A898B899C890E94C5696DA3B6
:104F40007EA38FA398A769837A838B839C8342E493
:104F500055E0BE016F5F7F4F82EE94E00E947621A4
:104F60006D877E878F87988BDC01CB01B05880934B
:104F70002A0590932B05A0932C05B0932D05A30132
:104F8000920169857A858B859C850E948B686196E4
:104F90006CAF7DAF8EAF9FAF61979B01AC0169890C
:104FA0007A898B899C890E94C6699B01AC012196F4
:104FB0006CAD7DAD8EAD9FAD21970E94C56969A78F
:104FC0007AA78BA79CA769837A838B839C83A7018D
:104FD000BE016F5F7F4F86EE94E00E9476212B0129
:104FE0003C01DC01CB01B05880932E0590932F0536
:104FF000A0933005B093310520E030E0A901C50150
:10500000B4010E94256887FF6BC32FE632E143E8B5
:105010005AEBC501B4010E94066C18160CF46AC361
:105020002EE5C22E25E0D22E3AE5E32E35E0F32E12
:1050300006E515E022E535E046E655E066EE74E06B
:1050400082EE94E00E94270AA50194010E94C5699E
:105050002FE632E143E85AE30E94C46A6093F60403
:105060007093F7048093F8049093F9048091E2041C
:105070009091E304A091E404B091E50465968CAFAF
:105080009DAFAEAFBFAF65972AE037ED43E25CE37B
:10509000BC01CD010E94C6696DAB7EAB8FAB98AFF2
:1050A00069837A838B839C834EE4C42E45E0D42E9F
:1050B0005AE4E52E55E0F52E06E415E022E435E04D
:1050C00042E655E066EE74E0CE0101960E94270AA2
:1050D000A50194010E94C5692AE037ED43E25CE333
:1050E0000E94C46A6093FA047093FB048093FC04EA
:1050F0009093FD048091E6049091E704A091E80468
:10510000B091E9046A968CAF9DAFAEAFBFAF6A971E
:105110002AE037ED43E25CE3BC01CD010E94C669A1
:1051200069AF7AAF8BAF9CAF69837A838B839C83A3
:1051300022E435E042E655E0BE016F5F7F4F82EE2C
:1051400094E00E94270AA50194010E94C5692AE003
:1051500037ED43E25CE30E94C46A6093FE047093FF
:10516000FF0480930005909301052DA53EA54FA552
:1051700058A969857A858B859C850E948B689B01DF
:10518000AC0169897A898B899C890E94C569698388
:105190007A838B839C8342E555E0BE016F5F7F4F2E
:1051A00082EE94E00E9476212D853E854F855889B8
:1051B0000E94C5692FE632E143E85AE30E94C46ABF
:1051C0006093020570930305809304059093050591
:1051D0008DA19EA1AFA1B8A58D839E83AF83B88713
:1051E0008DA99EA9AFA9B8AD89839A83AB83BC83EF
:1051F00042E455E0BE016B5F7F4FCE0101960E94F5
:1052000076212D853E854F8558890E94C5692AE003
:1052100037ED43E25CE30E94C46A60930605709335
:105220000705809308059093090510920A051092CE
:105230000B0510920C0510920D0529A93AA94BA94E
:105240005CA969857A858B859C850E948B682989F4
:105250003A894B895C890E94C6699B01AC01219601
:105260006CAD7DAD8EAD9FAD21970E94C5696B0180
:105270007C01C982DA82EB82FC824AE555E0BE01FC
:105280006F5F7F4F86EE94E00E947621A30192012A
:105290000E94C5692FE632E143E85AE30E94C46ADE
:1052A00060930E0570930F05809310059093110580
:1052B0001092120510921305109214051092150504
:1052C000CD82DE82EF82F88689AD9AADABADBCAD02
:1052D00089839A83AB83BC834AE455E0BE016B5F4C
:1052E0007F4FCE0101960E947621A30192010E9478
:1052F000C5692AE037ED43E25CE30E94C46A60932B
:105300001605709317058093180590931905AEEF55
:10531000B4E0BE87AD87E6E1F5E0FEABEDAB28E19A
:1053200030E03AAF29AF82E090E09EA78DA7EDA5CF
:10533000FEA53196A896FFAFEEAFA89726E235E01E
:1053400023963FAF2EAF23978D859E8527969FAFDF
:105350008EAF279794E0692E712C1AAA19AAA9ADCD
:10536000BAAD1897AC96BFAFAEAFAC97EDA9FEA99A
:1053700020813181428153812796AEADBFAD279701
:105380006D917D918D919C910E94C46A6B017C010D
:105390008AEF482E84E0582E4618570801E010E0A6
:1053A000F20181909190A190B1902F019F01245022
:1053B0003109AA963FAF2EAFAA97F301E40DF51D70
:1053C000AC968EAD9FADAC97E80FF91F208131816F
:1053D00042815381C701B6010E948B689B01AC01D9
:1053E000C501B4010E94C569AA96AEADBFADAA972A
:1053F0006D937D938D939C9313970F5F1F4FA8968A
:10540000EEADFFADA897E017F10754F62396AEADC9
:10541000BFAD23978D909D90AD90BD902396BFAF6B
:10542000AEAF23978D0104501109ED85FE8520A9AB
:1054300031A942A953A9C701B6010E948B689B01FB
:10544000AC01C501B4010E94C569D8016D937D937B
:105450008D939C931397E9A9FAA93196FAABE9AB1E
:1054600027962EAD3FAD2797245F3F4F27963FAF3E
:105470002EAF27973CE0631A71088DA59EA58E1765
:105480009F0709F073CFA9ADBAAD1C97BAAFA9AF0A
:10549000ED85FE853497FE87ED872DA93EA9205125
:1054A00031093EAB2DAB019709F00DC32091F604F5
:1054B0003091F7044091F8045091F9046091260569
:1054C0007091270580912805909129050E94C46A52
:1054D0006B017C01C0921A05D0921B05E0921C055D
:1054E000F0921D0580902A0590902B05A0902C0528
:1054F000B0902D05209102053091030540910405DF
:10550000509105050E948B689B01AC01C501B40157
:105510000E94C56920910605309107054091080554
:10552000509109050E94C46A4B015C0180921E05DE
:1055300090921F05A0922005B092210540902E0563
:1055400050902F05609030057090310520910E0528
:1055500030910F054091100550911105C701B6011A
:105560000E948B689B01AC01C301B2010E94C56916
:105570002B013C0120911205309113054091140537
:1055800050911505C501B4010E948B689B01AC01C7
:10559000C301B2010E94C56920911605309117051B
:1055A00040911805509119050E94C46A2B013C01D5
:1055B00040922205509223056092240570922505A1
:1055C000A701960169A17AA18BA19CA10E94C6693D
:1055D0006B017C01C092D604D092D704E092D8042B
:1055E000F092D90465962CAD3DAD4EAD5FAD65979B
:1055F000C501B4010E94C6695B018C019B01AC012D
:10560000698D7D8DC1010E94066C18161CF4A98C51
:10561000BD8C8101C501D8018093E2049093E3041D
:10562000A093E404B093E504A30192016A966CADE3
:105630007DAD8EAD9FAD6A970E94C6695B018C01FE
:105640009B01AC01698D7D8DC1010E94066C18160D
:105650001CF4A98CBD8C8101C501D8018093E6049E
:105660009093E704A093E804B093E9048090EA04DF
:105670009090EB04A090EC04B090ED04A70196018B
:10568000C501B4010E94C5696093EE047093EF04F4
:105690008093F0049093F104A5019401C701B60131
:1056A0000E94C6696093F2047093F3048093F4043B
:1056B0009093F50466963FAD6697315066963FAF7E
:1056C00066973111CBC842C0C301AD89B985898BBA
:1056D0009A8BAB8BBC8B0C9433231092D50444C8AB
:1056E0002FE632E143E85AE3C501B4010E94256880
:1056F00087FF96CC20E030E0A9016D857E858F85FF
:1057000098890E94256887FFC6C12FE632E143E8E9
:105710005AEB6D857E858F8598890E94066C1816D8
:105720000CF07ECC20E030E0A901C301B2010E9460
:10573000256887FFBDC12FE632E143E85AEBC3017C
:10574000B2010E94066C18160CF06ACC2D968CAD36
:105750009DADAEADBFAD2D978093320590933305CF
:10576000A0933405B093350561968CAD9DADAEAD7B
:10577000BFAD61978093360590933705A0933805A8
:10578000B09339056E962CAD3DAD4EAD5FAD6E97C5
:1057900069857A858B859C850E948B684B015C01AD
:1057A00080923A0590923B05A0923C05B0923D054F
:1057B000A2962CAD3DAD4EAD5FADA29769857A85C1
:1057C0008B859C850E948B68698B7A8B8B8B9C8BDD
:1057D00060933E0570933F0580934005909341058B
:1057E0004090E2045090E3046090E4047090E5047B
:1057F000A50194016D897E898F89988D0E94C56964
:10580000A30192010E94C6692DA13EA14FA158A5F6
:105810000E94C46A6B017C01C092DA04D092DB045E
:10582000E092DC04F092DD048091E6049091E704BC
:10583000A091E804B091E9048D879E87AF87B88B6B
:1058400029893A894B895C896D897E898F89988DF0
:105850000E94C5692D853E854F8558890E94C6697D
:1058600029A53AA54BA55CA50E94C46A69877A87D9
:105870008B879C876093DE047093DF048093E00441
:105880009093E104C701B6010E94906A69A37AA3CC
:105890008BA39CA360936E0570936F058093700536
:1058A0009093710569857A858B859C850E94906AA5
:1058B00021966CAF7DAF8EAF9FAF219760936A0545
:1058C00070936B0580936C0590936D05A301920115
:1058D0006D897E898F89988D0E94C669A501940182
:1058E0000E94C5694B015C012DA13EA14FA158A5A5
:1058F000CA01B9010E948B682B013C01A5019401EA
:10590000C501B4010E948B689B01AC01C301B201C7
:105910000E94C6690E94216C4B015C01A70196019F
:10592000698D7D8DC1010E948B689B01AC01C50111
:10593000B4010E94C5696B017C0129A13AA14BA168
:105940005CA1698D7D8DC1010E948B689B01AC01BA
:10595000C701B6010E94C6696B017C012D853E8599
:105960004F8558896D897E898F89988D0E94C66977
:1059700029893A894B895C890E94C5694B015C0180
:1059800029A53AA54BA55CA5CA01B9010E948B685F
:105990002B013C01A5019401C501B4010E948B6853
:1059A0009B01AC01C301B2010E94C6690E94216C37
:1059B0004B015C0129853A854B855C85698D7D8D20
:1059C000C1010E948B689B01AC01C501B4010E941A
:1059D000C5694B015C0121962CAD3DAD4EAD5FAD6F
:1059E0002197698D7D8DC1010E948B689B01AC015F
:1059F000C501B4010E94C6692091D504222309F48F
:105A000067C0C0927E05D0927F05E0928005F0923B
:105A1000810560937A0570937B0580937C05909354
:105A20007D0580917A0590917B05A0917C05B091D0
:105A30007D05A496EEADFFADA49780839183A283EC
:105A4000B38380917E0590917F05A0918005B091F0
:105A50008105A696EEADFFADA69780839183A283C4
:105A6000B383C559DF4F0FB6F894DEBF0FBECDBF6D
:105A7000DF91CF911F910F91FF90EF90DF90CF902A
:105A8000BF90AF909F908F907F906F905F904F905E
:105A90003F902F9008952FE632E143E85AE36D8559
:105AA0007E858F8598890E94256887FFB9CA3ACE7E
:105AB0002FE632E143E85AE3C301B2010E942568B0
:105AC00087FD44CEADCAA1E0B0E0BEA7ADA72FCC04
:105AD000C0927A05D0927B05E0927C05F0927D051C
