:100000000C94F10B0C94EB6A0C94C06A0C94956AF6
:100010000C946A6A0C943F6A0C94146A0C94E96913
:100020000C94BE690C94220C0C94220C0C94220C9F
:100030000C94220C0C94220C0C94220C0C94220C88
:100040000C94220C0C94A06B0C94220C0C94220C9B
:100050000C94CE6B0C94220C0C94220C0C947469AE
:100060000C94220C0C943E690C9414690C94220C90
:100070000C94220C0C94220C0C94220C0C94220C48
:100080000C94726B0C94220C0C94220C0C94220C89
:100090000C94220C0C94220C0C94220C0C94220C28
:1000A0000C94220C0C94220C0C94446B0C94220C97
:1000B0000C94220C0C94220C0C94220C0C94166BB5
:1000C0000C94220C0C94220C0C94220C0C94220CF8
:1000D0000C94220C0C94220C0C94220C0C94220CE8
:1000E0000C94220C036EDB363D9A9999993DABAA8C
:1000F000AA2A3E000000803F084AD73B3BCE016E53
:1001000084BCBFFDC12F3D6C74319ABD56833DDA6E
:100110003D00C77F11BED9E4BB4C3E916BAAAABE7D
:10012000000000803F072C7AA5BA6CC590DA3B939B
:1001300065FC8BBC53F810FD3C5692834DBD879DEA
:100140003AB63DCBC9BF5BBE73DA0FC93F05A84CB9
:10015000CDB2D44EB93836A9020C50B99186880870
:100160003CA6AAAA2ABE000000803F028988083C5B
:10017000ABAAAA2A3E000000803F0664EC1B3C04A8
:10018000BC163E3BE5B93CC93C37C29E5A3D6604AD
:1001900098083EEA69AAAA3E000000803F07634231
:1001A00036B79BD8A71A39685618AEBAAB558C1D0E
:1001B0003CB7CC5763BD6DEDFD753EF6177231BF90
:1001C000000000803F000C94524E0C94444E0C945E
:1001D000924B0C944C4D0C94434D0C94441D0C9438
:1001E000E0110C9492100C94EF110C947E1D0C9461
:1001F000C54D0C94714C0C9436740C94A8110C944D
:10020000364E0C949E110C94AA4D0C94231D0C9404
:1002100088100C94B8100C949F4C0C94864D0C9440
:10022000781D0C94B44B0C946E4E0C9421120C94CB
:10023000C2110C94BA110C940D4D0C947F4C0C947B
:10024000164D0C94C74C0C948E100C94041D0C94F9
:10025000894B0C94CC110C94AA100C94970F0C940D
:1002600017120C948A4E0C9403120C94D34B0C94DA
:10027000901D0C94F80E0C9481100C948F4D0C94DE
:10028000654C0C941F4D0C94B34D0C943A4D0C944A
:10029000841D0C94A44B0C94961D0C945E1D0C9420
:1002A000D34D0C9494110C94D6110C94474C0C948F
:1002B0008A1D0C949B4B0C94534C0C94984D0C94AD
:1002C00098100C94B44E0C94DF4B0C94B4100C9416
:1002D0003D0F0C94BC4D0C94B3100C9479100C94FD
:1002E000314D0C94510F0C94804B0C94AE100C9427
:1002F000A04E0C947C4E0C944B4B0C942E0F0C94F3
:10030000284E0C9473100C949C100C94A6100C9412
:10031000B2110C9404100C940D120C948F110C94C7
:10032000F9110C94774B0C945F0F0C94604E0C9465
:1003300006690C94EB4B0C94AB4B0C94284D0C942D
:10034000A0100C94A14D0C94254C0C9485100C9489
:10035000216C0C9457120C94144E0C946E4B0C940C
:100360002A1D0C9487110C947D104E414E494E4924
:100370005459494E46CDCCCC3D0AD7233C17B7D172
:100380003877CC2B329595E6241FB14F0A00002018
:10039000410000C84200401C4620BCBE4CCA1B0E97
:1003A0005AAEC59D7400407A10F35A00A0724E18E0
:1003B000090010A5D4E80000E87648170000E40B17
:1003C00054020000CA9A3B000000E1F505000080DD
:1003D000969800000040420F000000A08601000037
:1003E00000102700000000E8030000000064000087
:1003F0000000000A00000000000100000000002CC6
:1004000076D888DC674F0823DFC1DFAE59E1B1B78A
:1004100096E5E3E453C63AE651997696E8E6C28457
:1004200026EB898C9B62ED407C6FFCEFBC9C9F406F
:10043000F2BAA56FA5F490055A2AF75C936B6CF994
:10044000676DC11BFCE0E40D47FEF520E6B500D06A
:10045000ED902E0300943577050080841E0800007F
:10046000204E0A000000C80C333333330F986E124D
:10047000831141EF8D2114893BE65516CFFEE6DB53
:1004800018D1844B381BF77C1D901DA4BBE424209D
:100490003284725E228100C9F124ECA1E53D273C43
:1004A00049646C652C4D506F733A302C302C302CD5
:1004B00057506F733A302E3030302C302E30303071
:1004C0002C302E3030303E00446972656374696FA1
:1004D0006E2032202D204661696C0044697265638C
:1004E00074696F6E2032202D2050617373003C4977
:1004F000646C652C4D506F733A302C302C302C5777
:10050000506F733A302E3030302C302E3030302C4B
:10051000302E3030303E00446972656374696F6E0E
:100520002031202D204661696C0044697265637436
:10053000696F6E2031202D2050617373003C496437
:100540006C652C4D506F733A302C302C302C57503A
:100550006F733A302E3030302C302E3030302C301B
:100560002E3030303E00206D6F746F723A0054654B
:100570007374696E672000206D6D0020696E002B1A
:10058000004D6573736167653A20506C65617365F2
:100590002061646A757374205A2D417869732074E0
:1005A0006F2061206465707468206F662000496E5A
:1005B00076616C69642067636F64652049443A0022
:1005C000454550524F4D2072656164206661696CEB
:1005D0002E205573696E672064656661756C7420A2
:1005E00073657474696E67732E00506C6561736512
:1005F00020736574202431322C202431332C2024A4
:1006000031392C20616E642024323020746F206CCC
:100610006F6164206F6C6420706F736974696F6EB2
:1006200020646174612E00496E76616C6964207388
:10063000746174656D656E7400426164206E756DE1
:1006400062657220666F726D6174006572726F729E
:100650003A20006F6B00506C6561736520736574A0
:10066000202431322C202431332C202431392C20E9
:10067000616E642024323020746F206C6F616420BE
:10068000706F736974696F6E2E004F6C6420706FA9
:10069000736974696F6E2064617461206465746548
:1006A000637465642E000D0A6E6577207370696E41
:1006B000646C65206D61783D000D0A6E657720736E
:1006C00070696E646C65206D696E3D005475726E64
:1006D000696E67205370696E646C65204F666600B2
:1006E0005475726E696E67205370696E646C652014
:1006F0004F6E005475726E696E67205370696E6438
:100700006C65204F6666005475726E696E67205383
:1007100070696E646C65204F6E005475726E696E00
:1007200067205370696E646C65204F666600416493
:100730006A757374696E67205370696E646C6520A6
:10074000537065656420746F204D696E696D756DB9
:10075000005475726E696E67205370696E646C65C3
:10076000204F6E005475726E696E67205370696E0B
:10077000646C65204F66660041646A757374696EC7
:1007800067205370696E646C6520537065656420E2
:10079000746F204D696E696D756D005475726E6968
:1007A0006E67205370696E646C65204F6E006E65D5
:1007B000772070776D206F7574707574203D200000
:1007C0006E6577207370696E646C65207370656503
:1007D00064203D20007370696E646C65206D696EE5
:1007E000203D20007370696E646C65206D61782017
:1007F0003D20006D6D004D6561737572696E6720F7
:100800006F757420726967687420636861696E002F
:100810006D6D004D6561737572696E67206F7574DB
:10082000206C65667420636861696E004D61736C4D
:100830006F77205061757365640028456E64206F82
:10084000662042756666657229005C74005C720001
:100850005C6E0042756666657220436F6E74656EED
:1008600074733A200042756666657220456E643A7C
:10087000200042756666657220426567696E3A209F
:1008800000427566666572204E756D626572206FF6
:1008900066204C696E65733A200042756666657223
:1008A00020557365643A2000427566666572206F54
:1008B000766572666C6F77210072656164790047B6
:1008C00072626C2076312E3030002044657465638E
:1008D0007465640020544C453532303620000A508F
:1008E00043422076312E000A0A736F6674207265C7
:1008F00073657420636F6D6D616E6465640A0A00D0
:1009000054686520426F6172642076657273696F06
:100910006E206E756D6265722066726F6D207468F0
:100920006973204D6F746F7220436F6E74726F6CB9
:1009300020626F61726420697320696E76616C69F0
:10094000642E202D2D2D28212121292D2D2D2051C2
:1009500075697420616E64206D616B6520737572BA
:10096000652069742069732070726F7065726C798C
:100970002073656174656420616E642074686174BD
:100980002074686520636F72726563742076657287
:1009900073696F6E206F66206669726D776172652C
:1009A000206973206C6F616465642E2E2E200054C4
:1009B000686520736C6564206973206E6F74206BAA
:1009C000656570696E672075702077697468206945
:1009D000747320657870656374656420706F7369E3
:1009E00074696F6E20616E64206861732068616C49
:1009F0007465642E20436C69636B207468652027DE
:100A000053746F702720627574746F6E20746F203A
:100A1000636C6561722074686520616C61726D2E13
:100A2000204D6F726520696E666F726D6174696FBB
:100A30006E2061743A2068747470733A2F2F67695E
:100A4000746875622E636F6D2F4D61736C6F7743A1
:100A50004E432F4669726D776172652F77696B69B6
:100A60002F4B656570696E672D5570202000414CD5
:100A700041524D3A20005D005B50453A002C5750E2
:100A80006F733A302E3030302C302E3030302C30E6
:100A90002E3030303E002C002C0049646C652C4D0B
:100AA000506F733A0050617573652C4D506F733AF7
:100AB0000053746F702C4D506F733A003C002C0043
:100AC0002C002C002C007265616479004772626C06
:100AD0002076312E30300046414B455F534552560B
:100AE0004F206F66660046414B455F534552564F57
:100AF000206F6E0020446574656374656400204651
:100B000072616E6B656E203932303120776974689E
:100B1000204C4D323938205A002054423636343376
:100B2000200020544C4539323031200020544C45AF
:100B30003532303620005043422076312E000000FE
:100B40002100240027002A002D003000330001017D
:100B50000000040107010A0100002200250028000E
:100B60002B002E00310034000201000005010801B5
:100B70000B0100000A0B02090C0D0E08070304010B
:100B80000000000000000000000000000000000065
:100B90000000000000000000000000000000121132
:100BA0001000000000000000000000000000000035
:100BB0000000000000000000546F6F6C206368614B
:100BC0006E676520746F20746F6F6C200020746FE7
:100BD0006F2073686F7274202D2069676E6F726565
:100BE000642E00436F6D6D616E64200020756E731E
:100BF0007570706F7274656420616E642069676ED1
:100C00006F7265642E00436F6D6D616E64204D00E0
:100C1000546F6F6C204368616E67653A20506C6555
:100C200061736520696E7365727420746F6F6C20D8
:100C3000004669726D776172652056657273696FDF
:100C40006E20002000526573746F72696E672064B5
:100C5000656661756C7473004D6573736167653AA1
:100C600020002028536C6564205765696768742CE0
:100C7000204E290D0A002028636861696E20737474
:100C8000726574636820666163746F722C206D2FC7
:100C90006D2F4E290D0A2434363D002028726573CD
:100CA0006572766564322C206D6D290D0A24343509
:100CB0003D0020287265736572766564312C20646E
:100CC0006567290D0A2434343D002028706F73694C
:100CD00074696F6E206572726F7220616C61726DE3
:100CE000206C696D69742C206D6D290D0A243433D4
:100CF0003D002028636861696E20746F6C657261C5
:100D00006E63652C20726967687420636861696E20
:100D10002C206D6D290D0A2434323D002028636893
:100D200061696E20746F6C6572616E63652C206CF6
:100D300065667420636861696E2C206D6D290D0AEB
:100D40002434313D00202850574D2066726571755E
:100D5000656E63792076616C756520313D33392C81
:100D6000303030487A2C20323D342C313030487AC3
:100D70002C20333D343930487A290D0A2434303D53
:100D8000002028636861696E206F76657220737039
:100D9000726F636B6574290D0A2433393D00202876
:100DA000636861696E2073616720636F7272656347
:100DB00074696F6E2076616C7565290D0A2433386D
:100DC0003D0020287A20617869732056656C6F6336
:100DD0006974792070726F706F7274696F6E616C74
:100DE00020776569676874290D0A2433373D002030
:100DF000287A2061786973204B642056656C6F6394
:100E0000697479290D0A2433363D0020287A20613F
:100E1000786973204B692056656C6F636974792912
:100E20000D0A2433353D0020287A2061786973202B
:100E30004B702056656C6F63697479290D0A2433F1
:100E4000343D0020287A206178697320506F732028
:100E500070726F706F7274696F6E616C2077656904
:100E6000676874290D0A2433333D0020287A2061F5
:100E7000786973204B6420506F73290D0A24333234
:100E80003D0020287A2061786973204B6920506FDB
:100E900073290D0A2433313D0020287A20617869B6
:100EA00073204B7020506F73290D0A2433303D009E
:100EB00020286D61696E2056656C6F6369747920B6
:100EC00070726F706F7274696F6E616C2077656994
:100ED000676874290D0A2432393D0020286D616944
:100EE0006E204B642056656C6F63697479290D0A16
:100EF0002432383D0020286D61696E204B692056F0
:100F0000656C6F63697479290D0A2432373D0020BE
:100F1000286D61696E204B702056656C6F63697433
:100F200079290D0A2432363D0020286D61696E2032
:100F3000506F732070726F706F7274696F6E616C36
:100F400020776569676874290D0A2432353D0020D1
:100F5000286D61696E204B6420506F73290D0A243F
:100F600032343D0020286D61696E204B6920506F3E
:100F700073290D0A2432333D0020286D61696E20EB
:100F80004B7020506F73290D0A2432323D00202807
:100F90007A2061786973207374657073207065724C
:100FA000207265766F6C7574696F6E290D0A243234
:100FB000313D0020287A2061786973206469737458
:100FC000616E6365202F20726F746174696F6E2982
:100FD0000D0A2432303D0020286D6178207A20618E
:100FE0007869732052504D290D0A2431393D002073
:100FF000286175746F207370696E646C6520656E0E
:1010000061626C6520313D736572766F2C20323DD4
:1010100072656C61795F682C20333D72656C617913
:101020005F6C290D0A2431383D0020284175746F0A
:10103000205A20417869732C2031203D2059657356
:10104000290D0A2431373D0020286D61782066651E
:1010500065642C206D6D2F6D696E290D0A24313663
:101060003D00202864697374616E6365202F2072CF
:101070006F746174696F6E2C206D6D290D0A2431B7
:10108000353D0020286D61696E2073746570732092
:10109000706572207265766F6C7574696F6E290D5C
:1010A0000A2431333D00202863616C6962726174E7
:1010B000696F6E20636861696E206C656E67746825
:1010C0002C206D6D290D0A2431323D0020286675D3
:1010D0006C6C206C656E677468206F662063686155
:1010E000696E2C206D6D290D0A2431313D002028B8
:1010F000617869732069646C65206265666F7265EA
:10110000206465746163682C206D73290D0A243195
:10111000303D002028726F746174696F6E207261B7
:10112000646975732C206D6D290D0A24393D0020EA
:10113000284B696E656D61746963732054797065BD
:1011400020313D5175616472696C61746572616CC6
:101150002C20323D547269616E67756C6172290D85
:101160000A24383D002028736C65642063672C20B6
:101170006D6D290D0A24373D002028736C656420AD
:101180006865696768742C206D6D290D0A24363DE9
:10119000002028736C65642077696474682C206D66
:1011A0006D290D0A24353D0020286D6F746F722063
:1011B0006865696768742C206D6D290D0A24343DBB
:1011C0000020286D6F746F722064697374616E63A0
:1011D000652C206D6D290D0A24333D0020286D619A
:1011E0006368696E65206865696768742C206D6D39
:1011F000290D0A24323D0020286D616368696E65FF
:101200002077696474682C206D6D290D0A24313DA6
:101210000024303D002120286665656420686F6CDD
:101220006429007E20286379636C65207374617281
:1012300074290024783D76616C7565202873617689
:1012400065204D61736C6F772073657474696E6788
:1012500029002424202876696577204D61736C6FFE
:10126000772073657474696E6773290074686520EC
:1012700076616C75652072656365697665643A2090
:101280000020697320696E76616C69642E204F6E50
:101290006C79204733382E32207265636F676E6930
:1012A0007A65642E00473338006572726F723A2097
:1012B00070726F626520646964206E6F7420636F62
:1012C0006E6E6563740A70726F6772616D207374FD
:1012D0006F707065640A7A2061786973206E6F742C
:1012E000207365740A007A2061786973207A6572C8
:1012F0006F656400206D6D20706572206D696E2EC3
:101300000066656564726174652000206D6D2E0055
:101310006D6178206465707468200070726F626916
:101320006E6720666F72207A2061786973207A6513
:10133000726F004733382E322067636F6465206F09
:101340006E6C792076616C69642077697468207AA4
:101350002D6178697320617474616368656400202D
:101360006D732E00207365636F6E64730064776520
:101370006C6C2074696D65200020756E73757070DB
:101380006F7274656420616E642069676E6F726548
:10139000642E00436F6D6D616E642047002D2D50EB
:1013A00049442056656C6F63697479205465737481
:1013B0002053746F702D2D0A00736574706F696E01
:1013C000742C696E7075742C6F7574707574002D43
:1013D0002D5049442056656C6F63697479205465BB
:1013E00073742053746172742D2D002D2D50494457
:1013F00020506F736974696F6E2054657374205345
:10140000746F702D2D0A00736574706F696E742C83
:10141000696E7075742C6F75747075742C72706D44
:10142000696E7075742C766F6C74616765002D2D14
:1014300050494420506F736974696F6E205465730E
:10144000742053746172742D2D002D2D566F6C74A1
:1014500061676520546573742053746F702D2D0A75
:10146000000A002C002D2D566F6C746167652054A6
:101470006573742053746172742D2D0046414B4581
:101480005F534552564F206F66660046414B455F9D
:10149000534552564F206F6E004E414E00204C6F08
:1014A000776572204C696D69743A20004E414E0098
:1014B0005A2041786973205570706572204C696DAF
:1014C00069743A20005A2041786973204C696D692B
:1014D000747320436C6561726564004572726F724B
:1014E0002073657474696E67206C696D697400207F
:1014F0002020004C6F776572206C696D69742073D1
:10150000657420746F3A20004572726F72207365A3
:101510007474696E67206C696D6974002020200006
:101520005570706572206C696D69742073657420E4
:10153000746F3A20005D005B4D6561737572653AAA
:1015400020004D6573736167653A20546865206DAE
:10155000616368696E6520636861696E73206861A4
:101560007665206265656E206D616E75616C6C7963
:101570002072652D63616C696272617465642E000E
:101580006D6D0052696768743A20006D6D004C659E
:1015900066743A20006D6D0052696768743A2000E5
:1015A0006D6D004C6566743A200053657474696E05
:1015B0006720436861696E204C656E6774687320AC
:1015C000546F3A2000546573747320636F6D706CB0
:1015D0006574652E004D6F746F722043616C696293
:1015E000726174696F6E204E6F74204E656564651C
:1015F00064002053797374656D20436861696E20BF
:101600004C656E6774683A200020526967687420E0
:10161000436861696E204C656E6774682047726527
:1016200061746572207468616E2053797374656D9E
:101630002053657474696E677320436861696E2016
:101640004C656E677468204C656674436861696EAA
:101650004C656E6774683A2000204C6566742043C0
:101660006861696E204C656E6774682047726561B9
:10167000746572207468616E2053797374656D208F
:1016800053657474696E677320436861696E204C9A
:10169000656E677468204C656674436861696E4C5A
:1016A000656E6774683A2000204E756D6265722021
:1016B0006F6620677565737365732065786365650C
:1016C0006473204B494E454D41544943534D415855
:1016D000475545535320004D6573736167653A2044
:1016E000556E61626C6520746F2066696E64207649
:1016F000616C6964206D616368696E6520706F73E9
:101700006974696F6E20666F7220636861696E200C
:101710006C656E6774687320005B466F72776172E8
:10172000642043616C63756C6174696E6720506FEF
:10173000736974696F6E5D00010210202008081043
:101740002040102040800201020108040201010231
:10175000040810204080804020100804020180040A
:101760000201804020100804020108040201010265
:10177000040810204080010204081020408000006E
:1017800020002300260029002C002F003200000139
:101790000000030106010901050505050705080804
:1017A0000808020202020A0A0808040404040101EB
:1017B0000101010101010303030303030303040700
:1017C00007070C0C0C0C0C0C0C0C02020202060697
:1017D0000606060606060B0B0B0B0B0B0B0B216C00
:1017E000367411241FBECFEFD1E2DEBFCDBF00E0C3
:1017F0000CBF13E0A0E0B2E0E4E9F2E001E00BBFCF
:1018000002C007900D92A636B107D9F72AE0A6E6E6
:10181000B3E001C01D92A634B207E1F71BE0C0EFB0
:10182000DBE000E006C021970109802FFE010E9445
:10183000B27ECF3ED10780E00807A9F70E94B36CC3
:101840000C9438810C940000CF93DF938091BC09F5
:101850009091BD09C091BE09D091BF0930E020E050
:10186000E0E8F0E0C817D90771F0DC01A454B64FE6
:1018700014964C914A3011F42F5F3F4F0196BF01EF
:101880000E949E7EEFCFC901DF91CF9108954F92C4
:101890005F926F927F928F929F92AF92BF92CF9200
:1018A000DF92EF92FF920F931F93CF93DF938C0100
:1018B000EB01FC0140805180628073808090B8050C
:1018C0009090B905A090BA05B090BB057501640170
:1018D000F7FAF094F7F8F094A7019601B201C3016A
:1018E0000E94E47887FD0CC0A5019401B201C301F8
:1018F0000E94C57C62017301181614F4750164011D
:10190000F801C082D182E282F382688079800A8104
:101910001B818090BC059090BD05A090BE05B09045
:10192000BF0575016401F7FAF094F7F8F094A70188
:101930009601B301C8010E94E47887FD0CC0A5019F
:101940009401B301C8010E94C57C63017801181697
:1019500014F475016401C882D982EA82FB82DF91A6
:10196000CF911F910F91FF90EF90DF90CF90BF909C
:10197000AF909F908F907F906F905F904F90089561
:101980002F923F924F925F926F927F928F929F928F
:10199000AF92BF92CF92DF92EF92FF920F931F937D
:1019A000CF93DF93CDB7DEB768970FB6F894DEBF5D
:1019B0000FBECDBF988F8F8B1B015E8B4D8BE0EBE5
:1019C000F5E080819181A281B38189839A83AB8381
:1019D000BC83D8018D919D910D90BC91A02D8D83DC
:1019E0009E83AF83B887D6018D919D910D90BC9158
:1019F000A02D89879A87AB87BC87D9018D919D914E
:101A00000D90BC91A02D8D879E87AF87B88BD70195
:101A10008D919D910D90BC91A02D898B9A8BAB8B54
:101A2000BC8B84889588A688B7884088518862884E
:101A300073882D853E854F85588969817A818B8190
:101A40009C810E944A799B01AC01C501B4010E94AE
:101A5000847AEF89F88D20813181428153810E94FF
:101A6000857A6B017C012D813E814F81588569818A
:101A70007A818B819C810E944A799B01AC01C301D0
:101A8000B2010E94847A9B01AC01C701B6010E9499
:101A9000837B6B017C0129893A894B895C89698147
:101AA0007A818B819C810E944A799B01AC01C5019E
:101AB000B4010E94847AD1012D913D914D915C91A8
:101AC0000E94857A4B015C0129853A854B855C85AE
:101AD00069817A818B819C810E944A79A30192015C
:101AE0000E94857A9B01AC016091690470916A043F
:101AF00080916B0490916C040E94847A9B01AC01EC
:101B0000C501B4010E94837B4B015C01A7019601D2
:101B10006D817E818F8198850E944A792B013C01DD
:101B2000A501940169857A858B859C850E944A79F7
:101B30009B01AC01C301B2010E94847A2B013C01DC
:101B40002D853E854F85588969897A898B899C893D
:101B50000E94847A9B01AC01C301B2010E94857A84
:101B60002B013C01A5019401C701B6010E94857AB1
:101B70009B01AC0169817A818B819C810E94837B6E
:101B80009B01AC01C301B2010E944A796B017C0147
:101B9000ED89FE89208131814281538160917904F0
:101BA00070917A0480917B0490917C040E944A7920
:101BB0009B01AC01C701B6010E94857A68960FB6F9
:101BC000F894DEBF0FBECDBFDF91CF911F910F9173
:101BD000FF90EF90DF90CF90BF90AF909F908F904D
:101BE0007F906F905F904F903F902F900895FC01F1
:101BF000248135816217730748F4808191810097B1
:101C000029F0860F971FFC018081089580E00895D8
:101C10002F923F924F925F926F927F928F929F92FC
:101C2000AF92BF92CF92DF92EF92FF920F931F93EA
:101C3000CF93DF9300D01F92CDB7DEB79C838B8309
:101C40001B01EB81FC811081E12EF12CB70186EBA9
:101C500099E00E94F70D2091BA093091BB098032BA
:101C600041F4E216F30628F41F5FEB81FC81108338
:101C7000E8CF812C412C512C80E8682E8FE3782E00
:101C8000C12CD12C7601912C1982EB81FC81F08141
:101C9000FA830F2F10E0A090BA09B090BB09B801E9
:101CA00086EB99E00E94F70DE82F0A151B0580F5D9
:101CB0008D3209F476C08E3209F476C080ED8E0F35
:101CC0008A3008F58394AAE0B0E0A70196010E944B
:101CD000407ACE2EEE0FDD08EE08FF08C60ED71EA6
:101CE000E81EF91E80E3C81AD108E108F10899201E
:101CF00051F02DEC3CEC4CEC5DE3C301B2010E94D1
:101D00004A792B013C018A818F5FEB81FC818083C2
:101D1000EB81FC81008110E0B80186EB99E00E9424
:101D2000F70D80330CF443C08A330CF445C060E0F7
:101D300070E0CB018820F1F0F981FF2341F0F094AD
:101D4000E094D094C094C11CD11CE11CF11CC701CB
:101D5000B6010E94EB78992021F0A30192010E9424
:101D60004A79F101608371838283938360E070E03C
:101D700080E89FE30F900F900F900F90DF91CF912D
:101D80001F910F91FF90EF90DF90CF90BF90AF9099
:101D90009F908F907F906F905F904F903F902F908B
:101DA0000895E1E0E983AFCF99249394ACCF8E32CC
:101DB00009F0BDCF9110BBCF8091BA099091BB09BA
:101DC0000817190708F461CFB2CFFC0124813581CF
:101DD0006217730720F480819181009729F4109293
:101DE0002A048AE294E00895860F971F08950895C3
:101DF000AF92BF92CF92DF92EF92FF920F931F9319
:101E0000CF93DF936C017B018B01040F151FEB0156
:101E10005E01AE18BF08C017D10759F06991D6010D
:101E2000ED91FC910190F081E02DC6011995892B6F
:101E300079F7C501DF91CF911F910F91FF90EF903E
:101E4000DF90CF90BF90AF900895FC014481558101
:101E50006081718183E195E00C94F80EFC01538D53
:101E6000448D252F30E0842F90E0821B930B541774
:101E700010F0CF96089501970895FC01918D828D01
:101E8000981761F0A28DAE0FBF2FB11D5D968C919A
:101E9000928D9F5F9F73928F90E008958FEF9FEFD9
:101EA0000895FC01918D828D981731F0828DE80F95
:101EB000F11D858D90E008958FEF9FEF0895FC014F
:101EC000918D228D892F90E0805C9F4F821B91091C
:101ED0008F739927089583E195E00E945F0F21E0B9
:101EE000892B09F420E0822F0895FC01A48DA80F0E
:101EF000B92FB11DA35ABF4F2C91848D90E001964C
:101F00008F739927848FA689B7892C93A089B1896B
:101F10008C91837080648C93938D848D981306C00C
:101F20000288F389E02D80818F7D80830895EF9270
:101F3000FF920F931F93CF93DF93EC0181E0888F83
:101F40009B8D8C8D98131AC0E889F989808185FF53
:101F500015C09FB7F894EE89FF896083E889F989F5
:101F600080818370806480839FBF81E090E0DF91F7
:101F7000CF911F910F91FF90EF900895F62E0B8D4A
:101F800010E00F5F1F4F0F731127E02E8C8D8E1105
:101F90000CC00FB607FCFACFE889F989808185FF6C
:101FA000F5CFCE010E94750FF1CFEB8DEC0FFD2F19
:101FB000F11DE35AFF4FF0829FB7F8940B8FEA8927
:101FC000FB8980818062CFCF0F931F93CF93DF93E4
:101FD0008C01D0E0C0E0F801EC0FFD1F6491662396
:101FE00041F083E195E00E94970F892B11F0219633
:101FF000F2CFCE01DF91CF911F910F910895682FFD
:1020000083E195E00C94970FCF93DF93EC01888DDB
:102010008823B9F0AA89BB89E889F9898C9185FD63
:1020200003C0808186FD0DC00FB607FCF7CF8C91F1
:1020300085FFF2CF808185FFEDCFCE010E94750F25
:10204000E9CFDF91CF91089580E090E0892B29F0CE
:102050000E946B0F81110E94000080E090E0892BAC
:1020600049F080E090E0892B29F00E940000811166
:102070000E94000080E090E0892B49F080E090E031
:10208000892B29F00E94000081110E94000080E04D
:1020900090E0892B49F080E090E0892B29F00E94A4
:1020A000000081110C94000008958150823108F0E5
:1020B0005AC0E82FF0E08827EF59FF4E8F4F0C945D
:1020C000B27E81108510731079107D10B3108810C6
:1020D0008E10921098109C10A010A610AA10B31089
:1020E000AE10B410B810809180008F77809380007C
:1020F0000895809180008F7DF9CF80918000877F47
:10210000F5CF84B58F7784BD089584B58F7DFBCFDF
:102110008091B0008F778093B00008958091B000D7
:102120008F7DF9CF809190008F77809390000895F4
:10213000809190008F7DF9CF80919000877FF5CFBF
:102140008091A0008F778093A00008958091A000D7
:102150008F7DF9CF8091A000877FF5CF80912001FE
:102160008F77809320010895809120018F7DF9CF92
:1021700080912001877FF5CFCF93DF93282F30E028
:10218000F901EE58F44F8491F901E85CF84ED491CE
:10219000F901E856F84EC491CC23A1F081110E94B8
:1021A0005510EC2FF0E0EE0FFF1FE258F84EA5910E
:1021B000B491EC91ED2381E090E009F480E0DF91AF
:1021C000CF91089580E090E0FACF1F93CF93DF93F3
:1021D000282F30E0F901EE58F44F8491F901E85CC2
:1021E000F84ED491F901E856F84EC491CC23A9F0E9
:1021F000162F81110E945510EC2FF0E0EE0FFF1FFB
:10220000E85AF44FA591B4918FB7F894EC9111115D
:1022100008C0D095DE23DC938FBFDF91CF911F9153
:102220000895DE2BF8CFCF93DF9390E0FC01E85CBC
:10223000F84E24918856984EFC0184918823C9F069
:1022400090E0880F991FFC01E25CF44FA591B491D6
:10225000FC01E85AF44FC591D49161110DC09FB7AC
:10226000F8948C91209582238C938881282328834D
:102270009FBFDF91CF910895623051F49FB7F894DA
:102280003C91822F809583238C93E8812E2BEFCF76
:102290008FB7F894EC912E2B2C938FBFEACF1F931E
:1022A000CF93DF93182FEB0161E00E941311209769
:1022B00039F460E0812FDF91CF911F910C94E510EC
:1022C000CF3FD10511F461E0F5CFE12FF0E0EE58FA
:1022D000F44FE491E150E23108F0B3C0F0E0882718
:1022E000EB58FE4E8F4F0C94B27E87118F119411D4
:1022F0009E11A8112112B211BA11C211CC11D6111E
:10230000E011EF11F911211203120D12171284B509
:10231000806884BDC7BDDF91CF911F91089584B5BA
:10232000806284BDC8BDF7CF8091800080688093B3
:102330008000D0938900C0938800EDCF8091800009
:10234000806280938000D0938B00C0938A00E3CF9B
:1023500080918000886080938000D0938D00C0932E
:102360008C00D9CF8091B00080688093B000C0937A
:10237000B300D1CF8091B00080628093B000C09351
:10238000B400C9CF80919000806880939000D09372
:102390009900C0939800BFCF809190008062809395
:1023A0009000D0939B00C0939A00B5CF809190008D
:1023B000886080939000D0939D00C0939C00ABCF29
:1023C0008091A00080688093A0008091A0008F7B06
:1023D0008093A000D093A900C093A8009CCF8091C7
:1023E000A00080628093A000D093AB00C093AA00AD
:1023F00092CF8091A00088608093A000D093AD0020
:10240000C093AC0088CF8091200180688093200128
:10241000D0932901C09328017ECF80912001806252
:1024200080932001D0932B01C0932A0174CF809117
:102430002001886080932001D0932D01C0932C014E
:102440006ACFC038D1050CF03ECF33CF3FB7F894F8
:102450008091260490912704A0912804B09129042A
:1024600026B5A89B05C02F3F19F00196A11DB11DEF
:102470003FBFBA2FA92F982F8827BC01CD01620F2B
:10248000711D811D911D42E0660F771F881F991FE6
:102490004A95D1F708952FB7F8946091220470916E
:1024A000230480912404909125042FBF089508955A
:1024B000CF93DF93DB01EA01FC01E35EFB4F408138
:1024C0005CE0589F9001599F300D112447FF1CC0BC
:1024D00011961C921E9280818F5F80838081A9015A
:1024E000480F511D87FD5A9557FF03C080818C30DE
:1024F000ACF08D919C911197049680349C4938F1F1
:102500008D919C91049625C08081A901480F511D91
:1025100087FD5A9557FFDFCF8081DDCF8D919C914C
:102520004081240F311D47FD3A95D901AA0FBB1FE9
:10253000A20FB31FA357BC4F11962D913C91820F50
:10254000931F998388838081DF91CF91089580E4E0
:102550009CE9998388838FEF8083F6CF009709F4F5
:1025600048C097FF03C091958195910984309105EA
:1025700014F083E090E02091120521113DC02091DC
:102580001105211139C020911005211104C020919D
:102590008C03222351F08430910514F083E090E005
:1025A0008230910514F482E090E02091B100287F00
:1025B0002093B10020919100287F209391002091D9
:1025C000A100287F2093A100282F83309105BCF023
:1025D0009091B1008F5F892B8093B1009091910011
:1025E000922B909391008091A100822B8093A10067
:1025F000089581E090E0BFCF83E090E0D6CF909146
:10260000B100E9CFAF92BF92CF92DF92EF92FF92EB
:102610000F931F93CF93DF9362E086E10E94131123
:1026200062E087E10E94131162E088E10E941311C9
:1026300062E089E10E94131162E08AE10E941311B5
:1026400062E08BE10E9413118BE10E94BC10EC014F
:102650008AE10E94BC105C0189E10E94BC106C01FF
:1026600088E10E94BC107C0187E10E94BC108C01B3
:1026700086E10E94BC109E01220F331F2A0D3B1DD4
:10268000220F331F2C0D3D1D220F331F2E0D3F1D1A
:10269000220F331F200F311F220F331F820F931F72
:1026A00010921205109210051092110510928C03D1
:1026B00089309105A9F0FCF486309105D9F13CF4FC
:1026C000843091058CF58830910564F109C087301C
:1026D0009105A1F188309105B1F721E02093110512
:1026E000DF91CF911F910F91FF90EF90DF90CF90EE
:1026F000BF90AF9008958C339105B1F054F48A30B7
:10270000910559F38B309105F1F621E020938C036C
:10271000E7CF8034910524F0893422E0920799F6BE
:10272000837099270197DCCF8570992721E020934A
:102730001205F8CF21E020931105F4CF21E020937A
:102740001005F0CF83E195E00C943D0F83E195E017
:102750000C945F0FCF93DF9383E195E00E94970F76
:10276000EC0183E195E00E940410CE01DF91CF914E
:10277000089590E080E008954F925F926F927F926B
:102780008F929F92AF92BF92CF92DF92EF92FF9281
:10279000CF93DF93CDB7DEB72E970FB6F894DEBF99
:1027A0000FBECDBF9E878D87DC019096ED91FC9189
:1027B00080819181A281B38189839A83AB83BC8319
:1027C000AD85BE859496ED91FC9160817181828189
:1027D000938129813A814B815C810E94847A4B01EB
:1027E0005C01ED85FE8526A537A540A951A9698123
:1027F0007A818B819C810E94847A6B017C01AD85FA
:10280000BE8554962D913D914D915C915797C50190
:10281000B4010E944A79ED85FE8522A533A544A521
:1028200055A50E94857A2B013C01AD85BE859A96FF
:102830004D925D926D927C929D9711968C9111971D
:102840008823B1F016962D913D914D915C91199789
:10285000C701B6010E944A799B01AC01C301B201D4
:102860000E94847AED85FE8562A773A784A795A749
:10287000AD85BE859A968D919D910D90BC91A02DB0
:102880008D839E83AF83B887ED85FE8542AC53ACC4
:1028900064AC75ACA3019201BC01CD010E94C57C62
:1028A000AD85BE8518160CF075C09A964D925D9256
:1028B0006D927C929D97AD85BE858C91882309F49D
:1028C00088C012962D913D914D915C911597C5014F
:1028D000B4010E944A794B015C01ED85FE85208D93
:1028E000318D428D538DC701B6010E944A799B01FB
:1028F000AC01AD85BE859A966D917D918D919C912F
:102900009D970E94847AA50194010E94857A6B01AB
:102910007C019B01AC01C301B2010E94E47887FDF8
:1029200010C0ED85FE8546A857A860AC71ACA30128
:102930009201B601C7010E94E47887FD02C026011A
:102940003701AD85BE859296ED91FC914082518212
:102950006282738289819A81AB81BC81ED85FE851B
:1029600086A797A7A0ABB1AB81E02E960FB6F894DF
:10297000DEBF0FBECDBFDF91CF91FF90EF90DF9014
:10298000CF90BF90AF909F908F907F906F905F900F
:102990004F900895D6968D919D910D90BC91A02D4C
:1029A00089879A87AB87BC879C01AD016D817E8149
:1029B0008F8198850E94E47887FF7DCF89859A85ED
:1029C000AB85BC85ED85FE8582A793A7A4A7B5A797
:1029D00072CF812C912C540180CF8F929F92AF9215
:1029E000BF92CF92DF92EF92FF92CF93DF93EC01F1
:1029F000EAA1FBA1C080D180E280F380CAA6DBA659
:102A0000ECA6FDA6E8A1F9A180819181A281B38104
:102A10008EA79FA7A8ABB9AB8AAC9BACACACBDAC46
:102A2000A5019401C701B6010E94C57C18162CF4BB
:102A30008AA69BA6ACA6BDA60CC08EA89FA8A8ACD3
:102A4000B9ACA5019401C701B6010E94E47887FDE5
:102A5000EFCFDF91CF91FF90EF90DF90CF90BF90BD
:102A6000AF909F908F9008958F929F92AF92BF9258
:102A7000CF92DF92EF92FF920F931F93CF93DF934A
:102A8000EC018A01FB01C080D180E280F380FA0171
:102A90002081318142815381C701B6010E94C57CEA
:102AA00087FF5CC0CEAADFAAE8AEF9AEF80160816C
:102AB0007181828193816AAF7BAF8CAF9DAF2EAD68
:102AC000222309F44BC00AA11BA1F8012081318106
:102AD000428153810E94E47887FF1EC08AAD9BAD7E
:102AE000ACADBDADF80180839183A283B3838AA48A
:102AF0009BA4ACA4BDA4CAACDBACECACFDACA70100
:102B00009601C501B4010E94C57C1816DCF4CAA662
:102B1000DBA6ECA6FDA622C0F8012081318142810E
:102B20005381C701B6010E94C57C18162CF48EA9EA
:102B30009FA9A8ADB9ADD6CFF80180819181A281BE
:102B4000B381D0CFCEA8DFA8E8ACF9ACA70196013D
:102B5000C501B4010E94E47887FDD9CFDF91CF9100
:102B60001F910F91FF90EF90DF90CF90BF90AF90AB
:102B70009F908F9008952F923F924F925F926F9205
:102B80007F928F929F92AF92BF92CF92DF92EF92FD
:102B9000FF920F931F93CF93DF93CDB7DEB72C97A0
:102BA0000FB6F894DEBF0FBECDBF9C878B877A83AC
:102BB00069835A8749871901DB018D919D910D9099
:102BC000BC91A02D8D839E83AF83B88720E030E039
:102BD000A901BC01CD010E94E47887FDEFC0E98521
:102BE000FA85C080D180E280F38020E030E0A90146
:102BF000C701B6010E94E47887FDE0C0D1018D9045
:102C00009D90AD90BC9020E030E0A901C501B401D9
:102C10000E94E47887FDD2C0F80140805180628034
:102C2000738020E030E0A901C301B2010E94E47882
:102C300087FDC4C020E030E040E85FE3C301B2019B
:102C40000E94C57C18160CF4B9C011E020E030E0F9
:102C5000A901C301B2010E94C57C18160CF010E056
:102C6000AB85BC851C9320E030E040E85FE3C30106
:102C7000B2010E94E478881F8827881FEB85FC85B5
:102C8000818389819A8193878287A985BA85B5874F
:102C9000A4873786268662A973A984A995A90E946C
:102CA000E97820E030E04AE754E40E94837B6983BE
:102CB0007A838B839C838D819E81AF81B885EB85E0
:102CC000FC85808B918BA28BB38B29813A814B81C0
:102CD0005C81C701B6010E944A796B017C01AB851A
:102CE000BC855496CD92DD92ED92FC925797298146
:102CF0003A814B815C81C501B4010E94837B4B0109
:102D00005C01EB85FC85808E918EA28EB38E848DC6
:102D1000958D019769F52D813E814F81588560E041
:102D200070E0CB010E94847AAB85BC8550966D9390
:102D30007D938D939C935397A701960160E070E07B
:102D4000CB010E94847AEB85FC85648B758B868B26
:102D5000978BA501940160E070E0CB010E94847A1A
:102D6000AB85BC8558966D937D938D939C935B97B3
:102D7000EB85FC85C088D188E288F388A70196019D
:102D8000C301B2010E944A79AB85BC8512966D934E
:102D90007D938D939C931597A301920160E070E061
:102DA00080E89FE30E94847AA70196010E944A79F5
:102DB000EB85FC8566837783808791872C960FB699
:102DC000F894DEBF0FBECDBFDF91CF911F910F9161
:102DD000FF90EF90DF90CF90BF90AF909F908F903B
:102DE0007F906F905F904F903F902F9008956F92DB
:102DF0007F928F929F92AF92BF92CF92DF92EF928B
:102E0000FF920F931F93CF93DF93CDB7DEB73C01B3
:102E1000C8018501F30153A342A371A360A335A3A5
:102E200024A316AE16AA17AA10AE11AE40E050E0C9
:102E30006FE773E442AF53AF64AF75AF44E650E061
:102E400060E070E042AB53AB64AB75ABF401208142
:102E50003181F301358F248F9601A701BC01C30195
:102E60000E94BB150E944B12F30102A913A924A9C9
:102E700035A9601B710B820B930B66A377A380A708
:102E800091A7DF91CF911F910F91FF90EF90DF906D
:102E9000CF90BF90AF909F908F907F906F9008954C
:102EA000823109F468C030F48230E1F0833069F196
:102EB00080E008958431D9F108F44BC08531C1F721
:102EC00070936B0360936A038AE89DE19093050217
:102ED00080930402809169008C7F816080936900F7
:102EE000E89A11C0709367036093660386E99DE1D9
:102EF000909301028093000280916A008C7F816030
:102F000080936A00EC9A81E008957093690360935E
:102F1000680380E99DE1909303028093020280910F
:102F20006A00837F846080936A00ED9AECCF70938F
:102F30006D0360936C0384E89DE190930702809396
:102F4000060280916900837F846080936900E99A1A
:102F5000DACF70936F0360936E038EE79DE19093D9
:102F6000090280930802809169008F7C80618093C0
:102F70006900EA9AC8CF709371036093700388E781
:102F80009DE190930B0280930A02809169008F73F8
:102F9000806480936900EB9AB6CFEF92FF920F9313
:102FA0001F93CF93DF93EC018E81811103C04423E3
:102FB00009F4F3C080913004909131048A9709F4A8
:102FC000ECC08B016F3F710519F014F00FEF10E0AA
:102FD00001302FEF120714F401E01FEF18AF0FAB11
:102FE00017FF03C01195019511098A819B818430D7
:102FF000910539F031E0AC014B5051094330510596
:1030000008F430E0EC80FD8024E0E216F10429F0C1
:1030100041E0F7013B97339708F440E02091120517
:10302000211118C0E881F981E430F10531F021E087
:10303000DF011B97139708F420E0509111055523E9
:1030400009F445C077FD3EC0672BC1F1B8010E946D
:103050004F1119C077FD21C0672B91F04423B1F3C4
:1030600061E00E94E5106FEF70E0601B710B8C81D6
:10307000DF91CF911F910F91FF90EF900C944F1122
:1030800060E00E94E51060E08C81DF91CF911F919C
:103090000F91FF90EF900C94E510332341F06FEF08
:1030A00070E0601B710B0E944F1161E0EDCFB80121
:1030B0008E2D0E944F1160E08A81E7CF61E00E946F
:1030C000E510F3CF60E00E94E510B801D0CF509139
:1030D0001005511109C050918C035523F9F0A9AD89
:1030E000BAAD5C915A35D1F02091770330917803D5
:1030F000672FE217F30761F4661F6627661F0E94B9
:10310000E510B80188810E944F1160E08E2DBDCF7F
:103110002091E504213081F76095EECF77FD23C043
:10312000222351F061E00E94E51060E08C810E9452
:10313000E510B80188819CCF442369F061E00E94CA
:10314000E5106FEF70E0601B710B8C810E944F11D6
:1031500061E088819ACFB8010E944F1160E08C81B4
:103160000E94E510F5CF222339F061E08E2D0E94F8
:10317000E51060E08A81DBCF332341F06FEF70E030
:10318000601B710B0E944F1161E0E9CFB8018E2DD9
:103190000E944F1160E08A81E3CFDF91CF911F91B0
:1031A0000F91FF90EF9008952F923F924F925F9270
:1031B0006F927F928F929F92AF92BF92CF92DF9247
:1031C000EF92FF920F931F93CF93DF93CDB7DEB7AC
:1031D000A0970FB6F894DEBF0FBECDBF3C012B0108
:1031E0004A013A8F298FD8A2CF8E15011D8A1E8AD7
:1031F0001F8A188E80E090E0A0E8BFE3898B9A8B4D
:10320000AB8BBC8B930126533F4F3C8F2B8FCE0152
:103210004596D9018D939C93F301E853FF4FFE8FA0
:10322000ED8F91838083329791838083D701ED90D6
:10323000FC90F8010081118162E0802F0E9413113F
:1032400062E08E2D0E941311A8015527FA01E8565D
:10325000F84EE491F0E0EE0FFF1FE258F84EA59112
:10326000B491F301B183A083485C584EFA014491B4
:10327000F3014483C7019927FC01E856F84EE49115
:10328000F0E0EE0FFF1FE258F84E25913491F30164
:1032900033832283885C984EFC018491F3018583FB
:1032A0001782108611861286EBE3FFE13197F1F762
:1032B000EC914E2391E009F490E0D901EC91E823E0
:1032C00009F09260F3019683B301802F0E9450179A
:1032D000D30153968C93B3018E2D0E945017F301A6
:1032E0009389890F838B1D861E861F86188A80E02E
:1032F00090E0A0E8BFE389879A87AB87BC8783010A
:1033000000551F4FCE010D96D8018D939C93E25529
:10331000FF4F918380833297918380837301B4E15F
:10332000EB0EF11CF20180819181D30154968C93B4
:10333000549755969C935597F40190812181569608
:103340009C93569757962C93A98DBA8D2D913C91AD
:10335000F301318F208F128E209112052223C1F0AC
:1033600060E00E94131161E0D30156968C910E9497
:10337000131161E0F301808D0E94131161E0D3010C
:1033800056968C910E94E51061E0F301808D18C083
:1033900020911105222309F46EC161E0892F0E945A
:1033A000131161E0D30158968C910E94131160E0D3
:1033B000F30186890E94E51060E0D30158968C9154
:1033C0000E94E51040E070E060E0C7010E94CD1768
:1033D0002301BDE64B0E511C1A821982F801C080F0
:1033E000D180F301E255FF4FE080F18032970081F8
:1033F00011819E012F5F3F4F4901CE0109965C016B
:103400009301215B3F4FA30147595F4FB3016D5AB1
:103410007F4FC2010E94F716D201DE968C91811176
:1034200003C0C2010E94ED1481E0F20186AF80E08A
:1034300090E0AFE7B3E489839A83AB83BC8380E0F9
:1034400090E0AFE7B3EC8D839E83AF83B887AE0186
:103450004F5F5F4FBE016B5F7F4FC2010E9434150B
:10346000D1016D917D918D919C9128EE33E040E0EA
:1034700050E00E94537A12161306ECF56901330FDF
:10348000EE08FF08C701B6010E94EB784B015C0112
:10349000F20162A973A984A995A90E94E9789B0108
:1034A000AC01C501B4010E94837B4B015C01AC01FE
:1034B0009B01D20154966D917D918D919C9157976E
:1034C0000E944A79F201648B758B868B978BA501DC
:1034D0009401608D718D828D938D0E94837BD201CA
:1034E00058966D937D938D939C935B97F201C2AA3E
:1034F000D3AAE4AAF5AA2301FCEC4F0E511C81E0EB
:1035000090E09A838983AB8DBC8DCD90DC90ED8D5E
:10351000FE8DE080F180F301EA53FF4F00811181BD
:103520009E012F5F3F4F4901CE0141965C019301FF
:1035300026543F4FA3014E535F4FB30162547F4F58
:10354000C2010E94F716AF8DB8A18C918301005F74
:103550001E4FF8018083D201DE968C91811103C049
:10356000C2010E94ED1481E0F20186AF80E090E09C
:10357000A0EAB1E489839A83AB83BC8380E090E0C6
:10358000A0EAB1EC8D839E83AF83B887AE014F5F15
:103590005F4FBE016B5F7F4FC2010E943415D101A6
:1035A0006D917D918D919C9128EE33E040E050E04B
:1035B0000E94537A12161306ECF56901330FEE08D8
:1035C000FF08C701B6010E94EB784B015C01F201D4
:1035D00062A973A984A995A90E94E9789B01AC010D
:1035E000C501B4010E94837B4B015C01AC019B01CE
:1035F000D20154966D917D918D919C9157970E9427
:103600004A79F201648B758B868B978BA5019401A7
:10361000608D718D828D938D0E94837BD20158962F
:103620006D937D938D939C935B97F201C2AAD3AA6D
:10363000E4AAF5AAF301E959FF4F118300837A97B1
:1036400011830083A0960FB6F894DEBF0FBECDBFE6
:10365000DF91CF911F910F91FF90EF90DF90CF906E
:10366000BF90AF909F908F907F906F905F904F90A2
:103670003F902F9008959091100561E0992371F08B
:103680000E94131161E0F30186890E94131161E029
:10369000D30158968C910E94131176CE0E9413117B
:1036A00061E0D30156968C910E94131161E0F30101
:1036B000808D0E94131161E0D30156968C910E9477
:1036C000E51060E0F301808D0E94E51060E0D30119
:1036D00054968C9175CE41E00C94CD17CF93DF9327
:1036E000EC018E818823F1F080911205882349F046
:1036F00060E08A810E94E51060E08C810E94E51004
:1037000011C0809111058111F3CF8091100561E006
:10371000882361F08C810E94E51070E060E0888170
:103720000E944F111E82DF91CF9108958A810E94DD
:10373000E51060E08C810E94E51060E08881DECFBA
:103740002F923F924F925F926F927F928F929F92B1
:10375000AF92BF92CF92DF92EF92FF920F931F939F
:10376000CF93DF93EC011B010E944B12FE01EA5440
:10377000FF4F6083718382839383E65AFF4F80817A
:103780008E01055F1E4FC654DF4F8A3509F059C0C0
:10379000C0900705D0900805E0900905F0900A0553
:1037A000D1014D905D906D907C90D801ED91FC9190
:1037B00080809180A280B380A7019601C701B601E5
:1037C0000E94167E811125C0A3019201C701B60196
:1037D0000E94E47887FF1DC0A5019401C701B601CE
:1037E0000E94837B688379838A839B83DF91CF9157
:1037F0001F910F91FF90EF90DF90CF90BF90AF900F
:103800009F908F907F906F905F904F903F902F9000
:103810000895C0900B05D0900C05E0900D05F09038
:103820000E05A7019601C701B6010E94167E8111FF
:1038300008C0A3019201C701B6010E94C57C1816F9
:103840005CF2D801ED91FC9120813181428153815C
:10385000F1016081718182819381C2CF0F931F93A7
:10386000CF93DF93EC010E944B12FE01EA54FF4F0D
:103870000081118122813381AB01BC01401B510BBE
:10388000620B730B8091820490918304B0E0A0E0FE
:1038900084179507A607B70740F4CE014496DF9139
:1038A000CF911F910F910C946E1BDF91CF911F91BF
:1038B0000F9108956F927F928F929F92AF92BF92D5
:1038C000CF92DF92EF92FF920F931F93CF93DF93EC
:1038D000CDB7DEB73C01FC01EA53FF4F7183608333
:1038E00032965183408332963183208384539F4F95
:1038F0000E94BB15F301E455FF4FF182E08232963E
:10390000D182C0823296B182A08284019501A60143
:10391000B701C30183599F4F0E94BB15DF91CF911F
:103920001F910F91FF90EF90DF90CF90BF90AF90DD
:103930009F908F907F906F900895CF92DF92EF923B
:10394000FF92CF93DF93EC01FB01C080D180E28036
:10395000F380C701B6010E94EB78FE01E35FFE4FE2
:103960000190F081E02D20813181428153810E94BC
:10397000837BFE01E654FF4F6083718382839383D0
:10398000F894CF82D886E986FA867894DF91CF9131
:10399000FF90EF90DF90CF900895CF92DF92EF925B
:1039A000FF92CF93DF93EC01E881F9819081EA8166
:1039B000FB8180812D818223EE81E3702C81922313
:1039C00009F0E4608111E8608E2F90E0959587956D
:1039D000959587958E83E150EE3008F034C0F0E085
:1039E0008827EA50F34E8F4F0C94B27E041D2A1D97
:1039F000441D2A1D231D5E1D041D041D5E1D231D67
:103A00002A1D441D2A1D041D8F819885A985BA850C
:103A10000196A11DB11D8F839887A987BA870E943F
:103A20002612CF84D888E988FA886C197D098E0916
:103A30009F096B877C878D879E870E9426126F87E0
:103A4000788B898B9A8BDF91CF91FF90EF90DF90ED
:103A5000CF9008958F819885A985BA850197A1098E
:103A6000B1098F839887A987BA87CF84D888E988D6
:103A7000FA880E942612C61AD70AE80AF90ACB86E3
:103A8000DC86ED86FE86D9CF8F819885A985BA859B
:103A90000296A11DB11D8F839887A987BA870E94BE
:103AA0002612CF84D888E988FA886C197D098E0996
:103AB0009F099695879577956795BBCF8F81988558
:103AC000A985BA850297A109B1098F839887A9872B
:103AD000BA87CF84D888E988FA880E942612C61A45
:103AE000D70AE80AF90AF694E794D794C794C7CF9F
:103AF00080917003909171030C94CD1C80916E03A2
:103B000090916F030C94CD1C80916C0390916D0388
:103B10000C94CD1C80916A0390916B030C94CD1C86
:103B200080916803909169030C94CD1C8091660389
:103B3000909167030C94CD1CCF93DF93EC018B899C
:103B4000823060F4F894CE010E94CD1C6F8178859C
:103B500089859A857894DF91CF910895F894F6CF6E
:103B60002F923F924F925F926F927F928F929F928D
:103B7000AF92BF92CF92DF92EF92FF920F931F937B
:103B8000CF93DF9300D000D01F921F92CDB7DEB746
:103B900098878F830E949C1D0E94EB7869837A83AB
:103BA0008B839C830E9426120E94E9782B013C01A2
:103BB0002F80388427E5220E311CF10120813181CC
:103BC0004281538169817A818B819C810E94847AB0
:103BD0006B017C0120E030E040E450E40E94C57CB1
:103BE0002F813885255A3F4F3E832D83181654F078
:103BF00020E030E040E450ECB601C7010E94E478D8
:103C000087FF9EC00F811885015A1F4FF801208140
:103C1000318142815381B601C7010E94847A4B01F0
:103C20005C0120E030E040E85FEB0E94E478181689
:103C30000CF470C020E030E040E05FE3B601C70163
:103C40000E94857A46015701F80180829182A28202
:103C5000B382ED81FE8180809180A280B3800F814C
:103C600018850D591F4FAF81B885AE54BF4F2D91A8
:103C70003D914D915C910E944A796B017C01A501B7
:103C80009401C301B2010E94847A0E94FC7B0E94CD
:103C9000E9789B01AC01C701B6010E94837BF80162
:103CA00060837183828393832F8138852D593F4FA1
:103CB000F901608171818281938190586083718361
:103CC00082839383ED81FE8140825182628273827E
:103CD00029813A814B815C81F101208331834283C8
:103CE000538328960FB6F894DEBF0FBECDBFDF9189
:103CF000CF911F910F91FF90EF90DF90CF90BF90E9
:103D0000AF909F908F907F906F905F904F903F907B
:103D10002F90089520E030E040E85FE3C501B40152
:103D20000E94C57C87FD09C020E030E040E05FE3F1
:103D3000B601C7010E94847A85CFB601C70182CF40
:103D4000EF81F8858389823008F071C0F8948F8103
:103D500098850E94CD1CEF81F885638574858585E3
:103D6000968578940E94EB786B017C010E94261264
:103D70004B015C01EF81F8858389823008F059C0DE
:103D8000F8948F8198850E94CD1CEF81F8858785F6
:103D90009089A189B2897894A5019401281B390BD7
:103DA0004A0B5B0BCA01B9010E94E9784B015C0127
:103DB00020E030E0A901C701B6010E94C57C0F8157
:103DC00018850D591F4F1816B4F1A70196015058C8
:103DD000C501B4010E94C57C18167CF420E030E0D7
:103DE000A901C701B6010E94E4787501640187FF4B
:103DF00004C0F7FAF094F7F8F094F80110821182F9
:103E00001282138220E030E0A901C701B6010E94AE
:103E1000E478882309F448CFA7019601EF81F8855B
:103E2000EE54FF4F608171818281938136CFF89487
:103E300092CFF894AACFA5019401C701B6010E94C0
:103E4000E47887FDCBCFE8CFCF92DF92EF92FF925D
:103E5000CF93DF93EC010E949C1DFE01E654FF4FBF
:103E6000C080D180E280F3800E94EB78FE01E35FA6
:103E7000FE4F0190F081E02D2081318142815381FC
:103E80000E94837BA70196010E94847AC55FDE4F62
:103E9000E881F98120813181428153810E944A79F0
:103EA000DF91CF91FF90EF90DF90CF900895CF9367
:103EB000DF93EC010E949C1D0E94EB78FE01E35F02
:103EC000FE4F0190F081E02D2081318142815381AC
:103ED0000E94837BC55FDE4FE881F98120813181BB
:103EE000428153810E944A79DF91CF910895CF9307
:103EF000DF93EC010E944B12FE01EA54FF4F6083F6
:103F0000718382839383CE010E94571FFE01E55F78
:103F1000FE4F0190F081E02D20813181428153815B
:103F20000E94837BC654DF4F688379838A839B8397
:103F3000DF91CF910895FC0101900020E9F73197BE
:103F4000AF01481B590BBC0183E195E00C94F80EBE
:103F50008CE592E00C949B1FCF93DF930E94E40FBB
:103F6000EC010E94A81F8C0F9D1FDF91CF91089537
:103F70002F923F924F925F926F927F928F929F9279
:103F8000AF92BF92CF92DF92EF92FF920F931F9367
:103F9000CF93DF93CDB7DEB7AD970FB6F894DEBF02
:103FA0000FBECDBF0E9402133C01892B09F096C0C1
:103FB00082E190E09E838D8383E190E098878F83F8
:103FC00089E090E09A8B898B88E090E09C8B8B8BCA
:103FD00086E090E09E8F8D8F82E090E09A878987BF
:103FE00083E090E09C878B878BE090E09E8B8D8BAD
:103FF0008AE090E0988F8F8B87E090E098A38F8F76
:1040000085E190E09E878D8784E190E0988B8F8793
:104010008CE090E09A8F898F8DE090E09C8F8B8F61
:1040200085E090E09AA389A3312C212C8FEF9FEF9C
:104030009BA78AA7AFEFBFEFB9A7A8A7B1E0BDA71D
:104040008EE0482E512C8FE08CA7A0E1B0E0BFA3FA
:10405000AEA381E190E09DA38CA380911005909187
:10406000E504913009F089C281116BC280E197E2C9
:10407000A0E0B0E089839A83AB83BC838CE48BA3FC
:10408000DE0111965D01CE0183966C011C967D01C7
:104090008E01015F1F4F9E01275E3F4FAE01455EBF
:1040A0005F4FBE016F5D7F4F8FE998E00E94D4188B
:1040B00080E197E2A0E0B0E089839A83AB83BC8380
:1040C00082E58BA3D50116967D010A5011099E0148
:1040D0002D5E3F4FAE014F5E5F4F88C291E0691683
:1040E000710409F057C084E190E09E838D8385E1DF
:1040F00090E098878F8386E090E09A8B898B84E0AC
:1041000090E09C8B8B8B85E090E09E8F8D8F83E180
:1041100090E09A87898782E190E09C878B8789E08D
:1041200090E09E8B8D8B87E090E0988F8F8B88E05E
:1041300090E098A38F8F82E090E09E878D8783E048
:1041400090E0988B8F878AE090E09A8F898F8BE040
:1041500090E09C8F8B8F8CE090E09AA389A3AFEFC7
:10416000BFEFBBA7AAA78FEF9FEF99A788A79CE3F4
:104170009DA72DE3222E312C3EE0432E512CAFE0A3
:10418000ACA780E190E09FA38EA3A1E1B0E0BDA326
:10419000ACA363CFB2E06B16710409F048C084E1B0
:1041A00090E09E838D8385E190E098878F8384E003
:1041B00090E09A8B898B86E090E09C8B8B8B85E0DE
:1041C00090E09E8F8D8F83E190E09A87898782E1CE
:1041D00090E09C878B8787E090E09E8B8D8B89E0B9
:1041E00090E0988F8F8B88E090E098A38F8F7E86E9
:1041F0006D8683E090E0988B8F878BE090E09A8FBC
:10420000898F8CE090E09C8F8B8F8AE090E09AA35E
:1042100089A38FEF9FEF9BA78AA7AFEFBFEFB9A747
:10422000A8A7BCE3BDA79DE3292E312C09CFC3016C
:1042300003970297D8F584E190E09E838D8385E112
:1042400090E098878F8386E090E09A8B898B84E05A
:1042500090E09C8B8B8B85E090E09E8F8D8F83E12F
:1042600090E09A87898782E190E09C878B8787E03E
:1042700090E09E8B8D8B89E090E0988F8F8B88E00B
:1042800090E098A38F8F82E090E09E878D8783E0F7
:1042900090E0988B8F878AE090E09A8F898F8BE0EF
:1042A00090E09C8F8B8F8CE090E087C0B5E06B1620
:1042B000710409F03FC082E090E09E838D8383E02B
:1042C00090E098878F8389E090E09A8B898B8AE0D1
:1042D00090E09C8B8B8B82E190E09A87898783E1C9
:1042E00090E09C878B8787E090E09E8B8D8B88E0A9
:1042F00090E0988F8F8B85E190E09E878D8784E199
:1043000090E0988B8F8786E090E09A8F898F7C8EE3
:104310006B8E8CE28DA71BE2212E312C02E3402E06
:10432000512C93E39CA7A1E3B0E0BFA3AEA380E32D
:1043300090E091CE96E06916710409F059C084E1CD
:1043400090E09E838D8385E190E098878F8384E061
:1043500090E09A8B898B85E090E09C8B8B8B86E03C
:1043600090E09E8F8D8F83E190E09A87898782E12C
:1043700090E09C878B8787E090E09E8B8D8B88E018
:1043800090E0988F8F8B89E090E098A38F8F909327
:1043900078038093770382E090E09E878D8783E0A7
:1043A00090E0988B8F878BE090E09A8F898F8CE0DC
:1043B00090E09C8F8B8F8AE090E09AA389A3AFE274
:1043C000B0E0BBA7AAA78EE290E099A788A795E4E2
:1043D0009DA7A4E42A2E312CBBE24B2E512CAAE23D
:1043E000ACA789E290E09FA38EA3A8E2B0E0CFCE75
:1043F000B7E06B16710409F430CE88E068167104DA
:10440000A9F584E190E09E838D8385E190E0988713
:104410008F8386E090E09A8B898B84E090E09C8B80
:104420008B8B85E090E09E8F8D8F83E190E09A8763
:10443000898782E190E09C878B8787E090E09E8B64
:104440008D8B89E090E0988F8F8B78A26F8E83E0C0
:1044500090E09E878D8782E090E0988B8F878BE03D
:1044600090E09A8F898F8AE090E01BCFC301099773
:10447000029708F055C084E190E09E838D8385E12A
:1044800090E098878F8386E090E09A8B898B84E018
:1044900090E09C8B8B8B85E090E09E8F8D8F83E1ED
:1044A00090E09A87898782E190E09C878B8787E0FC
:1044B00090E09E8B8D8B89E090E0988F8F8B88E0C9
:1044C00090E098A38F8F82E090E09E878D8783E0B5
:1044D00090E0988B8F878BE090E09A8F898F8AE0AD
:1044E00090E09C8F8B8F8CE090E09AA389A38FE261
:1044F00090E09BA78AA7AEE2B0E0B9A7A8A7B5E471
:10450000BDA7E4E42E2E312CFBE24F2E512C8AE283
:104510008CA7A9E2B0E0BFA3AEA388E290E09BCD58
:104520009BE06916710409F40ACF8EE69AE00E94B6
:10453000E40F80E099E00E94AC1F81E08093320498
:10454000FFCF80E197E2A0E0B0E089839A83AB835C
:10455000BC838CE48BA3DE0111965D01CE018396B2
:104560006C011C967D018E01015F1F4F9E01255E2F
:104570003F4FAE01475E5F4F94CD811104C180E192
:1045800097E2A0E0B0E089839A83AB83BC838CE49C
:104590008BA3DE0111965D01CE0183966C011E9600
:1045A0007D018E01035F1F4F9E01255E3F4FAE01CF
:1045B000475E5F4FBE016F5D7F4F8FE998E00E94BD
:1045C000D41880E197E2A0E0B0E089839A83AB83BE
:1045D000BC8382E58BA3D50114967D010650110999
:1045E0009E012F5E3F4FAE014D5E5F4FBE01635E89
:1045F0007F4F8EE897E00E94D41880E197E2A0E018
:10460000B0E089839A83AB83BC838AE58BA3CE0118
:1046100001965C01DE0193966D0108967C018E0186
:10462000055F1F4F9E01295E3F4FAE014B5E5F4FFE
:10463000BE01615E7F4F8DE796E00E94D4188DEB3E
:10464000882E84E0982E99EBA92E94E0B92E25EBC4
:10465000C22E24E0D22E31EBE32E34E0F32E0DEA0D
:1046600014E029EA34E045EA54E061EA74E08FE9B5
:1046700098E00E945A1C29EA34E045EA54E061EAD5
:1046800074E08EE897E00E945A1C4DED842E44E0C1
:10469000942E59EDA52E54E0B52E65EDC62E64E09E
:1046A000D62E71EDE72E74E0F72E0DEC14E029EC18
:1046B00034E045EC54E061EC74E08DE796E00E9454
:1046C0005A1C8DE290E0909376038093750361E02D
:1046D0000E941311ACA1BDA1B0937403A093730306
:1046E00095E06916710409F080C050922C04409244
:1046F0002B048EA19FA190932E0480932D04709083
:104700002B0461E0872D0E94131160E0872D0E9429
:10471000E51060E08CA50E9413112114310421F0F2
:1047200060E0822D0E94131160E08DA50E9413119C
:1047300088A599A51816190624F460E088A50E949A
:104740001311AAA5BBA51A161B0624F460E08AA5BE
:104750000E941311AD960FB6F894DEBF0FBECDBF09
:10476000DF91CF911F910F91FF90EF90DF90CF904D
:10477000BF90AF909F908F907F906F905F904F9081
:104780003F902F90089580E197E2A0E0B0E0898308
:104790009A83AB83BC838CE48BA3DE0111965D010D
:1047A000CE0183966C011E967D018E01035F1F4F23
:1047B0009E01255E3F4FAE01475E5F4FBE016F5DBC
:1047C0007F4F8FE998E00E94D41880E197E2A0E043
:1047D000B0E089839A83AB83BC8382E58BA3D50148
:1047E00014967D010650110972CC8EA19FA1909361
:1047F0002C0480932B0450922E0440922D047FCFE2
:10480000CF93DF930E94250FEC010E94A81F8C0F0D
:104810009D1FDF91CF9108958F929F92AF92BF928B
:104820000F931F93CF93DF93CDB7DEB7A1970FB64A
:10483000F894DEBF0FBECDBF19A2423008F44AE0A3
:104840008E010F5D1F4F842E912CB12CA12CA50140
:1048500094010E94537AE62FB901CA01EA30F4F4B8
:10486000E05DD801EE938D01232B242B252B79F7C6
:1048700090E080E0109719F0CD010E949B1FA19657
:104880000FB6F894DEBF0FBECDBFDF91CF911F9161
:104890000F91BF90AF909F908F900895E95CE1CF0A
:1048A000BC0190E080E04AE00C940C24CF92DF92AF
:1048B000EF92FF92CF93DF936C01990FEE08FF0800
:1048C000F7FE17C08DE20E94FF0FEC0166277727E5
:1048D000CB016C197D098E099F094AE00E940C24C6
:1048E0008C0F9D1FDF91CF91FF90EF90DF90CF90C5
:1048F00008954AE0C701B601DF91CF91FF90EF9094
:10490000DF90CF900C940C24CF93DF930E94562419
:10491000EC010E94A81F8C0F9D1FDF91CF9108957D
:10492000CF93DF93009761F460E0809175030E945C
:10493000E5101092520410925104DF91CF91089526
:104940002091030530910405281739070CF49C01C8
:10495000C0910505D09106052C173D070CF4E9011F
:10496000D0935204C093510484EE97E00E94E40F68
:1049700080910505909106050E94842485ED97E0BD
:104980000E94E40F80910305909104050E94842405
:1049900080EC97E00E94E40FCE010E9484242FEF68
:1049A00030E0DE010E94BA7E2091050530910605B7
:1049B000032E000C440B550B0E94217AD0E0C0E07E
:1049C00057FD09C0E9012F3F31054105510519F097
:1049D00014F0CFEFD0E08EEA97E00E94E40FCE0112
:1049E0000E94842480915004882341F0BE0180916C
:1049F00075030E944F1181E090E09FCF60E08091AD
:104A000075030E94E51090E080E097CFCF9381116D
:104A100005C083E596E0CF910C94AC1FC82F8BE4C2
:104A200096E00E94E40FC330D1F090F489E396E061
:104A3000C23089F38EEA95E00E94E40F6C2F70E09B
:104A400090E080E04AE00E940C24CF910C94A81FD3
:104A5000C73041F08AEE95E0CD30E9F2EBCF87E246
:104A600096E0D9CF80EC95E0D6CF4F925F926F92CF
:104A70007F928F929F92AF92BF92CF92DF92EF92EE
:104A8000FF920F931F93CF936B017C01742EAC01A7
:104A90009B010E94167E882399F08FE592E0CF91CA
:104AA0001F910F91FF90EF90DF90CF90BF90AF904C
:104AB0009F908F907F906F905F904F900C949B1F72
:104AC00046015701E894B7F82FEF3FEF4FE75FE754
:104AD000C501B4010E94167E81110DC02FEF3FEF7A
:104AE0004FE75FE7C501B4010E94E47818161CF493
:104AF00083E692E0D4CF2FEF3FEF4FE75FE4C701AB
:104B0000B6010E94C57C18161CF487E692E0C7CF58
:104B10002FEF3FEF4FE75FECC701B6010E94E4784B
:104B200087FDF3CF20E030E0A901C701B6010E9464
:104B3000E47810E000E087FF08C08DE20E94FF0FDC
:104B40008C01F7FAF094F7F8F094C0E060E070E0C0
:104B500080E09FE37C1641F020E030E040E251E449
:104B60000E94837BCF5FF6CFA70196010E94857AD2
:104B70002B013C010E94FC7B4B015C014AE00E943E
:104B80000C247C01E00EF11ECC2399F1C501B40187
:104B90000E94E9789B01AC01C301B2010E94847AB2
:104BA0004B015C018EE20E94FF0FE80EF91EC1501E
:104BB00000F120E030E040E251E4C501B4010E9480
:104BC0004A792B013C010E94FC7B4B01CB010E94E6
:104BD0005024E80EF91EB40190E080E00E94E978CC
:104BE0009B01AC01C301B2010E94847A4B015C01BC
:104BF000DECFC701CF911F910F91FF90EF90DF9013
:104C0000CF90BF90AF909F908F907F906F905F906C
:104C10004F9008950C943525CF92DF92EF92FF923A
:104C20000F931F93CF93DF93EC01CB01BA0179016E
:104C3000A90198010E94847A44E050E00E940A266B
:104C400084EC9AE00E94E40FFE01E254FF4F608181
:104C5000718182819381E35BFF4F0190F081E02DB0
:104C600020813181428153810E944A79A7019801B4
:104C70000E94847A44E050E00E940A2682EC9AE086
:104C80000E94E40FFE01EE53FF4F6081718182812B
:104C9000938144E050E00E940A2680EC9AE00E9452
:104CA000E40FFE01ED59FF4F608171818281938194
:104CB00044E050E00E940A268EEB9AE00E94E40F46
:104CC000C55BDF4F88819981DF91CF911F910F9153
:104CD000FF90EF90DF90CF900C948424CF93DF93DC
:104CE00042E00E943525EC010E94A81F8C0F9D1FF9
:104CF000DF91CF910895CF93DF930E949B1FEC012A
:104D00000E94A81F8C0F9D1FDF91CF910895CF9314
:104D10008BE692E00E947B26C0912B0461E08C2FF1
:104D20000E94131160E08C2FCF910C94E5102F920C
:104D30003F924F925F926F927F928F929F92AF922B
:104D4000BF92CF92DF92EF92FF920F931F93CF9378
:104D5000DF9300D01F92CDB7DEB71B018A01FC01A3
:104D60004080518062807380C090B405D090B505BA
:104D7000E090B605F090B705A3019201C301B2011E
:104D80000E944A794B015C01A7019601C701B60157
:104D90000E944A799B01AC01C501B4010E94847A4A
:104DA0000E94AD7D69837A838B839C83F801608147
:104DB0007181828193810E949F7D4B015C01A701DB
:104DC000960169817A818B819C810E94837B6B0132
:104DD0007C012091C4053091C5054091C6055091D4
:104DE000C705C301B2010E94857A2B013C01E0EBAB
:104DF000F5E02081318142815381C501B4010E94D7
:104E00004A799B01AC01C301B2010E94847AF1018D
:104E100020813181428153810E94837B9B01AC01BF
:104E2000C701B6010E94847A0F900F900F900F90E7
:104E3000DF91CF911F910F91FF90EF90DF90CF9076
:104E4000BF90AF909F908F907F906F905F904F90AA
:104E50003F902F9008954F925F926F927F928F9222
:104E60009F92AF92BF92CF92DF92EF92FF920F93F9
:104E70001F93CF93DF93C0EBD5E08DEC9CECACE4BB
:104E8000BEEB89A39AA3ABA3BCA301E614E0F8018F
:104E900080889188A288B38820E030E040E05FE31A
:104EA000C501B4010E944A79F801C488D588E68812
:104EB000F7889B01AC010E944A792B013C01A701B4
:104EC0009601C701B6010E944A799B01AC01C3015A
:104ED000B2010E94857A0E94AD7D688379838A83BE
:104EE0009B83A7019601C701B6010E94857AA5019F
:104EF00094010E94837B0E944F7B6B017C01CDAAB1
:104F0000DEAAEFAAF8AE2DEC3CEC4CE45EE30E9486
:104F1000857A69AF7AAF8BAF9CAF2DEC3CEC4CE45B
:104F20005EE3C701B6010E94847A6093ED05709339
:104F3000EE058093EF059093F00520E030E040E02F
:104F40005FE3F80160817181828193810E944A79D7
:104F5000688779878A879B8720E030E040E05FE3BD
:104F6000F80164817581868197810E944A796B017D
:104F70007C01CC86DD86EE86FF8620E030E040E0D6
:104F80005FE3F80160857185828593850E944A7987
:104F9000688F798F8A8F9B8FA7019601F8016485AE
:104FA0007585868597850E94857A6C8F7D8F8E8F1B
:104FB0009F8FDF91CF911F910F91FF90EF90DF9026
:104FC000CF90BF90AF909F908F907F906F905F90A9
:104FD0004F9008952F923F924F925F926F927F92DF
:104FE0008F929F92AF92BF92CF92DF92EF92FF92F9
:104FF0000F931F93CF93DF93CDB7DEB7C357D1097C
:105000000FB6F894DEBF0FBECDBF6D8B7E8B8F8B3E
:10501000988F29A33AA34BA35CA3A0961FAF0EAF12
:10502000A097A296FFAEEEAEA29710917D0411302C
:1050300011F00C947A326D877E878F87988BDA0116
:10504000C90189879A87AB87BC87BE01675F7F4F9D
:10505000CE010D960E94470C20916D0430916E0494
:1050600040916F04509170046091BC057091BD0532
:105070008091BE059091BF050E94857A29853A8569
:105080004B855C850E94847A698B7A8B8B8B9C8B99
:105090006093C4057093C5058093C6059093C705BA
:1050A0008091690490916A04A0916B04B0916C04A2
:1050B00089A79AA7ABA7BCA720E030E040E05FE358
:1050C000BC01CD010E944A794B015C012D853E85D2
:1050D0004F8558890E94857A6B017C01C092C0057A
:1050E000D092C105E092C205F092C305AC019B01CC
:1050F000C501B4010E94E47887FFF4C7A7019601B7
:1051000069A57AA58BA59CA50E94847A6093C005A9
:105110007093C1058093C2059093C3051093D00589
:105120008091C0059091C105A091C205B091C305C1
:105130008DA39EA3AFA3B8A79C01AD0169897A890D
:105140008B899C890E94837B4B015C018092D505F1
:105150009092D605A092D705B092D8052DA13EA178
:105160004FA158A569A57AA58BA59CA50E94847A14
:105170009B01AC0169897A898B899C890E94837B18
:105180006B017C01C092D905D092DA05E092DB0573
:10519000F092DC059091B4059D8BA091B505A9A373
:1051A0002090B6053090B705A5019401C501B40162
:1051B0000E944A7920E030E040E85FE30E94857A6F
:1051C0000E94AD7D9B01AC016D8979A1C1010E9456
:1051D0004A796093DD057093DE058093DF05909337
:1051E000E005A7019601C701B6010E944A7920E0B7
:1051F00030E040E85FE30E94857A0E94AD7D9B012C
:10520000AC016D8979A1C1010E944A796093E105E1
:105210007093E2058093E3059093E405BBE06E96FE
:10522000BFAF6E978091D1059091D205A091D30523
:10523000B091D4058DA79EA7AFA7B8AB9C01AD01D7
:10524000CD01B9010E944A794B015C012FE632E1A0
:1052500043E85AE36DA57EA58FA598A90E94857A9B
:105260006B017C01AC019B010E944A7929966CAFCD
:105270007DAF8EAF9FAF29978091E9059091EA05A8
:10528000A091EB05B091EC058D8F9E8FAF8FB8A3E9
:105290009C01AD01CD01B9010E944A796DAB7EAB95
:1052A0008FAB98AF9B01AC016D8D7E8D8F8D98A1DA
:1052B0000E944A792D966CAF7DAF8EAF9FAF2D9730
:1052C0004090ED055090EE056090EF057090F00570
:1052D000A3019201C301B2010E944A7969AF7AAF7A
:1052E0008BAF9CAF9B01AC01C301B2010E944A7914
:1052F00061966CAF7DAF8EAF9FAF61972FE632E1C5
:1053000043E85AE36D8D7E8D8F8D98A10E94847A3B
:10531000698F7A8F8B8F9C8F9B01AC010E944A7999
:1053200021966CAF7DAF8EAF9FAF21979B01AC01F3
:10533000698D7A8D8B8D9C8D0E944A7965966CAFB4
:105340007DAF8EAF9FAF65972FE632E143E85AE31A
:10535000C301B2010E94857A69AB7AAB8BAB9CAB7F
:105360009B01AC010E944A7925966CAF7DAF8EAF50
:105370009FAF25979B01AC0169A97AA98BA99CA92C
:105380000E944A7969966CAF7DAF8EAF9FAF6997E7
:10539000A50194016DA57EA58FA598A90E944A79C3
:1053A00028E73AE745E25EEB0E944A796D966CAFDA
:1053B0007DAF8EAF9FAF6D9727E230EA49E05BE3A8
:1053C000C501B4010E944A799B01AC016D966CAD98
:1053D0007DAD8EAD9FAD6D970E94847A4B015C01CF
:1053E0002EE836E040E85FE36DA57EA58FA598A97D
:1053F0000E944A799B01AC01C501B4010E94857AE3
:1054000060935D0670935E0680935F0690936006DE
:1054100029962CAD3DAD4EAD5FAD2997C701B601C4
:105420000E944A7928E73AE745E25EEB0E944A7912
:105430004B015C0127E230EA49E05BE329966CAD61
:105440007DAD8EAD9FAD29970E944A799B01AC013D
:10545000C501B4010E94847A4B015C012EE836E05C
:1054600040E85FE3C701B6010E944A799B01AC01A5
:10547000C501B4010E94857A60936106709362064B
:1054800080936306909364062EEE3BEE40EC5DEB5A
:105490002D966CAD7DAD8EAD9FAD2D970E944A7956
:1054A0006B017C012DE435E14CE05EE36DA97EA942
:1054B0008FA998AD0E944A799B01AC01C701B60142
:1054C0000E94847A6B017C012DE13AE54CE85FE3B0
:1054D0006D8D7E8D8F8D98A10E944A799B01AC01C4
:1054E000C701B6010E94857A2DE53DE645EC5CE3F7
:1054F0000E94847AAA966CAF7DAF8EAF9FAFAA97B9
:1055000060933D0670933E0680933F06909340065D
:1055100023E83FE24CE05EE32D966CAD7DAD8EADB1
:105520009FAD2D970E944A796B017C012DEE3DE0E5
:105530004EE25FE36DA97EA98FA998AD0E944A79DA
:105540009B01AC01C701B6010E94847A6B017C010A
:1055500021ED31E94CED5DE36D8D7E8D8F8D98A150
:105560000E944A799B01AC01C701B6010E94857A6D
:105570002CEE30EC49E75FE30E94857A6DAB7EABA1
:105580008FAB98AF609341067093420680934306B9
:105590009093440626E031E845E15EEB61966CAD00
:1055A0007DAD8EAD9FAD61970E944A796B017C0104
:1055B00025EE31E641EA5CE369AD7AAD8BAD9CAD99
:1055C0000E944A799B01AC01C701B6010E94847A0E
:1055D0006B017C0123ED3EED40E85FE3C301B201C6
:1055E0000E944A799B01AC01C701B6010E94857AED
:1055F00027E137EB41E55AE30E94847AAE966CAF1F
:105600007DAF8EAF9FAFAE97609345067093460611
:1056100080934706909348062CE933E342EA5DE322
:1056200061966CAD7DAD8EAD9FAD61970E944A795C
:105630006B017C0126E73FE44EE05FE369AD7AADA4
:105640008BAD9CAD0E944A799B01AC01C701B601AC
:105650000E94847A6B017C012DE435E14CE85CE327
:10566000C301B2010E944A799B01AC01C701B60196
:105670000E94857A2BE733E84FE75FE30E94857A43
:105680002B013C014092490650924A0660924B061B
:1056900070924C062EEE3BEE40EC5DEB65966CADE9
:1056A0007DAD8EAD9FAD65970E944A796B017C01FF
:1056B0002DE435E14CE05EE321966CAD7DAD8EAD21
:1056C0009FAD21970E944A799B01AC01C701B601A9
:1056D0000E94847A6B017C012DE13AE54CE85FE39E
:1056E000698D7A8D8B8D9C8D0E944A799B01AC01CE
:1056F000C701B6010E94857A2DE53DE645EC5CE3E5
:105700000E94847A60934D0670934E0680934F06F4
:105710009093500623E83FE24CE05EE365966CAD63
:105720007DAD8EAD9FAD65970E944A796B017C017E
:105730002DEE3DE04EE25FE321966CAD7DAD8EAD8A
:105740009FAD21970E944A799B01AC01C701B60128
:105750000E94847A6B017C0121ED31E94CED5DE31F
:10576000698D7A8D8B8D9C8D0E944A799B01AC014D
:10577000C701B6010E94857A2CEE30EC49E75FE361
:105780000E94857A69AF7AAF8BAF9CAF6093510668
:1057900070935206809353069093540626E031E8A6
:1057A00045E15EEB69966CAD7DAD8EAD9FAD6997C1
:1057B0000E944A796B017C0125EE31E641EA5CE307
:1057C00025966CAD7DAD8EAD9FAD25970E944A7933
:1057D0009B01AC01C701B6010E94847A6B017C0178
:1057E00023ED3EED40E85FE369A97AA98BA99CA966
:1057F0000E944A799B01AC01C701B6010E94857ADB
:1058000027E137EB41E55AE30E94847A609355061D
:105810007093560680935706909358062CE933E30D
:1058200042EA5DE369966CAD7DAD8EAD9FAD699743
:105830000E944A796B017C0126E73FE44EE05FE37A
:1058400025966CAD7DAD8EAD9FAD25970E944A79B2
:105850009B01AC01C701B6010E94847A6B017C01F7
:105860002DE435E14CE85CE369A97AA98BA99CA9F0
:105870000E944A799B01AC01C701B6010E94857A5A
:105880002BE733E84FE75FE30E94857A21966CAF00
:105890007DAF8EAF9FAF21976093590670935A06E4
:1058A00080935B0690935C0669E4C62E66E0D62E74
:1058B00075E4E72E76E0F72E01E416E02DE336E0FE
:1058C0004DE556E061EE75E08DED95E00E94C00C6F
:1058D0004B015C01DC01CB01B05880932106909311
:1058E0002206A0932306B09324068091B0059091E0
:1058F000B105A091B205B091B3058D8F9E8FAF8F8A
:10590000B8A32DA93EA94FA958ADBC01CD010E9455
:105910004A7965966CAF7DAF8EAF9FAF65979B015F
:10592000AC016DA17EA18FA198A50E94847A69AB7C
:105930007AAB8BAB9CAB69837A838B839C834DE37F
:1059400056E0BE016F5F7F4F8DED95E00E94972678
:10595000698F7A8F8B8F9C8FDC01CB01B05880933D
:10596000250690932606A0932706B0932806A30148
:1059700092016D8D7E8D8F8D98A10E944A796996D6
:105980006CAF7DAF8EAF9FAF69979B01AC016DA1EE
:105990007EA18FA198A50E94857A9B01AC0169A583
:1059A0007AA58BA59CA50E94847A6DAB7EAB8FAB4C
:1059B00098AF69837A838B839C83A701BE016F5F55
:1059C0007F4F81EE95E00E9497262B013C01DC0180
:1059D000CB01B0588093290690932A06A0932B06FA
:1059E000B0932C0620E030E0A901C501B4010E946B
:1059F000E47887FF7AC32FE632E143E85AEBC5012A
:105A0000B4010E94C57C18160CF479C329E5C22E96
:105A100026E0D22E35E5E32E36E0F32E01E516E042
:105A20002DE436E041E656E061EE75E08DED95E05F
:105A30000E94C00CA50194010E94847A2FE632E1F5
:105A400043E85AE30E94837B6093F1057093F2056B
:105A50008093F3059093F4058091DD059091DE0528
:105A6000A091DF05B091E0056D968CAF9DAFAEAF14
:105A7000BFAF6D972AE037ED43E25CE3BC01CD0197
:105A80000E94857A25966CAF7DAF8EAF9FAF25972C
:105A900069837A838B839C8349E4C42E46E0D42EA9
:105AA00055E4E52E56E0F52E01E416E02DE336E050
:105AB0004DE556E061EE75E0CE0101960E94C00C06
:105AC000A50194010E94847A2AE037ED43E25CE369
:105AD0000E94837B6093F5057093F6058093F7052C
