:100000000C94490A0C94705F0C94455F0C941A5F31
:100010000C94EF5E0C94C45E0C94995E0C946E5E2E
:100020000C94435E0C947A0A0C947A0A0C947A0A23
:100030000C947A0A0C947A0A0C947A0A0C947A0A30
:100040000C947A0A0C9425600C947A0A0C947A0A1F
:100050000C9453600C947A0A0C947A0A0C94F95D0F
:100060000C947A0A0C94C35D0C94995D0C947A0AF2
:100070000C947A0A0C947A0A0C947A0A0C947A0AF0
:100080000C94F75F0C947A0A0C947A0A0C947A0A0E
:100090000C947A0A0C947A0A0C947A0A0C947A0AD0
:1000A0000C947A0A0C947A0A0C94C95F0C947A0A1C
:1000B0000C947A0A0C947A0A0C947A0A0C949B5F3A
:1000C0000C947A0A0C947A0A0C947A0A0C947A0AA0
:1000D0000C947A0A0C947A0A0C947A0A0C947A0A90
:1000E0000C947A0A036EDB363D9A9999993DABAA36
:1000F000AA2A3E000000803F084AD73B3BCE016E53
:1001000084BCBFFDC12F3D6C74319ABD56833DDA6E
:100110003D00C77F11BED9E4BB4C3E916BAAAABE7D
:10012000000000803F072C7AA5BA6CC590DA3B939B
:1001300065FC8BBC53F810FD3C5692834DBD879DEA
:100140003AB63DCBC9BF5BBE73DA0FC93F05A84CB9
:10015000CDB2D44EB93836A9020C50B99186880870
:100160003CA6AAAA2ABE000000803F028988083C5B
:10017000ABAAAA2A3E000000803F0664EC1B3C04A8
:10018000BC163E3BE5B93CC93C37C29E5A3D6604AD
:1001900098083EEA69AAAA3E000000803F07634231
:1001A00036B79BD8A71A39685618AEBAAB558C1D0E
:1001B0003CB7CC5763BD6DEDFD753EF6177231BF90
:1001C000000000803F004E414E494E495459494E6F
:1001D00046CDCCCC3D0AD7233C17B7D13877CC2BB2
:1001E000329595E6241FB14F0A000020410000C857
:1001F0004200401C4620BCBE4CCA1B0E5AAEC59DD8
:100200007400407A10F35A00A0724E18090010A52D
:10021000D4E80000E87648170000E40B5402000020
:10022000CA9A3B000000E1F50500008096980000A6
:100230000040420F000000A08601000000102700CF
:10024000000000E803000000006400000000000A55
:1002500000000000000100000000002C76D888DCBF
:10026000674F0823DFC1DFAE59E1B1B796E5E3E49C
:1002700053C63AE651997696E8E6C28426EB898C15
:100280009B62ED407C6FFCEFBC9C9F40F2BAA56F77
:10029000A5F490055A2AF75C936B6CF9676DC11B46
:1002A000FCE0E40D47FEF520E6B500D0ED902E030E
:1002B00000943577050080841E080000204E0A0057
:1002C0000000C80C333333330F986E12831141EFA3
:1002D0008D2114893BE65516CFFEE6DB18D1844B01
:1002E000381BF77C1D901DA4BBE424203284725E71
:1002F000228100C9F124ECA1E53D273C49646C65ED
:100300002C4D506F733A302C302C302C57506F736B
:100310003A302E3030302C302E3030302C302E30E1
:1003200030303E00446972656374696F6E2032201C
:100330002D204661696C00446972656374696F6E53
:100340002032202D2050617373003C49646C652C71
:100350004D506F733A302C302C302C57506F733A0D
:10036000302E3030302C302E3030302C302E30309B
:10037000303E00446972656374696F6E2031202DD0
:10038000204661696C00446972656374696F6E2010
:1003900031202D2050617373003C49646C652C4DF5
:1003A000506F733A302C302C302C57506F733A30DA
:1003B0002E3030302C302E3030302C302E3030304B
:1003C0003E00206D6F746F723A0054657374696EED
:1003D000672000206D6D0020696E002B004D657355
:1003E000736167653A20506C656173652061646A6A
:1003F000757374205A2D4178697320746F206120C1
:100400006465707468206F662000496E76616C695F
:10041000642067636F64652049443A004545505243
:100420004F4D2072656164206661696C2E205573A2
:10043000696E672064656661756C74207365747499
:10044000696E67732E00506C656173652073657407
:10045000202431322C202431332C202431392C20FB
:10046000616E642024323020746F206C6F616420D0
:100470006F6C6420706F736974696F6E206461744F
:10048000612E00496E76616C6964207374617465D5
:100490006D656E7400426164206E756D62657220D8
:1004A000666F726D6174006572726F723A20006FD0
:1004B0006B00506C65617365207365742024313264
:1004C0002C202431332C202431392C20616E6420DF
:1004D00024323020746F206C6F616420706F7369F8
:1004E00074696F6E2E004F6C6420706F736974694D
:1004F0006F6E206461746120646574656374656403
:100500002E005475726E696E67205370696E646C4C
:1005100065204F6666005475726E696E6720537071
:10052000696E646C65204F6E005475726E696E67FB
:10053000205370696E646C65204F66660054757256
:100540006E696E67205370696E646C65204F6E0033
:100550005475726E696E67205370696E646C6520A5
:100560004F6666005475726E696E67205370696ECF
:10057000646C65204F6E006D6D004D656173757222
:10058000696E67206F75742072696768742063688C
:1005900061696E006D6D004D6561737572696E679E
:1005A000206F7574206C65667420636861696E00E5
:1005B0004D61736C6F7720506175736564002845D9
:1005C0006E64206F662042756666657229005C74F1
:1005D000005C72005C6E0042756666657220436F57
:1005E0006E74656E74733A2000427566666572209B
:1005F000456E643A20004275666665722042656702
:10060000696E3A2000427566666572204E756D62AD
:100610006572206F66204C696E65733A20004275E2
:100620006666657220557365643A20004275666699
:100630006572206F766572666C6F772100726561F6
:100640006479004772626C2076312E30300020448D
:10065000657465637465640020544C4535323036EA
:1006600020000A5043422076312E000A0A736F663A
:100670007420726573657420636F6D6D616E64655F
:10068000640A0A0054686520426F617264207665CE
:100690007273696F6E206E756D6265722066726F1F
:1006A0006D2074686973204D6F746F7220436F6E94
:1006B00074726F6C20626F61726420697320696E5E
:1006C00076616C69642E202D2D2D28212121292D64
:1006D0002D2D205175697420616E64206D616B65EC
:1006E00020737572652069742069732070726F7051
:1006F00065726C792073656174656420616E642035
:10070000746861742074686520636F7272656374C5
:100710002076657273696F6E206F66206669726DF0
:1007200077617265206973206C6F616465642E2E39
:100730002E200054686520736C6564206973206EF8
:100740006F74206B656570696E67207570207769BE
:1007500074682069747320657870656374656420BB
:10076000706F736974696F6E20616E642068617365
:100770002068616C7465642E20436C69636B20741F
:100780006865202753746F702720627574746F6ECC
:1007900020746F20636C6561722074686520616CE1
:1007A00061726D2E204D6F726520696E666F726D7D
:1007B0006174696F6E2061743A2068747470733A62
:1007C0002F2F6769746875622E636F6D2F4D61738B
:1007D0006C6F77434E432F4669726D776172652F58
:1007E00077696B692F4B656570696E672D55702051
:1007F0002000414C41524D3A20005D005B50453A8B
:10080000002C57506F733A302E3030302C302E3051
:1008100030302C302E3030303E002C002C0049641B
:100820006C652C4D506F733A0050617573652C4D9B
:10083000506F733A0053746F702C4D506F733A00C1
:100840003C002C002C002C002C00726561647900A7
:100850004772626C2076312E30300046414B455F46
:10086000534552564F206F66660046414B455F53D5
:100870004552564F206F6E00204465746563746561
:10088000640020544C4539323031200020544C450E
:100890003532303620005043422076312E000000A1
:1008A0002100240027002A002D0030003300010120
:1008B0000000040107010A010000220025002800B1
:1008C0002B002E0031003400020100000501080158
:1008D0000B0100000A0B02090C0D0E0807030401AE
:1008E0000000000000000000000000000000000008
:1008F00000000000000000000000000000001211D5
:1009000010000000000000000000000000000000D7
:100910000000000000000000546F6F6C20636861ED
:100920006E676520746F20746F6F6C200020746F89
:100930006F2073686F7274202D2069676E6F726507
:10094000642E00436F6D6D616E64200020756E73C0
:100950007570706F7274656420616E642069676E73
:100960006F7265642E00436F6D6D616E64204D0083
:10097000546F6F6C204368616E67653A20506C65F8
:1009800061736520696E7365727420746F6F6C207B
:10099000004669726D776172652056657273696F82
:1009A0006E20002000526573746F72696E67206458
:1009B000656661756C7473004D6573736167653A44
:1009C00020002028536C6564205765696768742C83
:1009D000204E290D0A002028636861696E20737417
:1009E000726574636820666163746F722C206D2F6A
:1009F0006D2F4E290D0A2434363D00202872657370
:100A00006572766564322C206D6D290D0A243435AB
:100A10003D0020287265736572766564312C206410
:100A20006567290D0A2434343D002028706F7369EE
:100A300074696F6E206572726F7220616C61726D85
:100A4000206C696D69742C206D6D290D0A24343376
:100A50003D002028636861696E20746F6C65726167
:100A60006E63652C20726967687420636861696EC3
:100A70002C206D6D290D0A2434323D002028636836
:100A800061696E20746F6C6572616E63652C206C99
:100A900065667420636861696E2C206D6D290D0A8E
:100AA0002434313D00202850574D20667265717501
:100AB000656E63792076616C756520313D33392C24
:100AC000303030487A2C20323D342C313030487A66
:100AD0002C20333D343930487A290D0A2434303DF6
:100AE000002028636861696E206F766572207370DC
:100AF000726F636B6574290D0A2433393D00202819
:100B0000636861696E2073616720636F72726563E9
:100B100074696F6E2076616C7565290D0A2433380F
:100B20003D0020287A20617869732056656C6F63D8
:100B30006974792070726F706F7274696F6E616C16
:100B400020776569676874290D0A2433373D0020D2
:100B5000287A2061786973204B642056656C6F6336
:100B6000697479290D0A2433363D0020287A2061E2
:100B7000786973204B692056656C6F6369747929B5
:100B80000D0A2433353D0020287A206178697320CE
:100B90004B702056656C6F63697479290D0A243394
:100BA000343D0020287A206178697320506F7320CB
:100BB00070726F706F7274696F6E616C20776569A7
:100BC000676874290D0A2433333D0020287A206198
:100BD000786973204B6420506F73290D0A243332D7
:100BE0003D0020287A2061786973204B6920506F7E
:100BF00073290D0A2433313D0020287A2061786959
:100C000073204B7020506F73290D0A2433303D0040
:100C100020286D61696E2056656C6F636974792058
:100C200070726F706F7274696F6E616C2077656936
:100C3000676874290D0A2432393D0020286D6169E6
:100C40006E204B642056656C6F63697479290D0AB8
:100C50002432383D0020286D61696E204B69205692
:100C6000656C6F63697479290D0A2432373D002061
:100C7000286D61696E204B702056656C6F636974D6
:100C800079290D0A2432363D0020286D61696E20D5
:100C9000506F732070726F706F7274696F6E616CD9
:100CA00020776569676874290D0A2432353D002074
:100CB000286D61696E204B6420506F73290D0A24E2
:100CC00032343D0020286D61696E204B6920506FE1
:100CD00073290D0A2432333D0020286D61696E208E
:100CE0004B7020506F73290D0A2432323D002028AA
:100CF0007A206178697320737465707320706572EF
:100D0000207265766F6C7574696F6E290D0A2432D6
:100D1000313D0020287A20617869732064697374FA
:100D2000616E6365202F20726F746174696F6E2924
:100D30000D0A2432303D0020286D6178207A206130
:100D40007869732052504D290D0A2431393D002015
:100D5000286175746F207370696E646C6520656EB0
:100D600061626C6520313D736572766F2C20323D77
:100D700072656C61795F682C20333D72656C6179B6
:100D80005F6C290D0A2431383D0020284175746FAD
:100D9000205A20417869732C2031203D20596573F9
:100DA000290D0A2431373D0020286D6178206665C1
:100DB00065642C206D6D2F6D696E290D0A24313606
:100DC0003D00202864697374616E6365202F207272
:100DD0006F746174696F6E2C206D6D290D0A24315A
:100DE000353D0020286D61696E2073746570732035
:100DF000706572207265766F6C7574696F6E290DFF
:100E00000A2431333D00202863616C696272617489
:100E1000696F6E20636861696E206C656E677468C7
:100E20002C206D6D290D0A2431323D002028667575
:100E30006C6C206C656E677468206F6620636861F7
:100E4000696E2C206D6D290D0A2431313D0020285A
:100E5000617869732069646C65206265666F72658C
:100E6000206465746163682C206D73290D0A243138
:100E7000303D002028726F746174696F6E2072615A
:100E8000646975732C206D6D290D0A24393D00208D
:100E9000284B696E656D6174696373205479706560
:100EA00020313D5175616472696C61746572616C69
:100EB0002C20323D547269616E67756C6172290D28
:100EC0000A24383D002028736C65642063672C2059
:100ED0006D6D290D0A24373D002028736C65642050
:100EE0006865696768742C206D6D290D0A24363D8C
:100EF000002028736C65642077696474682C206D09
:100F00006D290D0A24353D0020286D6F746F722005
:100F10006865696768742C206D6D290D0A24343D5D
:100F20000020286D6F746F722064697374616E6342
:100F3000652C206D6D290D0A24333D0020286D613C
:100F40006368696E65206865696768742C206D6DDB
:100F5000290D0A24323D0020286D616368696E65A1
:100F60002077696474682C206D6D290D0A24313D49
:100F70000024303D002120286665656420686F6C80
:100F80006429007E20286379636C65207374617224
:100F900074290024783D76616C756520287361762C
:100FA00065204D61736C6F772073657474696E672B
:100FB00029002424202876696577204D61736C6FA1
:100FC000772073657474696E6773290020697320D4
:100FD000696E76616C69642E204F6E6C79204733A0
:100FE000382E32207265636F676E697A65642E00F1
:100FF000473338006572726F723A2070726F6265A3
:1010000020646964206E6F7420636F6E6E65637414
:101010000A70726F6772616D2073746F70706564AF
:101020000A7A2061786973206E6F74207365740A80
:10103000007A2061786973207A65726F6564002098
:101040006D6D20706572206D696E2E006665656439
:10105000726174652000206D6D2E006D61782064D2
:1010600065707468200070726F62696E6720666FC9
:1010700072207A2061786973207A65726F00473335
:10108000382E322067636F6465206F6E6C7920762E
:10109000616C69642077697468207A2D617869735E
:1010A00020617474616368656400206D732E002094
:1010B0007365636F6E6473006477656C6C2074692C
:1010C0006D65200020756E737570706F7274656445
:1010D00020616E642069676E6F7265642E00436FD5
:1010E0006D6D616E642047002D2D5049442056657A
:1010F0006C6F6369747920546573742053746F70D6
:101100002D2D0A00736574706F696E742C696E7092
:1011100075742C6F7574707574002D2D50494420B2
:1011200056656C6F636974792054657374205374C9
:101130006172742D2D002D2D50494420506F73691C
:1011400074696F6E20546573742053746F702D2D05
:101150000A00736574706F696E742C696E707574B3
:101160002C6F75747075742C72706D696E707574F7
:101170002C766F6C74616765002D2D5049442050AA
:101180006F736974696F6E20546573742053746152
:1011900072742D2D002D2D566F6C7461676520546F
:1011A0006573742053746F702D2D0A000A002C0093
:1011B0002D2D566F6C7461676520546573742053D0
:1011C000746172742D2D0046414B455F5345525654
:1011D0004F206F66660046414B455F534552564F60
:1011E000206F6E005D005B4D6561737572653A201E
:1011F000004D6573736167653A20546865206D61C1
:101200006368696E6520636861696E7320686176E2
:1012100065206265656E206D616E75616C6C79200C
:1012200072652D63616C696272617465642E006D14
:101230006D0052696768743A20006D6D004C6566F8
:10124000743A20006D6D0052696768743A20006D31
:101250006D004C6566743A200053657474696E675E
:1012600020436861696E204C656E67746873205412
:101270006F3A2000546573747320636F6D706C65F2
:1012800074652E004D6F746F722043616C696272D9
:101290006174696F6E204E6F74204E65656465647D
:1012A000002053797374656D20436861696E204C2A
:1012B000656E6774683A200020526967687420433D
:1012C0006861696E204C656E67746820477265615D
:1012D000746572207468616E2053797374656D2033
:1012E00053657474696E677320436861696E204C3E
:1012F000656E677468204C656674436861696E4CFE
:10130000656E6774683A2000204C656674204368F7
:1013100061696E204C656E67746820477265617400
:101320006572207468616E2053797374656D205303
:10133000657474696E677320436861696E204C65DB
:101340006E677468204C656674436861696E4C65AD
:101350006E6774683A2000204E756D626572206F6A
:10136000662067756573736573206578636565646A
:1013700073204B494E454D41544943534D415847C5
:101380005545535320004D6573736167653A205589
:101390006E61626C6520746F2066696E6420766190
:1013A0006C6964206D616368696E6520706F736934
:1013B00074696F6E20666F7220636861696E206C5D
:1013C000656E6774687320005B466F727761726444
:1013D0002043616C63756C6174696E6720506F7334
:1013E0006974696F6E5D00010210202008081020EA
:1013F00040102040800201020108040201010204A1
:10140000081020408080402010080402018004025F
:1014100001804020100804020108040201010204B6
:1014200008102040800102040810204080000020A5
:10143000002300260029002C002F003200000100AC
:10144000000301060109010505050507050808084F
:1014500008020202020A0A08080404040401010145
:10146000010101010103030303030303030407074D
:10147000070C0C0C0C0C0C0C0C02020202060606EB
:1014800006060606060B0B0B0B0B0B0B0B00A660E0
:10149000FA6B11241FBECFEFD1E2DEBFCDBF00E05B
:1014A0000CBF13E0A0E0B2E0EAE0F0EF00E00BBF19
:1014B00002C007900D92AC32B107D9F729E0ACE237
:1014C000B3E001C01D92A73FB207E1F71AE0C8E4FC
:1014D000DAE000E006C021970109802FFE010E949A
:1014E0008075C734D10780E00807A9F70E947961A9
:1014F0000C94F4770C940000CF93DF9380916D09E6
:1015000090916E09C0916F09D091700930E020E090
:10151000E0E8F0E0C817D90771F0DC01A359B64F35
:1015200014964C914A3011F42F5F3F4F0196BF0142
:101530000E946D75EFCFC901DF91CF9108952F9271
:101540003F924F925F926F927F928F929F92AF9253
:10155000BF92CF92DF92EF92FF920F931F93CF93A0
:10156000DF93CDB7DEB768970FB6F894DEBF0FBE36
:10157000CDBF988F8F8B1B015E8B4D8BE3EDF4E01D
:1015800080819181A281B38189839A83AB83BC835B
:10159000D8018D919D910D90BC91A02D8D839E833E
:1015A000AF83B887D6018D919D910D90BC91A02DF0
:1015B00089879A87AB87BC87D9018D919D910D90C2
:1015C000BC91A02D8D879E87AF87B88BD7018D9159
:1015D0009D910D90BC91A02D898B9A8BAB8BBC8B70
:1015E00084889588A688B7884088518862887388DF
:1015F0002D853E854F85588969817A818B819C81B3
:101600000E94EA709B01AC01C501B4010E941472F2
:10161000EF89F88D20813181428153810E941572BA
:101620006B017C012D813E814F81588569817A81D2
:101630008B819C810E94EA709B01AC01C301B201C5
:101640000E9414729B01AC01C701B6010E94F572A1
:101650006B017C0129893A894B895C8969817A818E
:101660008B819C810E94EA709B01AC01C501B40191
:101670000E941472D1012D913D914D915C910E9477
:1016800015724B015C0129853A854B855C85698122
:101690007A818B819C810E94EA70A30192010E9451
:1016A00015729B01AC016091990370919A0380912E
:1016B0009B0390919C030E9414729B01AC01C50195
:1016C000B4010E94F5724B015C01A70196016D8186
:1016D0007E818F8198850E94EA702B013C01A501D3
:1016E000940169857A858B859C850E94EA709B01AF
:1016F000AC01C301B2010E9414722B013C012D8583
:101700003E854F85588969897A898B899C890E9491
:1017100014729B01AC01C301B2010E9415722B012E
:101720003C01A5019401C701B6010E9415729B01FD
:10173000AC0169817A818B819C810E94F5729B0149
:10174000AC01C301B2010E94EA706B017C01ED891A
:10175000FE8920813181428153816091A90370917A
:10176000AA038091AB039091AC030E94EA709B01A5
:10177000AC01C701B6010E94157268960FB6F894C5
:10178000DEBF0FBECDBFDF91CF911F910F91FF90B4
:10179000EF90DF90CF90BF90AF909F908F907F9011
:1017A0006F905F904F903F902F9008958F929F92EF
:1017B000AF92BF92FF920F931F93CF93DF93F0905E
:1017C0005E092FE22F1508F44CC02091600908E54E
:1017D00012E0021B110927FD1395000F111F000FC6
:1017E000111F20915F09C8E8D0E0C21BD10927FD75
:1017F000D395CC0FDD1FCC0FDD1F4E010D2E000C3D
:10180000AA08BB089801012E000C440B550B28199F
:1018100039094A095B09DC010E94DD7124EB30E0E3
:1018200040E050E00E94B771820E931EA41EB51EC8
:101830008C169D062CF0E801801691060CF4E4014C
:101840002297CC0FDD1F2FB7F8948F2D90E0FC016D
:10185000EE0FFF1FE80FF91FE353F74FD283C18349
:101860002FBFDF91CF911F910F91FF90BF90AF904D
:101870009F908F900895FC01248135816217730732
:1018800048F480819181009729F0860F971FFC0111
:101890008081089580E008952F923F924F925F9249
:1018A0006F927F928F929F92AF92BF92CF92DF9270
:1018B000EF92FF920F931F93CF93DF9300D01F926D
:1018C000CDB7DEB79C838B831B01EB81FC8110813C
:1018D000E12EF12CB70187E699E0CDDF20916B096D
:1018E00030916C09803241F4E216F30628F41F5F50
:1018F000EB81FC811083E9CF812C412C512C80E8B5
:10190000682E8FE3782EC12CD12C7601912C198270
:10191000EB81FC81F081FA830F2F10E0A0906B091E
:10192000B0906C09B80187E699E0A5DFE82F0A15A9
:101930001B0580F58D3209F475C08E3209F475C02F
:1019400080ED8E0F8A3008F58394AAE0B0E0A701FD
:1019500096010E94D371CE2EEE0FDD08EE08FF082F
:10196000C60ED71EE81EF91E80E3C81AD108E1088A
:10197000F108992051F02DEC3CEC4CEC5DE3C301F7
:10198000B2010E94EA702B013C018A818F5FEB81DA
:10199000FC818083EB81FC81008110E0B80187E647
:1019A00099E069DF80330CF443C08A330CF445C0FE
:1019B00060E070E0CB018820F1F0F981FF2341F075
:1019C000F094E094D094C094C11CD11CE11CF11C93
:1019D000C701B6010E948B70992021F0A3019201EA
:1019E0000E94EA70F101608371838283938360E0D7
:1019F00070E080E89FE30F900F900F900F90DF91C1
:101A0000CF911F910F91FF90EF90DF90CF90BF90FB
:101A1000AF909F908F907F906F905F904F903F908E
:101A20002F900895E1E0E983B0CF99249394ADCF4E
:101A30008E3209F0BDCF911009C080916B09909151
:101A40006C090817190708F463CFB2CF992493944F
:101A5000AFCFFC01248135816217730720F48081A8
:101A60009181009729F410925D038DE593E008952C
:101A7000860F971F08950895AF92BF92CF92DF927D
:101A8000EF92FF920F931F93CF93DF936C017B0133
:101A90008B01040F151FEB015E01AE18BF08C017C4
:101AA000D10759F06991D601ED91FC910190F08137
:101AB000E02DC6011995892B79F7C501DF91CF91EA
:101AC0001F910F91FF90EF90DF90CF90BF90AF905C
:101AD0000895FC01448155816081718186E394E021
:101AE000CBCFFC01538D448D252F30E0842F90E027
:101AF000821B930B541710F0CF9608950197089509
:101B0000FC01918D828D981761F0A28DAE0FBF2FD1
:101B1000B11D5D968C91928D9F5F9F73928F90E027
:101B200008958FEF9FEF0895FC01918D828D981796
:101B300031F0828DE80FF11D858D90E008958FEFD3
:101B40009FEF0895FC01918D228D892F90E0805C9C
:101B50009F4F821B91098F739927089586E394E024
:101B6000F1DF21E0892B09F420E0822F0895FC01A8
:101B7000A48DA80FB92FB11DA35ABF4F2C91848DEE
:101B800090E001968F739927848FA689B7892C934B
:101B9000A089B1898C91837080648C93938D848D9E
:101BA000981306C00288F389E02D80818F7D8083A1
:101BB0000895EF92FF920F931F93CF93DF93EC0161
:101BC00081E0888F9B8D8C8D98131AC0E889F989E4
:101BD000808185FF15C09FB7F894EE89FF896083E7
:101BE000E889F98980818370806480839FBF81E068
:101BF00090E0DF91CF911F910F91FF90EF900895AA
:101C0000F62E0B8D10E00F5F1F4F0F731127E02E84
:101C10008C8D8E110BC00FB607FCFACFE889F989BD
:101C2000808185FFF5CFCE01A2DFF2CFEB8DEC0FE7
:101C3000FD2FF11DE35AFF4FF0829FB7F8940B8FF1
:101C4000EA89FB8980818062D0CF0F931F93CF9365
:101C5000DF938C01D0E0C0E0F801EC0FFD1F649130
:101C6000662339F086E394E0A4DF892B11F02196F6
:101C7000F3CFCE01DF91CF911F910F910895682F7F
:101C800086E394E096CFCF93DF93EC01888D882391
:101C9000B1F0AA89BB89E889F9898C9185FD03C0D7
:101CA000808186FD0CC00FB607FCF7CF8C9185FFB5
:101CB000F2CF808185FFEDCFCE0159DFEACFDF91F2
:101CC000CF91089580E090E0892B21F047DF8111CA
:101CD0000E94000080E090E0892B49F080E090E0D5
:101CE000892B29F00E94000081110E94000080E0F1
:101CF00090E0892B49F080E090E0892B29F00E9448
:101D0000000081110E94000080E090E0892B49F0E2
:101D100080E090E0892B29F00E94000081110C9452
:101D2000000008958150823108F05AC0E82FF0E099
:101D30008827E256F14F8F4F0C948075BE0EC20E6D
:101D4000B00EB60EBA0EF00EC50ECB0ECF0ED50EDF
:101D5000D90EDD0EE30EE70EF00EEB0EF10EF50ED2
:101D6000809180008F77809380000895809180001B
:101D70008F7DF9CF80918000877FF5CF84B58F77F5
:101D800084BD089584B58F7DFBCF8091B0008F779F
:101D90008093B00008958091B0008F7DF9CF80913D
:101DA00090008F77809390000895809190008F7DB0
:101DB000F9CF80919000877FF5CF8091A0008F7739
:101DC0008093A00008958091A0008F7DF9CF80912D
:101DD000A000877FF5CF809120018F77809320012D
:101DE0000895809120018F7DF9CF80912001877F18
:101DF000F5CFCF93DF93282F30E0F901EE52F74F64
:101E00008491F901E951FC4ED491F901E95BFB4E53
:101E1000C491CC2399F0811185DFEC2FF0E0EE0F17
:101E2000FF1FE35DFB4EA591B491EC91ED2381E0A2
:101E300090E009F480E0DF91CF91089580E090E098
:101E4000FACF1F93CF93DF93282F30E0F901EE52A2
:101E5000F74F8491F901E951FC4ED491F901E95B06
:101E6000FB4EC491CC23A1F0162F81115BDFEC2F28
:101E7000F0E0EE0FFF1FE854F74FA591B4918FB734
:101E8000F894EC91111108C0D095DE23DC938FBF3C
:101E9000DF91CF911F910895DE2BF8CFCF93DF9381
:101EA00090E0FC01E951FC4E2491895B9B4EFC01C2
:101EB00084918823C9F090E0880F991FFC01E256B5
:101EC000F74FA591B491FC01E854F74FC591D49117
:101ED00061110DC09FB7F8948C91209582238C934B
:101EE0008881282328839FBFDF91CF910895623096
:101EF00051F49FB7F8943C91822F809583238C9363
:101F0000E8812E2BEFCF8FB7F894EC912E2B2C93EA
:101F10008FBFEACF1F93CF93DF93182FEB0161E0C0
:101F2000BDDF209731F460E0812FDF91CF911F91C9
:101F300088CFCF3FD10511F461E0F6CFE12FF0E07B
:101F4000EE52F74FE491E150E23108F0B3C0F0E017
:101F50008827E255F04F8F4F0C948075C00FC80F43
:101F6000CD0FD70FE10F5A10EB0FF30FFB0F05103A
:101F70000F101910281032105A103C104610501033
:101F800084B5806884BDC7BDDF91CF911F9108954E
:101F900084B5806284BDC8BDF7CF80918000806821
:101FA00080938000D0938900C0938800EDCF80910A
:101FB0008000806280938000D0938B00C0938A0061
:101FC000E3CF80918000886080938000D0938D0063
:101FD000C0938C00D9CF8091B00080688093B0000E
:101FE000C093B300D1CF8091B00080628093B000E5
:101FF000C093B400C9CF8091900080688093900016
:10200000D0939900C0939800BFCF809190008062D8
:1020100080939000D0939B00C0939A00B5CF80919D
:102020009000886080939000D0939D00C0939C00A6
:10203000ABCF8091A00080688093A0008091A00029
:102040008F7B8093A000D093A900C093A8009CCF61
:102050008091A00080628093A000D093AB00C093D9
:10206000AA0092CF8091A00088608093A000D093B6
:10207000AD00C093AC0088CF809120018068809330
:102080002001D0932901C09328017ECF80912001A7
:10209000806280932001D0932B01C0932A0174CFDA
:1020A00080912001886080932001D0932D01C093FE
:1020B0002C016ACFC038D1050CF03ECF34CF3FB7EA
:1020C000F8948091590390915A03A0915B03B091C9
:1020D0005C0326B5A89B05C02F3F19F00196A11DF2
:1020E000B11D3FBFBA2FA92F982F8827BC01CD0162
:1020F000620F711D811D911D42E0660F771F881FC1
:10210000991F4A95D1F708952FB7F8946091550318
:102110007091560380915703909158032FBF0895F3
:102120000895AF92BF92CF92DF92EF92FF920F93FA
:102130001F93CF93DF936B017A01EC01C05BDC4FFF
:1021400028813CE0389F8001399F100D1124A09018
:102150005D09B12C27FF1FC0FB011182108288810D
:102160008F5F888388819801280F311D87FD3A95FC
:10217000F6012A153B051CF488818C30BCF1808166
:102180009181049680349C4908F471C0F6018081E5
:10219000918104966EC088819801280F311D87FDBA
:1021A0003A952A153B05DCF68881A801480F511D98
:1021B00087FD5A95FA01EE0FFF1FE40FF51FE35359
:1021C000F74F808186FFCBCF8881F801E80FF11DA2
:1021D00087FDFA95CF01EE0FFF1FE80FF91FE353BC
:1021E000F74F808160E08F732CDEB9CF80819181C1
:1021F0002881A801420F511D27FD5A959A01FA0125
:10220000EE0FFF1FE20FF31FE353F74F21813281DF
:10221000820F931FF7019183808388819801280F93
:10222000311D87FD3A95F901EE0FFF1FE20FF31FF5
:10223000E353F74F808186FF21C08881080F111D6D
:1022400087FD1A95F801EE0FFF1FE00FF11FE35312
:10225000F74F808161E08F73DF91CF911F910F91D4
:10226000FF90EF90DF90CF90BF90AF90EACD80E4E9
:102270009CE9F701918380838FEF8883DF91CF9171
:102280001F910F91FF90EF90DF90CF90BF90AF9094
:102290000895009709F440C097FF03C09195819578
:1022A00091098430910514F083E090E02091350489
:1022B000211135C020913404222351F0843091053E
:1022C00014F083E090E08230910514F482E090E015
:1022D0002091B100287F2093B10020919100287FA8
:1022E000209391002091A100287F2093A100282F06
:1022F00083309105BCF09091B1008F5F892B809362
:10230000B10090919100922B909391008091A10047
:10231000822B8093A100089581E090E0C7CF83E0F5
:1023200090E0D6CF9091B100E9CFAF92BF92CF921B
:10233000DF92EF92FF920F931F93CF93DF9362E0B0
:1023400086E1ACDD62E087E1A9DD62E088E1A6DD3F
:1023500062E089E1A3DD62E08AE1A0DD62E08BE179
:102360009DDD8BE146DDEC018AE143DD5C0189E125
:1023700040DD6C0188E13DDD7C0187E13ADD8C01C7
:1023800086E137DD9E01220F331F2A0D3B1D220FF0
:10239000331F2C0D3D1D220F331F2E0D3F1D220F0D
:1023A000331F200F311F220F331F820F931F8433DF
:1023B0009105C9F054F484309105A9F08630910557
:1023C000D1F0863091056CF01BC09C012D53310972
:1023D00023303105B0F7837099271092350410929D
:1023E000340401970DC08770992721E020933504AC
:1023F00010923404E6CF1092350421E02093340487
:10240000DF91CF911F910F91FF90EF90DF90CF90D0
:10241000BF90AF90089586E394E072CB86E394E09A
:1024200091CBCF93DF9386E394E0C3DBEC0186E3AB
:1024300094E029DCCE01DF91CF91089590E080E017
:1024400008954F925F926F927F928F929F92AF9278
:10245000BF92CF92DF92EF92FF92CF93DF93CDB7EF
:10246000DEB72E970FB6F894DEBF0FBECDBF9E87A6
:102470008D87DC019096ED91FC9180819181A28104
:10248000B38189839A83AB83BC83AD85BE859496E3
:10249000ED91FC91608171818281938129813A81E2
:1024A0004B815C810E9414724B015C01ED85FE85BD
:1024B00026A537A540A951A969817A818B819C8184
:1024C0000E9414726B017C01AD85BE8554962D91DE
:1024D0003D914D915C915797C501B4010E94EA70FE
:1024E000ED85FE8522A533A544A555A50E9415724C
:1024F0002B013C01AD85BE859A964D925D926D9201
:102500007C929D9711968C9111978823B1F0169625
:102510002D913D914D915C911997C701B6010E9493
:10252000EA709B01AC01C301B2010E941472ED85F7
:10253000FE8562A773A784A795A7AD85BE859A96E9
:102540008D919D910D90BC91A02D8D839E83AF8325
:10255000B887ED85FE8542AC53AC64AC75ACA30185
:102560009201BC01CD010E941874AD85BE8518167C
:102570000CF075C09A964D925D926D927C929D97EB
:10258000AD85BE858C91882309F488C012962D9163
:102590003D914D915C911597C501B4010E94EA707F
:1025A0004B015C01ED85FE85208D318D428D538D73
:1025B000C701B6010E94EA709B01AC01AD85BE85E2
:1025C0009A966D917D918D919C919D970E94147228
:1025D000A50194010E9415726B017C019B01AC0165
:1025E000C301B2010E94857087FD10C0ED85FE8594
:1025F00046A857A860AC71ACA3019201B601C7010F
:102600000E94857087FD02C026013701AD85BE8519
:102610009296ED91FC91408251826282738289810F
:102620009A81AB81BC81ED85FE8586A797A7A0AB7B
:10263000B1AB81E02E960FB6F894DEBF0FBECDBFD2
:10264000DF91CF91FF90EF90DF90CF90BF90AF9050
:102650009F908F907F906F905F904F900895D69647
:102660008D919D910D90BC91A02D89879A87AB8704
:10267000BC879C01AD016D817E818F8198850E9410
:10268000857087FF7DCF89859A85AB85BC85ED8573
:10269000FE8582A793A7A4A7B5A772CF812C912C02
:1026A000540180CF8F929F92AF92BF92CF92DF92D0
:1026B000EF92FF92CF93DF93EC01EAA1FBA1C080E0
:1026C000D180E280F380CAA6DBA6ECA6FDA6E8A135
:1026D000F9A180819181A281B3818EA79FA7A8AB28
:1026E000B9AB8AAC9BACACACBDACA5019401C70145
:1026F000B6010E94187418162CF48AA69BA6ACA6E4
:10270000BDA60CC08EA89FA8A8ACB9ACA501940129
:10271000C701B6010E94857087FDEFCFDF91CF9191
:10272000FF90EF90DF90CF90BF90AF909F908F90F1
:1027300008958F929F92AF92BF92CF92DF92EF92C5
:10274000FF920F931F93CF93DF93EC018A01FB015C
:10275000C080D180E280F380FA0120813181428102
:102760005381C701B6010E94187487FF5CC0CEAACE
:10277000DFAAE8AEF9AEF8016081718182819381B0
:102780006AAF7BAF8CAF9DAF2EAD222309F44BC057
:102790000AA11BA1F80120813181428153810E944D
:1027A000857087FF1EC08AAD9BADACADBDADF80195
:1027B00080839183A283B3838AA49BA4ACA4BDA489
:1027C000CAACDBACECACFDACA7019601C501B40111
:1027D0000E9418741816DCF4CAA6DBA6ECA6FDA6A7
:1027E00022C0F8012081318142815381C701B601A5
:1027F0000E94187418162CF48EA99FA9A8ADB9AD23
:10280000D6CFF80180819181A281B381D0CFCEA8AB
:10281000DFA8E8ACF9ACA7019601C501B4010E949C
:10282000857087FDD9CFDF91CF911F910F91FF90D8
:10283000EF90DF90CF90BF90AF909F908F900895D2
:102840002F923F924F925F926F927F928F929F92C0
:10285000AF92BF92CF92DF92EF92FF920F931F93AE
:10286000CF93DF93CDB7DEB72C970FB6F894DEBFCA
:102870000FBECDBF9C878B877A8369835A87498730
:102880001901DB018D919D910D90BC91A02D8D833F
:102890009E83AF83B88720E030E0A901BC01CD0161
:1028A0000E94857087FDEFC0E985FA85C080D180E0
:1028B000E280F38020E030E0A901C701B6010E9468
:1028C000857087FDE0C0D1018D909D90AD90BC904A
:1028D00020E030E0A901C501B4010E94857087FDA8
:1028E000D2C0F801408051806280738020E030E0E7
:1028F000A901C301B2010E94857087FDC4C020E018
:1029000030E040E85FE3C301B2010E94187418167A
:102910000CF4B9C011E020E030E0A901C301B2011C
:102920000E94187418160CF010E0AB85BC851C933F
:1029300020E030E040E85FE3C301B2010E9485700F
:10294000881F8827881FEB85FC85818389819A8170
:1029500093878287A985BA85B587A4873786268617
:1029600062A973A984A995A90E94897020E030E02A
:102970004AE754E40E94F57269837A838B839C83CF
:102980008D819E81AF81B885EB85FC85808B918B95
:10299000A28BB38B29813A814B815C81C701B6013F
:1029A0000E94EA706B017C01AB85BC855496CD9288
:1029B000DD92ED92FC92579729813A814B815C819F
:1029C000C501B4010E94F5724B015C01EB85FC85E9
:1029D000808E918EA28EB38E848D958D019769F530
:1029E0002D813E814F81588560E070E0CB010E94CF
:1029F0001472AB85BC8550966D937D938D939C939B
:102A00005397A701960160E070E0CB010E94147219
:102A1000EB85FC85648B758B868B978BA501940168
:102A200060E070E0CB010E941472AB85BC855896C3
:102A30006D937D938D939C935B97EB85FC85C0880C
:102A4000D188E288F388A7019601C301B2010E94F0
:102A5000EA70AB85BC8512966D937D938D939C93A4
:102A60001597A301920160E070E080E89FE30E9467
:102A70001472A70196010E94EA70EB85FC856683BB
:102A80007783808791872C960FB6F894DEBF0FBEB0
:102A9000CDBFDF91CF911F910F91FF90EF90DF900D
:102AA000CF90BF90AF909F908F907F906F905F90EE
:102AB0004F903F902F9008956F927F928F929F92A8
:102AC000AF92BF92CF92DF92EF92FF920F931F933C
:102AD000CF93DF93CDB7DEB73C01C8018501F30189
:102AE00053A342A371A360A335A324A316AE16AAD1
:102AF00017AA10AE11AE40E050E06FE773E442AFAA
:102B000053AF64AF75AF44E650E060E070E042ABB5
:102B100053AB64AB75ABF40120813181F301358F88
:102B2000248F9601A701BC01C3018ADEEDDAF3010F
:102B300002A913A924A935A9601B710B820B930B61
:102B400066A377A380A791A7DF91CF911F910F91E3
:102B5000FF90EF90DF90CF90BF90AF909F908F90BD
:102B60007F906F900895823109F468C030F482300C
:102B7000E1F0833069F180E008958431D9F108F4FF
:102B80004BC08531C1F7709331036093300385E604
:102B90009BE19093050280930402809169008C7FF1
:102BA000816080936900E89A11C070932D0360934F
:102BB0002C038FE69BE190930102809300028091A9
:102BC0006A008C7F816080936A00EC9A81E00895AE
:102BD00070932F0360932E038AE69BE19093030288
:102BE0008093020280916A00837F846080936A00F0
:102BF000ED9AECCF709333036093320380E69BE150
:102C0000909307028093060280916900837F84601D
:102C100080936900E99ADACF7093350360933403A7
:102C20008BE59BE1909309028093080280916900F3
:102C30008F7C806180936900EA9AC8CF70933703D4
:102C40006093360386E59BE190930B0280930A0222
:102C5000809169008F73806480936900EB9AB6CF8E
:102C6000EF92FF920F931F93CF93DF93EC019B01A1
:102C70008E81811103C0442309F4CBC0809163038A
:102C8000909164038A9709F4C4C089012F3F3105EC
:102C900019F014F00FEF10E001304FEF140714F4A7
:102CA00001E01FEF18AF0FAB17FF03C0119501959F
:102CB00011098A819B818430910539F051E0BC0172
:102CC0006B5071096330710508F450E0EC80FD80B1
:102CD00044E0E416F10429F071E0F7013B973397E3
:102CE00008F470E040913504411152C0E881F98147
:102CF000E430F10531F041E0DF011B97139708F450
:102D000040E060913404611169C0121613064CF55D
:102D1000442371F061E095D860E08C8192D8B801CD
:102D20008881DF91CF911F910F91FF90EF90F2C8B2
:102D3000772389F061E085D86FEF70E0601B710B3D
:102D40008C81E8D861E08881DF91CF911F910F914C
:102D5000FF90EF9076C8B801DDD860E08C8171D823
:102D6000F1CF442331F061E08E2D6BD860E08A8191
:102D7000D5CF552339F06FEF70E0601B710BCAD8C7
:102D800061E0ECCFB8018E2DC5D860E08A81E7CF35
:102D90000F3F110514F00EEF10E0121613067CF42D
:102DA000772341F061E04DD86FEF70E0601B710B4D
:102DB0008C81B7CFB801AED860E08C81C5CF5523E8
:102DC00039F06FEF70E0601B710BA4D861E0F5CFB4
:102DD000B8018E2D9FD860E08A81B6CF40913B0329
:102DE00050913C0361E0E417F50729F4121613062D
:102DF0004CF460E007C0409115044130B9F7121659
:102E00001306BCF71ED8B801888184D860E08E2DE7
:102E10009BCFDF91CF911F910F91FF90EF9008957D
:102E20002F923F924F925F926F927F928F929F92DA
:102E3000AF92BF92CF92DF92EF92FF920F931F93C8
:102E4000CF93DF93CDB7DEB7A0970FB6F894DEBF70
:102E50000FBECDBF3C012B014A013A8F298FD8A26A
:102E6000CF8E15011D8A1E8A1F8A188E80E090E081
:102E7000A0E8BFE3898B9A8BAB8BBC8B9301285363
:102E80003F4F3C8F2B8FCE014596F9019183808374
:102E9000225031093E8F2D8FF90191838083329723
:102EA00091838083F701E080F180F8010081118136
:102EB00062E0802F0E944E0F62E08E2D0E944E0F26
:102EC000A8015527FA01E95BFB4EE491F0E0EE0F13
:102ED000FF1FE35DFB4E25913491F3013183208385
:102EE00049515C4EFA014491F3014483C70199278B
:102EF000FC01E95BFB4EE491F0E0EE0FFF1FE35DA8
:102F0000FB4EA591B491F301B383A28389519C4EEA
:102F1000FC018491F3018583178210861186128645
:102F2000EBE3FFE13197F1F7F9019081492391E05B
:102F300009F490E0EC91E82309F09260F3019683A4
:102F4000B301802F10DEF301838BB3018E2D0BDED6
:102F5000F3019389890F838B1D861E861F86188A2D
:102F600080E090E0A0E8BFE389879A87AB87BC87C1
:102F7000830102551F4FCE010D96F8019183808386
:102F80003297918380833297918380837301F4E138
:102F9000EF0EF11CF20180819181F301848B958BFE
:102FA000F40120813181F301378B268BE98DFA8D75
:102FB00020813181F301318F208F128E9091350461
:102FC000992309F45AC160E00E944E0F61E0F301B9
:102FD00086890E944E0F61E0F301808D0E944E0FA2
:102FE00060E0F30186890E94210F60E0F301808D8B
:102FF0000E94210F40E070E060E0C70131DE230154
:10300000FBE64F0E511C1A821982F801C080D18054
:10301000F301E455FF4FE080F18032970081118188
:103020009E012F5F3F4F4901CE0109965C0193013C
:10303000235B3F4FA30149595F4FB3016F5A7F4F45
:10304000C2013ADDF20186AD811102C0C2012ADB64
:1030500081E0F20186AF80E090E0AFE7B3E48983DE
:103060009A83AB83BC8380E090E0AFE7B3EC8D83C1
:103070009E83AF83B887AE014F5F5F4FBE016B5F2A
:103080007F4FC20156DBF1016081718182819381A2
:1030900028EE33E040E050E00E94E3711216130680
:1030A000C4F56901330FEE08FF08C701B6010E949D
:1030B0008B704B015C01F20162A973A984A995A9E7
:1030C0000E9489709B01AC01C501B4010E94F57298
:1030D0004B015C01AC019B01F20164897589868911
:1030E00097890E94EA70F201648B758B868B978BAF
:1030F000A5019401608D718D828D938D0E94F57272
:10310000F201608F718F828F938FC2AAD3AAE4AA33
:10311000F5AA2301FAEC4F0E511C81E090E09A834E
:103120008983EB8DFC8DC080D180ED8DFE8DE0809C
:10313000F180F301EC53FF4F008111819E012F5F5D
:103140003F4F4901CE0141965C01930128543F4F06
:10315000A30140545F4FB30164547F4FC201ACDC04
:10316000EF8DF8A180818301025F1E4FF8018083FB
:10317000F20186AD811102C0C20194DA81E0F20150
:1031800086AF80E090E0A0EAB1E489839A83AB83C4
:10319000BC8380E090E0A0EAB1EC8D839E83AF8396
:1031A000B887AE014F5F5F4FBE016B5F7F4FC201BB
:1031B000C0DAF101608171818281938128EE33E070
:1031C00040E050E00E94E37112161306C4F5690155
:1031D000330FEE08FF08C701B6010E948B704B0148
:1031E0005C01F20162A973A984A995A90E94897062
:1031F0009B01AC01C501B4010E94F5724B015C0159
:10320000AC019B01F20164897589868997890E94C6
:10321000EA70F201648B758B868B978BA501940104
:10322000608D718D828D938D0E94F572F201608F99
:10323000718F828F938FC2AAD3AAE4AAF5AAF30151
:10324000EB59FF4F11830083A0960FB6F894DEBFB1
:103250000FBECDBFDF91CF911F910F91FF90EF90E7
:10326000DF90CF90BF90AF909F908F907F906F90A6
:103270005F904F903F902F9008959091340461E0BB
:10328000992371F00E944E0F61E0F30186890E943C
:103290004E0F61E0F301808D0E944E0F61E0A6CEDB
:1032A0000E944E0F61E0F30186890E944E0F61E09B
:1032B000F301808D0E944E0F61E0F30186890E9428
:1032C000210F60E0F301808D0E94210F60E0F30187
:1032D00084898ECE41E0C4CCCF93DF93EC018E8104
:1032E0008823D1F080913504882349F060E08A81F9
:1032F0000E94210F60E08C810E94210F0DC08091FF
:10330000340461E0882361F08C810E94210F70E019
:1033100060E088810E948A0F1E82DF91CF9108951C
:103320008A810E94210F60E08C810E94210F60E061
:103330008881E2CF0F931F93CF93DF93EC018B0132
:103340000E948410FE01EC54FF4F608371838283DE
:103350009383EB5AFF4F0190F081E02D2081318162
:1033600042815381F80160817181828193810E9441
:10337000F572C854DF4F688379838A839B83DF911A
:10338000CF911F910F9108950F931F93CF93DF93C8
:10339000EC010E948410FE01EC54FF4F008111816A
:1033A00022813381AB01BC01401B510B620B730BBB
:1033B0008091B2039091B303B0E0A0E08417950729
:1033C000A607B70738F4CE014496DF91CF911F913D
:1033D0000F9182CFDF91CF911F910F9108956F923E
:1033E0007F928F929F92AF92BF92CF92DF92EF9295
:1033F000FF920F931F93CF93DF93CDB7DEB73C01BE
:10340000FC01EC53FF4F71836083329651834083FC
:1034100032963183208386539F4F12DAF301E655AB
:10342000FF4FF182E0823296D182C0823296B18221
:10343000A08284019501A601B701C30185599F4F60
:10344000FFD9DF91CF911F910F91FF90EF90DF9007
:10345000CF90BF90AF909F908F907F906F90089586
:10346000CF92DF92EF92FF92CF93DF93EC01FB01BB
:10347000C080D180E280F380C701B6010E948B70CA
:10348000FE01E55FFE4F0190F081E02D208131814A
:10349000428153810E94F572FE01E854FF4F608320
:1034A000718382839383F894CF82D886E986FA86E3
:1034B0007894DF91CF91FF90EF90DF90CF900895B7
:1034C0008F929F92AF92BF92CF92DF92EF92FF9234
:1034D000CF93DF93EC01FB0180809180A280B380C9
:1034E000FC01E75FFE4F0190F081E02DC080D180AC
:1034F000E280F380A7019601C501B4010E94F57234
:10350000FE01E854FF4F6083718382839383ED5AF9
:10351000FF4F0190F081E02D208131814281538164
:10352000C501B4010E94EA70A70196010E94F572DC
:103530000E945D73F8946F83788789879A8778945F
:10354000DF91CF91FF90EF90DF90CF90BF90AF9041
:103550009F908F900895CF92DF92EF92FF92CF933A
:10356000DF93EC01E881F9819081EA81FB81808120
:103570002D818223EE81E3702C81922309F0E46097
:103580008111E8608E2F90E09595879595958795A8
:103590008E83E150EE3008F034C0F0E08827EC5222
:1035A000F54E8F4F0C948075E21A081B221B081BE6
:1035B000011B3C1BE21AE21A3C1B011B081B221BCD
:1035C000081BE21A8F819885A985BA850196A11DED
:1035D000B11D8F839887A987BA870E945F10CF8417
:1035E000D888E988FA886C197D098E099F096B874C
:1035F0007C878D879E870E945F106F87788B898B71
:103600009A8BDF91CF91FF90EF90DF90CF9008954C
:103610008F819885A985BA850197A109B1098F8302
:103620009887A987BA87CF84D888E988FA880E94C2
:103630005F10C61AD70AE80AF90ACB86DC86ED863F
:10364000FE86D9CF8F819885A985BA850296A11D5E
:10365000B11D8F839887A987BA870E945F10CF8496
:10366000D888E988FA886C197D098E099F09969592
:10367000879577956795BBCF8F819885A985BA8502
:103680000297A109B1098F839887A987BA87CF8448
:10369000D888E988FA880E945F10C61AD70AE80A13
:1036A000F90AF694E794D794C794C7CF809136036C
:1036B0009091370350CF80913403909135034BCFD5
:1036C000809132039091330346CF809130039091E3
:1036D000310341CF80912E0390912F033CCF8091F5
:1036E0002C0390912D0337CFCF93DF93EC018B897F
:1036F000823058F4F894CE012EDF6F817885898569
:103700009A857894DF91CF910895F894F6CF2F920F
:103710003F924F925F926F927F928F929F92AF9261
:10372000BF92CF92DF92EF92FF920F931F93CF93AE
:10373000DF9300D000D01F921F92CDB7DEB79887DD
:103740008F83D2DF0E948B7069837A838B839C8303
:103750000E945F100E9489702B013C012F803884E9
:1037600025E5220E311CF1012081318142815381F6
:1037700069817A818B819C810E9414726B017C012A
:1037800020E030E040E450E40E9418742F81388536
:10379000275A3F4F3E832D83181654F020E030E027
:1037A00040E450ECB601C7010E94857087FF9EC0BF
:1037B0000F811885035A1F4FF80120813181428102
:1037C0005381B601C7010E9414724B015C0120E0D5
:1037D00030E040E85FEB0E94857018160CF470C072
:1037E00020E030E040E05FE3B601C7010E941572BF
:1037F00046015701F80180829182A282B382ED8155
:10380000FE8180809180A280B3800F8118850F593E
:103810001F4FAF81B885A055BF4F2D913D914D9160
:103820005C910E94EA706B017C01A5019401C301C7
:10383000B2010E9414720E9462730E9489709B01FF
:10384000AC01C701B6010E94F572F8016083718373
:10385000828393832F8138852F593F4FF9016081EF
:103860007181828193819058608371838283938375
:10387000ED81FE81408251826282738229813A8188
:103880004B815C81F10120833183428353832896ED
:103890000FB6F894DEBF0FBECDBFDF91CF911F9161
:1038A0000F91FF90EF90DF90CF90BF90AF909F90DF
:1038B0008F907F906F905F904F903F902F900895E2
:1038C00020E030E040E85FE3C501B4010E941874D5
:1038D00087FD09C020E030E040E05FE3B601C701AA
:1038E0000E94147285CFB601C70182CFEF81F8859F
:1038F0008389823008F06FC0F8948F8198852BDE21
:10390000EF81F885638574858585968578940E9416
:103910008B706B017C010E945F104B015C01EF8199
:10392000F8858389823008F058C0F8948F81988593
:1039300012DEEF81F88587859089A189B289789414
:10394000A5019401281B390B4A0B5B0BCA01B90175
:103950000E9489704B015C0120E030E0A901C701A1
:10396000B6010E9418740F8118850F591F4F181641
:10397000B4F1A70196015058C501B4010E94187412
:1039800018167CF420E030E0A901C701B6010E94BE
:1039900085707501640187FF04C0F7FAF094F7F8A9
:1039A000F094F801108211821282138220E030E03C
:1039B000A901C701B6010E948570882309F44ACF86
:1039C000A7019601EF81F885E055FF4F6081718175
:1039D0008281938138CFF89493CFF894AACFA50130
:1039E0009401C701B6010E94857087FDCBCFE8CF57
:1039F000CF92DF92EF92FF92CF93DF93EC0174DED0
:103A0000FE01E854FF4FC080D180E280F3800E9425
:103A10008B70FE01E55FFE4F0190F081E02D20816B
:103A20003181428153810E94F572A70196010E9463
:103A30001472C75FDE4FE881F981208131814281B4
:103A400053810E94EA70DF91CF91FF90EF90DF9059
:103A5000CF900895CF93DF93EC0146DE0E948B70E8
:103A6000FE01E55FFE4F0190F081E02D2081318164
:103A7000428153810E94F572C75FDE4FE881F98170
:103A800020813181428153810E94EA70DF91CF9180
:103A90000895CF93DF93EC010E948410FE01EC5453
:103AA000FF4F6083718382839383CE01D3DFFE0156
:103AB000E75FFE4F0190F081E02D2081318142814E
:103AC00053810E94F572C854DF4F688379838A83DB
:103AD0009B83DF91CF910895FC0101900020E9F7CD
:103AE0003197AF01481B590BBC0186E394E00C945D
:103AF0003C0D8CE592E0F0CFCF93DF930E94250E32
:103B0000EC01F7DF8C0F9D1FDF91CF9108952F926D
:103B10003F924F925F926F927F928F929F92AF925D
:103B2000BF92CF92DF92EF92FF920F931F93CF93AA
:103B3000DF93CDB7DEB7AE970FB6F894DEBF0FBEFA
:103B4000CDBF0E9495111C01892B09F090C082E124
:103B500090E09E838D8383E190E098878F8389E056
:103B600090E09A8B898B88E090E09C8B8B8B86E031
:103B700090E09E8F8D8F82E090E09A87898783E026
:103B800090E09C878B878BE090E09E8B8D8B8AE00A
:103B900090E0988F8F8B87E090E098A38F8F85E1DE
:103BA00090E09E878D8784E190E0988B8F878CE0F2
:103BB00090E09A8F898F8DE090E09C8F8B8F85E0CD
:103BC00090E09AA389A38FEF9FEF98A78FA39EA35E
:103BD0008DA344244A94542C91E09EA78EE090E05B
:103BE0009CA78BA79FE09DA780E18CA381E190E03B
:103BF0009AA789A78091340490911504E0E16E2E74
:103C0000E7E27E2E812C912C69827A828B829C82C3
:103C1000913009F074C181115FC18CE48BA3CE0196
:103C200001965C0182966C0146977C018E01015FD2
:103C30001F4F9E01275E3F4FAE01455E5F4FBE01A5
:103C40006F5D7F4F8EEB97E0EBD869827A828B8233
:103C50009C8282E58BA3C6014C977C010A50110916
:103C60009E012D5E3F4FAE014F5E5F4F74C191E0EC
:103C70002916310409F04BC084E190E09E838D83C6
:103C800085E190E098878F8386E090E09A8B898B1E
:103C900084E090E09C8B8B8B85E090E09E8F8D8FF5
:103CA00083E190E09A87898782E190E09C878B8707
:103CB00089E090E09E8B8D8B87E090E0988F8F8BD2
:103CC00088E090E098A38F8F82E090E09E878D87B8
:103CD00083E090E0988B8F878AE090E09A8F898FBD
:103CE0008BE090E09C8F8B8F8CE090E09AA389A36F
:103CF0008FEF9FEF98A78FA39EA38DA344244A9490
:103D0000542C9CE39EA71DE3212E312C67CF92E01B
:103D100029163104C9F584E190E09E838D8385E105
:103D200090E098878F8384E090E09A8B898B86E07F
:103D300090E09C8B8B8B85E090E09E8F8D8F83E154
:103D400090E09A87898782E190E09C878B8787E063
:103D500090E09E8B8D8B89E090E0988F8F8B88E030
:103D600090E098A38F8F3E862D8683E090E0988B1D
:103D70008F878BE090E09A8F898F8CE090E09C8F0A
:103D80008B8F8AE090E0B2CFC1010397029708F0D1
:103D900057C084E190E09E838D8385E190E0988711
:103DA0008F8386E090E09A8B898B84E090E09C8BF7
:103DB0008B8B85E090E09E8F8D8F83E190E09A87DA
:103DC000898782E190E09C878B8787E090E09E8BDB
:103DD0008D8B89E090E0988F8F8B88E090E098A39E
:103DE0008F8F82E090E09E878D8783E090E0988BB4
:103DF0008F878AE090E09A8F898F8BE090E09C8F8C
:103E00008B8F8CE090E09AA389A38FE290E098A733
:103E10008FA38EE290E09EA38DA3FDE24F2E512C46
:103E200095E49EA7A4E42A2E312C8BE290E09CA777
:103E30008BA79AE29DA789E28CA388E290E0D8CE76
:103E400096E029163104E9F584E190E09E838D83A4
:103E500085E190E098878F8384E090E09A8B898B4E
:103E600085E090E09C8B8B8B3E8E2D8E83E190E0E5
:103E70009A87898782E190E09C878B8787E090E032
:103E80009E8B8D8B88E090E0988F8F8B89E090E0FF
:103E900098A38F8F90933C0380933B0382E090E044
:103EA0009E878D8783E090E0988B8F878BE090E0F2
:103EB0009A8F898F8CE090E09C8F8B8F8AE090E0C6
:103EC000A2CF82EF97E00E94250E84E896E014DEF0
:103ED00081E080936503FFCF8CE48BA3CE01019634
:103EE0005C0182966C0146977C018E01015F1F4F39
:103EF0009E01255E3F4FAE01475E5F4FA0CE811110
:103F0000EBC08CE48BA3CE0101965C0182966C0120
:103F100044977C018E01035F1F4F9E01255E3F4F3A
:103F2000AE01475E5F4FBE016F5D7F4F8EEB97E046
:103F30000E94101769827A828B829C8282E58BA311
:103F4000C6014E977C01065011099E012F5E3F4F1E
:103F5000AE014D5E5F4FBE01635E7F4F8FEA96E01C
:103F60000E94101780E197E2A0E0B0E089839A8375
:103F7000AB83BC838AE58BA3CE0101965C0182965C
:103F80006C014A977C018E01055F1F4F9E01295EDF
:103F90003F4FAE014B5E5F4FBE01615E7F4F80EAD7
:103FA00095E00E9410178DEE882E83E0982E99EEF2
:103FB000A92E93E0B92E25EEC22E23E0D22E31EEAB
:103FC000E32E33E0F32E0DED13E029ED33E045ED64
:103FD00053E061ED73E08EEB97E001DA29ED33E019
:103FE00045ED53E061ED73E08FEA96E0F8D94DE0DE
:103FF000842E44E0942E59E0A52E54E0B52E65E0C1
:10400000C62E64E0D62E71E0E72E74E0F72E0DEF99
:1040100013E029EF33E045EF53E061EF73E080EA0E
:1040200095E0DDD989A59AA590933A038093390349
:104030009CA190935E0310925F038BA59CA5909327
:1040400061038093600361E08CA10E944E0F60E0E9
:104050008CA10E94210F60E08DA50E944E0F2114BB
:10406000310421F060E0822D0E944E0F60E08EA5A9
:104070000E944E0F1414150424F460E0842D0E9455
:104080004E0F8DA19EA11816190624F460E08DA193
:104090000E944E0F8FA198A51816190624F460E00F
:1040A0008FA10E944E0FAE960FB6F894DEBF0FBEE2
:1040B000CDBFDF91CF911F910F91FF90EF90DF90D7
:1040C000CF90BF90AF909F908F907F906F905F90B8
:1040D0004F903F902F9008958CE48BA3CE010196D2
:1040E0005C0182966C0144977C018E01035F1F4F37
:1040F0009E01255E3F4FAE01475E5F4FBE016F5D83
:104100007F4F8EEB97E00E94101769827A828B8234
:104110009C8282E58BA3C6014E977C010650110953
:104120009FCDCF93DF930E94690DEC01E2DC8C0FF1
:104130009D1FDF91CF9108958F929F92AF92BF9272
:104140000F931F93CF93DF93CDB7DEB7A1970FB631
:10415000F894DEBF0FBECDBF19A2423008F44AE08A
:104160008E010F5D1F4F842E912CB12CA12CA50127
:1041700094010E94E371E62FB901CA01EA30ECF420
:10418000E05DD801EE938D01232B242B252B79F7AD
:1041900090E080E0109711F0CD019EDCA1960FB663
:1041A000F894DEBF0FBECDBFDF91CF911F910F916D
:1041B000BF90AF909F908F900895E95CE2CFBC01D3
:1041C00090E080E04AE0B8CFCF92DF92EF92FF928A
:1041D000CF93DF936C01990FEE08FF08F7FE16C02E
:1041E0008DE20E943F0EEC0166277727CB016C1908
:1041F0007D098E099F094AE09FDF8C0F9D1FDF918B
:10420000CF91FF90EF90DF90CF9008954AE0C701E3
:10421000B601DF91CF91FF90EF90DF90CF908CCFE0
:10422000CF93DF93D1DFEC0164DC8C0F9D1FDF9116
:10423000CF910895CF93811104C08FEA94E0CF917C
:104240005BCCC82F87EA94E00E94250EC330C1F0F2
:1042500080F485E994E0C23091F38AE094E00E9412
:10426000250E6C2F70E090E080E04AE065DFCF9192
:1042700040CCC73041F086E494E0CD3001F3EDCF7F
:1042800083E894E0DCCF8CE194E0D9CF4F925F9249
:104290006F927F928F929F92AF92BF92CF92DF9256
:1042A000EF92FF920F931F93CF936B017C01742EBB
:1042B000AC019B010E94AE74882391F08FE592E0DF
:1042C000CF911F910F91FF90EF90DF90CF90BF9013
:1042D000AF909F908F907F906F905F904F90FCCBAE
:1042E00046015701E894B7F82FEF3FEF4FE75FE73C
:1042F000C501B4010E94AE7481110DC02FEF3FEFD4
:104300004FE75FE7C501B4010E94857018161CF4E1
:1043100083E692E0D5CF2FEF3FEF4FE75FE4C70191
:10432000B6010E94187418161CF487E692E0C8CFF4
:104330002FEF3FEF4FE75FECC701B6010E9485709A
:1043400087FDF3CF20E030E0A901C701B6010E944C
:10435000857010E000E087FF08C08DE20E943F0EEC
:104360008C01F7FAF094F7F8F094C0E060E070E0A8
:1043700080E09FE37C1641F020E030E040E251E431
:104380000E94F572CF5FF6CFA70196010E941572C9
:104390002B013C010E9462734B015C014AE0CCDEC0
:1043A0007C01E00EF11ECC2391F1C501B4010E9405
:1043B00089709B01AC01C301B2010E9414724B01D0
:1043C0005C018EE20E943F0EE80EF91EC150F8F02B
:1043D00020E030E040E251E4C501B4010E94EA70FF
:1043E0002B013C010E9462734B01CB01E8DEE80E19
:1043F000F91EB40190E080E00E9489709B01AC013D
:10440000C301B2010E9414724B015C01DFCFC701EE
:10441000CF911F910F91FF90EF90DF90CF90BF90C1
:10442000AF909F908F907F906F905F904F90089586
:104430002DCFCF92DF92EF92FF920F931F93CF93E6
:10444000DF93EC01CB01BA017901A90198010E9427
:10445000147244E050E0ECDF88E498E00E94250EFE
:10446000FE01E454FF4F6081718182819381E35B9F
:10447000FF4F0190F081E02D2081318142815381F5
:104480000E94EA70A70198010E94147244E050E073
:10449000CFDF86E498E00E94250EFE01E054FF4F36
:1044A000608171818281938144E050E0C1DF84E4C6
:1044B00098E00E94250EFE01EF59FF4F6081718147
:1044C0008281938144E050E0B3DF82E498E00E946F
:1044D000250EC55BDF4F88819981DF91CF911F91B8
:1044E0000F91FF90EF90DF90CF909ACECF93DF9314
:1044F00042E0CCDEEC01FDDA8C0F9D1FDF91CF9105
:104500000895CF93DF93E8DAEC01F3DA8C0F9D1F67
:10451000DF91CF9108952F923F924F925F926F92C9
:104520007F928F929F92AF92BF92CF92DF92EF9243
:10453000FF920F931F93CF93DF9300D01F92CDB7BD
:10454000DEB71B018A01FC014080518062807380CC
:10455000C090D704D090D804E090D904F090DA0449
:10456000A3019201C301B2010E94EA704B015C01F8
:10457000A7019601C701B6010E94EA709B01AC0138
:10458000C501B4010E9414720E944D7469837A833C
:104590008B839C83F80160817181828193810E9469
:1045A00043744B015C01A701960169817A818B817B
:1045B0009C810E94F5726B017C012091E70430918F
:1045C000E8044091E9045091EA04C301B2010E9459
:1045D00015722B013C01E3EDF4E020813181428131
:1045E0005381C501B4010E94EA709B01AC01C30173
:1045F000B2010E941472F101208131814281538104
:104600000E94F5729B01AC01C701B6010E941472B1
:104610000F900F900F900F90DF91CF911F910F91FE
:10462000FF90EF90DF90CF90BF90AF909F908F90D2
:104630007F906F905F904F903F902F9008954F9292
:104640005F926F927F928F929F92AF92BF92CF9222
:10465000DF92EF92FF920F931F93CF93DF93C3EDFF
:10466000D4E08DEC9CECACE4BEEB89A39AA3ABA3A5
:10467000BCA301E913E0F80180889188A288B3887F
:1046800020E030E040E05FE3C501B4010E94EA7041
:10469000F801C488D588E688F7889B01AC010E94A0
:1046A000EA702B013C01A7019601C701B6010E94E7
:1046B000EA709B01AC01C301B2010E9415720E9415
:1046C0004D74688379838A839B83A7019601C70110
:1046D000B6010E941572A50194010E94F5720E9414
:1046E000CA726B017C01CDAADEAAEFAAF8AE2DEC4E
:1046F0003CEC4CE45EE30E94157269AF7AAF8BAF7D
:104700009CAF2DEC3CEC4CE45EE3C701B6010E948B
:1047100014726093100570931105809312059093A5
:10472000130520E030E040E05FE3F8016081718133
:10473000828193810E94EA70688779878A879B8744
:1047400020E030E040E05FE3F8016481758186811C
:1047500097810E94EA706B017C01CC86DD86EE8633
:10476000FF8620E030E040E05FE3F801608571857E
:10477000828593850E94EA70688F798F8A8F9B8FDC
:10478000A7019601F80164857585868597850E9445
:1047900015726C8F7D8F8E8F9F8FDF91CF911F91C0
:1047A0000F91FF90EF90DF90CF90BF90AF909F90D0
:1047B0008F907F906F905F904F9008952F923F92CF
:1047C0004F925F926F927F928F929F92AF92BF9221
:1047D000CF92DF92EF92FF920F931F93CF93DF93CD
:1047E000CDB7DEB7CE56D1090FB6F894DEBF0FBEF7
:1047F000CDBF698F798B8D8B99A32DA339AB49A739
:104800005DA76B961FAF0EAF6B976D96FFAEEEAECA
:104810006D972091D70429873091D8043D87209047
:10482000D9043090DA041091AD03113011F00C94DA
:104830002D2E20919D0330919E0340919F03509116
:10484000A0036091DF047091E0048091E1049091F5
:10485000E2040E9415722DA139A949A55DA50E9407
:1048600014726DA37EA38FA398A76093E70470933F
:10487000E8048093E9049093EA048091990390916D
:104880009A03A0919B03B0919C0389AB9AABABAB0D
:10489000BCAB20E030E040E05FE3BC01CD010E9412
:1048A000EA706B017C01AC019B01698D79898D896E
:1048B00099A10E9415724B015C018092E3049092D1
:1048C000E404A092E504B092E604AC019B01C701A8
:1048D000B6010E94857087FFB8C7A501940169A938
:1048E0007AA98BA99CA90E9414726093E304709327
:1048F000E4048093E5049093E6041093F30420917C
:10490000E3043091E4044091E5045091E604298FDA
:104910003A8F4B8F5C8F6DA17EA18FA198A50E94CD
:10492000F5724B015C018092F8049092F904A09218
:10493000FA04B092FB04298D3A8D4B8D5C8D69A9E8
:104940007AA98BA99CA90E9414729B01AC016DA14C
:104950007EA18FA198A50E94F5726B017C01C09287
:10496000FC04D092FD04E092FE04F092FF04A50145
:104970009401C501B4010E94EA7020E030E040E8F3
:104980005FE30E9415720E944D7429853D85A10147
:104990000E94EA7060930005709301058093020500
:1049A00090930305A7019601C701B6010E94EA7022
:1049B00020E030E040E85FE30E9415720E944D74F1
:1049C00029853D85A1010E94EA70609304057093DA
:1049D000050580930605909307053BE02E963FAFB3
:1049E0002E978091F4049091F504A091F604B09173
:1049F000F70489A39AA3ABA3BCA39C01AD01CD018D
:104A0000B9010E94EA704B015C012FE632E143E8F4
:104A10005AE369A17AA18BA19CA10E9415726B0136
:104A20007C01AC019B010E94EA7021966CAF7DAFC6
:104A30008EAF9FAF219720910C0530910D054091CD
:104A40000E0550910F05298B3A8B4B8B5C8BCA015D
:104A5000B9010E94EA706DA77EA78FA798AB9B0152
:104A6000AC0169897A898B899C890E94EA702596B4
:104A70006CAF7DAF8EAF9FAF2597409010055090E3
:104A800011056090120570901305A3019201C301F6
:104A9000B2010E94EA706D8F7E8F8F8F98A39B0169
:104AA000AC01C301B2010E94EA7029966CAF7DAFE0
:104AB0008EAF9FAF29972FE632E143E85AE3698929
:104AC0007A898B899C890E9414726D8B7E8B8F8B67
:104AD000988F9B01AC010E94EA706DAB7EAB8FABEF
:104AE00098AF9B01AC016D897E898F89988D0E945A
:104AF000EA702D966CAF7DAF8EAF9FAF2D972FE6EE
:104B000032E143E85AE3C301B2010E94157269A77A
:104B10007AA78BA79CA79B01AC010E94EA7069AFA2
:104B20007AAF8BAF9CAF9B01AC0169A57AA58BA531
:104B30009CA50E94EA7065966CAF7DAF8EAF9FAF6B
:104B40006597A501940169A17AA18BA19CA10E94FE
:104B5000EA7028E73AE745E25EEB0E94EA70699660
:104B60006CAF7DAF8EAF9FAF699727E230EA49E027
:104B70005BE3C501B4010E94EA709B01AC01699638
:104B80006CAD7DAD8EAD9FAD69970E9414724B01E7
:104B90005C012EE836E040E85FE369A17AA18BA1D1
:104BA0009CA10E94EA709B01AC01C501B4010E9466
:104BB00015726093800570938105809382059093B0
:104BC000830521962CAD3DAD4EAD5FAD2197C7015C
:104BD000B6010E94EA7028E73AE745E25EEB0E94E0
:104BE000EA704B015C0127E230EA49E05BE3219681
:104BF0006CAD7DAD8EAD9FAD21970E94EA709B019B
:104C0000AC01C501B4010E9414724B015C012EE895
:104C100036E040E85FE3C701B6010E94EA709B01FD
:104C2000AC01C501B4010E941572609384057093B4
:104C3000850580938605909387052EEE3BEE40EC2C
:104C40005DEB25966CAD7DAD8EAD9FAD25970E9439
:104C5000EA706B017C012DE435E14CE05EE36DA56B
:104C60007EA58FA598A90E94EA709B01AC01C7019F
:104C7000B6010E9414726B017C012DE13AE54CE80B
:104C80005FE369897A898B899C890E94EA709B011C
:104C9000AC01C701B6010E9415722DE53DE645EC59
:104CA0005CE30E941472A5966CAF7DAF8EAF9FAF90
:104CB000A59760936005709361058093620590935A
:104CC000630523E83FE24CE05EE325966CAD7DADE5
:104CD0008EAD9FAD25970E94EA706B017C012DEE91
:104CE0003DE04EE25FE36DA57EA58FA598A90E94E9
:104CF000EA709B01AC01C701B6010E9414726B01FE
:104D00007C0121ED31E94CED5DE369897A898B897C
:104D10009C890E94EA709B01AC01C701B6010E9408
:104D200015722CEE30EC49E75FE30E9415726DA717
:104D30007EA78FA798AB60936405709365058093F9
:104D400066059093670526E031E845E15EEB29961C
:104D50006CAD7DAD8EAD9FAD29970E94EA706B0161
:104D60007C0125EE31E641EA5CE36D8D7E8D8F8D11
:104D700098A10E94EA709B01AC01C701B6010E9494
:104D800014726B017C0123ED3EED40E85FE3C3014B
:104D9000B2010E94EA709B01AC01C701B6010E94FA
:104DA000157227E137EB41E55AE30E941472A99688
:104DB0006CAF7DAF8EAF9FAFA9976093680570937E
:104DC000690580936A0590936B052CE933E342EA09
:104DD0005DE329966CAD7DAD8EAD9FAD29970E94A8
:104DE000EA706B017C0126E73FE44EE05FE36D8DE6
:104DF0007E8D8F8D98A10E94EA709B01AC01C70146
:104E0000B6010E9414726B017C012DE435E14CE87F
:104E10005CE3C301B2010E94EA709B01AC01C701CF
:104E2000B6010E9415722BE733E84FE75FE30E945B
:104E300015722B013C0140926C0550926D056092F9
:104E40006E0570926F052EEE3BEE40EC5DEB2D96FD
:104E50006CAD7DAD8EAD9FAD2D970E94EA706B015C
:104E60007C012DE435E14CE05EE36DA97EA98FA9BC
:104E700098AD0E94EA709B01AC01C701B6010E9487
:104E800014726B017C012DE13AE54CE85FE36D891A
:104E90007E898F89988D0E94EA709B01AC01C701C1
:104EA000B6010E9415722DE53DE645EC5CE30E94DB
:104EB00014726093700570937105809372059093DE
:104EC000730523E83FE24CE05EE32D966CAD7DADCB
:104ED0008EAD9FAD2D970E94EA706B017C012DEE87
:104EE0003DE04EE25FE36DA97EA98FA998AD0E94D7
:104EF000EA709B01AC01C701B6010E9414726B01FC
:104F00007C0121ED31E94CED5DE36D897E898F896E
:104F1000988D0E94EA709B01AC01C701B6010E9406
:104F200015722CEE30EC49E75FE30E9415726D8F2D
:104F30007E8F8F8F98A3609374057093750580930F
:104F400076059093770526E031E845E15EEB6596BE
:104F50006CAD7DAD8EAD9FAD65970E94EA706B0123
:104F60007C0125EE31E641EA5CE369AD7AAD8BADBB
:104F70009CAD0E94EA709B01AC01C701B6010E9482
:104F800014726B017C0123ED3EED40E85FE369A5FF
:104F90007AA58BA59CA50E94EA709B01AC01C70174
:104FA000B6010E94157227E137EB41E55AE30E94F2
:104FB0001472609378057093790580937A059093C5
:104FC0007B052CE933E342EA5DE365966CAD7DAD8C
:104FD0008EAD9FAD65970E94EA706B017C0126E75C
:104FE0003FE44EE05FE369AD7AAD8BAD9CAD0E94CE
:104FF000EA709B01AC01C701B6010E9414726B01FB
:105000007C012DE435E14CE85CE369A57AA58BA52C
:105010009CA50E94EA709B01AC01C701B6010E94E9
:1050200015722BE733E84FE75FE30E9415726DAB13
:105030007EAB8FAB98AF60937C0570937D058093BA
:105040007E0590937F056CE6C62E65E0D62E78E649
:10505000E72E75E0F72E04E615E020E635E040E89F
:1050600055E064E075E080E095E00E949F0A4B0106
:105070005C01DC01CB01B058809344059093450559
:10508000A0934605B09347058091D3049091D40432
:10509000A091D504B091D604898B9A8BAB8BBC8B35
:1050A0002DA53EA54FA558A9BC01CD010E94EA70CF
:1050B0002D966CAF7DAF8EAF9FAF2D979B01AC014E
:1050C000698D7A8D8B8D9C8D0E94147269A77AA749
:1050D0008BA79CA769837A838B839C8340E655E0EA
:1050E000BE016F5F7F4F80E095E015DA6D8B7E8BA0
:1050F0008F8B988FDC01CB01B0588093480590933B
:105100004905A0934A05B0934B05A3019201698913
:105110007A898B899C890E94EA7065966CAF7DAF15
:105120008EAF9FAF65979B01AC01698D7A8D8B8D9A
:105130009C8D0E9415729B01AC0169A97AA98BA96B
:105140009CA90E9414726DA77EA78FA798AB698354
:105150007A838B839C83A701BE016F5F7F4F84E0BE
:1051600095E0D9D92B013C01DC01CB01B0588093EB
:105170004C0590934D05A0934E05B0934F0520E04C
:1051800030E0A901C501B4010E94857087FF60C3AA
:105190002FE632E143E85AEBC501B4010E941874CE
:1051A00018160CF45FC32CE7C22E25E0D22E38E788
:1051B000E32E35E0F32E04E715E020E735E044E880
:1051C00055E064E075E080E095E00E949F0AA5014B
:1051D00094010E9414722FE632E143E85AE30E94E0
:1051E000F5726093140570931505809316059093DE
:1051F000170520910005309101054091020550915D
:10520000030569962CAF3DAF4EAF5FAF69972AE0BB
:1052100037ED43E25CE369966CAD7DAD8EAD9FAD3D
:1052200069970E94157269AF7AAF8BAF9CAF6983A3
:105230007A838B839C834CE6C42E45E0D42E58E6BB
:10524000E52E55E0F52E04E615E020E635E040E8D1
:1052500055E064E075E0CE0101960E949F0AA50129
:1052600094010E9414722AE037ED43E25CE30E944D
:10527000F572609318057093190580931A05909341
:105280001B058091040590910505A0910605B0913C
:105290000705A1968CAF9DAFAEAFBFAFA1972AE037
:1052A00037ED43E25CE3BC01CD010E94157221960B
:1052B0006CAF7DAF8EAF9FAF219769837A838B836D
:1052C0009C8320E635E040E855E0BE016F5F7F4FEC
:1052D00080E095E00E949F0AA50194010E9414724B
:1052E0002AE037ED43E25CE30E94F57260931C050F
:1052F00070931D0580931E0590931F052D8D3E8D87
:105300004F8D58A169897A898B899C890E94EA709E
:105310009B01AC01698D7A8D8B8D9C8D0E941472DE
:1053200069837A838B839C8340E755E0BE016F5F7E
:105330007F4F80E095E0EFD82D893E894F89588DC9
:105340000E9414722FE632E143E85AE30E94F5729C
:105350006093200570932105809322059093230587
:1053600029A53AA54BA55CA52D833E834F8358877D
:1053700089AD9AADABADBCAD89839A83AB83BC8359
:1053800040E655E0BE016B5F7F4FCE010196C3D86A
:105390002D893E894F89588D0E9414722AE037ED7D
:1053A00043E25CE30E94F572609324057093250547
:1053B00080932605909327051092280510922905C1
:1053C00010922A0510922B052DA93EA94FA958AD80
:1053D00069897A898B899C890E94EA70298D3A8D26
:1053E0004B8D5C8D0E9415729B01AC0169A97AA955
:1053F0008BA99CA90E9414726B017C01C982DA827C
:10540000EB82FC8248E755E0BE016F5F7F4F84E08E
:1054100095E081D8A30192010E9414722FE632E137
:1054200043E85AE30E94F57260932C0570932D05B2
:1054300080932E0590932F05109230051092310520
:105440001092320510923305CD82DE82EF82F8860B
:1054500021962CAD3DAD4EAD5FAD219729833A83AA
:105460004B835C8348E655E0BE016B5F7F4FCE0106
:10547000019651D8A30192010E9414722AE037EDDF
:1054800043E25CE30E94F572609334057093350546
:1054900080933605909337054CE155E05E8B4D8B3C
:1054A00084E395E09AAF89AFA8E1B0E0BEAFADAFBD
:1054B000E2E0F0E0FE8FED8F4D8D5E8D4F5F5F4F30
:1054C000AB965FAF4EAFAB9784E495E023969FAF6A
:1054D0008EAF2397AD89BE892796BFAFAEAF279712
:1054E00094E0692E712C1EAA1DAAEDADFEAD389771
:1054F000AF96FFAFEEAFAF97A9ADBAAD2D913D918D
:105500004D915C912796EEADFFAD2797608171813B
:10551000828193810E94F5726B017C0188E1482EA3
:1055200085E0582E4618570801E010E0D2018D9012
:105530009D90AD90BD902D01FD013497AD96FFAFCC
:10554000EEAFAD97F301EA0FFB1FAF962EAD3FAD67
:10555000AF97E20FF31F2081318142815381C70150
:10556000B6010E94EA709B01AC01C501B4010E9422
:105570001472AD96AEADBFADAD976D937D938D9327
:105580009C9313970F5F1F4FAB96EEADFFADAB979C
:10559000E017F1075CF62396AEADBFAD23978D9073
:1055A0009D90AD90BD902396BFAFAEAF23978D0178
:1055B00004501109ED89FE8920A931A942A953A9F6
:1055C000C701B6010E94EA709B01AC01C501B4019C
:1055D0000E941472D8016D937D938D939C931397C1
:1055E000EDA9FEA93196FEABEDAB27962EAD3FADF2
:1055F0002797245F3F4F27963FAF2EAF27973CE07A
:10560000631A71084D8D5E8D4E175F0709F074CFD8
:105610008DAD9EAD0C979EAF8DAFAD89BE891497B1
:10562000BE8BAD8BE9ADFAAD7097FAAFE9AF413003
:10563000510509F0FCC220911405309115054091E7
:1056400016055091170560914405709145058091AC
:105650004605909147050E94F5726B017C01C0924E
:105660003805D0923905E0923A05F0923B058090DA
:10567000480590904905A0904A05B0904B052091AF
:1056800020053091210540912205509123050E946B
:10569000EA709B01AC01C501B4010E941472209113
:1056A00024053091250540912605509127050E943B
:1056B000F5724B015C0180923C0590923D05A092F1
:1056C0003E05B0923F0540904C0550904D056090CE
:1056D0004E0570904F0520912C0530912D0540917D
:1056E0002E0550912F05C701B6010E94EA709B015B
:1056F000AC01C301B2010E9414722B013C01209144
:105700003005309131054091320550913305C50186
:10571000B4010E94EA709B01AC01C301B2010E9476
:105720001472209134053091350540913605509121
:1057300037050E94F5722B013C01409240055092C2
:1057400041056092420570924305A701960169A147
:105750007AA18BA19CA10E9415726B017C01C09261
:10576000F404D092F504E092F604F092F7046996FE
:105770002CAD3DAD4EAD5FAD6997C501B4010E9442
:1057800015725B018C0129853D85A1010E94857000
:1057900087FF03C0A984BD848101C501D80180931E
:1057A000000590930105A0930205B0930305A301A2
:1057B0009201A1966CAD7DAD8EAD9FADA1970E947B
:1057C00015725B018C0129853D85A1010E948570C0
:1057D00087FF03C0A984BD848101C501D8018093DE
:1057E000040590930505A0930605B09307058090E6
:1057F000080590900905A0900A05B0900B05A70137
:105800009601C501B4010E94147260930C05709357
:105810000D0580930E0590930F05A5019401C70116
:10582000B6010E9415726093100570931105809364
:105830001205909313052E96FFAD2E97F1502E96DC
:10584000FFAF2E97F111CDC839C01092F30457C89D
:105850002FE632E143E85AE3C501B4010E948570A6
:1058600087FFA1CC20E030E0A9016D897E898F8976
:10587000988D0E94857087FFC2C12FE632E143E810
:105880005AEB6D897E898F89988D0E94187418163D
:105890000CF089CC20E030E0A901C301B2010E94E4
:1058A000857087FFB9C12FE632E143E85AEBC301A7
:1058B000B2010E94187418160CF075CC2D962CAD00
:1058C0003DAD4EAD5FAD2D97209350053093510502
:1058D000409352055093530565968CAD9DADAEAD8A
:1058E000BFAD65978093540590935505A0935605D9
:1058F000B0935705A5962CAD3DAD4EAD5FADA597C8
:1059000069897A898B899C890E94EA702B013C0104
:10591000409258055092590560925A0570925B0565
:10592000A9962CAD3DAD4EAD5FADA99769897A8939
:105930008B899C890E94EA70698F7A8F8B8F9C8FEC
:1059400060935C0570935D0580935E0590935F05A1
:105950008090000590900105A0900205B09003058D
:10596000A30192016DA17EA18FA198A50E9414723E
:10597000A50194010E94157229A53AA54BA55CA525
:105980000E94F5726B017C01C092F804D092F90478
:10599000E092FA04F092FB04209104053091050591
:1059A00040910605509107052D8B3E8B4F8B588FEC
:1059B000298D3A8D4B8D5C8D6DA17EA18FA198A50F
:1059C0000E9414722D893E894F89588D0E9415724C
:1059D0002DA53EA54FA558A90E94F572698B7A8B1B
:1059E0008B8B9C8B6093FC047093FD048093FE046E
:1059F0009093FF04C701B6010E94CA7269A37AA3FB
:105A00008BA39CA360938C0570938D0580938E056A
:105A100090938F0569897A898B899C890E94CA72C3
:105A200069AB7AAB8BAB9CAB6093880570938905AF
:105A300080938A0590938B05A50194016DA17EA1A9
:105A40008FA198A50E941572A30192010E94147261
:105A50004B015C0129A53AA54BA55CA5CA01B9017A
:105A60000E94EA702B013C01A5019401C501B4011B
:105A70000E94EA709B01AC01C301B2010E94157241
:105A80000E944D744B015C0129853D85A101C70130
:105A9000B6010E94EA709B01AC01C501B4010E94ED
:105AA00014726B017C0129853D85A10169A17AA150
:105AB0008BA19CA10E94EA709B01AC01C701B601B9
:105AC0000E9415726B017C012D893E894F89588D8A
:105AD0006DA17EA18FA198A50E941572298D3A8D86
